{"abi":[{"inputs":[],"stateMutability":"nonpayable","type":"constructor"},{"anonymous":false,"inputs":[{"indexed":true,"internalType":"contract GambleGame","name":"newGamble","type":"address"}],"name":"eCreateGamble","type":"event"},{"inputs":[{"internalType":"string","name":"firstTeam","type":"string"},{"internalType":"string","name":"secondTeam","type":"string"},{"internalType":"string","name":"gambleDesc","type":"string"},{"internalType":"string","name":"gambleType","type":"string"},{"internalType":"string","name":"gambleSubType","type":"string"}],"name":"createGambleGame","outputs":[],"stateMutability":"nonpayable","type":"function"},{"inputs":[{"internalType":"uint256","name":"","type":"uint256"}],"name":"deployedGambleGames","outputs":[{"internalType":"contract GambleGame","name":"","type":"address"}],"stateMutability":"view","type":"function"},{"inputs":[],"name":"getContractBalance","outputs":[{"internalType":"uint256","name":"","type":"uint256"}],"stateMutability":"view","type":"function"},{"inputs":[],"name":"getDeployedGambleGames","outputs":[{"internalType":"contract GambleGame[]","name":"","type":"address[]"}],"stateMutability":"view","type":"function"},{"inputs":[],"name":"owner","outputs":[{"internalType":"address payable","name":"","type":"address"}],"stateMutability":"view","type":"function"},{"inputs":[],"name":"renounceOwnership","outputs":[],"stateMutability":"nonpayable","type":"function"},{"inputs":[{"internalType":"address payable","name":"newOwner","type":"address"}],"name":"transferOwnership","outputs":[],"stateMutability":"nonpayable","type":"function"},{"inputs":[],"name":"version","outputs":[{"internalType":"string","name":"","type":"string"}],"stateMutability":"view","type":"function"}],"devdoc":{"kind":"dev","methods":{},"version":1},"evm":{"assembly":"    /* \"GambleGame.sol\":72:2437  contract GambleGameFactory {\r... */\n  mstore(0x40, 0x80)\n    /* \"GambleGame.sol\":291:379  constructor() {\r... */\n  callvalue\n  dup1\n  iszero\n  tag_1\n  jumpi\n  0x00\n  dup1\n  revert\ntag_1:\n  pop\n    /* \"GambleGame.sol\":332:342  msg.sender */\n  caller\n    /* \"GambleGame.sol\":316:321  owner */\n  0x01\n  0x00\n    /* \"GambleGame.sol\":316:343  owner = payable(msg.sender) */\n  0x0100\n  exp\n  dup2\n  sload\n  dup2\n  0xffffffffffffffffffffffffffffffffffffffff\n  mul\n  not\n  and\n  swap1\n  dup4\n  0xffffffffffffffffffffffffffffffffffffffff\n  and\n  mul\n  or\n  swap1\n  sstore\n  pop\n    /* \"GambleGame.sol\":354:371  version = \"0.0.1\" */\n  mload(0x40)\n  dup1\n  0x40\n  add\n  0x40\n  mstore\n  dup1\n  0x05\n  dup2\n  mstore\n  0x20\n  add\n  0x302e302e31000000000000000000000000000000000000000000000000000000\n  dup2\n  mstore\n  pop\n    /* \"GambleGame.sol\":354:361  version */\n  0x02\n    /* \"GambleGame.sol\":354:371  version = \"0.0.1\" */\n  swap1\n  dup1\n  mload\n  swap1\n  0x20\n  add\n  swap1\n  tag_4\n  swap3\n  swap2\n  swap1\n  tag_5\n  jump\t// in\ntag_4:\n  pop\n    /* \"GambleGame.sol\":72:2437  contract GambleGameFactory {\r... */\n  jump(tag_6)\ntag_5:\n  dup3\n  dup1\n  sload\n  tag_7\n  swap1\n  tag_8\n  jump\t// in\ntag_7:\n  swap1\n  0x00\n  mstore\n  keccak256(0x00, 0x20)\n  swap1\n  0x1f\n  add\n  0x20\n  swap1\n  div\n  dup2\n  add\n  swap3\n  dup3\n  tag_10\n  jumpi\n  0x00\n  dup6\n  sstore\n  jump(tag_9)\ntag_10:\n  dup3\n  0x1f\n  lt\n  tag_11\n  jumpi\n  dup1\n  mload\n  not(0xff)\n  and\n  dup4\n  dup1\n  add\n  or\n  dup6\n  sstore\n  jump(tag_9)\ntag_11:\n  dup3\n  dup1\n  add\n  0x01\n  add\n  dup6\n  sstore\n  dup3\n  iszero\n  tag_9\n  jumpi\n  swap2\n  dup3\n  add\ntag_12:\n  dup3\n  dup2\n  gt\n  iszero\n  tag_13\n  jumpi\n  dup3\n  mload\n  dup3\n  sstore\n  swap2\n  0x20\n  add\n  swap2\n  swap1\n  0x01\n  add\n  swap1\n  jump(tag_12)\ntag_13:\ntag_9:\n  pop\n  swap1\n  pop\n  tag_14\n  swap2\n  swap1\n  tag_15\n  jump\t// in\ntag_14:\n  pop\n  swap1\n  jump\t// out\ntag_15:\ntag_16:\n  dup1\n  dup3\n  gt\n  iszero\n  tag_17\n  jumpi\n  0x00\n  dup2\n  0x00\n  swap1\n  sstore\n  pop\n  0x01\n  add\n  jump(tag_16)\ntag_17:\n  pop\n  swap1\n  jump\t// out\n    /* \"#utility.yul\":7:327   */\ntag_8:\n  0x00\n    /* \"#utility.yul\":88:89   */\n  0x02\n    /* \"#utility.yul\":82:86   */\n  dup3\n    /* \"#utility.yul\":78:90   */\n  div\n    /* \"#utility.yul\":68:90   */\n  swap1\n  pop\n    /* \"#utility.yul\":135:136   */\n  0x01\n    /* \"#utility.yul\":129:133   */\n  dup3\n    /* \"#utility.yul\":125:137   */\n  and\n    /* \"#utility.yul\":156:174   */\n  dup1\n    /* \"#utility.yul\":146:148   */\n  tag_20\n  jumpi\n    /* \"#utility.yul\":212:216   */\n  0x7f\n    /* \"#utility.yul\":204:210   */\n  dup3\n    /* \"#utility.yul\":200:217   */\n  and\n    /* \"#utility.yul\":190:217   */\n  swap2\n  pop\n    /* \"#utility.yul\":146:148   */\ntag_20:\n    /* \"#utility.yul\":274:276   */\n  0x20\n    /* \"#utility.yul\":266:272   */\n  dup3\n    /* \"#utility.yul\":263:277   */\n  lt\n    /* \"#utility.yul\":243:261   */\n  dup2\n    /* \"#utility.yul\":240:278   */\n  eq\n    /* \"#utility.yul\":237:239   */\n  iszero\n  tag_21\n  jumpi\n    /* \"#utility.yul\":293:311   */\n  tag_22\n  tag_23\n  jump\t// in\ntag_22:\n    /* \"#utility.yul\":237:239   */\ntag_21:\n    /* \"#utility.yul\":58:327   */\n  pop\n  swap2\n  swap1\n  pop\n  jump\t// out\n    /* \"#utility.yul\":333:513   */\ntag_23:\n    /* \"#utility.yul\":381:458   */\n  0x4e487b7100000000000000000000000000000000000000000000000000000000\n    /* \"#utility.yul\":378:379   */\n  0x00\n    /* \"#utility.yul\":371:459   */\n  mstore\n    /* \"#utility.yul\":478:482   */\n  0x22\n    /* \"#utility.yul\":475:476   */\n  0x04\n    /* \"#utility.yul\":468:483   */\n  mstore\n    /* \"#utility.yul\":502:506   */\n  0x24\n    /* \"#utility.yul\":499:500   */\n  0x00\n    /* \"#utility.yul\":492:507   */\n  revert\n    /* \"GambleGame.sol\":72:2437  contract GambleGameFactory {\r... */\ntag_6:\n  dataSize(sub_0)\n  dup1\n  dataOffset(sub_0)\n  0x00\n  codecopy\n  0x00\n  return\nstop\n\nsub_0: assembly {\n        /* \"GambleGame.sol\":72:2437  contract GambleGameFactory {\r... */\n      mstore(0x40, 0x80)\n      callvalue\n      dup1\n      iszero\n      tag_1\n      jumpi\n      0x00\n      dup1\n      revert\n    tag_1:\n      pop\n      jumpi(tag_2, lt(calldatasize, 0x04))\n      shr(0xe0, calldataload(0x00))\n      dup1\n      0x8da5cb5b\n      gt\n      tag_11\n      jumpi\n      dup1\n      0x8da5cb5b\n      eq\n      tag_7\n      jumpi\n      dup1\n      0xd78d0f9f\n      eq\n      tag_8\n      jumpi\n      dup1\n      0xf2fde38b\n      eq\n      tag_9\n      jumpi\n      dup1\n      0xfdf13c8e\n      eq\n      tag_10\n      jumpi\n      jump(tag_2)\n    tag_11:\n      dup1\n      0x1b046afe\n      eq\n      tag_3\n      jumpi\n      dup1\n      0x54fd4d50\n      eq\n      tag_4\n      jumpi\n      dup1\n      0x6f9fb98a\n      eq\n      tag_5\n      jumpi\n      dup1\n      0x715018a6\n      eq\n      tag_6\n      jumpi\n    tag_2:\n      0x00\n      dup1\n      revert\n        /* \"GambleGame.sol\":1023:2193  function createGambleGame( string memory firstTeam, string memory secondTeam, string memory gambleDesc, string memory gambleType, string memory gambleSubType ) public {\r... */\n    tag_3:\n      tag_12\n      0x04\n      dup1\n      calldatasize\n      sub\n      dup2\n      add\n      swap1\n      tag_13\n      swap2\n      swap1\n      tag_14\n      jump\t// in\n    tag_13:\n      tag_15\n      jump\t// in\n    tag_12:\n      stop\n        /* \"GambleGame.sol\":189:210  string public version */\n    tag_4:\n      tag_16\n      tag_17\n      jump\t// in\n    tag_16:\n      mload(0x40)\n      tag_18\n      swap2\n      swap1\n      tag_19\n      jump\t// in\n    tag_18:\n      mload(0x40)\n      dup1\n      swap2\n      sub\n      swap1\n      return\n        /* \"GambleGame.sol\":2330:2434  function getContractBalance() view public returns (uint) {\r... */\n    tag_5:\n      tag_20\n      tag_21\n      jump\t// in\n    tag_20:\n      mload(0x40)\n      tag_22\n      swap2\n      swap1\n      tag_23\n      jump\t// in\n    tag_22:\n      mload(0x40)\n      dup1\n      swap2\n      sub\n      swap1\n      return\n        /* \"GambleGame.sol\":572:684  function renounceOwnership() public virtual onlyOwner {\r... */\n    tag_6:\n      tag_24\n      tag_25\n      jump\t// in\n    tag_24:\n      stop\n        /* \"GambleGame.sol\":154:182  address payable public owner */\n    tag_7:\n      tag_26\n      tag_27\n      jump\t// in\n    tag_26:\n      mload(0x40)\n      tag_28\n      swap2\n      swap1\n      tag_29\n      jump\t// in\n    tag_28:\n      mload(0x40)\n      dup1\n      swap2\n      sub\n      swap1\n      return\n        /* \"GambleGame.sol\":2201:2322  function getDeployedGambleGames() public view returns (GambleGame[] memory) {\r... */\n    tag_8:\n      tag_30\n      tag_31\n      jump\t// in\n    tag_30:\n      mload(0x40)\n      tag_32\n      swap2\n      swap1\n      tag_33\n      jump\t// in\n    tag_32:\n      mload(0x40)\n      dup1\n      swap2\n      sub\n      swap1\n      return\n        /* \"GambleGame.sol\":692:901  function transferOwnership(address payable newOwner) public virtual onlyOwner {\r... */\n    tag_9:\n      tag_34\n      0x04\n      dup1\n      calldatasize\n      sub\n      dup2\n      add\n      swap1\n      tag_35\n      swap2\n      swap1\n      tag_36\n      jump\t// in\n    tag_35:\n      tag_37\n      jump\t// in\n    tag_34:\n      stop\n        /* \"GambleGame.sol\":108:147  GambleGame[] public deployedGambleGames */\n    tag_10:\n      tag_38\n      0x04\n      dup1\n      calldatasize\n      sub\n      dup2\n      add\n      swap1\n      tag_39\n      swap2\n      swap1\n      tag_40\n      jump\t// in\n    tag_39:\n      tag_41\n      jump\t// in\n    tag_38:\n      mload(0x40)\n      tag_42\n      swap2\n      swap1\n      tag_43\n      jump\t// in\n    tag_42:\n      mload(0x40)\n      dup1\n      swap2\n      sub\n      swap1\n      return\n        /* \"GambleGame.sol\":1023:2193  function createGambleGame( string memory firstTeam, string memory secondTeam, string memory gambleDesc, string memory gambleType, string memory gambleSubType ) public {\r... */\n    tag_15:\n        /* \"GambleGame.sol\":1236:1237  0 */\n      0x00\n        /* \"GambleGame.sol\":1216:1225  firstTeam */\n      dup6\n        /* \"GambleGame.sol\":1210:1233  bytes(firstTeam).length */\n      mload\n        /* \"GambleGame.sol\":1210:1237  bytes(firstTeam).length > 0 */\n      gt\n        /* \"GambleGame.sol\":1210:1282  bytes(firstTeam).length > 0\r... */\n      dup1\n      iszero\n      tag_45\n      jumpi\n      pop\n        /* \"GambleGame.sol\":1281:1282  0 */\n      0x00\n        /* \"GambleGame.sol\":1260:1270  secondTeam */\n      dup5\n        /* \"GambleGame.sol\":1254:1278  bytes(secondTeam).length */\n      mload\n        /* \"GambleGame.sol\":1254:1282  bytes(secondTeam).length > 0 */\n      gt\n        /* \"GambleGame.sol\":1210:1282  bytes(firstTeam).length > 0\r... */\n    tag_45:\n        /* \"GambleGame.sol\":1210:1370  bytes(firstTeam).length > 0\r... */\n      dup1\n      iszero\n      tag_46\n      jumpi\n      pop\n        /* \"GambleGame.sol\":1358:1368  secondTeam */\n      dup4\n        /* \"GambleGame.sol\":1347:1369  abi.encode(secondTeam) */\n      add(0x20, mload(0x40))\n      tag_47\n      swap2\n      swap1\n      tag_19\n      jump\t// in\n    tag_47:\n      mload(0x40)\n      0x20\n      dup2\n      dup4\n      sub\n      sub\n      dup2\n      mstore\n      swap1\n      0x40\n      mstore\n        /* \"GambleGame.sol\":1337:1370  keccak256(abi.encode(secondTeam)) */\n      dup1\n      mload\n      swap1\n      0x20\n      add\n      keccak256\n        /* \"GambleGame.sol\":1322:1331  firstTeam */\n      dup6\n        /* \"GambleGame.sol\":1311:1332  abi.encode(firstTeam) */\n      add(0x20, mload(0x40))\n      tag_48\n      swap2\n      swap1\n      tag_19\n      jump\t// in\n    tag_48:\n      mload(0x40)\n      0x20\n      dup2\n      dup4\n      sub\n      sub\n      dup2\n      mstore\n      swap1\n      0x40\n      mstore\n        /* \"GambleGame.sol\":1301:1333  keccak256(abi.encode(firstTeam)) */\n      dup1\n      mload\n      swap1\n      0x20\n      add\n      keccak256\n        /* \"GambleGame.sol\":1301:1370  keccak256(abi.encode(firstTeam)) != keccak256(abi.encode(secondTeam)) */\n      eq\n      iszero\n        /* \"GambleGame.sol\":1210:1370  bytes(firstTeam).length > 0\r... */\n    tag_46:\n        /* \"GambleGame.sol\":1210:1415  bytes(firstTeam).length > 0\r... */\n      dup1\n      iszero\n      tag_49\n      jumpi\n      pop\n        /* \"GambleGame.sol\":1414:1415  0 */\n      0x00\n        /* \"GambleGame.sol\":1393:1403  gambleDesc */\n      dup4\n        /* \"GambleGame.sol\":1387:1411  bytes(gambleDesc).length */\n      mload\n        /* \"GambleGame.sol\":1387:1415  bytes(gambleDesc).length > 0 */\n      gt\n        /* \"GambleGame.sol\":1210:1415  bytes(firstTeam).length > 0\r... */\n    tag_49:\n        /* \"GambleGame.sol\":1201:1506  require( bytes(firstTeam).length > 0\r... */\n      tag_50\n      jumpi\n      mload(0x40)\n      0x08c379a000000000000000000000000000000000000000000000000000000000\n      dup2\n      mstore\n      0x04\n      add\n      tag_51\n      swap1\n      tag_52\n      jump\t// in\n    tag_51:\n      mload(0x40)\n      dup1\n      swap2\n      sub\n      swap1\n      revert\n    tag_50:\n        /* \"GambleGame.sol\":1552:1554  31 */\n      0x1f\n        /* \"GambleGame.sol\":1532:1541  firstTeam */\n      dup6\n        /* \"GambleGame.sol\":1526:1549  bytes(firstTeam).length */\n      mload\n        /* \"GambleGame.sol\":1526:1554  bytes(firstTeam).length < 31 */\n      lt\n        /* \"GambleGame.sol\":1526:1600  bytes(firstTeam).length < 31\r... */\n      dup1\n      iszero\n      tag_53\n      jumpi\n      pop\n        /* \"GambleGame.sol\":1598:1600  31 */\n      0x1f\n        /* \"GambleGame.sol\":1577:1587  secondTeam */\n      dup5\n        /* \"GambleGame.sol\":1571:1595  bytes(secondTeam).length */\n      mload\n        /* \"GambleGame.sol\":1571:1600  bytes(secondTeam).length < 31 */\n      lt\n        /* \"GambleGame.sol\":1526:1600  bytes(firstTeam).length < 31\r... */\n    tag_53:\n        /* \"GambleGame.sol\":1526:1649  bytes(firstTeam).length < 31\r... */\n      dup1\n      iszero\n      tag_54\n      jumpi\n      pop\n        /* \"GambleGame.sol\":1646:1649  301 */\n      0x012d\n        /* \"GambleGame.sol\":1625:1635  gambleDesc */\n      dup4\n        /* \"GambleGame.sol\":1619:1643  bytes(gambleDesc).length */\n      mload\n        /* \"GambleGame.sol\":1619:1649  bytes(gambleDesc).length < 301 */\n      lt\n        /* \"GambleGame.sol\":1526:1649  bytes(firstTeam).length < 31\r... */\n    tag_54:\n        /* \"GambleGame.sol\":1517:1776  require( bytes(firstTeam).length < 31\r... */\n      tag_55\n      jumpi\n      mload(0x40)\n      0x08c379a000000000000000000000000000000000000000000000000000000000\n      dup2\n      mstore\n      0x04\n      add\n      tag_56\n      swap1\n      tag_57\n      jump\t// in\n    tag_56:\n      mload(0x40)\n      dup1\n      swap2\n      sub\n      swap1\n      revert\n    tag_55:\n        /* \"GambleGame.sol\":1825:1827  31 */\n      0x1f\n        /* \"GambleGame.sol\":1804:1814  gambleType */\n      dup3\n        /* \"GambleGame.sol\":1798:1822  bytes(gambleType).length */\n      mload\n        /* \"GambleGame.sol\":1798:1827  bytes(gambleType).length < 31 */\n      lt\n        /* \"GambleGame.sol\":1798:1876  bytes(gambleType).length < 31\r... */\n      dup1\n      iszero\n      tag_58\n      jumpi\n      pop\n        /* \"GambleGame.sol\":1874:1876  31 */\n      0x1f\n        /* \"GambleGame.sol\":1850:1863  gambleSubType */\n      dup2\n        /* \"GambleGame.sol\":1844:1871  bytes(gambleSubType).length */\n      mload\n        /* \"GambleGame.sol\":1844:1876  bytes(gambleSubType).length < 31 */\n      lt\n        /* \"GambleGame.sol\":1798:1876  bytes(gambleType).length < 31\r... */\n    tag_58:\n        /* \"GambleGame.sol\":1789:1943  require( bytes(gambleType).length < 31\r... */\n      tag_59\n      jumpi\n      mload(0x40)\n      0x08c379a000000000000000000000000000000000000000000000000000000000\n      dup2\n      mstore\n      0x04\n      add\n      tag_60\n      swap1\n      tag_61\n      jump\t// in\n    tag_60:\n      mload(0x40)\n      dup1\n      swap2\n      sub\n      swap1\n      revert\n    tag_59:\n        /* \"GambleGame.sol\":1956:1980  GambleGame newGambleGame */\n      0x00\n        /* \"GambleGame.sol\":1999:2009  msg.sender */\n      caller\n        /* \"GambleGame.sol\":2011:2020  firstTeam */\n      dup7\n        /* \"GambleGame.sol\":2022:2032  secondTeam */\n      dup7\n        /* \"GambleGame.sol\":2034:2044  gambleDesc */\n      dup7\n        /* \"GambleGame.sol\":2046:2056  gambleType */\n      dup7\n        /* \"GambleGame.sol\":2058:2071  gambleSubType */\n      dup7\n        /* \"GambleGame.sol\":2073:2078  owner */\n      0x01\n      0x00\n      swap1\n      sload\n      swap1\n      0x0100\n      exp\n      swap1\n      div\n      0xffffffffffffffffffffffffffffffffffffffff\n      and\n        /* \"GambleGame.sol\":2080:2087  version */\n      0x02\n        /* \"GambleGame.sol\":1983:2089  new GambleGame( msg.sender, firstTeam, secondTeam, gambleDesc, gambleType, gambleSubType, owner, version ) */\n      mload(0x40)\n      tag_62\n      swap1\n      tag_63\n      jump\t// in\n    tag_62:\n      tag_64\n      swap9\n      swap8\n      swap7\n      swap6\n      swap5\n      swap4\n      swap3\n      swap2\n      swap1\n      tag_65\n      jump\t// in\n    tag_64:\n      mload(0x40)\n      dup1\n      swap2\n      sub\n      swap1\n      0x00\n      create\n      dup1\n      iszero\n      dup1\n      iszero\n      tag_66\n      jumpi\n      returndatasize\n      0x00\n      dup1\n      returndatacopy\n      revert(0x00, returndatasize)\n    tag_66:\n      pop\n        /* \"GambleGame.sol\":1956:2089  GambleGame newGambleGame = new GambleGame( msg.sender, firstTeam, secondTeam, gambleDesc, gambleType, gambleSubType, owner, version ) */\n      swap1\n      pop\n        /* \"GambleGame.sol\":2120:2133  newGambleGame */\n      dup1\n        /* \"GambleGame.sol\":2105:2135  eCreateGamble( newGambleGame ) */\n      0xffffffffffffffffffffffffffffffffffffffff\n      and\n      0x4807f95fc145722c41eff243080a4915925ec88acf2296fd1445632b42dc8887\n      mload(0x40)\n      mload(0x40)\n      dup1\n      swap2\n      sub\n      swap1\n      log2\n        /* \"GambleGame.sol\":2146:2165  deployedGambleGames */\n      0x00\n        /* \"GambleGame.sol\":2171:2184  newGambleGame */\n      dup2\n        /* \"GambleGame.sol\":2146:2185  deployedGambleGames.push(newGambleGame) */\n      swap1\n      dup1\n      0x01\n      dup2\n      sload\n      add\n      dup1\n      dup3\n      sstore\n      dup1\n      swap2\n      pop\n      pop\n      0x01\n      swap1\n      sub\n      swap1\n      0x00\n      mstore\n      keccak256(0x00, 0x20)\n      add\n      0x00\n      swap1\n      swap2\n      swap1\n      swap2\n      swap1\n      swap2\n      0x0100\n      exp\n      dup2\n      sload\n      dup2\n      0xffffffffffffffffffffffffffffffffffffffff\n      mul\n      not\n      and\n      swap1\n      dup4\n      0xffffffffffffffffffffffffffffffffffffffff\n      and\n      mul\n      or\n      swap1\n      sstore\n      pop\n        /* \"GambleGame.sol\":1023:2193  function createGambleGame( string memory firstTeam, string memory secondTeam, string memory gambleDesc, string memory gambleType, string memory gambleSubType ) public {\r... */\n      pop\n      pop\n      pop\n      pop\n      pop\n      pop\n      jump\t// out\n        /* \"GambleGame.sol\":189:210  string public version */\n    tag_17:\n      0x02\n      dup1\n      sload\n      tag_68\n      swap1\n      tag_69\n      jump\t// in\n    tag_68:\n      dup1\n      0x1f\n      add\n      0x20\n      dup1\n      swap2\n      div\n      mul\n      0x20\n      add\n      mload(0x40)\n      swap1\n      dup2\n      add\n      0x40\n      mstore\n      dup1\n      swap3\n      swap2\n      swap1\n      dup2\n      dup2\n      mstore\n      0x20\n      add\n      dup3\n      dup1\n      sload\n      tag_70\n      swap1\n      tag_69\n      jump\t// in\n    tag_70:\n      dup1\n      iszero\n      tag_71\n      jumpi\n      dup1\n      0x1f\n      lt\n      tag_72\n      jumpi\n      0x0100\n      dup1\n      dup4\n      sload\n      div\n      mul\n      dup4\n      mstore\n      swap2\n      0x20\n      add\n      swap2\n      jump(tag_71)\n    tag_72:\n      dup3\n      add\n      swap2\n      swap1\n      0x00\n      mstore\n      keccak256(0x00, 0x20)\n      swap1\n    tag_73:\n      dup2\n      sload\n      dup2\n      mstore\n      swap1\n      0x01\n      add\n      swap1\n      0x20\n      add\n      dup1\n      dup4\n      gt\n      tag_73\n      jumpi\n      dup3\n      swap1\n      sub\n      0x1f\n      and\n      dup3\n      add\n      swap2\n    tag_71:\n      pop\n      pop\n      pop\n      pop\n      pop\n      dup2\n      jump\t// out\n        /* \"GambleGame.sol\":2330:2434  function getContractBalance() view public returns (uint) {\r... */\n    tag_21:\n        /* \"GambleGame.sol\":2381:2385  uint */\n      0x00\n        /* \"GambleGame.sol\":2405:2426  address(this).balance */\n      selfbalance\n        /* \"GambleGame.sol\":2398:2426  return address(this).balance */\n      swap1\n      pop\n        /* \"GambleGame.sol\":2330:2434  function getContractBalance() view public returns (uint) {\r... */\n      swap1\n      jump\t// out\n        /* \"GambleGame.sol\":572:684  function renounceOwnership() public virtual onlyOwner {\r... */\n    tag_25:\n        /* \"GambleGame.sol\":456:461  owner */\n      0x01\n      0x00\n      swap1\n      sload\n      swap1\n      0x0100\n      exp\n      swap1\n      div\n      0xffffffffffffffffffffffffffffffffffffffff\n      and\n        /* \"GambleGame.sol\":442:461  msg.sender == owner */\n      0xffffffffffffffffffffffffffffffffffffffff\n      and\n        /* \"GambleGame.sol\":442:452  msg.sender */\n      caller\n        /* \"GambleGame.sol\":442:461  msg.sender == owner */\n      0xffffffffffffffffffffffffffffffffffffffff\n      and\n      eq\n        /* \"GambleGame.sol\":419:544  require( \r... */\n      tag_76\n      jumpi\n      mload(0x40)\n      0x08c379a000000000000000000000000000000000000000000000000000000000\n      dup2\n      mstore\n      0x04\n      add\n      tag_77\n      swap1\n      tag_78\n      jump\t// in\n    tag_77:\n      mload(0x40)\n      dup1\n      swap2\n      sub\n      swap1\n      revert\n    tag_76:\n        /* \"GambleGame.sol\":637:676  _transferOwnership(payable(address(0))) */\n      tag_80\n        /* \"GambleGame.sol\":672:673  0 */\n      0x00\n        /* \"GambleGame.sol\":637:655  _transferOwnership */\n      tag_81\n        /* \"GambleGame.sol\":637:676  _transferOwnership(payable(address(0))) */\n      jump\t// in\n    tag_80:\n        /* \"GambleGame.sol\":572:684  function renounceOwnership() public virtual onlyOwner {\r... */\n      jump\t// out\n        /* \"GambleGame.sol\":154:182  address payable public owner */\n    tag_27:\n      0x01\n      0x00\n      swap1\n      sload\n      swap1\n      0x0100\n      exp\n      swap1\n      div\n      0xffffffffffffffffffffffffffffffffffffffff\n      and\n      dup2\n      jump\t// out\n        /* \"GambleGame.sol\":2201:2322  function getDeployedGambleGames() public view returns (GambleGame[] memory) {\r... */\n    tag_31:\n        /* \"GambleGame.sol\":2256:2275  GambleGame[] memory */\n      0x60\n        /* \"GambleGame.sol\":2295:2314  deployedGambleGames */\n      0x00\n        /* \"GambleGame.sol\":2288:2314  return deployedGambleGames */\n      dup1\n      sload\n      dup1\n      0x20\n      mul\n      0x20\n      add\n      mload(0x40)\n      swap1\n      dup2\n      add\n      0x40\n      mstore\n      dup1\n      swap3\n      swap2\n      swap1\n      dup2\n      dup2\n      mstore\n      0x20\n      add\n      dup3\n      dup1\n      sload\n      dup1\n      iszero\n      tag_83\n      jumpi\n      0x20\n      mul\n      dup3\n      add\n      swap2\n      swap1\n      0x00\n      mstore\n      keccak256(0x00, 0x20)\n      swap1\n    tag_84:\n      dup2\n      0x00\n      swap1\n      sload\n      swap1\n      0x0100\n      exp\n      swap1\n      div\n      0xffffffffffffffffffffffffffffffffffffffff\n      and\n      0xffffffffffffffffffffffffffffffffffffffff\n      and\n      dup2\n      mstore\n      0x20\n      add\n      swap1\n      0x01\n      add\n      swap1\n      dup1\n      dup4\n      gt\n      tag_84\n      jumpi\n    tag_83:\n      pop\n      pop\n      pop\n      pop\n      pop\n      swap1\n      pop\n        /* \"GambleGame.sol\":2201:2322  function getDeployedGambleGames() public view returns (GambleGame[] memory) {\r... */\n      swap1\n      jump\t// out\n        /* \"GambleGame.sol\":692:901  function transferOwnership(address payable newOwner) public virtual onlyOwner {\r... */\n    tag_37:\n        /* \"GambleGame.sol\":456:461  owner */\n      0x01\n      0x00\n      swap1\n      sload\n      swap1\n      0x0100\n      exp\n      swap1\n      div\n      0xffffffffffffffffffffffffffffffffffffffff\n      and\n        /* \"GambleGame.sol\":442:461  msg.sender == owner */\n      0xffffffffffffffffffffffffffffffffffffffff\n      and\n        /* \"GambleGame.sol\":442:452  msg.sender */\n      caller\n        /* \"GambleGame.sol\":442:461  msg.sender == owner */\n      0xffffffffffffffffffffffffffffffffffffffff\n      and\n      eq\n        /* \"GambleGame.sol\":419:544  require( \r... */\n      tag_86\n      jumpi\n      mload(0x40)\n      0x08c379a000000000000000000000000000000000000000000000000000000000\n      dup2\n      mstore\n      0x04\n      add\n      tag_87\n      swap1\n      tag_78\n      jump\t// in\n    tag_87:\n      mload(0x40)\n      dup1\n      swap2\n      sub\n      swap1\n      revert\n    tag_86:\n        /* \"GambleGame.sol\":809:810  0 */\n      0x00\n        /* \"GambleGame.sol\":789:811  newOwner != address(0) */\n      0xffffffffffffffffffffffffffffffffffffffff\n      and\n        /* \"GambleGame.sol\":789:797  newOwner */\n      dup2\n        /* \"GambleGame.sol\":789:811  newOwner != address(0) */\n      0xffffffffffffffffffffffffffffffffffffffff\n      and\n      eq\n      iszero\n        /* \"GambleGame.sol\":781:854  require(newOwner != address(0), \"Ownable: new owner is the zero address\") */\n      tag_89\n      jumpi\n      mload(0x40)\n      0x08c379a000000000000000000000000000000000000000000000000000000000\n      dup2\n      mstore\n      0x04\n      add\n      tag_90\n      swap1\n      tag_91\n      jump\t// in\n    tag_90:\n      mload(0x40)\n      dup1\n      swap2\n      sub\n      swap1\n      revert\n    tag_89:\n        /* \"GambleGame.sol\":865:893  _transferOwnership(newOwner) */\n      tag_92\n        /* \"GambleGame.sol\":884:892  newOwner */\n      dup2\n        /* \"GambleGame.sol\":865:883  _transferOwnership */\n      tag_81\n        /* \"GambleGame.sol\":865:893  _transferOwnership(newOwner) */\n      jump\t// in\n    tag_92:\n        /* \"GambleGame.sol\":692:901  function transferOwnership(address payable newOwner) public virtual onlyOwner {\r... */\n      pop\n      jump\t// out\n        /* \"GambleGame.sol\":108:147  GambleGame[] public deployedGambleGames */\n    tag_41:\n      0x00\n      dup2\n      dup2\n      sload\n      dup2\n      lt\n      tag_93\n      jumpi\n      0x00\n      dup1\n      revert\n    tag_93:\n      swap1\n      0x00\n      mstore\n      keccak256(0x00, 0x20)\n      add\n      0x00\n      swap2\n      pop\n      sload\n      swap1\n      0x0100\n      exp\n      swap1\n      div\n      0xffffffffffffffffffffffffffffffffffffffff\n      and\n      dup2\n      jump\t// out\n        /* \"GambleGame.sol\":909:1015  function _transferOwnership(address payable newOwner) internal virtual {\r... */\n    tag_81:\n        /* \"GambleGame.sol\":999:1007  newOwner */\n      dup1\n        /* \"GambleGame.sol\":991:996  owner */\n      0x01\n      0x00\n        /* \"GambleGame.sol\":991:1007  owner = newOwner */\n      0x0100\n      exp\n      dup2\n      sload\n      dup2\n      0xffffffffffffffffffffffffffffffffffffffff\n      mul\n      not\n      and\n      swap1\n      dup4\n      0xffffffffffffffffffffffffffffffffffffffff\n      and\n      mul\n      or\n      swap1\n      sstore\n      pop\n        /* \"GambleGame.sol\":909:1015  function _transferOwnership(address payable newOwner) internal virtual {\r... */\n      pop\n      jump\t// out\n    tag_63:\n      dataSize(sub_0)\n      dup1\n      dataOffset(sub_0)\n      dup4\n      codecopy\n      add\n      swap1\n      jump\t// out\n        /* \"#utility.yul\":7:351   */\n    tag_97:\n      0x00\n        /* \"#utility.yul\":110:175   */\n      tag_99\n        /* \"#utility.yul\":125:174   */\n      tag_100\n        /* \"#utility.yul\":167:173   */\n      dup5\n        /* \"#utility.yul\":125:174   */\n      tag_101\n      jump\t// in\n    tag_100:\n        /* \"#utility.yul\":110:175   */\n      tag_102\n      jump\t// in\n    tag_99:\n        /* \"#utility.yul\":101:175   */\n      swap1\n      pop\n        /* \"#utility.yul\":198:204   */\n      dup3\n        /* \"#utility.yul\":191:196   */\n      dup2\n        /* \"#utility.yul\":184:205   */\n      mstore\n        /* \"#utility.yul\":236:240   */\n      0x20\n        /* \"#utility.yul\":229:234   */\n      dup2\n        /* \"#utility.yul\":225:241   */\n      add\n        /* \"#utility.yul\":274:277   */\n      dup5\n        /* \"#utility.yul\":265:271   */\n      dup5\n        /* \"#utility.yul\":260:263   */\n      dup5\n        /* \"#utility.yul\":256:272   */\n      add\n        /* \"#utility.yul\":253:278   */\n      gt\n        /* \"#utility.yul\":250:252   */\n      iszero\n      tag_103\n      jumpi\n        /* \"#utility.yul\":291:292   */\n      0x00\n        /* \"#utility.yul\":288:289   */\n      dup1\n        /* \"#utility.yul\":281:293   */\n      revert\n        /* \"#utility.yul\":250:252   */\n    tag_103:\n        /* \"#utility.yul\":304:345   */\n      tag_104\n        /* \"#utility.yul\":338:344   */\n      dup5\n        /* \"#utility.yul\":333:336   */\n      dup3\n        /* \"#utility.yul\":328:331   */\n      dup6\n        /* \"#utility.yul\":304:345   */\n      tag_105\n      jump\t// in\n    tag_104:\n        /* \"#utility.yul\":91:351   */\n      pop\n      swap4\n      swap3\n      pop\n      pop\n      pop\n      jump\t// out\n        /* \"#utility.yul\":357:512   */\n    tag_106:\n      0x00\n        /* \"#utility.yul\":449:455   */\n      dup2\n        /* \"#utility.yul\":436:456   */\n      calldataload\n        /* \"#utility.yul\":427:456   */\n      swap1\n      pop\n        /* \"#utility.yul\":465:506   */\n      tag_108\n        /* \"#utility.yul\":500:505   */\n      dup2\n        /* \"#utility.yul\":465:506   */\n      tag_109\n      jump\t// in\n    tag_108:\n        /* \"#utility.yul\":417:512   */\n      swap3\n      swap2\n      pop\n      pop\n      jump\t// out\n        /* \"#utility.yul\":532:805   */\n    tag_110:\n      0x00\n        /* \"#utility.yul\":637:640   */\n      dup3\n        /* \"#utility.yul\":630:634   */\n      0x1f\n        /* \"#utility.yul\":622:628   */\n      dup4\n        /* \"#utility.yul\":618:635   */\n      add\n        /* \"#utility.yul\":614:641   */\n      slt\n        /* \"#utility.yul\":604:606   */\n      tag_112\n      jumpi\n        /* \"#utility.yul\":655:656   */\n      0x00\n        /* \"#utility.yul\":652:653   */\n      dup1\n        /* \"#utility.yul\":645:657   */\n      revert\n        /* \"#utility.yul\":604:606   */\n    tag_112:\n        /* \"#utility.yul\":695:701   */\n      dup2\n        /* \"#utility.yul\":682:702   */\n      calldataload\n        /* \"#utility.yul\":720:799   */\n      tag_113\n        /* \"#utility.yul\":795:798   */\n      dup5\n        /* \"#utility.yul\":787:793   */\n      dup3\n        /* \"#utility.yul\":780:784   */\n      0x20\n        /* \"#utility.yul\":772:778   */\n      dup7\n        /* \"#utility.yul\":768:785   */\n      add\n        /* \"#utility.yul\":720:799   */\n      tag_97\n      jump\t// in\n    tag_113:\n        /* \"#utility.yul\":711:799   */\n      swap2\n      pop\n        /* \"#utility.yul\":594:805   */\n      pop\n      swap3\n      swap2\n      pop\n      pop\n      jump\t// out\n        /* \"#utility.yul\":811:950   */\n    tag_114:\n      0x00\n        /* \"#utility.yul\":895:901   */\n      dup2\n        /* \"#utility.yul\":882:902   */\n      calldataload\n        /* \"#utility.yul\":873:902   */\n      swap1\n      pop\n        /* \"#utility.yul\":911:944   */\n      tag_116\n        /* \"#utility.yul\":938:943   */\n      dup2\n        /* \"#utility.yul\":911:944   */\n      tag_117\n      jump\t// in\n    tag_116:\n        /* \"#utility.yul\":863:950   */\n      swap3\n      swap2\n      pop\n      pop\n      jump\t// out\n        /* \"#utility.yul\":956:1234   */\n    tag_36:\n      0x00\n        /* \"#utility.yul\":1072:1074   */\n      0x20\n        /* \"#utility.yul\":1060:1069   */\n      dup3\n        /* \"#utility.yul\":1051:1058   */\n      dup5\n        /* \"#utility.yul\":1047:1070   */\n      sub\n        /* \"#utility.yul\":1043:1075   */\n      slt\n        /* \"#utility.yul\":1040:1042   */\n      iszero\n      tag_119\n      jumpi\n        /* \"#utility.yul\":1088:1089   */\n      0x00\n        /* \"#utility.yul\":1085:1086   */\n      dup1\n        /* \"#utility.yul\":1078:1090   */\n      revert\n        /* \"#utility.yul\":1040:1042   */\n    tag_119:\n        /* \"#utility.yul\":1131:1132   */\n      0x00\n        /* \"#utility.yul\":1156:1217   */\n      tag_120\n        /* \"#utility.yul\":1209:1216   */\n      dup5\n        /* \"#utility.yul\":1200:1206   */\n      dup3\n        /* \"#utility.yul\":1189:1198   */\n      dup6\n        /* \"#utility.yul\":1185:1207   */\n      add\n        /* \"#utility.yul\":1156:1217   */\n      tag_106\n      jump\t// in\n    tag_120:\n        /* \"#utility.yul\":1146:1217   */\n      swap2\n      pop\n        /* \"#utility.yul\":1102:1227   */\n      pop\n        /* \"#utility.yul\":1030:1234   */\n      swap3\n      swap2\n      pop\n      pop\n      jump\t// out\n        /* \"#utility.yul\":1240:2649   */\n    tag_14:\n      0x00\n      dup1\n      0x00\n      dup1\n      0x00\n        /* \"#utility.yul\":1466:1469   */\n      0xa0\n        /* \"#utility.yul\":1454:1463   */\n      dup7\n        /* \"#utility.yul\":1445:1452   */\n      dup9\n        /* \"#utility.yul\":1441:1464   */\n      sub\n        /* \"#utility.yul\":1437:1470   */\n      slt\n        /* \"#utility.yul\":1434:1436   */\n      iszero\n      tag_122\n      jumpi\n        /* \"#utility.yul\":1483:1484   */\n      0x00\n        /* \"#utility.yul\":1480:1481   */\n      dup1\n        /* \"#utility.yul\":1473:1485   */\n      revert\n        /* \"#utility.yul\":1434:1436   */\n    tag_122:\n        /* \"#utility.yul\":1554:1555   */\n      0x00\n        /* \"#utility.yul\":1543:1552   */\n      dup7\n        /* \"#utility.yul\":1539:1556   */\n      add\n        /* \"#utility.yul\":1526:1557   */\n      calldataload\n        /* \"#utility.yul\":1584:1602   */\n      0xffffffffffffffff\n        /* \"#utility.yul\":1576:1582   */\n      dup2\n        /* \"#utility.yul\":1573:1603   */\n      gt\n        /* \"#utility.yul\":1570:1572   */\n      iszero\n      tag_123\n      jumpi\n        /* \"#utility.yul\":1616:1617   */\n      0x00\n        /* \"#utility.yul\":1613:1614   */\n      dup1\n        /* \"#utility.yul\":1606:1618   */\n      revert\n        /* \"#utility.yul\":1570:1572   */\n    tag_123:\n        /* \"#utility.yul\":1644:1707   */\n      tag_124\n        /* \"#utility.yul\":1699:1706   */\n      dup9\n        /* \"#utility.yul\":1690:1696   */\n      dup3\n        /* \"#utility.yul\":1679:1688   */\n      dup10\n        /* \"#utility.yul\":1675:1697   */\n      add\n        /* \"#utility.yul\":1644:1707   */\n      tag_110\n      jump\t// in\n    tag_124:\n        /* \"#utility.yul\":1634:1707   */\n      swap6\n      pop\n        /* \"#utility.yul\":1497:1717   */\n      pop\n        /* \"#utility.yul\":1784:1786   */\n      0x20\n        /* \"#utility.yul\":1773:1782   */\n      dup7\n        /* \"#utility.yul\":1769:1787   */\n      add\n        /* \"#utility.yul\":1756:1788   */\n      calldataload\n        /* \"#utility.yul\":1815:1833   */\n      0xffffffffffffffff\n        /* \"#utility.yul\":1807:1813   */\n      dup2\n        /* \"#utility.yul\":1804:1834   */\n      gt\n        /* \"#utility.yul\":1801:1803   */\n      iszero\n      tag_125\n      jumpi\n        /* \"#utility.yul\":1847:1848   */\n      0x00\n        /* \"#utility.yul\":1844:1845   */\n      dup1\n        /* \"#utility.yul\":1837:1849   */\n      revert\n        /* \"#utility.yul\":1801:1803   */\n    tag_125:\n        /* \"#utility.yul\":1875:1938   */\n      tag_126\n        /* \"#utility.yul\":1930:1937   */\n      dup9\n        /* \"#utility.yul\":1921:1927   */\n      dup3\n        /* \"#utility.yul\":1910:1919   */\n      dup10\n        /* \"#utility.yul\":1906:1928   */\n      add\n        /* \"#utility.yul\":1875:1938   */\n      tag_110\n      jump\t// in\n    tag_126:\n        /* \"#utility.yul\":1865:1938   */\n      swap5\n      pop\n        /* \"#utility.yul\":1727:1948   */\n      pop\n        /* \"#utility.yul\":2015:2017   */\n      0x40\n        /* \"#utility.yul\":2004:2013   */\n      dup7\n        /* \"#utility.yul\":2000:2018   */\n      add\n        /* \"#utility.yul\":1987:2019   */\n      calldataload\n        /* \"#utility.yul\":2046:2064   */\n      0xffffffffffffffff\n        /* \"#utility.yul\":2038:2044   */\n      dup2\n        /* \"#utility.yul\":2035:2065   */\n      gt\n        /* \"#utility.yul\":2032:2034   */\n      iszero\n      tag_127\n      jumpi\n        /* \"#utility.yul\":2078:2079   */\n      0x00\n        /* \"#utility.yul\":2075:2076   */\n      dup1\n        /* \"#utility.yul\":2068:2080   */\n      revert\n        /* \"#utility.yul\":2032:2034   */\n    tag_127:\n        /* \"#utility.yul\":2106:2169   */\n      tag_128\n        /* \"#utility.yul\":2161:2168   */\n      dup9\n        /* \"#utility.yul\":2152:2158   */\n      dup3\n        /* \"#utility.yul\":2141:2150   */\n      dup10\n        /* \"#utility.yul\":2137:2159   */\n      add\n        /* \"#utility.yul\":2106:2169   */\n      tag_110\n      jump\t// in\n    tag_128:\n        /* \"#utility.yul\":2096:2169   */\n      swap4\n      pop\n        /* \"#utility.yul\":1958:2179   */\n      pop\n        /* \"#utility.yul\":2246:2248   */\n      0x60\n        /* \"#utility.yul\":2235:2244   */\n      dup7\n        /* \"#utility.yul\":2231:2249   */\n      add\n        /* \"#utility.yul\":2218:2250   */\n      calldataload\n        /* \"#utility.yul\":2277:2295   */\n      0xffffffffffffffff\n        /* \"#utility.yul\":2269:2275   */\n      dup2\n        /* \"#utility.yul\":2266:2296   */\n      gt\n        /* \"#utility.yul\":2263:2265   */\n      iszero\n      tag_129\n      jumpi\n        /* \"#utility.yul\":2309:2310   */\n      0x00\n        /* \"#utility.yul\":2306:2307   */\n      dup1\n        /* \"#utility.yul\":2299:2311   */\n      revert\n        /* \"#utility.yul\":2263:2265   */\n    tag_129:\n        /* \"#utility.yul\":2337:2400   */\n      tag_130\n        /* \"#utility.yul\":2392:2399   */\n      dup9\n        /* \"#utility.yul\":2383:2389   */\n      dup3\n        /* \"#utility.yul\":2372:2381   */\n      dup10\n        /* \"#utility.yul\":2368:2390   */\n      add\n        /* \"#utility.yul\":2337:2400   */\n      tag_110\n      jump\t// in\n    tag_130:\n        /* \"#utility.yul\":2327:2400   */\n      swap3\n      pop\n        /* \"#utility.yul\":2189:2410   */\n      pop\n        /* \"#utility.yul\":2477:2480   */\n      0x80\n        /* \"#utility.yul\":2466:2475   */\n      dup7\n        /* \"#utility.yul\":2462:2481   */\n      add\n        /* \"#utility.yul\":2449:2482   */\n      calldataload\n        /* \"#utility.yul\":2509:2527   */\n      0xffffffffffffffff\n        /* \"#utility.yul\":2501:2507   */\n      dup2\n        /* \"#utility.yul\":2498:2528   */\n      gt\n        /* \"#utility.yul\":2495:2497   */\n      iszero\n      tag_131\n      jumpi\n        /* \"#utility.yul\":2541:2542   */\n      0x00\n        /* \"#utility.yul\":2538:2539   */\n      dup1\n        /* \"#utility.yul\":2531:2543   */\n      revert\n        /* \"#utility.yul\":2495:2497   */\n    tag_131:\n        /* \"#utility.yul\":2569:2632   */\n      tag_132\n        /* \"#utility.yul\":2624:2631   */\n      dup9\n        /* \"#utility.yul\":2615:2621   */\n      dup3\n        /* \"#utility.yul\":2604:2613   */\n      dup10\n        /* \"#utility.yul\":2600:2622   */\n      add\n        /* \"#utility.yul\":2569:2632   */\n      tag_110\n      jump\t// in\n    tag_132:\n        /* \"#utility.yul\":2559:2632   */\n      swap2\n      pop\n        /* \"#utility.yul\":2420:2642   */\n      pop\n        /* \"#utility.yul\":1424:2649   */\n      swap3\n      swap6\n      pop\n      swap3\n      swap6\n      swap1\n      swap4\n      pop\n      jump\t// out\n        /* \"#utility.yul\":2655:2917   */\n    tag_40:\n      0x00\n        /* \"#utility.yul\":2763:2765   */\n      0x20\n        /* \"#utility.yul\":2751:2760   */\n      dup3\n        /* \"#utility.yul\":2742:2749   */\n      dup5\n        /* \"#utility.yul\":2738:2761   */\n      sub\n        /* \"#utility.yul\":2734:2766   */\n      slt\n        /* \"#utility.yul\":2731:2733   */\n      iszero\n      tag_134\n      jumpi\n        /* \"#utility.yul\":2779:2780   */\n      0x00\n        /* \"#utility.yul\":2776:2777   */\n      dup1\n        /* \"#utility.yul\":2769:2781   */\n      revert\n        /* \"#utility.yul\":2731:2733   */\n    tag_134:\n        /* \"#utility.yul\":2822:2823   */\n      0x00\n        /* \"#utility.yul\":2847:2900   */\n      tag_135\n        /* \"#utility.yul\":2892:2899   */\n      dup5\n        /* \"#utility.yul\":2883:2889   */\n      dup3\n        /* \"#utility.yul\":2872:2881   */\n      dup6\n        /* \"#utility.yul\":2868:2890   */\n      add\n        /* \"#utility.yul\":2847:2900   */\n      tag_114\n      jump\t// in\n    tag_135:\n        /* \"#utility.yul\":2837:2900   */\n      swap2\n      pop\n        /* \"#utility.yul\":2793:2910   */\n      pop\n        /* \"#utility.yul\":2721:2917   */\n      swap3\n      swap2\n      pop\n      pop\n      jump\t// out\n        /* \"#utility.yul\":2923:3138   */\n    tag_136:\n      0x00\n        /* \"#utility.yul\":3031:3095   */\n      tag_138\n        /* \"#utility.yul\":3091:3094   */\n      dup4\n        /* \"#utility.yul\":3083:3089   */\n      dup4\n        /* \"#utility.yul\":3031:3095   */\n      tag_139\n      jump\t// in\n    tag_138:\n        /* \"#utility.yul\":3127:3131   */\n      0x20\n        /* \"#utility.yul\":3122:3125   */\n      dup4\n        /* \"#utility.yul\":3118:3132   */\n      add\n        /* \"#utility.yul\":3104:3132   */\n      swap1\n      pop\n        /* \"#utility.yul\":3021:3138   */\n      swap3\n      swap2\n      pop\n      pop\n      jump\t// out\n        /* \"#utility.yul\":3144:3286   */\n    tag_140:\n        /* \"#utility.yul\":3247:3279   */\n      tag_142\n        /* \"#utility.yul\":3273:3278   */\n      dup2\n        /* \"#utility.yul\":3247:3279   */\n      tag_143\n      jump\t// in\n    tag_142:\n        /* \"#utility.yul\":3242:3245   */\n      dup3\n        /* \"#utility.yul\":3235:3280   */\n      mstore\n        /* \"#utility.yul\":3225:3286   */\n      pop\n      pop\n      jump\t// out\n        /* \"#utility.yul\":3292:3410   */\n    tag_144:\n        /* \"#utility.yul\":3379:3403   */\n      tag_146\n        /* \"#utility.yul\":3397:3402   */\n      dup2\n        /* \"#utility.yul\":3379:3403   */\n      tag_147\n      jump\t// in\n    tag_146:\n        /* \"#utility.yul\":3374:3377   */\n      dup3\n        /* \"#utility.yul\":3367:3404   */\n      mstore\n        /* \"#utility.yul\":3357:3410   */\n      pop\n      pop\n      jump\t// out\n        /* \"#utility.yul\":3458:4280   */\n    tag_148:\n      0x00\n        /* \"#utility.yul\":3624:3696   */\n      tag_150\n        /* \"#utility.yul\":3690:3695   */\n      dup3\n        /* \"#utility.yul\":3624:3696   */\n      tag_151\n      jump\t// in\n    tag_150:\n        /* \"#utility.yul\":3712:3798   */\n      tag_152\n        /* \"#utility.yul\":3791:3797   */\n      dup2\n        /* \"#utility.yul\":3786:3789   */\n      dup6\n        /* \"#utility.yul\":3712:3798   */\n      tag_153\n      jump\t// in\n    tag_152:\n        /* \"#utility.yul\":3705:3798   */\n      swap4\n      pop\n        /* \"#utility.yul\":3822:3896   */\n      tag_154\n        /* \"#utility.yul\":3890:3895   */\n      dup4\n        /* \"#utility.yul\":3822:3896   */\n      tag_155\n      jump\t// in\n    tag_154:\n        /* \"#utility.yul\":3919:3926   */\n      dup1\n        /* \"#utility.yul\":3950:3951   */\n      0x00\n        /* \"#utility.yul\":3935:4255   */\n    tag_156:\n        /* \"#utility.yul\":3960:3966   */\n      dup4\n        /* \"#utility.yul\":3957:3958   */\n      dup2\n        /* \"#utility.yul\":3954:3967   */\n      lt\n        /* \"#utility.yul\":3935:4255   */\n      iszero\n      tag_158\n      jumpi\n        /* \"#utility.yul\":4036:4042   */\n      dup2\n        /* \"#utility.yul\":4030:4043   */\n      mload\n        /* \"#utility.yul\":4063:4144   */\n      tag_159\n        /* \"#utility.yul\":4140:4143   */\n      dup9\n        /* \"#utility.yul\":4125:4138   */\n      dup3\n        /* \"#utility.yul\":4063:4144   */\n      tag_136\n      jump\t// in\n    tag_159:\n        /* \"#utility.yul\":4056:4144   */\n      swap8\n      pop\n        /* \"#utility.yul\":4167:4245   */\n      tag_160\n        /* \"#utility.yul\":4238:4244   */\n      dup4\n        /* \"#utility.yul\":4167:4245   */\n      tag_161\n      jump\t// in\n    tag_160:\n        /* \"#utility.yul\":4157:4245   */\n      swap3\n      pop\n        /* \"#utility.yul\":3995:4255   */\n      pop\n        /* \"#utility.yul\":3982:3983   */\n      0x01\n        /* \"#utility.yul\":3979:3980   */\n      dup2\n        /* \"#utility.yul\":3975:3984   */\n      add\n        /* \"#utility.yul\":3970:3984   */\n      swap1\n      pop\n        /* \"#utility.yul\":3935:4255   */\n      jump(tag_156)\n    tag_158:\n        /* \"#utility.yul\":3939:3953   */\n      pop\n        /* \"#utility.yul\":4271:4274   */\n      dup6\n        /* \"#utility.yul\":4264:4274   */\n      swap4\n      pop\n        /* \"#utility.yul\":3600:4280   */\n      pop\n      pop\n      pop\n      swap3\n      swap2\n      pop\n      pop\n      jump\t// out\n        /* \"#utility.yul\":4286:4443   */\n    tag_139:\n        /* \"#utility.yul\":4381:4436   */\n      tag_163\n        /* \"#utility.yul\":4430:4435   */\n      dup2\n        /* \"#utility.yul\":4381:4436   */\n      tag_164\n      jump\t// in\n    tag_163:\n        /* \"#utility.yul\":4376:4379   */\n      dup3\n        /* \"#utility.yul\":4369:4437   */\n      mstore\n        /* \"#utility.yul\":4359:4443   */\n      pop\n      pop\n      jump\t// out\n        /* \"#utility.yul\":4449:4616   */\n    tag_165:\n        /* \"#utility.yul\":4554:4609   */\n      tag_167\n        /* \"#utility.yul\":4603:4608   */\n      dup2\n        /* \"#utility.yul\":4554:4609   */\n      tag_164\n      jump\t// in\n    tag_167:\n        /* \"#utility.yul\":4549:4552   */\n      dup3\n        /* \"#utility.yul\":4542:4610   */\n      mstore\n        /* \"#utility.yul\":4532:4616   */\n      pop\n      pop\n      jump\t// out\n        /* \"#utility.yul\":4622:4986   */\n    tag_168:\n      0x00\n        /* \"#utility.yul\":4738:4777   */\n      tag_170\n        /* \"#utility.yul\":4771:4776   */\n      dup3\n        /* \"#utility.yul\":4738:4777   */\n      tag_171\n      jump\t// in\n    tag_170:\n        /* \"#utility.yul\":4793:4864   */\n      tag_172\n        /* \"#utility.yul\":4857:4863   */\n      dup2\n        /* \"#utility.yul\":4852:4855   */\n      dup6\n        /* \"#utility.yul\":4793:4864   */\n      tag_173\n      jump\t// in\n    tag_172:\n        /* \"#utility.yul\":4786:4864   */\n      swap4\n      pop\n        /* \"#utility.yul\":4873:4925   */\n      tag_174\n        /* \"#utility.yul\":4918:4924   */\n      dup2\n        /* \"#utility.yul\":4913:4916   */\n      dup6\n        /* \"#utility.yul\":4906:4910   */\n      0x20\n        /* \"#utility.yul\":4899:4904   */\n      dup7\n        /* \"#utility.yul\":4895:4911   */\n      add\n        /* \"#utility.yul\":4873:4925   */\n      tag_175\n      jump\t// in\n    tag_174:\n        /* \"#utility.yul\":4950:4979   */\n      tag_176\n        /* \"#utility.yul\":4972:4978   */\n      dup2\n        /* \"#utility.yul\":4950:4979   */\n      tag_177\n      jump\t// in\n    tag_176:\n        /* \"#utility.yul\":4945:4948   */\n      dup5\n        /* \"#utility.yul\":4941:4980   */\n      add\n        /* \"#utility.yul\":4934:4980   */\n      swap2\n      pop\n        /* \"#utility.yul\":4714:4986   */\n      pop\n      swap3\n      swap2\n      pop\n      pop\n      jump\t// out\n        /* \"#utility.yul\":5016:5818   */\n    tag_178:\n      0x00\n        /* \"#utility.yul\":5138:5143   */\n      dup2\n        /* \"#utility.yul\":5132:5144   */\n      sload\n        /* \"#utility.yul\":5167:5203   */\n      tag_180\n        /* \"#utility.yul\":5193:5202   */\n      dup2\n        /* \"#utility.yul\":5167:5203   */\n      tag_69\n      jump\t// in\n    tag_180:\n        /* \"#utility.yul\":5219:5290   */\n      tag_181\n        /* \"#utility.yul\":5283:5289   */\n      dup2\n        /* \"#utility.yul\":5278:5281   */\n      dup7\n        /* \"#utility.yul\":5219:5290   */\n      tag_173\n      jump\t// in\n    tag_181:\n        /* \"#utility.yul\":5212:5290   */\n      swap5\n      pop\n        /* \"#utility.yul\":5321:5322   */\n      0x01\n        /* \"#utility.yul\":5310:5319   */\n      dup3\n        /* \"#utility.yul\":5306:5323   */\n      and\n        /* \"#utility.yul\":5337:5338   */\n      0x00\n        /* \"#utility.yul\":5332:5467   */\n      dup2\n      eq\n      tag_183\n      jumpi\n        /* \"#utility.yul\":5481:5482   */\n      0x01\n        /* \"#utility.yul\":5476:5812   */\n      dup2\n      eq\n      tag_184\n      jumpi\n        /* \"#utility.yul\":5299:5812   */\n      jump(tag_182)\n        /* \"#utility.yul\":5332:5467   */\n    tag_183:\n        /* \"#utility.yul\":5416:5420   */\n      0xff\n        /* \"#utility.yul\":5412:5421   */\n      not\n        /* \"#utility.yul\":5401:5410   */\n      dup4\n        /* \"#utility.yul\":5397:5422   */\n      and\n        /* \"#utility.yul\":5392:5395   */\n      dup7\n        /* \"#utility.yul\":5385:5423   */\n      mstore\n        /* \"#utility.yul\":5452:5456   */\n      0x20\n        /* \"#utility.yul\":5447:5450   */\n      dup7\n        /* \"#utility.yul\":5443:5457   */\n      add\n        /* \"#utility.yul\":5436:5457   */\n      swap4\n      pop\n        /* \"#utility.yul\":5332:5467   */\n      jump(tag_182)\n        /* \"#utility.yul\":5476:5812   */\n    tag_184:\n        /* \"#utility.yul\":5543:5581   */\n      tag_185\n        /* \"#utility.yul\":5575:5580   */\n      dup6\n        /* \"#utility.yul\":5543:5581   */\n      tag_186\n      jump\t// in\n    tag_185:\n        /* \"#utility.yul\":5603:5604   */\n      0x00\n        /* \"#utility.yul\":5617:5771   */\n    tag_187:\n        /* \"#utility.yul\":5631:5637   */\n      dup4\n        /* \"#utility.yul\":5628:5629   */\n      dup2\n        /* \"#utility.yul\":5625:5638   */\n      lt\n        /* \"#utility.yul\":5617:5771   */\n      iszero\n      tag_189\n      jumpi\n        /* \"#utility.yul\":5705:5712   */\n      dup2\n        /* \"#utility.yul\":5699:5713   */\n      sload\n        /* \"#utility.yul\":5695:5696   */\n      dup2\n        /* \"#utility.yul\":5690:5693   */\n      dup10\n        /* \"#utility.yul\":5686:5697   */\n      add\n        /* \"#utility.yul\":5679:5714   */\n      mstore\n        /* \"#utility.yul\":5755:5756   */\n      0x01\n        /* \"#utility.yul\":5746:5753   */\n      dup3\n        /* \"#utility.yul\":5742:5757   */\n      add\n        /* \"#utility.yul\":5731:5757   */\n      swap2\n      pop\n        /* \"#utility.yul\":5653:5657   */\n      0x20\n        /* \"#utility.yul\":5650:5651   */\n      dup2\n        /* \"#utility.yul\":5646:5658   */\n      add\n        /* \"#utility.yul\":5641:5658   */\n      swap1\n      pop\n        /* \"#utility.yul\":5617:5771   */\n      jump(tag_187)\n    tag_189:\n        /* \"#utility.yul\":5800:5801   */\n      dup1\n        /* \"#utility.yul\":5795:5798   */\n      dup9\n        /* \"#utility.yul\":5791:5802   */\n      add\n        /* \"#utility.yul\":5784:5802   */\n      swap6\n      pop\n        /* \"#utility.yul\":5483:5812   */\n      pop\n      pop\n        /* \"#utility.yul\":5299:5812   */\n    tag_182:\n      pop\n        /* \"#utility.yul\":5105:5818   */\n      pop\n      pop\n      swap3\n      swap2\n      pop\n      pop\n      jump\t// out\n        /* \"#utility.yul\":5824:6218   */\n    tag_190:\n      0x00\n        /* \"#utility.yul\":5987:6054   */\n      tag_192\n        /* \"#utility.yul\":6051:6053   */\n      0x3e\n        /* \"#utility.yul\":6046:6049   */\n      dup4\n        /* \"#utility.yul\":5987:6054   */\n      tag_173\n      jump\t// in\n    tag_192:\n        /* \"#utility.yul\":5980:6054   */\n      swap2\n      pop\n        /* \"#utility.yul\":6084:6118   */\n      0x596f75206d75737420656e746572206174206c656173742074776f2064696666\n        /* \"#utility.yul\":6080:6081   */\n      0x00\n        /* \"#utility.yul\":6075:6078   */\n      dup4\n        /* \"#utility.yul\":6071:6082   */\n      add\n        /* \"#utility.yul\":6064:6119   */\n      mstore\n        /* \"#utility.yul\":6150:6182   */\n      0x6572656e74207465616d732c20616e642061206465736372697074696f6e0000\n        /* \"#utility.yul\":6145:6147   */\n      0x20\n        /* \"#utility.yul\":6140:6143   */\n      dup4\n        /* \"#utility.yul\":6136:6148   */\n      add\n        /* \"#utility.yul\":6129:6183   */\n      mstore\n        /* \"#utility.yul\":6209:6211   */\n      0x40\n        /* \"#utility.yul\":6204:6207   */\n      dup3\n        /* \"#utility.yul\":6200:6212   */\n      add\n        /* \"#utility.yul\":6193:6212   */\n      swap1\n      pop\n        /* \"#utility.yul\":5970:6218   */\n      swap2\n      swap1\n      pop\n      jump\t// out\n        /* \"#utility.yul\":6224:6594   */\n    tag_193:\n      0x00\n        /* \"#utility.yul\":6387:6454   */\n      tag_195\n        /* \"#utility.yul\":6451:6453   */\n      0x26\n        /* \"#utility.yul\":6446:6449   */\n      dup4\n        /* \"#utility.yul\":6387:6454   */\n      tag_173\n      jump\t// in\n    tag_195:\n        /* \"#utility.yul\":6380:6454   */\n      swap2\n      pop\n        /* \"#utility.yul\":6484:6518   */\n      0x4f776e61626c653a206e6577206f776e657220697320746865207a65726f2061\n        /* \"#utility.yul\":6480:6481   */\n      0x00\n        /* \"#utility.yul\":6475:6478   */\n      dup4\n        /* \"#utility.yul\":6471:6482   */\n      add\n        /* \"#utility.yul\":6464:6519   */\n      mstore\n        /* \"#utility.yul\":6550:6558   */\n      0x6464726573730000000000000000000000000000000000000000000000000000\n        /* \"#utility.yul\":6545:6547   */\n      0x20\n        /* \"#utility.yul\":6540:6543   */\n      dup4\n        /* \"#utility.yul\":6536:6548   */\n      add\n        /* \"#utility.yul\":6529:6559   */\n      mstore\n        /* \"#utility.yul\":6585:6587   */\n      0x40\n        /* \"#utility.yul\":6580:6583   */\n      dup3\n        /* \"#utility.yul\":6576:6588   */\n      add\n        /* \"#utility.yul\":6569:6588   */\n      swap1\n      pop\n        /* \"#utility.yul\":6370:6594   */\n      swap2\n      swap1\n      pop\n      jump\t// out\n        /* \"#utility.yul\":6600:6971   */\n    tag_196:\n      0x00\n        /* \"#utility.yul\":6763:6830   */\n      tag_198\n        /* \"#utility.yul\":6827:6829   */\n      0x27\n        /* \"#utility.yul\":6822:6825   */\n      dup4\n        /* \"#utility.yul\":6763:6830   */\n      tag_173\n      jump\t// in\n    tag_198:\n        /* \"#utility.yul\":6756:6830   */\n      swap2\n      pop\n        /* \"#utility.yul\":6860:6894   */\n      0x546865206d6178206c656e677468206f66207479706520697320333020636861\n        /* \"#utility.yul\":6856:6857   */\n      0x00\n        /* \"#utility.yul\":6851:6854   */\n      dup4\n        /* \"#utility.yul\":6847:6858   */\n      add\n        /* \"#utility.yul\":6840:6895   */\n      mstore\n        /* \"#utility.yul\":6926:6935   */\n      0x7261637465727300000000000000000000000000000000000000000000000000\n        /* \"#utility.yul\":6921:6923   */\n      0x20\n        /* \"#utility.yul\":6916:6919   */\n      dup4\n        /* \"#utility.yul\":6912:6924   */\n      add\n        /* \"#utility.yul\":6905:6936   */\n      mstore\n        /* \"#utility.yul\":6962:6964   */\n      0x40\n        /* \"#utility.yul\":6957:6960   */\n      dup3\n        /* \"#utility.yul\":6953:6965   */\n      add\n        /* \"#utility.yul\":6946:6965   */\n      swap1\n      pop\n        /* \"#utility.yul\":6746:6971   */\n      swap2\n      swap1\n      pop\n      jump\t// out\n        /* \"#utility.yul\":6977:7476   */\n    tag_199:\n      0x00\n        /* \"#utility.yul\":7140:7207   */\n      tag_201\n        /* \"#utility.yul\":7204:7206   */\n      0x62\n        /* \"#utility.yul\":7199:7202   */\n      dup4\n        /* \"#utility.yul\":7140:7207   */\n      tag_173\n      jump\t// in\n    tag_201:\n        /* \"#utility.yul\":7133:7207   */\n      swap2\n      pop\n        /* \"#utility.yul\":7237:7271   */\n      0x546865206d6178206c656e677468206f66207465616d206e616d657320697320\n        /* \"#utility.yul\":7233:7234   */\n      0x00\n        /* \"#utility.yul\":7228:7231   */\n      dup4\n        /* \"#utility.yul\":7224:7235   */\n      add\n        /* \"#utility.yul\":7217:7272   */\n      mstore\n        /* \"#utility.yul\":7303:7337   */\n      0x3330206368617261637465727320616e6420746865206d6178206c656e677468\n        /* \"#utility.yul\":7298:7300   */\n      0x20\n        /* \"#utility.yul\":7293:7296   */\n      dup4\n        /* \"#utility.yul\":7289:7301   */\n      add\n        /* \"#utility.yul\":7282:7338   */\n      mstore\n        /* \"#utility.yul\":7369:7403   */\n      0x20666f72206465736372697074696f6e20697320333030206368617261637465\n        /* \"#utility.yul\":7364:7366   */\n      0x40\n        /* \"#utility.yul\":7359:7362   */\n      dup4\n        /* \"#utility.yul\":7355:7367   */\n      add\n        /* \"#utility.yul\":7348:7404   */\n      mstore\n        /* \"#utility.yul\":7435:7439   */\n      0x7273000000000000000000000000000000000000000000000000000000000000\n        /* \"#utility.yul\":7430:7432   */\n      0x60\n        /* \"#utility.yul\":7425:7428   */\n      dup4\n        /* \"#utility.yul\":7421:7433   */\n      add\n        /* \"#utility.yul\":7414:7440   */\n      mstore\n        /* \"#utility.yul\":7466:7469   */\n      0x80\n        /* \"#utility.yul\":7461:7464   */\n      dup3\n        /* \"#utility.yul\":7457:7470   */\n      add\n        /* \"#utility.yul\":7450:7470   */\n      swap1\n      pop\n        /* \"#utility.yul\":7123:7476   */\n      swap2\n      swap1\n      pop\n      jump\t// out\n        /* \"#utility.yul\":7482:7868   */\n    tag_202:\n      0x00\n        /* \"#utility.yul\":7645:7712   */\n      tag_204\n        /* \"#utility.yul\":7709:7711   */\n      0x36\n        /* \"#utility.yul\":7704:7707   */\n      dup4\n        /* \"#utility.yul\":7645:7712   */\n      tag_173\n      jump\t// in\n    tag_204:\n        /* \"#utility.yul\":7638:7712   */\n      swap2\n      pop\n        /* \"#utility.yul\":7742:7776   */\n      0x4f6e6c7920746865206f776e6572206f66207468652067616d626c652063616e\n        /* \"#utility.yul\":7738:7739   */\n      0x00\n        /* \"#utility.yul\":7733:7736   */\n      dup4\n        /* \"#utility.yul\":7729:7740   */\n      add\n        /* \"#utility.yul\":7722:7777   */\n      mstore\n        /* \"#utility.yul\":7808:7832   */\n      0x206578656375746520746869732066756e6374696f6e00000000000000000000\n        /* \"#utility.yul\":7803:7805   */\n      0x20\n        /* \"#utility.yul\":7798:7801   */\n      dup4\n        /* \"#utility.yul\":7794:7806   */\n      add\n        /* \"#utility.yul\":7787:7833   */\n      mstore\n        /* \"#utility.yul\":7859:7861   */\n      0x40\n        /* \"#utility.yul\":7854:7857   */\n      dup3\n        /* \"#utility.yul\":7850:7862   */\n      add\n        /* \"#utility.yul\":7843:7862   */\n      swap1\n      pop\n        /* \"#utility.yul\":7628:7868   */\n      swap2\n      swap1\n      pop\n      jump\t// out\n        /* \"#utility.yul\":7874:7992   */\n    tag_205:\n        /* \"#utility.yul\":7961:7985   */\n      tag_207\n        /* \"#utility.yul\":7979:7984   */\n      dup2\n        /* \"#utility.yul\":7961:7985   */\n      tag_208\n      jump\t// in\n    tag_207:\n        /* \"#utility.yul\":7956:7959   */\n      dup3\n        /* \"#utility.yul\":7949:7986   */\n      mstore\n        /* \"#utility.yul\":7939:7992   */\n      pop\n      pop\n      jump\t// out\n        /* \"#utility.yul\":7998:8252   */\n    tag_29:\n      0x00\n        /* \"#utility.yul\":8145:8147   */\n      0x20\n        /* \"#utility.yul\":8134:8143   */\n      dup3\n        /* \"#utility.yul\":8130:8148   */\n      add\n        /* \"#utility.yul\":8122:8148   */\n      swap1\n      pop\n        /* \"#utility.yul\":8158:8245   */\n      tag_210\n        /* \"#utility.yul\":8242:8243   */\n      0x00\n        /* \"#utility.yul\":8231:8240   */\n      dup4\n        /* \"#utility.yul\":8227:8244   */\n      add\n        /* \"#utility.yul\":8218:8224   */\n      dup5\n        /* \"#utility.yul\":8158:8245   */\n      tag_140\n      jump\t// in\n    tag_210:\n        /* \"#utility.yul\":8112:8252   */\n      swap3\n      swap2\n      pop\n      pop\n      jump\t// out\n        /* \"#utility.yul\":8258:9827   */\n    tag_65:\n      0x00\n        /* \"#utility.yul\":8718:8721   */\n      0x0100\n        /* \"#utility.yul\":8707:8716   */\n      dup3\n        /* \"#utility.yul\":8703:8722   */\n      add\n        /* \"#utility.yul\":8695:8722   */\n      swap1\n      pop\n        /* \"#utility.yul\":8732:8803   */\n      tag_212\n        /* \"#utility.yul\":8800:8801   */\n      0x00\n        /* \"#utility.yul\":8789:8798   */\n      dup4\n        /* \"#utility.yul\":8785:8802   */\n      add\n        /* \"#utility.yul\":8776:8782   */\n      dup12\n        /* \"#utility.yul\":8732:8803   */\n      tag_144\n      jump\t// in\n    tag_212:\n        /* \"#utility.yul\":8850:8859   */\n      dup2\n        /* \"#utility.yul\":8844:8848   */\n      dup2\n        /* \"#utility.yul\":8840:8860   */\n      sub\n        /* \"#utility.yul\":8835:8837   */\n      0x20\n        /* \"#utility.yul\":8824:8833   */\n      dup4\n        /* \"#utility.yul\":8820:8838   */\n      add\n        /* \"#utility.yul\":8813:8861   */\n      mstore\n        /* \"#utility.yul\":8878:8956   */\n      tag_213\n        /* \"#utility.yul\":8951:8955   */\n      dup2\n        /* \"#utility.yul\":8942:8948   */\n      dup11\n        /* \"#utility.yul\":8878:8956   */\n      tag_168\n      jump\t// in\n    tag_213:\n        /* \"#utility.yul\":8870:8956   */\n      swap1\n      pop\n        /* \"#utility.yul\":9003:9012   */\n      dup2\n        /* \"#utility.yul\":8997:9001   */\n      dup2\n        /* \"#utility.yul\":8993:9013   */\n      sub\n        /* \"#utility.yul\":8988:8990   */\n      0x40\n        /* \"#utility.yul\":8977:8986   */\n      dup4\n        /* \"#utility.yul\":8973:8991   */\n      add\n        /* \"#utility.yul\":8966:9014   */\n      mstore\n        /* \"#utility.yul\":9031:9109   */\n      tag_214\n        /* \"#utility.yul\":9104:9108   */\n      dup2\n        /* \"#utility.yul\":9095:9101   */\n      dup10\n        /* \"#utility.yul\":9031:9109   */\n      tag_168\n      jump\t// in\n    tag_214:\n        /* \"#utility.yul\":9023:9109   */\n      swap1\n      pop\n        /* \"#utility.yul\":9156:9165   */\n      dup2\n        /* \"#utility.yul\":9150:9154   */\n      dup2\n        /* \"#utility.yul\":9146:9166   */\n      sub\n        /* \"#utility.yul\":9141:9143   */\n      0x60\n        /* \"#utility.yul\":9130:9139   */\n      dup4\n        /* \"#utility.yul\":9126:9144   */\n      add\n        /* \"#utility.yul\":9119:9167   */\n      mstore\n        /* \"#utility.yul\":9184:9262   */\n      tag_215\n        /* \"#utility.yul\":9257:9261   */\n      dup2\n        /* \"#utility.yul\":9248:9254   */\n      dup9\n        /* \"#utility.yul\":9184:9262   */\n      tag_168\n      jump\t// in\n    tag_215:\n        /* \"#utility.yul\":9176:9262   */\n      swap1\n      pop\n        /* \"#utility.yul\":9310:9319   */\n      dup2\n        /* \"#utility.yul\":9304:9308   */\n      dup2\n        /* \"#utility.yul\":9300:9320   */\n      sub\n        /* \"#utility.yul\":9294:9297   */\n      0x80\n        /* \"#utility.yul\":9283:9292   */\n      dup4\n        /* \"#utility.yul\":9279:9298   */\n      add\n        /* \"#utility.yul\":9272:9321   */\n      mstore\n        /* \"#utility.yul\":9338:9416   */\n      tag_216\n        /* \"#utility.yul\":9411:9415   */\n      dup2\n        /* \"#utility.yul\":9402:9408   */\n      dup8\n        /* \"#utility.yul\":9338:9416   */\n      tag_168\n      jump\t// in\n    tag_216:\n        /* \"#utility.yul\":9330:9416   */\n      swap1\n      pop\n        /* \"#utility.yul\":9464:9473   */\n      dup2\n        /* \"#utility.yul\":9458:9462   */\n      dup2\n        /* \"#utility.yul\":9454:9474   */\n      sub\n        /* \"#utility.yul\":9448:9451   */\n      0xa0\n        /* \"#utility.yul\":9437:9446   */\n      dup4\n        /* \"#utility.yul\":9433:9452   */\n      add\n        /* \"#utility.yul\":9426:9475   */\n      mstore\n        /* \"#utility.yul\":9492:9570   */\n      tag_217\n        /* \"#utility.yul\":9565:9569   */\n      dup2\n        /* \"#utility.yul\":9556:9562   */\n      dup7\n        /* \"#utility.yul\":9492:9570   */\n      tag_168\n      jump\t// in\n    tag_217:\n        /* \"#utility.yul\":9484:9570   */\n      swap1\n      pop\n        /* \"#utility.yul\":9580:9669   */\n      tag_218\n        /* \"#utility.yul\":9664:9667   */\n      0xc0\n        /* \"#utility.yul\":9653:9662   */\n      dup4\n        /* \"#utility.yul\":9649:9668   */\n      add\n        /* \"#utility.yul\":9640:9646   */\n      dup6\n        /* \"#utility.yul\":9580:9669   */\n      tag_140\n      jump\t// in\n    tag_218:\n        /* \"#utility.yul\":9717:9726   */\n      dup2\n        /* \"#utility.yul\":9711:9715   */\n      dup2\n        /* \"#utility.yul\":9707:9727   */\n      sub\n        /* \"#utility.yul\":9701:9704   */\n      0xe0\n        /* \"#utility.yul\":9690:9699   */\n      dup4\n        /* \"#utility.yul\":9686:9705   */\n      add\n        /* \"#utility.yul\":9679:9728   */\n      mstore\n        /* \"#utility.yul\":9745:9820   */\n      tag_219\n        /* \"#utility.yul\":9815:9819   */\n      dup2\n        /* \"#utility.yul\":9806:9812   */\n      dup5\n        /* \"#utility.yul\":9745:9820   */\n      tag_178\n      jump\t// in\n    tag_219:\n        /* \"#utility.yul\":9737:9820   */\n      swap1\n      pop\n        /* \"#utility.yul\":8685:9827   */\n      swap10\n      swap9\n      pop\n      pop\n      pop\n      pop\n      pop\n      pop\n      pop\n      pop\n      pop\n      jump\t// out\n        /* \"#utility.yul\":9833:10242   */\n    tag_33:\n      0x00\n        /* \"#utility.yul\":10032:10034   */\n      0x20\n        /* \"#utility.yul\":10021:10030   */\n      dup3\n        /* \"#utility.yul\":10017:10035   */\n      add\n        /* \"#utility.yul\":10009:10035   */\n      swap1\n      pop\n        /* \"#utility.yul\":10081:10090   */\n      dup2\n        /* \"#utility.yul\":10075:10079   */\n      dup2\n        /* \"#utility.yul\":10071:10091   */\n      sub\n        /* \"#utility.yul\":10067:10068   */\n      0x00\n        /* \"#utility.yul\":10056:10065   */\n      dup4\n        /* \"#utility.yul\":10052:10069   */\n      add\n        /* \"#utility.yul\":10045:10092   */\n      mstore\n        /* \"#utility.yul\":10109:10235   */\n      tag_221\n        /* \"#utility.yul\":10230:10234   */\n      dup2\n        /* \"#utility.yul\":10221:10227   */\n      dup5\n        /* \"#utility.yul\":10109:10235   */\n      tag_148\n      jump\t// in\n    tag_221:\n        /* \"#utility.yul\":10101:10235   */\n      swap1\n      pop\n        /* \"#utility.yul\":9999:10242   */\n      swap3\n      swap2\n      pop\n      pop\n      jump\t// out\n        /* \"#utility.yul\":10248:10506   */\n    tag_43:\n      0x00\n        /* \"#utility.yul\":10397:10399   */\n      0x20\n        /* \"#utility.yul\":10386:10395   */\n      dup3\n        /* \"#utility.yul\":10382:10400   */\n      add\n        /* \"#utility.yul\":10374:10400   */\n      swap1\n      pop\n        /* \"#utility.yul\":10410:10499   */\n      tag_223\n        /* \"#utility.yul\":10496:10497   */\n      0x00\n        /* \"#utility.yul\":10485:10494   */\n      dup4\n        /* \"#utility.yul\":10481:10498   */\n      add\n        /* \"#utility.yul\":10472:10478   */\n      dup5\n        /* \"#utility.yul\":10410:10499   */\n      tag_165\n      jump\t// in\n    tag_223:\n        /* \"#utility.yul\":10364:10506   */\n      swap3\n      swap2\n      pop\n      pop\n      jump\t// out\n        /* \"#utility.yul\":10512:10825   */\n    tag_19:\n      0x00\n        /* \"#utility.yul\":10663:10665   */\n      0x20\n        /* \"#utility.yul\":10652:10661   */\n      dup3\n        /* \"#utility.yul\":10648:10666   */\n      add\n        /* \"#utility.yul\":10640:10666   */\n      swap1\n      pop\n        /* \"#utility.yul\":10712:10721   */\n      dup2\n        /* \"#utility.yul\":10706:10710   */\n      dup2\n        /* \"#utility.yul\":10702:10722   */\n      sub\n        /* \"#utility.yul\":10698:10699   */\n      0x00\n        /* \"#utility.yul\":10687:10696   */\n      dup4\n        /* \"#utility.yul\":10683:10700   */\n      add\n        /* \"#utility.yul\":10676:10723   */\n      mstore\n        /* \"#utility.yul\":10740:10818   */\n      tag_225\n        /* \"#utility.yul\":10813:10817   */\n      dup2\n        /* \"#utility.yul\":10804:10810   */\n      dup5\n        /* \"#utility.yul\":10740:10818   */\n      tag_168\n      jump\t// in\n    tag_225:\n        /* \"#utility.yul\":10732:10818   */\n      swap1\n      pop\n        /* \"#utility.yul\":10630:10825   */\n      swap3\n      swap2\n      pop\n      pop\n      jump\t// out\n        /* \"#utility.yul\":10831:11250   */\n    tag_52:\n      0x00\n        /* \"#utility.yul\":11035:11037   */\n      0x20\n        /* \"#utility.yul\":11024:11033   */\n      dup3\n        /* \"#utility.yul\":11020:11038   */\n      add\n        /* \"#utility.yul\":11012:11038   */\n      swap1\n      pop\n        /* \"#utility.yul\":11084:11093   */\n      dup2\n        /* \"#utility.yul\":11078:11082   */\n      dup2\n        /* \"#utility.yul\":11074:11094   */\n      sub\n        /* \"#utility.yul\":11070:11071   */\n      0x00\n        /* \"#utility.yul\":11059:11068   */\n      dup4\n        /* \"#utility.yul\":11055:11072   */\n      add\n        /* \"#utility.yul\":11048:11095   */\n      mstore\n        /* \"#utility.yul\":11112:11243   */\n      tag_227\n        /* \"#utility.yul\":11238:11242   */\n      dup2\n        /* \"#utility.yul\":11112:11243   */\n      tag_190\n      jump\t// in\n    tag_227:\n        /* \"#utility.yul\":11104:11243   */\n      swap1\n      pop\n        /* \"#utility.yul\":11002:11250   */\n      swap2\n      swap1\n      pop\n      jump\t// out\n        /* \"#utility.yul\":11256:11675   */\n    tag_91:\n      0x00\n        /* \"#utility.yul\":11460:11462   */\n      0x20\n        /* \"#utility.yul\":11449:11458   */\n      dup3\n        /* \"#utility.yul\":11445:11463   */\n      add\n        /* \"#utility.yul\":11437:11463   */\n      swap1\n      pop\n        /* \"#utility.yul\":11509:11518   */\n      dup2\n        /* \"#utility.yul\":11503:11507   */\n      dup2\n        /* \"#utility.yul\":11499:11519   */\n      sub\n        /* \"#utility.yul\":11495:11496   */\n      0x00\n        /* \"#utility.yul\":11484:11493   */\n      dup4\n        /* \"#utility.yul\":11480:11497   */\n      add\n        /* \"#utility.yul\":11473:11520   */\n      mstore\n        /* \"#utility.yul\":11537:11668   */\n      tag_229\n        /* \"#utility.yul\":11663:11667   */\n      dup2\n        /* \"#utility.yul\":11537:11668   */\n      tag_193\n      jump\t// in\n    tag_229:\n        /* \"#utility.yul\":11529:11668   */\n      swap1\n      pop\n        /* \"#utility.yul\":11427:11675   */\n      swap2\n      swap1\n      pop\n      jump\t// out\n        /* \"#utility.yul\":11681:12100   */\n    tag_61:\n      0x00\n        /* \"#utility.yul\":11885:11887   */\n      0x20\n        /* \"#utility.yul\":11874:11883   */\n      dup3\n        /* \"#utility.yul\":11870:11888   */\n      add\n        /* \"#utility.yul\":11862:11888   */\n      swap1\n      pop\n        /* \"#utility.yul\":11934:11943   */\n      dup2\n        /* \"#utility.yul\":11928:11932   */\n      dup2\n        /* \"#utility.yul\":11924:11944   */\n      sub\n        /* \"#utility.yul\":11920:11921   */\n      0x00\n        /* \"#utility.yul\":11909:11918   */\n      dup4\n        /* \"#utility.yul\":11905:11922   */\n      add\n        /* \"#utility.yul\":11898:11945   */\n      mstore\n        /* \"#utility.yul\":11962:12093   */\n      tag_231\n        /* \"#utility.yul\":12088:12092   */\n      dup2\n        /* \"#utility.yul\":11962:12093   */\n      tag_196\n      jump\t// in\n    tag_231:\n        /* \"#utility.yul\":11954:12093   */\n      swap1\n      pop\n        /* \"#utility.yul\":11852:12100   */\n      swap2\n      swap1\n      pop\n      jump\t// out\n        /* \"#utility.yul\":12106:12525   */\n    tag_57:\n      0x00\n        /* \"#utility.yul\":12310:12312   */\n      0x20\n        /* \"#utility.yul\":12299:12308   */\n      dup3\n        /* \"#utility.yul\":12295:12313   */\n      add\n        /* \"#utility.yul\":12287:12313   */\n      swap1\n      pop\n        /* \"#utility.yul\":12359:12368   */\n      dup2\n        /* \"#utility.yul\":12353:12357   */\n      dup2\n        /* \"#utility.yul\":12349:12369   */\n      sub\n        /* \"#utility.yul\":12345:12346   */\n      0x00\n        /* \"#utility.yul\":12334:12343   */\n      dup4\n        /* \"#utility.yul\":12330:12347   */\n      add\n        /* \"#utility.yul\":12323:12370   */\n      mstore\n        /* \"#utility.yul\":12387:12518   */\n      tag_233\n        /* \"#utility.yul\":12513:12517   */\n      dup2\n        /* \"#utility.yul\":12387:12518   */\n      tag_199\n      jump\t// in\n    tag_233:\n        /* \"#utility.yul\":12379:12518   */\n      swap1\n      pop\n        /* \"#utility.yul\":12277:12525   */\n      swap2\n      swap1\n      pop\n      jump\t// out\n        /* \"#utility.yul\":12531:12950   */\n    tag_78:\n      0x00\n        /* \"#utility.yul\":12735:12737   */\n      0x20\n        /* \"#utility.yul\":12724:12733   */\n      dup3\n        /* \"#utility.yul\":12720:12738   */\n      add\n        /* \"#utility.yul\":12712:12738   */\n      swap1\n      pop\n        /* \"#utility.yul\":12784:12793   */\n      dup2\n        /* \"#utility.yul\":12778:12782   */\n      dup2\n        /* \"#utility.yul\":12774:12794   */\n      sub\n        /* \"#utility.yul\":12770:12771   */\n      0x00\n        /* \"#utility.yul\":12759:12768   */\n      dup4\n        /* \"#utility.yul\":12755:12772   */\n      add\n        /* \"#utility.yul\":12748:12795   */\n      mstore\n        /* \"#utility.yul\":12812:12943   */\n      tag_235\n        /* \"#utility.yul\":12938:12942   */\n      dup2\n        /* \"#utility.yul\":12812:12943   */\n      tag_202\n      jump\t// in\n    tag_235:\n        /* \"#utility.yul\":12804:12943   */\n      swap1\n      pop\n        /* \"#utility.yul\":12702:12950   */\n      swap2\n      swap1\n      pop\n      jump\t// out\n        /* \"#utility.yul\":12956:13178   */\n    tag_23:\n      0x00\n        /* \"#utility.yul\":13087:13089   */\n      0x20\n        /* \"#utility.yul\":13076:13085   */\n      dup3\n        /* \"#utility.yul\":13072:13090   */\n      add\n        /* \"#utility.yul\":13064:13090   */\n      swap1\n      pop\n        /* \"#utility.yul\":13100:13171   */\n      tag_237\n        /* \"#utility.yul\":13168:13169   */\n      0x00\n        /* \"#utility.yul\":13157:13166   */\n      dup4\n        /* \"#utility.yul\":13153:13170   */\n      add\n        /* \"#utility.yul\":13144:13150   */\n      dup5\n        /* \"#utility.yul\":13100:13171   */\n      tag_205\n      jump\t// in\n    tag_237:\n        /* \"#utility.yul\":13054:13178   */\n      swap3\n      swap2\n      pop\n      pop\n      jump\t// out\n        /* \"#utility.yul\":13184:13467   */\n    tag_102:\n      0x00\n        /* \"#utility.yul\":13250:13252   */\n      0x40\n        /* \"#utility.yul\":13244:13253   */\n      mload\n        /* \"#utility.yul\":13234:13253   */\n      swap1\n      pop\n        /* \"#utility.yul\":13292:13296   */\n      dup2\n        /* \"#utility.yul\":13284:13290   */\n      dup2\n        /* \"#utility.yul\":13280:13297   */\n      add\n        /* \"#utility.yul\":13399:13405   */\n      dup2\n        /* \"#utility.yul\":13387:13397   */\n      dup2\n        /* \"#utility.yul\":13384:13406   */\n      lt\n        /* \"#utility.yul\":13363:13381   */\n      0xffffffffffffffff\n        /* \"#utility.yul\":13351:13361   */\n      dup3\n        /* \"#utility.yul\":13348:13382   */\n      gt\n        /* \"#utility.yul\":13345:13407   */\n      or\n        /* \"#utility.yul\":13342:13344   */\n      iszero\n      tag_239\n      jumpi\n        /* \"#utility.yul\":13410:13428   */\n      tag_240\n      tag_241\n      jump\t// in\n    tag_240:\n        /* \"#utility.yul\":13342:13344   */\n    tag_239:\n        /* \"#utility.yul\":13450:13460   */\n      dup1\n        /* \"#utility.yul\":13446:13448   */\n      0x40\n        /* \"#utility.yul\":13439:13461   */\n      mstore\n        /* \"#utility.yul\":13224:13467   */\n      pop\n      swap2\n      swap1\n      pop\n      jump\t// out\n        /* \"#utility.yul\":13473:13805   */\n    tag_101:\n      0x00\n        /* \"#utility.yul\":13625:13643   */\n      0xffffffffffffffff\n        /* \"#utility.yul\":13617:13623   */\n      dup3\n        /* \"#utility.yul\":13614:13644   */\n      gt\n        /* \"#utility.yul\":13611:13613   */\n      iszero\n      tag_243\n      jumpi\n        /* \"#utility.yul\":13647:13665   */\n      tag_244\n      tag_241\n      jump\t// in\n    tag_244:\n        /* \"#utility.yul\":13611:13613   */\n    tag_243:\n        /* \"#utility.yul\":13732:13736   */\n      0x1f\n        /* \"#utility.yul\":13728:13737   */\n      not\n        /* \"#utility.yul\":13721:13725   */\n      0x1f\n        /* \"#utility.yul\":13713:13719   */\n      dup4\n        /* \"#utility.yul\":13709:13726   */\n      add\n        /* \"#utility.yul\":13705:13738   */\n      and\n        /* \"#utility.yul\":13697:13738   */\n      swap1\n      pop\n        /* \"#utility.yul\":13793:13797   */\n      0x20\n        /* \"#utility.yul\":13787:13791   */\n      dup2\n        /* \"#utility.yul\":13783:13798   */\n      add\n        /* \"#utility.yul\":13775:13798   */\n      swap1\n      pop\n        /* \"#utility.yul\":13540:13805   */\n      swap2\n      swap1\n      pop\n      jump\t// out\n        /* \"#utility.yul\":13811:13961   */\n    tag_155:\n      0x00\n        /* \"#utility.yul\":13919:13922   */\n      dup2\n        /* \"#utility.yul\":13911:13922   */\n      swap1\n      pop\n        /* \"#utility.yul\":13949:13953   */\n      0x20\n        /* \"#utility.yul\":13944:13947   */\n      dup3\n        /* \"#utility.yul\":13940:13954   */\n      add\n        /* \"#utility.yul\":13932:13954   */\n      swap1\n      pop\n        /* \"#utility.yul\":13901:13961   */\n      swap2\n      swap1\n      pop\n      jump\t// out\n        /* \"#utility.yul\":13967:14108   */\n    tag_186:\n      0x00\n        /* \"#utility.yul\":14039:14042   */\n      dup2\n        /* \"#utility.yul\":14031:14042   */\n      swap1\n      pop\n        /* \"#utility.yul\":14062:14065   */\n      dup2\n        /* \"#utility.yul\":14059:14060   */\n      0x00\n        /* \"#utility.yul\":14052:14066   */\n      mstore\n        /* \"#utility.yul\":14096:14100   */\n      0x20\n        /* \"#utility.yul\":14093:14094   */\n      0x00\n        /* \"#utility.yul\":14083:14101   */\n      keccak256\n        /* \"#utility.yul\":14075:14101   */\n      swap1\n      pop\n        /* \"#utility.yul\":14021:14108   */\n      swap2\n      swap1\n      pop\n      jump\t// out\n        /* \"#utility.yul\":14114:14246   */\n    tag_151:\n      0x00\n        /* \"#utility.yul\":14233:14238   */\n      dup2\n        /* \"#utility.yul\":14227:14239   */\n      mload\n        /* \"#utility.yul\":14217:14239   */\n      swap1\n      pop\n        /* \"#utility.yul\":14206:14246   */\n      swap2\n      swap1\n      pop\n      jump\t// out\n        /* \"#utility.yul\":14252:14351   */\n    tag_171:\n      0x00\n        /* \"#utility.yul\":14338:14343   */\n      dup2\n        /* \"#utility.yul\":14332:14344   */\n      mload\n        /* \"#utility.yul\":14322:14344   */\n      swap1\n      pop\n        /* \"#utility.yul\":14311:14351   */\n      swap2\n      swap1\n      pop\n      jump\t// out\n        /* \"#utility.yul\":14357:14488   */\n    tag_161:\n      0x00\n        /* \"#utility.yul\":14477:14481   */\n      0x20\n        /* \"#utility.yul\":14472:14475   */\n      dup3\n        /* \"#utility.yul\":14468:14482   */\n      add\n        /* \"#utility.yul\":14460:14482   */\n      swap1\n      pop\n        /* \"#utility.yul\":14450:14488   */\n      swap2\n      swap1\n      pop\n      jump\t// out\n        /* \"#utility.yul\":14494:14678   */\n    tag_153:\n      0x00\n        /* \"#utility.yul\":14627:14633   */\n      dup3\n        /* \"#utility.yul\":14622:14625   */\n      dup3\n        /* \"#utility.yul\":14615:14634   */\n      mstore\n        /* \"#utility.yul\":14667:14671   */\n      0x20\n        /* \"#utility.yul\":14662:14665   */\n      dup3\n        /* \"#utility.yul\":14658:14672   */\n      add\n        /* \"#utility.yul\":14643:14672   */\n      swap1\n      pop\n        /* \"#utility.yul\":14605:14678   */\n      swap3\n      swap2\n      pop\n      pop\n      jump\t// out\n        /* \"#utility.yul\":14684:14853   */\n    tag_173:\n      0x00\n        /* \"#utility.yul\":14802:14808   */\n      dup3\n        /* \"#utility.yul\":14797:14800   */\n      dup3\n        /* \"#utility.yul\":14790:14809   */\n      mstore\n        /* \"#utility.yul\":14842:14846   */\n      0x20\n        /* \"#utility.yul\":14837:14840   */\n      dup3\n        /* \"#utility.yul\":14833:14847   */\n      add\n        /* \"#utility.yul\":14818:14847   */\n      swap1\n      pop\n        /* \"#utility.yul\":14780:14853   */\n      swap3\n      swap2\n      pop\n      pop\n      jump\t// out\n        /* \"#utility.yul\":14859:14955   */\n    tag_147:\n      0x00\n        /* \"#utility.yul\":14925:14949   */\n      tag_253\n        /* \"#utility.yul\":14943:14948   */\n      dup3\n        /* \"#utility.yul\":14925:14949   */\n      tag_254\n      jump\t// in\n    tag_253:\n        /* \"#utility.yul\":14914:14949   */\n      swap1\n      pop\n        /* \"#utility.yul\":14904:14955   */\n      swap2\n      swap1\n      pop\n      jump\t// out\n        /* \"#utility.yul\":14961:15065   */\n    tag_143:\n      0x00\n        /* \"#utility.yul\":15035:15059   */\n      tag_256\n        /* \"#utility.yul\":15053:15058   */\n      dup3\n        /* \"#utility.yul\":15035:15059   */\n      tag_254\n      jump\t// in\n    tag_256:\n        /* \"#utility.yul\":15024:15059   */\n      swap1\n      pop\n        /* \"#utility.yul\":15014:15065   */\n      swap2\n      swap1\n      pop\n      jump\t// out\n        /* \"#utility.yul\":15071:15197   */\n    tag_254:\n      0x00\n        /* \"#utility.yul\":15148:15190   */\n      0xffffffffffffffffffffffffffffffffffffffff\n        /* \"#utility.yul\":15141:15146   */\n      dup3\n        /* \"#utility.yul\":15137:15191   */\n      and\n        /* \"#utility.yul\":15126:15191   */\n      swap1\n      pop\n        /* \"#utility.yul\":15116:15197   */\n      swap2\n      swap1\n      pop\n      jump\t// out\n        /* \"#utility.yul\":15203:15280   */\n    tag_208:\n      0x00\n        /* \"#utility.yul\":15269:15274   */\n      dup2\n        /* \"#utility.yul\":15258:15274   */\n      swap1\n      pop\n        /* \"#utility.yul\":15248:15280   */\n      swap2\n      swap1\n      pop\n      jump\t// out\n        /* \"#utility.yul\":15286:15448   */\n    tag_164:\n      0x00\n        /* \"#utility.yul\":15387:15442   */\n      tag_260\n        /* \"#utility.yul\":15436:15441   */\n      dup3\n        /* \"#utility.yul\":15387:15442   */\n      tag_261\n      jump\t// in\n    tag_260:\n        /* \"#utility.yul\":15374:15442   */\n      swap1\n      pop\n        /* \"#utility.yul\":15364:15448   */\n      swap2\n      swap1\n      pop\n      jump\t// out\n        /* \"#utility.yul\":15454:15585   */\n    tag_261:\n      0x00\n        /* \"#utility.yul\":15555:15579   */\n      tag_263\n        /* \"#utility.yul\":15573:15578   */\n      dup3\n        /* \"#utility.yul\":15555:15579   */\n      tag_254\n      jump\t// in\n    tag_263:\n        /* \"#utility.yul\":15542:15579   */\n      swap1\n      pop\n        /* \"#utility.yul\":15532:15585   */\n      swap2\n      swap1\n      pop\n      jump\t// out\n        /* \"#utility.yul\":15591:15745   */\n    tag_105:\n        /* \"#utility.yul\":15675:15681   */\n      dup3\n        /* \"#utility.yul\":15670:15673   */\n      dup2\n        /* \"#utility.yul\":15665:15668   */\n      dup4\n        /* \"#utility.yul\":15652:15682   */\n      calldatacopy\n        /* \"#utility.yul\":15737:15738   */\n      0x00\n        /* \"#utility.yul\":15728:15734   */\n      dup4\n        /* \"#utility.yul\":15723:15726   */\n      dup4\n        /* \"#utility.yul\":15719:15735   */\n      add\n        /* \"#utility.yul\":15712:15739   */\n      mstore\n        /* \"#utility.yul\":15642:15745   */\n      pop\n      pop\n      pop\n      jump\t// out\n        /* \"#utility.yul\":15751:16058   */\n    tag_175:\n        /* \"#utility.yul\":15819:15820   */\n      0x00\n        /* \"#utility.yul\":15829:15942   */\n    tag_266:\n        /* \"#utility.yul\":15843:15849   */\n      dup4\n        /* \"#utility.yul\":15840:15841   */\n      dup2\n        /* \"#utility.yul\":15837:15850   */\n      lt\n        /* \"#utility.yul\":15829:15942   */\n      iszero\n      tag_268\n      jumpi\n        /* \"#utility.yul\":15928:15929   */\n      dup1\n        /* \"#utility.yul\":15923:15926   */\n      dup3\n        /* \"#utility.yul\":15919:15930   */\n      add\n        /* \"#utility.yul\":15913:15931   */\n      mload\n        /* \"#utility.yul\":15909:15910   */\n      dup2\n        /* \"#utility.yul\":15904:15907   */\n      dup5\n        /* \"#utility.yul\":15900:15911   */\n      add\n        /* \"#utility.yul\":15893:15932   */\n      mstore\n        /* \"#utility.yul\":15865:15867   */\n      0x20\n        /* \"#utility.yul\":15862:15863   */\n      dup2\n        /* \"#utility.yul\":15858:15868   */\n      add\n        /* \"#utility.yul\":15853:15868   */\n      swap1\n      pop\n        /* \"#utility.yul\":15829:15942   */\n      jump(tag_266)\n    tag_268:\n        /* \"#utility.yul\":15960:15966   */\n      dup4\n        /* \"#utility.yul\":15957:15958   */\n      dup2\n        /* \"#utility.yul\":15954:15967   */\n      gt\n        /* \"#utility.yul\":15951:15953   */\n      iszero\n      tag_269\n      jumpi\n        /* \"#utility.yul\":16040:16041   */\n      0x00\n        /* \"#utility.yul\":16031:16037   */\n      dup5\n        /* \"#utility.yul\":16026:16029   */\n      dup5\n        /* \"#utility.yul\":16022:16038   */\n      add\n        /* \"#utility.yul\":16015:16042   */\n      mstore\n        /* \"#utility.yul\":15951:15953   */\n    tag_269:\n        /* \"#utility.yul\":15800:16058   */\n      pop\n      pop\n      pop\n      pop\n      jump\t// out\n        /* \"#utility.yul\":16064:16384   */\n    tag_69:\n      0x00\n        /* \"#utility.yul\":16145:16146   */\n      0x02\n        /* \"#utility.yul\":16139:16143   */\n      dup3\n        /* \"#utility.yul\":16135:16147   */\n      div\n        /* \"#utility.yul\":16125:16147   */\n      swap1\n      pop\n        /* \"#utility.yul\":16192:16193   */\n      0x01\n        /* \"#utility.yul\":16186:16190   */\n      dup3\n        /* \"#utility.yul\":16182:16194   */\n      and\n        /* \"#utility.yul\":16213:16231   */\n      dup1\n        /* \"#utility.yul\":16203:16205   */\n      tag_271\n      jumpi\n        /* \"#utility.yul\":16269:16273   */\n      0x7f\n        /* \"#utility.yul\":16261:16267   */\n      dup3\n        /* \"#utility.yul\":16257:16274   */\n      and\n        /* \"#utility.yul\":16247:16274   */\n      swap2\n      pop\n        /* \"#utility.yul\":16203:16205   */\n    tag_271:\n        /* \"#utility.yul\":16331:16333   */\n      0x20\n        /* \"#utility.yul\":16323:16329   */\n      dup3\n        /* \"#utility.yul\":16320:16334   */\n      lt\n        /* \"#utility.yul\":16300:16318   */\n      dup2\n        /* \"#utility.yul\":16297:16335   */\n      eq\n        /* \"#utility.yul\":16294:16296   */\n      iszero\n      tag_272\n      jumpi\n        /* \"#utility.yul\":16350:16368   */\n      tag_273\n      tag_274\n      jump\t// in\n    tag_273:\n        /* \"#utility.yul\":16294:16296   */\n    tag_272:\n        /* \"#utility.yul\":16115:16384   */\n      pop\n      swap2\n      swap1\n      pop\n      jump\t// out\n        /* \"#utility.yul\":16390:16570   */\n    tag_274:\n        /* \"#utility.yul\":16438:16515   */\n      0x4e487b7100000000000000000000000000000000000000000000000000000000\n        /* \"#utility.yul\":16435:16436   */\n      0x00\n        /* \"#utility.yul\":16428:16516   */\n      mstore\n        /* \"#utility.yul\":16535:16539   */\n      0x22\n        /* \"#utility.yul\":16532:16533   */\n      0x04\n        /* \"#utility.yul\":16525:16540   */\n      mstore\n        /* \"#utility.yul\":16559:16563   */\n      0x24\n        /* \"#utility.yul\":16556:16557   */\n      0x00\n        /* \"#utility.yul\":16549:16564   */\n      revert\n        /* \"#utility.yul\":16576:16756   */\n    tag_241:\n        /* \"#utility.yul\":16624:16701   */\n      0x4e487b7100000000000000000000000000000000000000000000000000000000\n        /* \"#utility.yul\":16621:16622   */\n      0x00\n        /* \"#utility.yul\":16614:16702   */\n      mstore\n        /* \"#utility.yul\":16721:16725   */\n      0x41\n        /* \"#utility.yul\":16718:16719   */\n      0x04\n        /* \"#utility.yul\":16711:16726   */\n      mstore\n        /* \"#utility.yul\":16745:16749   */\n      0x24\n        /* \"#utility.yul\":16742:16743   */\n      0x00\n        /* \"#utility.yul\":16735:16750   */\n      revert\n        /* \"#utility.yul\":16762:16864   */\n    tag_177:\n      0x00\n        /* \"#utility.yul\":16854:16856   */\n      0x1f\n        /* \"#utility.yul\":16850:16857   */\n      not\n        /* \"#utility.yul\":16845:16847   */\n      0x1f\n        /* \"#utility.yul\":16838:16843   */\n      dup4\n        /* \"#utility.yul\":16834:16848   */\n      add\n        /* \"#utility.yul\":16830:16858   */\n      and\n        /* \"#utility.yul\":16820:16858   */\n      swap1\n      pop\n        /* \"#utility.yul\":16810:16864   */\n      swap2\n      swap1\n      pop\n      jump\t// out\n        /* \"#utility.yul\":16870:17008   */\n    tag_109:\n        /* \"#utility.yul\":16951:16983   */\n      tag_279\n        /* \"#utility.yul\":16977:16982   */\n      dup2\n        /* \"#utility.yul\":16951:16983   */\n      tag_143\n      jump\t// in\n    tag_279:\n        /* \"#utility.yul\":16944:16949   */\n      dup2\n        /* \"#utility.yul\":16941:16984   */\n      eq\n        /* \"#utility.yul\":16931:16933   */\n      tag_280\n      jumpi\n        /* \"#utility.yul\":16998:16999   */\n      0x00\n        /* \"#utility.yul\":16995:16996   */\n      dup1\n        /* \"#utility.yul\":16988:17000   */\n      revert\n        /* \"#utility.yul\":16931:16933   */\n    tag_280:\n        /* \"#utility.yul\":16921:17008   */\n      pop\n      jump\t// out\n        /* \"#utility.yul\":17014:17136   */\n    tag_117:\n        /* \"#utility.yul\":17087:17111   */\n      tag_282\n        /* \"#utility.yul\":17105:17110   */\n      dup2\n        /* \"#utility.yul\":17087:17111   */\n      tag_208\n      jump\t// in\n    tag_282:\n        /* \"#utility.yul\":17080:17085   */\n      dup2\n        /* \"#utility.yul\":17077:17112   */\n      eq\n        /* \"#utility.yul\":17067:17069   */\n      tag_283\n      jumpi\n        /* \"#utility.yul\":17126:17127   */\n      0x00\n        /* \"#utility.yul\":17123:17124   */\n      dup1\n        /* \"#utility.yul\":17116:17128   */\n      revert\n        /* \"#utility.yul\":17067:17069   */\n    tag_283:\n        /* \"#utility.yul\":17057:17136   */\n      pop\n      jump\t// out\n    stop\n\n    sub_0: assembly {\n            /* \"GambleGame.sol\":2443:7381  contract GambleGame {\r... */\n          mstore(0x40, 0x80)\n            /* \"GambleGame.sol\":3967:4652  constructor( address _manager, string memory _firstTeam, string memory _secondTeam, string memory _gambleDesc, string memory _gambleType, string memory _gambleSubType , address payable _owner, string memory _version ) {\r... */\n          callvalue\n          dup1\n          iszero\n          tag_1\n          jumpi\n          0x00\n          dup1\n          revert\n        tag_1:\n          pop\n          mload(0x40)\n          sub(codesize, bytecodeSize)\n          dup1\n          bytecodeSize\n          dup4\n          codecopy\n          dup2\n          dup2\n          add\n          0x40\n          mstore\n          dup2\n          add\n          swap1\n          tag_2\n          swap2\n          swap1\n          tag_3\n          jump\t// in\n        tag_2:\n            /* \"GambleGame.sol\":4204:4210  _owner */\n          dup2\n            /* \"GambleGame.sol\":4196:4201  owner */\n          0x05\n          0x01\n            /* \"GambleGame.sol\":4196:4210  owner = _owner */\n          0x0100\n          exp\n          dup2\n          sload\n          dup2\n          0xffffffffffffffffffffffffffffffffffffffff\n          mul\n          not\n          and\n          swap1\n          dup4\n          0xffffffffffffffffffffffffffffffffffffffff\n          and\n          mul\n          or\n          swap1\n          sstore\n          pop\n            /* \"GambleGame.sol\":4231:4239  _manager */\n          dup8\n            /* \"GambleGame.sol\":4221:4228  manager */\n          0x06\n          0x00\n            /* \"GambleGame.sol\":4221:4239  manager = _manager */\n          0x0100\n          exp\n          dup2\n          sload\n          dup2\n          0xffffffffffffffffffffffffffffffffffffffff\n          mul\n          not\n          and\n          swap1\n          dup4\n          0xffffffffffffffffffffffffffffffffffffffff\n          and\n          mul\n          or\n          swap1\n          sstore\n          pop\n            /* \"GambleGame.sol\":4262:4272  _firstTeam */\n          dup7\n            /* \"GambleGame.sol\":4250:4259  firstTeam */\n          0x07\n            /* \"GambleGame.sol\":4250:4272  firstTeam = _firstTeam */\n          swap1\n          dup1\n          mload\n          swap1\n          0x20\n          add\n          swap1\n          tag_6\n          swap3\n          swap2\n          swap1\n          tag_7\n          jump\t// in\n        tag_6:\n          pop\n            /* \"GambleGame.sol\":4296:4307  _secondTeam */\n          dup6\n            /* \"GambleGame.sol\":4283:4293  secondTeam */\n          0x08\n            /* \"GambleGame.sol\":4283:4307  secondTeam = _secondTeam */\n          swap1\n          dup1\n          mload\n          swap1\n          0x20\n          add\n          swap1\n          tag_8\n          swap3\n          swap2\n          swap1\n          tag_7\n          jump\t// in\n        tag_8:\n          pop\n            /* \"GambleGame.sol\":4331:4342  _gambleDesc */\n          dup5\n            /* \"GambleGame.sol\":4318:4328  gambleDesc */\n          0x09\n            /* \"GambleGame.sol\":4318:4342  gambleDesc = _gambleDesc */\n          swap1\n          dup1\n          mload\n          swap1\n          0x20\n          add\n          swap1\n          tag_9\n          swap3\n          swap2\n          swap1\n          tag_7\n          jump\t// in\n        tag_9:\n          pop\n            /* \"GambleGame.sol\":4366:4377  _gambleType */\n          dup4\n            /* \"GambleGame.sol\":4353:4363  gambleType */\n          0x0a\n            /* \"GambleGame.sol\":4353:4377  gambleType = _gambleType */\n          swap1\n          dup1\n          mload\n          swap1\n          0x20\n          add\n          swap1\n          tag_10\n          swap3\n          swap2\n          swap1\n          tag_7\n          jump\t// in\n        tag_10:\n          pop\n            /* \"GambleGame.sol\":4404:4418  _gambleSubType */\n          dup3\n            /* \"GambleGame.sol\":4388:4401  gambleSubType */\n          0x0b\n            /* \"GambleGame.sol\":4388:4418  gambleSubType = _gambleSubType */\n          swap1\n          dup1\n          mload\n          swap1\n          0x20\n          add\n          swap1\n          tag_11\n          swap3\n          swap2\n          swap1\n          tag_7\n          jump\t// in\n        tag_11:\n          pop\n            /* \"GambleGame.sol\":4441:4446  false */\n          0x00\n            /* \"GambleGame.sol\":4429:4438  completed */\n          0x01\n          0x00\n            /* \"GambleGame.sol\":4429:4446  completed = false */\n          0x0100\n          exp\n          dup2\n          sload\n          dup2\n          0xff\n          mul\n          not\n          and\n          swap1\n          dup4\n          iszero\n          iszero\n          mul\n          or\n          swap1\n          sstore\n          pop\n            /* \"GambleGame.sol\":4477:4482  false */\n          0x00\n            /* \"GambleGame.sol\":4457:4474  completedByWinner */\n          0x03\n          0x00\n            /* \"GambleGame.sol\":4457:4482  completedByWinner = false */\n          0x0100\n          exp\n          dup2\n          sload\n          dup2\n          0xff\n          mul\n          not\n          and\n          swap1\n          dup4\n          iszero\n          iszero\n          mul\n          or\n          swap1\n          sstore\n          pop\n            /* \"GambleGame.sol\":4503:4511  _version */\n          dup1\n            /* \"GambleGame.sol\":4493:4500  version */\n          0x00\n            /* \"GambleGame.sol\":4493:4511  version = _version */\n          swap1\n          dup1\n          mload\n          swap1\n          0x20\n          add\n          swap1\n          tag_12\n          swap3\n          swap2\n          swap1\n          tag_7\n          jump\t// in\n        tag_12:\n          pop\n            /* \"GambleGame.sol\":4547:4552  owner */\n          0x05\n          0x01\n          swap1\n          sload\n          swap1\n          0x0100\n          exp\n          swap1\n          div\n          0xffffffffffffffffffffffffffffffffffffffff\n          and\n            /* \"GambleGame.sol\":4536:4552  manager == owner */\n          0xffffffffffffffffffffffffffffffffffffffff\n          and\n            /* \"GambleGame.sol\":4536:4543  manager */\n          0x06\n          0x00\n          swap1\n          sload\n          swap1\n          0x0100\n          exp\n          swap1\n          div\n          0xffffffffffffffffffffffffffffffffffffffff\n          and\n            /* \"GambleGame.sol\":4536:4552  manager == owner */\n          0xffffffffffffffffffffffffffffffffffffffff\n          and\n          eq\n            /* \"GambleGame.sol\":4532:4645  if (manager == owner) {\r... */\n          iszero\n          tag_13\n          jumpi\n            /* \"GambleGame.sol\":4580:4584  true */\n          0x01\n            /* \"GambleGame.sol\":4569:4577  official */\n          0x05\n          0x00\n            /* \"GambleGame.sol\":4569:4584  official = true */\n          0x0100\n          exp\n          dup2\n          sload\n          dup2\n          0xff\n          mul\n          not\n          and\n          swap1\n          dup4\n          iszero\n          iszero\n          mul\n          or\n          swap1\n          sstore\n          pop\n            /* \"GambleGame.sol\":4532:4645  if (manager == owner) {\r... */\n          jump(tag_14)\n        tag_13:\n            /* \"GambleGame.sol\":4628:4633  false */\n          0x00\n            /* \"GambleGame.sol\":4617:4625  official */\n          0x05\n          0x00\n            /* \"GambleGame.sol\":4617:4633  official = false */\n          0x0100\n          exp\n          dup2\n          sload\n          dup2\n          0xff\n          mul\n          not\n          and\n          swap1\n          dup4\n          iszero\n          iszero\n          mul\n          or\n          swap1\n          sstore\n          pop\n            /* \"GambleGame.sol\":4532:4645  if (manager == owner) {\r... */\n        tag_14:\n            /* \"GambleGame.sol\":3967:4652  constructor( address _manager, string memory _firstTeam, string memory _secondTeam, string memory _gambleDesc, string memory _gambleType, string memory _gambleSubType , address payable _owner, string memory _version ) {\r... */\n          pop\n          pop\n          pop\n          pop\n          pop\n          pop\n          pop\n          pop\n            /* \"GambleGame.sol\":2443:7381  contract GambleGame {\r... */\n          jump(tag_15)\n        tag_7:\n          dup3\n          dup1\n          sload\n          tag_16\n          swap1\n          tag_17\n          jump\t// in\n        tag_16:\n          swap1\n          0x00\n          mstore\n          keccak256(0x00, 0x20)\n          swap1\n          0x1f\n          add\n          0x20\n          swap1\n          div\n          dup2\n          add\n          swap3\n          dup3\n          tag_19\n          jumpi\n          0x00\n          dup6\n          sstore\n          jump(tag_18)\n        tag_19:\n          dup3\n          0x1f\n          lt\n          tag_20\n          jumpi\n          dup1\n          mload\n          not(0xff)\n          and\n          dup4\n          dup1\n          add\n          or\n          dup6\n          sstore\n          jump(tag_18)\n        tag_20:\n          dup3\n          dup1\n          add\n          0x01\n          add\n          dup6\n          sstore\n          dup3\n          iszero\n          tag_18\n          jumpi\n          swap2\n          dup3\n          add\n        tag_21:\n          dup3\n          dup2\n          gt\n          iszero\n          tag_22\n          jumpi\n          dup3\n          mload\n          dup3\n          sstore\n          swap2\n          0x20\n          add\n          swap2\n          swap1\n          0x01\n          add\n          swap1\n          jump(tag_21)\n        tag_22:\n        tag_18:\n          pop\n          swap1\n          pop\n          tag_23\n          swap2\n          swap1\n          tag_24\n          jump\t// in\n        tag_23:\n          pop\n          swap1\n          jump\t// out\n        tag_24:\n        tag_25:\n          dup1\n          dup3\n          gt\n          iszero\n          tag_26\n          jumpi\n          0x00\n          dup2\n          0x00\n          swap1\n          sstore\n          pop\n          0x01\n          add\n          jump(tag_25)\n        tag_26:\n          pop\n          swap1\n          jump\t// out\n            /* \"#utility.yul\":7:360   */\n        tag_28:\n          0x00\n            /* \"#utility.yul\":121:186   */\n          tag_30\n            /* \"#utility.yul\":136:185   */\n          tag_31\n            /* \"#utility.yul\":178:184   */\n          dup5\n            /* \"#utility.yul\":136:185   */\n          tag_32\n          jump\t// in\n        tag_31:\n            /* \"#utility.yul\":121:186   */\n          tag_33\n          jump\t// in\n        tag_30:\n            /* \"#utility.yul\":112:186   */\n          swap1\n          pop\n            /* \"#utility.yul\":209:215   */\n          dup3\n            /* \"#utility.yul\":202:207   */\n          dup2\n            /* \"#utility.yul\":195:216   */\n          mstore\n            /* \"#utility.yul\":247:251   */\n          0x20\n            /* \"#utility.yul\":240:245   */\n          dup2\n            /* \"#utility.yul\":236:252   */\n          add\n            /* \"#utility.yul\":285:288   */\n          dup5\n            /* \"#utility.yul\":276:282   */\n          dup5\n            /* \"#utility.yul\":271:274   */\n          dup5\n            /* \"#utility.yul\":267:283   */\n          add\n            /* \"#utility.yul\":264:289   */\n          gt\n            /* \"#utility.yul\":261:263   */\n          iszero\n          tag_34\n          jumpi\n            /* \"#utility.yul\":302:303   */\n          0x00\n            /* \"#utility.yul\":299:300   */\n          dup1\n            /* \"#utility.yul\":292:304   */\n          revert\n            /* \"#utility.yul\":261:263   */\n        tag_34:\n            /* \"#utility.yul\":315:354   */\n          tag_35\n            /* \"#utility.yul\":347:353   */\n          dup5\n            /* \"#utility.yul\":342:345   */\n          dup3\n            /* \"#utility.yul\":337:340   */\n          dup6\n            /* \"#utility.yul\":315:354   */\n          tag_36\n          jump\t// in\n        tag_35:\n            /* \"#utility.yul\":102:360   */\n          pop\n          swap4\n          swap3\n          pop\n          pop\n          pop\n          jump\t// out\n            /* \"#utility.yul\":366:509   */\n        tag_37:\n          0x00\n            /* \"#utility.yul\":454:460   */\n          dup2\n            /* \"#utility.yul\":448:461   */\n          mload\n            /* \"#utility.yul\":439:461   */\n          swap1\n          pop\n            /* \"#utility.yul\":470:503   */\n          tag_39\n            /* \"#utility.yul\":497:502   */\n          dup2\n            /* \"#utility.yul\":470:503   */\n          tag_40\n          jump\t// in\n        tag_39:\n            /* \"#utility.yul\":429:509   */\n          swap3\n          swap2\n          pop\n          pop\n          jump\t// out\n            /* \"#utility.yul\":515:674   */\n        tag_41:\n          0x00\n            /* \"#utility.yul\":611:617   */\n          dup2\n            /* \"#utility.yul\":605:618   */\n          mload\n            /* \"#utility.yul\":596:618   */\n          swap1\n          pop\n            /* \"#utility.yul\":627:668   */\n          tag_43\n            /* \"#utility.yul\":662:667   */\n          dup2\n            /* \"#utility.yul\":627:668   */\n          tag_44\n          jump\t// in\n        tag_43:\n            /* \"#utility.yul\":586:674   */\n          swap3\n          swap2\n          pop\n          pop\n          jump\t// out\n            /* \"#utility.yul\":694:982   */\n        tag_45:\n          0x00\n            /* \"#utility.yul\":810:813   */\n          dup3\n            /* \"#utility.yul\":803:807   */\n          0x1f\n            /* \"#utility.yul\":795:801   */\n          dup4\n            /* \"#utility.yul\":791:808   */\n          add\n            /* \"#utility.yul\":787:814   */\n          slt\n            /* \"#utility.yul\":777:779   */\n          tag_47\n          jumpi\n            /* \"#utility.yul\":828:829   */\n          0x00\n            /* \"#utility.yul\":825:826   */\n          dup1\n            /* \"#utility.yul\":818:830   */\n          revert\n            /* \"#utility.yul\":777:779   */\n        tag_47:\n            /* \"#utility.yul\":861:867   */\n          dup2\n            /* \"#utility.yul\":855:868   */\n          mload\n            /* \"#utility.yul\":886:976   */\n          tag_48\n            /* \"#utility.yul\":972:975   */\n          dup5\n            /* \"#utility.yul\":964:970   */\n          dup3\n            /* \"#utility.yul\":957:961   */\n          0x20\n            /* \"#utility.yul\":949:955   */\n          dup7\n            /* \"#utility.yul\":945:962   */\n          add\n            /* \"#utility.yul\":886:976   */\n          tag_28\n          jump\t// in\n        tag_48:\n            /* \"#utility.yul\":877:976   */\n          swap2\n          pop\n            /* \"#utility.yul\":767:982   */\n          pop\n          swap3\n          swap2\n          pop\n          pop\n          jump\t// out\n            /* \"#utility.yul\":988:3021   */\n        tag_3:\n          0x00\n          dup1\n          0x00\n          dup1\n          0x00\n          dup1\n          0x00\n          dup1\n            /* \"#utility.yul\":1294:1297   */\n          0x0100\n            /* \"#utility.yul\":1282:1291   */\n          dup10\n            /* \"#utility.yul\":1273:1280   */\n          dup12\n            /* \"#utility.yul\":1269:1292   */\n          sub\n            /* \"#utility.yul\":1265:1298   */\n          slt\n            /* \"#utility.yul\":1262:1264   */\n          iszero\n          tag_50\n          jumpi\n            /* \"#utility.yul\":1311:1312   */\n          0x00\n            /* \"#utility.yul\":1308:1309   */\n          dup1\n            /* \"#utility.yul\":1301:1313   */\n          revert\n            /* \"#utility.yul\":1262:1264   */\n        tag_50:\n            /* \"#utility.yul\":1354:1355   */\n          0x00\n            /* \"#utility.yul\":1379:1443   */\n          tag_51\n            /* \"#utility.yul\":1435:1442   */\n          dup12\n            /* \"#utility.yul\":1426:1432   */\n          dup3\n            /* \"#utility.yul\":1415:1424   */\n          dup13\n            /* \"#utility.yul\":1411:1433   */\n          add\n            /* \"#utility.yul\":1379:1443   */\n          tag_37\n          jump\t// in\n        tag_51:\n            /* \"#utility.yul\":1369:1443   */\n          swap9\n          pop\n            /* \"#utility.yul\":1325:1453   */\n          pop\n            /* \"#utility.yul\":1513:1515   */\n          0x20\n            /* \"#utility.yul\":1502:1511   */\n          dup10\n            /* \"#utility.yul\":1498:1516   */\n          add\n            /* \"#utility.yul\":1492:1517   */\n          mload\n            /* \"#utility.yul\":1544:1562   */\n          0xffffffffffffffff\n            /* \"#utility.yul\":1536:1542   */\n          dup2\n            /* \"#utility.yul\":1533:1563   */\n          gt\n            /* \"#utility.yul\":1530:1532   */\n          iszero\n          tag_52\n          jumpi\n            /* \"#utility.yul\":1576:1577   */\n          0x00\n            /* \"#utility.yul\":1573:1574   */\n          dup1\n            /* \"#utility.yul\":1566:1578   */\n          revert\n            /* \"#utility.yul\":1530:1532   */\n        tag_52:\n            /* \"#utility.yul\":1604:1678   */\n          tag_53\n            /* \"#utility.yul\":1670:1677   */\n          dup12\n            /* \"#utility.yul\":1661:1667   */\n          dup3\n            /* \"#utility.yul\":1650:1659   */\n          dup13\n            /* \"#utility.yul\":1646:1668   */\n          add\n            /* \"#utility.yul\":1604:1678   */\n          tag_45\n          jump\t// in\n        tag_53:\n            /* \"#utility.yul\":1594:1678   */\n          swap8\n          pop\n            /* \"#utility.yul\":1463:1688   */\n          pop\n            /* \"#utility.yul\":1748:1750   */\n          0x40\n            /* \"#utility.yul\":1737:1746   */\n          dup10\n            /* \"#utility.yul\":1733:1751   */\n          add\n            /* \"#utility.yul\":1727:1752   */\n          mload\n            /* \"#utility.yul\":1779:1797   */\n          0xffffffffffffffff\n            /* \"#utility.yul\":1771:1777   */\n          dup2\n            /* \"#utility.yul\":1768:1798   */\n          gt\n            /* \"#utility.yul\":1765:1767   */\n          iszero\n          tag_54\n          jumpi\n            /* \"#utility.yul\":1811:1812   */\n          0x00\n            /* \"#utility.yul\":1808:1809   */\n          dup1\n            /* \"#utility.yul\":1801:1813   */\n          revert\n            /* \"#utility.yul\":1765:1767   */\n        tag_54:\n            /* \"#utility.yul\":1839:1913   */\n          tag_55\n            /* \"#utility.yul\":1905:1912   */\n          dup12\n            /* \"#utility.yul\":1896:1902   */\n          dup3\n            /* \"#utility.yul\":1885:1894   */\n          dup13\n            /* \"#utility.yul\":1881:1903   */\n          add\n            /* \"#utility.yul\":1839:1913   */\n          tag_45\n          jump\t// in\n        tag_55:\n            /* \"#utility.yul\":1829:1913   */\n          swap7\n          pop\n            /* \"#utility.yul\":1698:1923   */\n          pop\n            /* \"#utility.yul\":1983:1985   */\n          0x60\n            /* \"#utility.yul\":1972:1981   */\n          dup10\n            /* \"#utility.yul\":1968:1986   */\n          add\n            /* \"#utility.yul\":1962:1987   */\n          mload\n            /* \"#utility.yul\":2014:2032   */\n          0xffffffffffffffff\n            /* \"#utility.yul\":2006:2012   */\n          dup2\n            /* \"#utility.yul\":2003:2033   */\n          gt\n            /* \"#utility.yul\":2000:2002   */\n          iszero\n          tag_56\n          jumpi\n            /* \"#utility.yul\":2046:2047   */\n          0x00\n            /* \"#utility.yul\":2043:2044   */\n          dup1\n            /* \"#utility.yul\":2036:2048   */\n          revert\n            /* \"#utility.yul\":2000:2002   */\n        tag_56:\n            /* \"#utility.yul\":2074:2148   */\n          tag_57\n            /* \"#utility.yul\":2140:2147   */\n          dup12\n            /* \"#utility.yul\":2131:2137   */\n          dup3\n            /* \"#utility.yul\":2120:2129   */\n          dup13\n            /* \"#utility.yul\":2116:2138   */\n          add\n            /* \"#utility.yul\":2074:2148   */\n          tag_45\n          jump\t// in\n        tag_57:\n            /* \"#utility.yul\":2064:2148   */\n          swap6\n          pop\n            /* \"#utility.yul\":1933:2158   */\n          pop\n            /* \"#utility.yul\":2218:2221   */\n          0x80\n            /* \"#utility.yul\":2207:2216   */\n          dup10\n            /* \"#utility.yul\":2203:2222   */\n          add\n            /* \"#utility.yul\":2197:2223   */\n          mload\n            /* \"#utility.yul\":2250:2268   */\n          0xffffffffffffffff\n            /* \"#utility.yul\":2242:2248   */\n          dup2\n            /* \"#utility.yul\":2239:2269   */\n          gt\n            /* \"#utility.yul\":2236:2238   */\n          iszero\n          tag_58\n          jumpi\n            /* \"#utility.yul\":2282:2283   */\n          0x00\n            /* \"#utility.yul\":2279:2280   */\n          dup1\n            /* \"#utility.yul\":2272:2284   */\n          revert\n            /* \"#utility.yul\":2236:2238   */\n        tag_58:\n            /* \"#utility.yul\":2310:2384   */\n          tag_59\n            /* \"#utility.yul\":2376:2383   */\n          dup12\n            /* \"#utility.yul\":2367:2373   */\n          dup3\n            /* \"#utility.yul\":2356:2365   */\n          dup13\n            /* \"#utility.yul\":2352:2374   */\n          add\n            /* \"#utility.yul\":2310:2384   */\n          tag_45\n          jump\t// in\n        tag_59:\n            /* \"#utility.yul\":2300:2384   */\n          swap5\n          pop\n            /* \"#utility.yul\":2168:2394   */\n          pop\n            /* \"#utility.yul\":2454:2457   */\n          0xa0\n            /* \"#utility.yul\":2443:2452   */\n          dup10\n            /* \"#utility.yul\":2439:2458   */\n          add\n            /* \"#utility.yul\":2433:2459   */\n          mload\n            /* \"#utility.yul\":2486:2504   */\n          0xffffffffffffffff\n            /* \"#utility.yul\":2478:2484   */\n          dup2\n            /* \"#utility.yul\":2475:2505   */\n          gt\n            /* \"#utility.yul\":2472:2474   */\n          iszero\n          tag_60\n          jumpi\n            /* \"#utility.yul\":2518:2519   */\n          0x00\n            /* \"#utility.yul\":2515:2516   */\n          dup1\n            /* \"#utility.yul\":2508:2520   */\n          revert\n            /* \"#utility.yul\":2472:2474   */\n        tag_60:\n            /* \"#utility.yul\":2546:2620   */\n          tag_61\n            /* \"#utility.yul\":2612:2619   */\n          dup12\n            /* \"#utility.yul\":2603:2609   */\n          dup3\n            /* \"#utility.yul\":2592:2601   */\n          dup13\n            /* \"#utility.yul\":2588:2610   */\n          add\n            /* \"#utility.yul\":2546:2620   */\n          tag_45\n          jump\t// in\n        tag_61:\n            /* \"#utility.yul\":2536:2620   */\n          swap4\n          pop\n            /* \"#utility.yul\":2404:2630   */\n          pop\n            /* \"#utility.yul\":2669:2672   */\n          0xc0\n            /* \"#utility.yul\":2696:2768   */\n          tag_62\n            /* \"#utility.yul\":2760:2767   */\n          dup12\n            /* \"#utility.yul\":2751:2757   */\n          dup3\n            /* \"#utility.yul\":2740:2749   */\n          dup13\n            /* \"#utility.yul\":2736:2758   */\n          add\n            /* \"#utility.yul\":2696:2768   */\n          tag_41\n          jump\t// in\n        tag_62:\n            /* \"#utility.yul\":2686:2768   */\n          swap3\n          pop\n            /* \"#utility.yul\":2640:2778   */\n          pop\n            /* \"#utility.yul\":2838:2841   */\n          0xe0\n            /* \"#utility.yul\":2827:2836   */\n          dup10\n            /* \"#utility.yul\":2823:2842   */\n          add\n            /* \"#utility.yul\":2817:2843   */\n          mload\n            /* \"#utility.yul\":2870:2888   */\n          0xffffffffffffffff\n            /* \"#utility.yul\":2862:2868   */\n          dup2\n            /* \"#utility.yul\":2859:2889   */\n          gt\n            /* \"#utility.yul\":2856:2858   */\n          iszero\n          tag_63\n          jumpi\n            /* \"#utility.yul\":2902:2903   */\n          0x00\n            /* \"#utility.yul\":2899:2900   */\n          dup1\n            /* \"#utility.yul\":2892:2904   */\n          revert\n            /* \"#utility.yul\":2856:2858   */\n        tag_63:\n            /* \"#utility.yul\":2930:3004   */\n          tag_64\n            /* \"#utility.yul\":2996:3003   */\n          dup12\n            /* \"#utility.yul\":2987:2993   */\n          dup3\n            /* \"#utility.yul\":2976:2985   */\n          dup13\n            /* \"#utility.yul\":2972:2994   */\n          add\n            /* \"#utility.yul\":2930:3004   */\n          tag_45\n          jump\t// in\n        tag_64:\n            /* \"#utility.yul\":2920:3004   */\n          swap2\n          pop\n            /* \"#utility.yul\":2788:3014   */\n          pop\n            /* \"#utility.yul\":1252:3021   */\n          swap3\n          swap6\n          swap9\n          pop\n          swap3\n          swap6\n          swap9\n          swap1\n          swap4\n          swap7\n          pop\n          jump\t// out\n            /* \"#utility.yul\":3027:3310   */\n        tag_33:\n          0x00\n            /* \"#utility.yul\":3093:3095   */\n          0x40\n            /* \"#utility.yul\":3087:3096   */\n          mload\n            /* \"#utility.yul\":3077:3096   */\n          swap1\n          pop\n            /* \"#utility.yul\":3135:3139   */\n          dup2\n            /* \"#utility.yul\":3127:3133   */\n          dup2\n            /* \"#utility.yul\":3123:3140   */\n          add\n            /* \"#utility.yul\":3242:3248   */\n          dup2\n            /* \"#utility.yul\":3230:3240   */\n          dup2\n            /* \"#utility.yul\":3227:3249   */\n          lt\n            /* \"#utility.yul\":3206:3224   */\n          0xffffffffffffffff\n            /* \"#utility.yul\":3194:3204   */\n          dup3\n            /* \"#utility.yul\":3191:3225   */\n          gt\n            /* \"#utility.yul\":3188:3250   */\n          or\n            /* \"#utility.yul\":3185:3187   */\n          iszero\n          tag_66\n          jumpi\n            /* \"#utility.yul\":3253:3271   */\n          tag_67\n          tag_68\n          jump\t// in\n        tag_67:\n            /* \"#utility.yul\":3185:3187   */\n        tag_66:\n            /* \"#utility.yul\":3293:3303   */\n          dup1\n            /* \"#utility.yul\":3289:3291   */\n          0x40\n            /* \"#utility.yul\":3282:3304   */\n          mstore\n            /* \"#utility.yul\":3067:3310   */\n          pop\n          swap2\n          swap1\n          pop\n          jump\t// out\n            /* \"#utility.yul\":3316:3648   */\n        tag_32:\n          0x00\n            /* \"#utility.yul\":3468:3486   */\n          0xffffffffffffffff\n            /* \"#utility.yul\":3460:3466   */\n          dup3\n            /* \"#utility.yul\":3457:3487   */\n          gt\n            /* \"#utility.yul\":3454:3456   */\n          iszero\n          tag_70\n          jumpi\n            /* \"#utility.yul\":3490:3508   */\n          tag_71\n          tag_68\n          jump\t// in\n        tag_71:\n            /* \"#utility.yul\":3454:3456   */\n        tag_70:\n            /* \"#utility.yul\":3575:3579   */\n          0x1f\n            /* \"#utility.yul\":3571:3580   */\n          not\n            /* \"#utility.yul\":3564:3568   */\n          0x1f\n            /* \"#utility.yul\":3556:3562   */\n          dup4\n            /* \"#utility.yul\":3552:3569   */\n          add\n            /* \"#utility.yul\":3548:3581   */\n          and\n            /* \"#utility.yul\":3540:3581   */\n          swap1\n          pop\n            /* \"#utility.yul\":3636:3640   */\n          0x20\n            /* \"#utility.yul\":3630:3634   */\n          dup2\n            /* \"#utility.yul\":3626:3641   */\n          add\n            /* \"#utility.yul\":3618:3641   */\n          swap1\n          pop\n            /* \"#utility.yul\":3383:3648   */\n          swap2\n          swap1\n          pop\n          jump\t// out\n            /* \"#utility.yul\":3654:3750   */\n        tag_72:\n          0x00\n            /* \"#utility.yul\":3720:3744   */\n          tag_74\n            /* \"#utility.yul\":3738:3743   */\n          dup3\n            /* \"#utility.yul\":3720:3744   */\n          tag_75\n          jump\t// in\n        tag_74:\n            /* \"#utility.yul\":3709:3744   */\n          swap1\n          pop\n            /* \"#utility.yul\":3699:3750   */\n          swap2\n          swap1\n          pop\n          jump\t// out\n            /* \"#utility.yul\":3756:3860   */\n        tag_76:\n          0x00\n            /* \"#utility.yul\":3830:3854   */\n          tag_78\n            /* \"#utility.yul\":3848:3853   */\n          dup3\n            /* \"#utility.yul\":3830:3854   */\n          tag_75\n          jump\t// in\n        tag_78:\n            /* \"#utility.yul\":3819:3854   */\n          swap1\n          pop\n            /* \"#utility.yul\":3809:3860   */\n          swap2\n          swap1\n          pop\n          jump\t// out\n            /* \"#utility.yul\":3866:3992   */\n        tag_75:\n          0x00\n            /* \"#utility.yul\":3943:3985   */\n          0xffffffffffffffffffffffffffffffffffffffff\n            /* \"#utility.yul\":3936:3941   */\n          dup3\n            /* \"#utility.yul\":3932:3986   */\n          and\n            /* \"#utility.yul\":3921:3986   */\n          swap1\n          pop\n            /* \"#utility.yul\":3911:3992   */\n          swap2\n          swap1\n          pop\n          jump\t// out\n            /* \"#utility.yul\":3998:4305   */\n        tag_36:\n            /* \"#utility.yul\":4066:4067   */\n          0x00\n            /* \"#utility.yul\":4076:4189   */\n        tag_81:\n            /* \"#utility.yul\":4090:4096   */\n          dup4\n            /* \"#utility.yul\":4087:4088   */\n          dup2\n            /* \"#utility.yul\":4084:4097   */\n          lt\n            /* \"#utility.yul\":4076:4189   */\n          iszero\n          tag_83\n          jumpi\n            /* \"#utility.yul\":4175:4176   */\n          dup1\n            /* \"#utility.yul\":4170:4173   */\n          dup3\n            /* \"#utility.yul\":4166:4177   */\n          add\n            /* \"#utility.yul\":4160:4178   */\n          mload\n            /* \"#utility.yul\":4156:4157   */\n          dup2\n            /* \"#utility.yul\":4151:4154   */\n          dup5\n            /* \"#utility.yul\":4147:4158   */\n          add\n            /* \"#utility.yul\":4140:4179   */\n          mstore\n            /* \"#utility.yul\":4112:4114   */\n          0x20\n            /* \"#utility.yul\":4109:4110   */\n          dup2\n            /* \"#utility.yul\":4105:4115   */\n          add\n            /* \"#utility.yul\":4100:4115   */\n          swap1\n          pop\n            /* \"#utility.yul\":4076:4189   */\n          jump(tag_81)\n        tag_83:\n            /* \"#utility.yul\":4207:4213   */\n          dup4\n            /* \"#utility.yul\":4204:4205   */\n          dup2\n            /* \"#utility.yul\":4201:4214   */\n          gt\n            /* \"#utility.yul\":4198:4200   */\n          iszero\n          tag_84\n          jumpi\n            /* \"#utility.yul\":4287:4288   */\n          0x00\n            /* \"#utility.yul\":4278:4284   */\n          dup5\n            /* \"#utility.yul\":4273:4276   */\n          dup5\n            /* \"#utility.yul\":4269:4285   */\n          add\n            /* \"#utility.yul\":4262:4289   */\n          mstore\n            /* \"#utility.yul\":4198:4200   */\n        tag_84:\n            /* \"#utility.yul\":4047:4305   */\n          pop\n          pop\n          pop\n          pop\n          jump\t// out\n            /* \"#utility.yul\":4311:4631   */\n        tag_17:\n          0x00\n            /* \"#utility.yul\":4392:4393   */\n          0x02\n            /* \"#utility.yul\":4386:4390   */\n          dup3\n            /* \"#utility.yul\":4382:4394   */\n          div\n            /* \"#utility.yul\":4372:4394   */\n          swap1\n          pop\n            /* \"#utility.yul\":4439:4440   */\n          0x01\n            /* \"#utility.yul\":4433:4437   */\n          dup3\n            /* \"#utility.yul\":4429:4441   */\n          and\n            /* \"#utility.yul\":4460:4478   */\n          dup1\n            /* \"#utility.yul\":4450:4452   */\n          tag_86\n          jumpi\n            /* \"#utility.yul\":4516:4520   */\n          0x7f\n            /* \"#utility.yul\":4508:4514   */\n          dup3\n            /* \"#utility.yul\":4504:4521   */\n          and\n            /* \"#utility.yul\":4494:4521   */\n          swap2\n          pop\n            /* \"#utility.yul\":4450:4452   */\n        tag_86:\n            /* \"#utility.yul\":4578:4580   */\n          0x20\n            /* \"#utility.yul\":4570:4576   */\n          dup3\n            /* \"#utility.yul\":4567:4581   */\n          lt\n            /* \"#utility.yul\":4547:4565   */\n          dup2\n            /* \"#utility.yul\":4544:4582   */\n          eq\n            /* \"#utility.yul\":4541:4543   */\n          iszero\n          tag_87\n          jumpi\n            /* \"#utility.yul\":4597:4615   */\n          tag_88\n          tag_89\n          jump\t// in\n        tag_88:\n            /* \"#utility.yul\":4541:4543   */\n        tag_87:\n            /* \"#utility.yul\":4362:4631   */\n          pop\n          swap2\n          swap1\n          pop\n          jump\t// out\n            /* \"#utility.yul\":4637:4817   */\n        tag_89:\n            /* \"#utility.yul\":4685:4762   */\n          0x4e487b7100000000000000000000000000000000000000000000000000000000\n            /* \"#utility.yul\":4682:4683   */\n          0x00\n            /* \"#utility.yul\":4675:4763   */\n          mstore\n            /* \"#utility.yul\":4782:4786   */\n          0x22\n            /* \"#utility.yul\":4779:4780   */\n          0x04\n            /* \"#utility.yul\":4772:4787   */\n          mstore\n            /* \"#utility.yul\":4806:4810   */\n          0x24\n            /* \"#utility.yul\":4803:4804   */\n          0x00\n            /* \"#utility.yul\":4796:4811   */\n          revert\n            /* \"#utility.yul\":4823:5003   */\n        tag_68:\n            /* \"#utility.yul\":4871:4948   */\n          0x4e487b7100000000000000000000000000000000000000000000000000000000\n            /* \"#utility.yul\":4868:4869   */\n          0x00\n            /* \"#utility.yul\":4861:4949   */\n          mstore\n            /* \"#utility.yul\":4968:4972   */\n          0x41\n            /* \"#utility.yul\":4965:4966   */\n          0x04\n            /* \"#utility.yul\":4958:4973   */\n          mstore\n            /* \"#utility.yul\":4992:4996   */\n          0x24\n            /* \"#utility.yul\":4989:4990   */\n          0x00\n            /* \"#utility.yul\":4982:4997   */\n          revert\n            /* \"#utility.yul\":5009:5131   */\n        tag_40:\n            /* \"#utility.yul\":5082:5106   */\n          tag_93\n            /* \"#utility.yul\":5100:5105   */\n          dup2\n            /* \"#utility.yul\":5082:5106   */\n          tag_72\n          jump\t// in\n        tag_93:\n            /* \"#utility.yul\":5075:5080   */\n          dup2\n            /* \"#utility.yul\":5072:5107   */\n          eq\n            /* \"#utility.yul\":5062:5064   */\n          tag_94\n          jumpi\n            /* \"#utility.yul\":5121:5122   */\n          0x00\n            /* \"#utility.yul\":5118:5119   */\n          dup1\n            /* \"#utility.yul\":5111:5123   */\n          revert\n            /* \"#utility.yul\":5062:5064   */\n        tag_94:\n            /* \"#utility.yul\":5052:5131   */\n          pop\n          jump\t// out\n            /* \"#utility.yul\":5137:5275   */\n        tag_44:\n            /* \"#utility.yul\":5218:5250   */\n          tag_96\n            /* \"#utility.yul\":5244:5249   */\n          dup2\n            /* \"#utility.yul\":5218:5250   */\n          tag_76\n          jump\t// in\n        tag_96:\n            /* \"#utility.yul\":5211:5216   */\n          dup2\n            /* \"#utility.yul\":5208:5251   */\n          eq\n            /* \"#utility.yul\":5198:5200   */\n          tag_97\n          jumpi\n            /* \"#utility.yul\":5265:5266   */\n          0x00\n            /* \"#utility.yul\":5262:5263   */\n          dup1\n            /* \"#utility.yul\":5255:5267   */\n          revert\n            /* \"#utility.yul\":5198:5200   */\n        tag_97:\n            /* \"#utility.yul\":5188:5275   */\n          pop\n          jump\t// out\n            /* \"GambleGame.sol\":2443:7381  contract GambleGame {\r... */\n        tag_15:\n          dataSize(sub_0)\n          dup1\n          dataOffset(sub_0)\n          0x00\n          codecopy\n          0x00\n          return\n        stop\n\n        sub_0: assembly {\n                /* \"GambleGame.sol\":2443:7381  contract GambleGame {\r... */\n              mstore(0x40, 0x80)\n              jumpi(tag_1, lt(calldatasize, 0x04))\n              shr(0xe0, calldataload(0x00))\n              dup1\n              0x985cb113\n              gt\n              tag_24\n              jumpi\n              dup1\n              0xbfd4d92e\n              gt\n              tag_25\n              jumpi\n              dup1\n              0xbfd4d92e\n              eq\n              tag_18\n              jumpi\n              dup1\n              0xc1e77c4a\n              eq\n              tag_19\n              jumpi\n              dup1\n              0xcc1f044d\n              eq\n              tag_20\n              jumpi\n              dup1\n              0xdfbf53ae\n              eq\n              tag_21\n              jumpi\n              dup1\n              0xefdeccff\n              eq\n              tag_22\n              jumpi\n              dup1\n              0xf2fde38b\n              eq\n              tag_23\n              jumpi\n              jump(tag_1)\n            tag_25:\n              dup1\n              0x985cb113\n              eq\n              tag_13\n              jumpi\n              dup1\n              0x9d9a7fe9\n              eq\n              tag_14\n              jumpi\n              dup1\n              0xa4457c88\n              eq\n              tag_15\n              jumpi\n              dup1\n              0xaca22739\n              eq\n              tag_16\n              jumpi\n              dup1\n              0xbd0873aa\n              eq\n              tag_17\n              jumpi\n              jump(tag_1)\n            tag_24:\n              dup1\n              0x54fd4d50\n              gt\n              tag_26\n              jumpi\n              dup1\n              0x54fd4d50\n              eq\n              tag_7\n              jumpi\n              dup1\n              0x6f9fb98a\n              eq\n              tag_8\n              jumpi\n              dup1\n              0x715018a6\n              eq\n              tag_9\n              jumpi\n              dup1\n              0x7580f81d\n              eq\n              tag_10\n              jumpi\n              dup1\n              0x8da5cb5b\n              eq\n              tag_11\n              jumpi\n              dup1\n              0x980389e0\n              eq\n              tag_12\n              jumpi\n              jump(tag_1)\n            tag_26:\n              dup1\n              0x07ebef70\n              eq\n              tag_2\n              jumpi\n              dup1\n              0x12ef3512\n              eq\n              tag_3\n              jumpi\n              dup1\n              0x3d80b532\n              eq\n              tag_4\n              jumpi\n              dup1\n              0x481c6a75\n              eq\n              tag_5\n              jumpi\n              dup1\n              0x54f2c521\n              eq\n              tag_6\n              jumpi\n            tag_1:\n              0x00\n              dup1\n              revert\n                /* \"GambleGame.sol\":5133:6109  function pickWinners( string calldata winnerTeam ) public managerRequired mustBeIncompleted validTeam(winnerTeam) {\r... */\n            tag_2:\n              callvalue\n              dup1\n              iszero\n              tag_27\n              jumpi\n              0x00\n              dup1\n              revert\n            tag_27:\n              pop\n              tag_28\n              0x04\n              dup1\n              calldatasize\n              sub\n              dup2\n              add\n              swap1\n              tag_29\n              swap2\n              swap1\n              tag_30\n              jump\t// in\n            tag_29:\n              tag_31\n              jump\t// in\n            tag_28:\n              stop\n                /* \"GambleGame.sol\":6117:6712  function cancelGamble() public managerRequired mustBeIncompleted {\r... */\n            tag_3:\n              callvalue\n              dup1\n              iszero\n              tag_32\n              jumpi\n              0x00\n              dup1\n              revert\n            tag_32:\n              pop\n              tag_33\n              tag_34\n              jump\t// in\n            tag_33:\n              stop\n                /* \"GambleGame.sol\":3028:3068  mapping ( string => uint) public balance */\n            tag_4:\n              callvalue\n              dup1\n              iszero\n              tag_35\n              jumpi\n              0x00\n              dup1\n              revert\n            tag_35:\n              pop\n              tag_36\n              0x04\n              dup1\n              calldatasize\n              sub\n              dup2\n              add\n              swap1\n              tag_37\n              swap2\n              swap1\n              tag_38\n              jump\t// in\n            tag_37:\n              tag_39\n              jump\t// in\n            tag_36:\n              mload(0x40)\n              tag_40\n              swap2\n              swap1\n              tag_41\n              jump\t// in\n            tag_40:\n              mload(0x40)\n              dup1\n              swap2\n              sub\n              swap1\n              return\n                /* \"GambleGame.sol\":2812:2834  address public manager */\n            tag_5:\n              callvalue\n              dup1\n              iszero\n              tag_42\n              jumpi\n              0x00\n              dup1\n              revert\n            tag_42:\n              pop\n              tag_43\n              tag_44\n              jump\t// in\n            tag_43:\n              mload(0x40)\n              tag_45\n              swap2\n              swap1\n              tag_46\n              jump\t// in\n            tag_45:\n              mload(0x40)\n              dup1\n              swap2\n              sub\n              swap1\n              return\n                /* \"GambleGame.sol\":4660:5125  function enterGamble( string calldata teamGambled ) payable public validTeam(teamGambled) mustBeIncompleted {\r... */\n            tag_6:\n              tag_47\n              0x04\n              dup1\n              calldatasize\n              sub\n              dup2\n              add\n              swap1\n              tag_48\n              swap2\n              swap1\n              tag_30\n              jump\t// in\n            tag_48:\n              tag_49\n              jump\t// in\n            tag_47:\n              stop\n                /* \"GambleGame.sol\":2599:2620  string public version */\n            tag_7:\n              callvalue\n              dup1\n              iszero\n              tag_50\n              jumpi\n              0x00\n              dup1\n              revert\n            tag_50:\n              pop\n              tag_51\n              tag_52\n              jump\t// in\n            tag_51:\n              mload(0x40)\n              tag_53\n              swap2\n              swap1\n              tag_54\n              jump\t// in\n            tag_53:\n              mload(0x40)\n              dup1\n              swap2\n              sub\n              swap1\n              return\n                /* \"GambleGame.sol\":6821:6925  function getContractBalance() view public returns (uint) {\r... */\n            tag_8:\n              callvalue\n              dup1\n              iszero\n              tag_55\n              jumpi\n              0x00\n              dup1\n              revert\n            tag_55:\n              pop\n              tag_56\n              tag_57\n              jump\t// in\n            tag_56:\n              mload(0x40)\n              tag_58\n              swap2\n              swap1\n              tag_41\n              jump\t// in\n            tag_58:\n              mload(0x40)\n              dup1\n              swap2\n              sub\n              swap1\n              return\n                /* \"GambleGame.sol\":6933:7045  function renounceOwnership() public virtual onlyOwner {\r... */\n            tag_9:\n              callvalue\n              dup1\n              iszero\n              tag_59\n              jumpi\n              0x00\n              dup1\n              revert\n            tag_59:\n              pop\n              tag_60\n              tag_61\n              jump\t// in\n            tag_60:\n              stop\n                /* \"GambleGame.sol\":6720:6813  function getGambles() view public returns (Gamble[] memory) {\r... */\n            tag_10:\n              callvalue\n              dup1\n              iszero\n              tag_62\n              jumpi\n              0x00\n              dup1\n              revert\n            tag_62:\n              pop\n              tag_63\n              tag_64\n              jump\t// in\n            tag_63:\n              mload(0x40)\n              tag_65\n              swap2\n              swap1\n              tag_66\n              jump\t// in\n            tag_65:\n              mload(0x40)\n              dup1\n              swap2\n              sub\n              swap1\n              return\n                /* \"GambleGame.sol\":2777:2805  address payable public owner */\n            tag_11:\n              callvalue\n              dup1\n              iszero\n              tag_67\n              jumpi\n              0x00\n              dup1\n              revert\n            tag_67:\n              pop\n              tag_68\n              tag_69\n              jump\t// in\n            tag_68:\n              mload(0x40)\n              tag_70\n              swap2\n              swap1\n              tag_71\n              jump\t// in\n            tag_70:\n              mload(0x40)\n              dup1\n              swap2\n              sub\n              swap1\n              return\n                /* \"GambleGame.sol\":2750:2770  bool public official */\n            tag_12:\n              callvalue\n              dup1\n              iszero\n              tag_72\n              jumpi\n              0x00\n              dup1\n              revert\n            tag_72:\n              pop\n              tag_73\n              tag_74\n              jump\t// in\n            tag_73:\n              mload(0x40)\n              tag_75\n              swap2\n              swap1\n              tag_76\n              jump\t// in\n            tag_75:\n              mload(0x40)\n              dup1\n              swap2\n              sub\n              swap1\n              return\n                /* \"GambleGame.sol\":2902:2926  string public gambleDesc */\n            tag_13:\n              callvalue\n              dup1\n              iszero\n              tag_77\n              jumpi\n              0x00\n              dup1\n              revert\n            tag_77:\n              pop\n              tag_78\n              tag_79\n              jump\t// in\n            tag_78:\n              mload(0x40)\n              tag_80\n              swap2\n              swap1\n              tag_54\n              jump\t// in\n            tag_80:\n              mload(0x40)\n              dup1\n              swap2\n              sub\n              swap1\n              return\n                /* \"GambleGame.sol\":2627:2648  bool public completed */\n            tag_14:\n              callvalue\n              dup1\n              iszero\n              tag_81\n              jumpi\n              0x00\n              dup1\n              revert\n            tag_81:\n              pop\n              tag_82\n              tag_83\n              jump\t// in\n            tag_82:\n              mload(0x40)\n              tag_84\n              swap2\n              swap1\n              tag_76\n              jump\t// in\n            tag_84:\n              mload(0x40)\n              dup1\n              swap2\n              sub\n              swap1\n              return\n                /* \"GambleGame.sol\":2687:2716  bool public completedByWinner */\n            tag_15:\n              callvalue\n              dup1\n              iszero\n              tag_85\n              jumpi\n              0x00\n              dup1\n              revert\n            tag_85:\n              pop\n              tag_86\n              tag_87\n              jump\t// in\n            tag_86:\n              mload(0x40)\n              tag_88\n              swap2\n              swap1\n              tag_76\n              jump\t// in\n            tag_88:\n              mload(0x40)\n              dup1\n              swap2\n              sub\n              swap1\n              return\n                /* \"GambleGame.sol\":2841:2864  string public firstTeam */\n            tag_16:\n              callvalue\n              dup1\n              iszero\n              tag_89\n              jumpi\n              0x00\n              dup1\n              revert\n            tag_89:\n              pop\n              tag_90\n              tag_91\n              jump\t// in\n            tag_90:\n              mload(0x40)\n              tag_92\n              swap2\n              swap1\n              tag_54\n              jump\t// in\n            tag_92:\n              mload(0x40)\n              dup1\n              swap2\n              sub\n              swap1\n              return\n                /* \"GambleGame.sol\":2655:2680  uint public completedDate */\n            tag_17:\n              callvalue\n              dup1\n              iszero\n              tag_93\n              jumpi\n              0x00\n              dup1\n              revert\n            tag_93:\n              pop\n              tag_94\n              tag_95\n              jump\t// in\n            tag_94:\n              mload(0x40)\n              tag_96\n              swap2\n              swap1\n              tag_41\n              jump\t// in\n            tag_96:\n              mload(0x40)\n              dup1\n              swap2\n              sub\n              swap1\n              return\n                /* \"GambleGame.sol\":2964:2991  string public gambleSubType */\n            tag_18:\n              callvalue\n              dup1\n              iszero\n              tag_97\n              jumpi\n              0x00\n              dup1\n              revert\n            tag_97:\n              pop\n              tag_98\n              tag_99\n              jump\t// in\n            tag_98:\n              mload(0x40)\n              tag_100\n              swap2\n              swap1\n              tag_54\n              jump\t// in\n            tag_100:\n              mload(0x40)\n              dup1\n              swap2\n              sub\n              swap1\n              return\n                /* \"GambleGame.sol\":2998:3021  Gamble[] public gambles */\n            tag_19:\n              callvalue\n              dup1\n              iszero\n              tag_101\n              jumpi\n              0x00\n              dup1\n              revert\n            tag_101:\n              pop\n              tag_102\n              0x04\n              dup1\n              calldatasize\n              sub\n              dup2\n              add\n              swap1\n              tag_103\n              swap2\n              swap1\n              tag_104\n              jump\t// in\n            tag_103:\n              tag_105\n              jump\t// in\n            tag_102:\n              mload(0x40)\n              tag_106\n              swap4\n              swap3\n              swap2\n              swap1\n              tag_107\n              jump\t// in\n            tag_106:\n              mload(0x40)\n              dup1\n              swap2\n              sub\n              swap1\n              return\n                /* \"GambleGame.sol\":2933:2957  string public gambleType */\n            tag_20:\n              callvalue\n              dup1\n              iszero\n              tag_108\n              jumpi\n              0x00\n              dup1\n              revert\n            tag_108:\n              pop\n              tag_109\n              tag_110\n              jump\t// in\n            tag_109:\n              mload(0x40)\n              tag_111\n              swap2\n              swap1\n              tag_54\n              jump\t// in\n            tag_111:\n              mload(0x40)\n              dup1\n              swap2\n              sub\n              swap1\n              return\n                /* \"GambleGame.sol\":2723:2743  string public winner */\n            tag_21:\n              callvalue\n              dup1\n              iszero\n              tag_112\n              jumpi\n              0x00\n              dup1\n              revert\n            tag_112:\n              pop\n              tag_113\n              tag_114\n              jump\t// in\n            tag_113:\n              mload(0x40)\n              tag_115\n              swap2\n              swap1\n              tag_54\n              jump\t// in\n            tag_115:\n              mload(0x40)\n              dup1\n              swap2\n              sub\n              swap1\n              return\n                /* \"GambleGame.sol\":2871:2895  string public secondTeam */\n            tag_22:\n              callvalue\n              dup1\n              iszero\n              tag_116\n              jumpi\n              0x00\n              dup1\n              revert\n            tag_116:\n              pop\n              tag_117\n              tag_118\n              jump\t// in\n            tag_117:\n              mload(0x40)\n              tag_119\n              swap2\n              swap1\n              tag_54\n              jump\t// in\n            tag_119:\n              mload(0x40)\n              dup1\n              swap2\n              sub\n              swap1\n              return\n                /* \"GambleGame.sol\":7053:7262  function transferOwnership(address payable newOwner) public virtual onlyOwner {\r... */\n            tag_23:\n              callvalue\n              dup1\n              iszero\n              tag_120\n              jumpi\n              0x00\n              dup1\n              revert\n            tag_120:\n              pop\n              tag_121\n              0x04\n              dup1\n              calldatasize\n              sub\n              dup2\n              add\n              swap1\n              tag_122\n              swap2\n              swap1\n              tag_123\n              jump\t// in\n            tag_122:\n              tag_124\n              jump\t// in\n            tag_121:\n              stop\n                /* \"GambleGame.sol\":5133:6109  function pickWinners( string calldata winnerTeam ) public managerRequired mustBeIncompleted validTeam(winnerTeam) {\r... */\n            tag_31:\n                /* \"GambleGame.sol\":3337:3344  manager */\n              0x06\n              0x00\n              swap1\n              sload\n              swap1\n              0x0100\n              exp\n              swap1\n              div\n              0xffffffffffffffffffffffffffffffffffffffff\n              and\n                /* \"GambleGame.sol\":3323:3344  msg.sender == manager */\n              0xffffffffffffffffffffffffffffffffffffffff\n              and\n                /* \"GambleGame.sol\":3323:3333  msg.sender */\n              caller\n                /* \"GambleGame.sol\":3323:3344  msg.sender == manager */\n              0xffffffffffffffffffffffffffffffffffffffff\n              and\n              eq\n                /* \"GambleGame.sol\":3323:3367  msg.sender == manager || msg.sender == owner */\n              dup1\n              tag_126\n              jumpi\n              pop\n                /* \"GambleGame.sol\":3362:3367  owner */\n              0x05\n              0x01\n              swap1\n              sload\n              swap1\n              0x0100\n              exp\n              swap1\n              div\n              0xffffffffffffffffffffffffffffffffffffffff\n              and\n                /* \"GambleGame.sol\":3348:3367  msg.sender == owner */\n              0xffffffffffffffffffffffffffffffffffffffff\n              and\n                /* \"GambleGame.sol\":3348:3358  msg.sender */\n              caller\n                /* \"GambleGame.sol\":3348:3367  msg.sender == owner */\n              0xffffffffffffffffffffffffffffffffffffffff\n              and\n              eq\n                /* \"GambleGame.sol\":3323:3367  msg.sender == manager || msg.sender == owner */\n            tag_126:\n                /* \"GambleGame.sol\":3300:3452  require( \r... */\n              tag_127\n              jumpi\n              mload(0x40)\n              0x08c379a000000000000000000000000000000000000000000000000000000000\n              dup2\n              mstore\n              0x04\n              add\n              tag_128\n              swap1\n              tag_129\n              jump\t// in\n            tag_128:\n              mload(0x40)\n              dup1\n              swap2\n              sub\n              swap1\n              revert\n            tag_127:\n                /* \"GambleGame.sol\":3862:3871  completed */\n              0x01\n              0x00\n              swap1\n              sload\n              swap1\n              0x0100\n              exp\n              swap1\n              div\n              0xff\n              and\n                /* \"GambleGame.sol\":3861:3871  !completed */\n              iszero\n                /* \"GambleGame.sol\":3839:3931  require(\r... */\n              tag_131\n              jumpi\n              mload(0x40)\n              0x08c379a000000000000000000000000000000000000000000000000000000000\n              dup2\n              mstore\n              0x04\n              add\n              tag_132\n              swap1\n              tag_133\n              jump\t// in\n            tag_132:\n              mload(0x40)\n              dup1\n              swap2\n              sub\n              swap1\n              revert\n            tag_131:\n                /* \"GambleGame.sol\":5235:5245  winnerTeam */\n              dup2\n              dup2\n                /* \"GambleGame.sol\":3613:3617  team */\n              dup2\n              dup2\n                /* \"GambleGame.sol\":3602:3618  abi.encode(team) */\n              add(0x20, mload(0x40))\n              tag_135\n              swap3\n              swap2\n              swap1\n              tag_136\n              jump\t// in\n            tag_135:\n              mload(0x40)\n              0x20\n              dup2\n              dup4\n              sub\n              sub\n              dup2\n              mstore\n              swap1\n              0x40\n              mstore\n                /* \"GambleGame.sol\":3592:3619  keccak256(abi.encode(team)) */\n              dup1\n              mload\n              swap1\n              0x20\n              add\n              keccak256\n                /* \"GambleGame.sol\":3577:3586  firstTeam */\n              0x07\n                /* \"GambleGame.sol\":3566:3587  abi.encode(firstTeam) */\n              add(0x20, mload(0x40))\n              tag_137\n              swap2\n              swap1\n              tag_138\n              jump\t// in\n            tag_137:\n              mload(0x40)\n              0x20\n              dup2\n              dup4\n              sub\n              sub\n              dup2\n              mstore\n              swap1\n              0x40\n              mstore\n                /* \"GambleGame.sol\":3556:3588  keccak256(abi.encode(firstTeam)) */\n              dup1\n              mload\n              swap1\n              0x20\n              add\n              keccak256\n                /* \"GambleGame.sol\":3556:3619  keccak256(abi.encode(firstTeam)) == keccak256(abi.encode(team)) */\n              eq\n                /* \"GambleGame.sol\":3556:3715  keccak256(abi.encode(firstTeam)) == keccak256(abi.encode(team)) \r... */\n              dup1\n              tag_139\n              jumpi\n              pop\n                /* \"GambleGame.sol\":3709:3713  team */\n              dup2\n              dup2\n                /* \"GambleGame.sol\":3698:3714  abi.encode(team) */\n              add(0x20, mload(0x40))\n              tag_140\n              swap3\n              swap2\n              swap1\n              tag_136\n              jump\t// in\n            tag_140:\n              mload(0x40)\n              0x20\n              dup2\n              dup4\n              sub\n              sub\n              dup2\n              mstore\n              swap1\n              0x40\n              mstore\n                /* \"GambleGame.sol\":3688:3715  keccak256(abi.encode(team)) */\n              dup1\n              mload\n              swap1\n              0x20\n              add\n              keccak256\n                /* \"GambleGame.sol\":3672:3682  secondTeam */\n              0x08\n                /* \"GambleGame.sol\":3661:3683  abi.encode(secondTeam) */\n              add(0x20, mload(0x40))\n              tag_141\n              swap2\n              swap1\n              tag_138\n              jump\t// in\n            tag_141:\n              mload(0x40)\n              0x20\n              dup2\n              dup4\n              sub\n              sub\n              dup2\n              mstore\n              swap1\n              0x40\n              mstore\n                /* \"GambleGame.sol\":3651:3684  keccak256(abi.encode(secondTeam)) */\n              dup1\n              mload\n              swap1\n              0x20\n              add\n              keccak256\n                /* \"GambleGame.sol\":3651:3715  keccak256(abi.encode(secondTeam)) == keccak256(abi.encode(team)) */\n              eq\n                /* \"GambleGame.sol\":3556:3715  keccak256(abi.encode(firstTeam)) == keccak256(abi.encode(team)) \r... */\n            tag_139:\n                /* \"GambleGame.sol\":3534:3771  require(\r... */\n              tag_142\n              jumpi\n              mload(0x40)\n              0x08c379a000000000000000000000000000000000000000000000000000000000\n              dup2\n              mstore\n              0x04\n              add\n              tag_143\n              swap1\n              tag_144\n              jump\t// in\n            tag_143:\n              mload(0x40)\n              dup1\n              swap2\n              sub\n              swap1\n              revert\n            tag_142:\n                /* \"GambleGame.sol\":5260:5284  uint contractBalanceSnap */\n              0x00\n                /* \"GambleGame.sol\":5287:5308  address(this).balance */\n              selfbalance\n                /* \"GambleGame.sol\":5260:5308  uint contractBalanceSnap = address(this).balance */\n              swap1\n              pop\n                /* \"GambleGame.sol\":5326:5332  uint i */\n              0x00\n                /* \"GambleGame.sol\":5321:5750  for( uint i = 0; i < gambles.length; i++) {\r... */\n            tag_146:\n                /* \"GambleGame.sol\":5342:5349  gambles */\n              0x0c\n                /* \"GambleGame.sol\":5342:5356  gambles.length */\n              dup1\n              sload\n              swap1\n              pop\n                /* \"GambleGame.sol\":5338:5339  i */\n              dup2\n                /* \"GambleGame.sol\":5338:5356  i < gambles.length */\n              lt\n                /* \"GambleGame.sol\":5321:5750  for( uint i = 0; i < gambles.length; i++) {\r... */\n              iszero\n              tag_147\n              jumpi\n                /* \"GambleGame.sol\":5452:5462  winnerTeam */\n              dup6\n              dup6\n                /* \"GambleGame.sol\":5441:5463  abi.encode(winnerTeam) */\n              add(0x20, mload(0x40))\n              tag_149\n              swap3\n              swap2\n              swap1\n              tag_136\n              jump\t// in\n            tag_149:\n              mload(0x40)\n              0x20\n              dup2\n              dup4\n              sub\n              sub\n              dup2\n              mstore\n              swap1\n              0x40\n              mstore\n                /* \"GambleGame.sol\":5431:5464  keccak256(abi.encode(winnerTeam)) */\n              dup1\n              mload\n              swap1\n              0x20\n              add\n              keccak256\n                /* \"GambleGame.sol\":5403:5410  gambles */\n              0x0c\n                /* \"GambleGame.sol\":5411:5412  i */\n              dup3\n                /* \"GambleGame.sol\":5403:5413  gambles[i] */\n              dup2\n              sload\n              dup2\n              lt\n              tag_150\n              jumpi\n              mstore(0x00, 0x4e487b7100000000000000000000000000000000000000000000000000000000)\n              mstore(0x04, 0x32)\n              revert(0x00, 0x24)\n            tag_150:\n              swap1\n              0x00\n              mstore\n              keccak256(0x00, 0x20)\n              swap1\n              0x03\n              mul\n              add\n                /* \"GambleGame.sol\":5403:5425  gambles[i].teamGambled */\n              0x01\n              add\n                /* \"GambleGame.sol\":5392:5426  abi.encode(gambles[i].teamGambled) */\n              add(0x20, mload(0x40))\n              tag_152\n              swap2\n              swap1\n              tag_138\n              jump\t// in\n            tag_152:\n              mload(0x40)\n              0x20\n              dup2\n              dup4\n              sub\n              sub\n              dup2\n              mstore\n              swap1\n              0x40\n              mstore\n                /* \"GambleGame.sol\":5382:5427  keccak256(abi.encode(gambles[i].teamGambled)) */\n              dup1\n              mload\n              swap1\n              0x20\n              add\n              keccak256\n                /* \"GambleGame.sol\":5382:5464  keccak256(abi.encode(gambles[i].teamGambled)) == keccak256(abi.encode(winnerTeam)) */\n              eq\n                /* \"GambleGame.sol\":5378:5739  if( keccak256(abi.encode(gambles[i].teamGambled)) == keccak256(abi.encode(winnerTeam)) ) {\r... */\n              iszero\n              tag_153\n              jumpi\n                /* \"GambleGame.sol\":5489:5498  bool sent */\n              0x00\n                /* \"GambleGame.sol\":5504:5511  gambles */\n              0x0c\n                /* \"GambleGame.sol\":5512:5513  i */\n              dup3\n                /* \"GambleGame.sol\":5504:5514  gambles[i] */\n              dup2\n              sload\n              dup2\n              lt\n              tag_154\n              jumpi\n              mstore(0x00, 0x4e487b7100000000000000000000000000000000000000000000000000000000)\n              mstore(0x04, 0x32)\n              revert(0x00, 0x24)\n            tag_154:\n              swap1\n              0x00\n              mstore\n              keccak256(0x00, 0x20)\n              swap1\n              0x03\n              mul\n              add\n                /* \"GambleGame.sol\":5504:5528  gambles[i].playerAddress */\n              0x00\n              add\n              0x00\n              swap1\n              sload\n              swap1\n              0x0100\n              exp\n              swap1\n              div\n              0xffffffffffffffffffffffffffffffffffffffff\n              and\n                /* \"GambleGame.sol\":5504:5533  gambles[i].playerAddress.call */\n              0xffffffffffffffffffffffffffffffffffffffff\n              and\n                /* \"GambleGame.sol\":5594:5601  balance */\n              0x0d\n                /* \"GambleGame.sol\":5602:5612  winnerTeam */\n              dup9\n              dup9\n                /* \"GambleGame.sol\":5594:5613  balance[winnerTeam] */\n              mload(0x40)\n              tag_156\n              swap3\n              swap2\n              swap1\n              tag_157\n              jump\t// in\n            tag_156:\n              swap1\n              dup2\n              mstore\n              0x20\n              add\n              mload(0x40)\n              dup1\n              swap2\n              sub\n              swap1\n              keccak256\n              sload\n                /* \"GambleGame.sol\":5588:5591  100 */\n              0x64\n                /* \"GambleGame.sol\":5583:5585  99 */\n              0x63\n                /* \"GambleGame.sol\":5563:5570  gambles */\n              0x0c\n                /* \"GambleGame.sol\":5571:5572  i */\n              dup7\n                /* \"GambleGame.sol\":5563:5573  gambles[i] */\n              dup2\n              sload\n              dup2\n              lt\n              tag_158\n              jumpi\n              mstore(0x00, 0x4e487b7100000000000000000000000000000000000000000000000000000000)\n              mstore(0x04, 0x32)\n              revert(0x00, 0x24)\n            tag_158:\n              swap1\n              0x00\n              mstore\n              keccak256(0x00, 0x20)\n              swap1\n              0x03\n              mul\n              add\n                /* \"GambleGame.sol\":5563:5580  gambles[i].amount */\n              0x02\n              add\n              sload\n                /* \"GambleGame.sol\":5541:5560  contractBalanceSnap */\n              dup8\n                /* \"GambleGame.sol\":5541:5580  contractBalanceSnap * gambles[i].amount */\n              tag_160\n              swap2\n              swap1\n              tag_161\n              jump\t// in\n            tag_160:\n                /* \"GambleGame.sol\":5541:5585  contractBalanceSnap * gambles[i].amount * 99 */\n              tag_162\n              swap2\n              swap1\n              tag_161\n              jump\t// in\n            tag_162:\n                /* \"GambleGame.sol\":5541:5591  contractBalanceSnap * gambles[i].amount * 99 / 100 */\n              tag_163\n              swap2\n              swap1\n              tag_164\n              jump\t// in\n            tag_163:\n                /* \"GambleGame.sol\":5541:5613  contractBalanceSnap * gambles[i].amount * 99 / 100 / balance[winnerTeam] */\n              tag_165\n              swap2\n              swap1\n              tag_164\n              jump\t// in\n            tag_165:\n                /* \"GambleGame.sol\":5504:5619  gambles[i].playerAddress.call{value: contractBalanceSnap * gambles[i].amount * 99 / 100 / balance[winnerTeam] }(\"\") */\n              mload(0x40)\n              tag_166\n              swap1\n              tag_167\n              jump\t// in\n            tag_166:\n              0x00\n              mload(0x40)\n              dup1\n              dup4\n              sub\n              dup2\n              dup6\n              dup8\n              gas\n              call\n              swap3\n              pop\n              pop\n              pop\n              returndatasize\n              dup1\n              0x00\n              dup2\n              eq\n              tag_170\n              jumpi\n              mload(0x40)\n              swap2\n              pop\n              and(add(returndatasize, 0x3f), not(0x1f))\n              dup3\n              add\n              0x40\n              mstore\n              returndatasize\n              dup3\n              mstore\n              returndatasize\n              0x00\n              0x20\n              dup5\n              add\n              returndatacopy\n              jump(tag_169)\n            tag_170:\n              0x60\n              swap2\n              pop\n            tag_169:\n              pop\n                /* \"GambleGame.sol\":5488:5619  (bool sent, ) = gambles[i].playerAddress.call{value: contractBalanceSnap * gambles[i].amount * 99 / 100 / balance[winnerTeam] }(\"\") */\n              pop\n              swap1\n              pop\n                /* \"GambleGame.sol\":5646:5650  sent */\n              dup1\n                /* \"GambleGame.sol\":5638:5675  require(sent, \"Failed to send Ether\") */\n              tag_171\n              jumpi\n              mload(0x40)\n              0x08c379a000000000000000000000000000000000000000000000000000000000\n              dup2\n              mstore\n              0x04\n              add\n              tag_172\n              swap1\n              tag_173\n              jump\t// in\n            tag_172:\n              mload(0x40)\n              dup1\n              swap2\n              sub\n              swap1\n              revert\n            tag_171:\n                /* \"GambleGame.sol\":5378:5739  if( keccak256(abi.encode(gambles[i].teamGambled)) == keccak256(abi.encode(winnerTeam)) ) {\r... */\n              pop\n              jump(tag_174)\n            tag_153:\n                /* \"GambleGame.sol\":5715:5723  continue */\n              jump(tag_148)\n                /* \"GambleGame.sol\":5378:5739  if( keccak256(abi.encode(gambles[i].teamGambled)) == keccak256(abi.encode(winnerTeam)) ) {\r... */\n            tag_174:\n                /* \"GambleGame.sol\":5321:5750  for( uint i = 0; i < gambles.length; i++) {\r... */\n            tag_148:\n                /* \"GambleGame.sol\":5358:5361  i++ */\n              dup1\n              dup1\n              tag_175\n              swap1\n              tag_176\n              jump\t// in\n            tag_175:\n              swap2\n              pop\n              pop\n                /* \"GambleGame.sol\":5321:5750  for( uint i = 0; i < gambles.length; i++) {\r... */\n              jump(tag_146)\n            tag_147:\n              pop\n                /* \"GambleGame.sol\":5771:5781  winnerTeam */\n              dup5\n              dup5\n                /* \"GambleGame.sol\":5762:5768  winner */\n              0x04\n                /* \"GambleGame.sol\":5762:5781  winner = winnerTeam */\n              swap2\n              swap1\n              tag_177\n              swap3\n              swap2\n              swap1\n              tag_178\n              jump\t// in\n            tag_177:\n              pop\n                /* \"GambleGame.sol\":5813:5814  0 */\n              0x00\n                /* \"GambleGame.sol\":5792:5799  balance */\n              0x0d\n                /* \"GambleGame.sol\":5800:5809  firstTeam */\n              0x07\n                /* \"GambleGame.sol\":5792:5810  balance[firstTeam] */\n              mload(0x40)\n              tag_179\n              swap2\n              swap1\n              tag_180\n              jump\t// in\n            tag_179:\n              swap1\n              dup2\n              mstore\n              0x20\n              add\n              mload(0x40)\n              dup1\n              swap2\n              sub\n              swap1\n              keccak256\n                /* \"GambleGame.sol\":5792:5814  balance[firstTeam] = 0 */\n              dup2\n              swap1\n              sstore\n              pop\n                /* \"GambleGame.sol\":5847:5848  0 */\n              0x00\n                /* \"GambleGame.sol\":5825:5832  balance */\n              0x0d\n                /* \"GambleGame.sol\":5833:5843  secondTeam */\n              0x08\n                /* \"GambleGame.sol\":5825:5844  balance[secondTeam] */\n              mload(0x40)\n              tag_181\n              swap2\n              swap1\n              tag_180\n              jump\t// in\n            tag_181:\n              swap1\n              dup2\n              mstore\n              0x20\n              add\n              mload(0x40)\n              dup1\n              swap2\n              sub\n              swap1\n              keccak256\n                /* \"GambleGame.sol\":5825:5848  balance[secondTeam] = 0 */\n              dup2\n              swap1\n              sstore\n              pop\n                /* \"GambleGame.sol\":5866:5873  gambles */\n              0x0c\n              0x00\n                /* \"GambleGame.sol\":5859:5873  delete gambles */\n              tag_182\n              swap2\n              swap1\n              tag_183\n              jump\t// in\n            tag_182:\n                /* \"GambleGame.sol\":5896:5900  true */\n              0x01\n                /* \"GambleGame.sol\":5884:5893  completed */\n              dup1\n              0x00\n                /* \"GambleGame.sol\":5884:5900  completed = true */\n              0x0100\n              exp\n              dup2\n              sload\n              dup2\n              0xff\n              mul\n              not\n              and\n              swap1\n              dup4\n              iszero\n              iszero\n              mul\n              or\n              swap1\n              sstore\n              pop\n                /* \"GambleGame.sol\":5931:5935  true */\n              0x01\n                /* \"GambleGame.sol\":5911:5928  completedByWinner */\n              0x03\n              0x00\n                /* \"GambleGame.sol\":5911:5935  completedByWinner = true */\n              0x0100\n              exp\n              dup2\n              sload\n              dup2\n              0xff\n              mul\n              not\n              and\n              swap1\n              dup4\n              iszero\n              iszero\n              mul\n              or\n              swap1\n              sstore\n              pop\n                /* \"GambleGame.sol\":5962:5977  block.timestamp */\n              timestamp\n                /* \"GambleGame.sol\":5946:5959  completedDate */\n              0x02\n                /* \"GambleGame.sol\":5946:5977  completedDate = block.timestamp */\n              dup2\n              swap1\n              sstore\n              pop\n                /* \"GambleGame.sol\":5989:5999  bool sent2 */\n              0x00\n                /* \"GambleGame.sol\":6005:6010  owner */\n              0x05\n              0x01\n              swap1\n              sload\n              swap1\n              0x0100\n              exp\n              swap1\n              div\n              0xffffffffffffffffffffffffffffffffffffffff\n              and\n                /* \"GambleGame.sol\":6005:6015  owner.call */\n              0xffffffffffffffffffffffffffffffffffffffff\n              and\n                /* \"GambleGame.sol\":6023:6044  address(this).balance */\n              selfbalance\n                /* \"GambleGame.sol\":6005:6050  owner.call{value: address(this).balance }(\"\") */\n              mload(0x40)\n              tag_184\n              swap1\n              tag_167\n              jump\t// in\n            tag_184:\n              0x00\n              mload(0x40)\n              dup1\n              dup4\n              sub\n              dup2\n              dup6\n              dup8\n              gas\n              call\n              swap3\n              pop\n              pop\n              pop\n              returndatasize\n              dup1\n              0x00\n              dup2\n              eq\n              tag_187\n              jumpi\n              mload(0x40)\n              swap2\n              pop\n              and(add(returndatasize, 0x3f), not(0x1f))\n              dup3\n              add\n              0x40\n              mstore\n              returndatasize\n              dup3\n              mstore\n              returndatasize\n              0x00\n              0x20\n              dup5\n              add\n              returndatacopy\n              jump(tag_186)\n            tag_187:\n              0x60\n              swap2\n              pop\n            tag_186:\n              pop\n                /* \"GambleGame.sol\":5988:6050  (bool sent2, ) = owner.call{value: address(this).balance }(\"\") */\n              pop\n              swap1\n              pop\n                /* \"GambleGame.sol\":6069:6074  sent2 */\n              dup1\n                /* \"GambleGame.sol\":6061:6099  require(sent2, \"Failed to send Ether\") */\n              tag_188\n              jumpi\n              mload(0x40)\n              0x08c379a000000000000000000000000000000000000000000000000000000000\n              dup2\n              mstore\n              0x04\n              add\n              tag_189\n              swap1\n              tag_173\n              jump\t// in\n            tag_189:\n              mload(0x40)\n              dup1\n              swap2\n              sub\n              swap1\n              revert\n            tag_188:\n                /* \"GambleGame.sol\":3782:3783  _ */\n              pop\n              pop\n                /* \"GambleGame.sol\":3942:3943  _ */\n              pop\n              pop\n                /* \"GambleGame.sol\":5133:6109  function pickWinners( string calldata winnerTeam ) public managerRequired mustBeIncompleted validTeam(winnerTeam) {\r... */\n              pop\n              pop\n              jump\t// out\n                /* \"GambleGame.sol\":6117:6712  function cancelGamble() public managerRequired mustBeIncompleted {\r... */\n            tag_34:\n                /* \"GambleGame.sol\":3337:3344  manager */\n              0x06\n              0x00\n              swap1\n              sload\n              swap1\n              0x0100\n              exp\n              swap1\n              div\n              0xffffffffffffffffffffffffffffffffffffffff\n              and\n                /* \"GambleGame.sol\":3323:3344  msg.sender == manager */\n              0xffffffffffffffffffffffffffffffffffffffff\n              and\n                /* \"GambleGame.sol\":3323:3333  msg.sender */\n              caller\n                /* \"GambleGame.sol\":3323:3344  msg.sender == manager */\n              0xffffffffffffffffffffffffffffffffffffffff\n              and\n              eq\n                /* \"GambleGame.sol\":3323:3367  msg.sender == manager || msg.sender == owner */\n              dup1\n              tag_191\n              jumpi\n              pop\n                /* \"GambleGame.sol\":3362:3367  owner */\n              0x05\n              0x01\n              swap1\n              sload\n              swap1\n              0x0100\n              exp\n              swap1\n              div\n              0xffffffffffffffffffffffffffffffffffffffff\n              and\n                /* \"GambleGame.sol\":3348:3367  msg.sender == owner */\n              0xffffffffffffffffffffffffffffffffffffffff\n              and\n                /* \"GambleGame.sol\":3348:3358  msg.sender */\n              caller\n                /* \"GambleGame.sol\":3348:3367  msg.sender == owner */\n              0xffffffffffffffffffffffffffffffffffffffff\n              and\n              eq\n                /* \"GambleGame.sol\":3323:3367  msg.sender == manager || msg.sender == owner */\n            tag_191:\n                /* \"GambleGame.sol\":3300:3452  require( \r... */\n              tag_192\n              jumpi\n              mload(0x40)\n              0x08c379a000000000000000000000000000000000000000000000000000000000\n              dup2\n              mstore\n              0x04\n              add\n              tag_193\n              swap1\n              tag_129\n              jump\t// in\n            tag_193:\n              mload(0x40)\n              dup1\n              swap2\n              sub\n              swap1\n              revert\n            tag_192:\n                /* \"GambleGame.sol\":3862:3871  completed */\n              0x01\n              0x00\n              swap1\n              sload\n              swap1\n              0x0100\n              exp\n              swap1\n              div\n              0xff\n              and\n                /* \"GambleGame.sol\":3861:3871  !completed */\n              iszero\n                /* \"GambleGame.sol\":3839:3931  require(\r... */\n              tag_195\n              jumpi\n              mload(0x40)\n              0x08c379a000000000000000000000000000000000000000000000000000000000\n              dup2\n              mstore\n              0x04\n              add\n              tag_196\n              swap1\n              tag_133\n              jump\t// in\n            tag_196:\n              mload(0x40)\n              dup1\n              swap2\n              sub\n              swap1\n              revert\n            tag_195:\n                /* \"GambleGame.sol\":6209:6215  uint i */\n              0x00\n                /* \"GambleGame.sol\":6204:6420  for( uint i = 0; i < gambles.length; i++) {\r... */\n            tag_198:\n                /* \"GambleGame.sol\":6225:6232  gambles */\n              0x0c\n                /* \"GambleGame.sol\":6225:6239  gambles.length */\n              dup1\n              sload\n              swap1\n              pop\n                /* \"GambleGame.sol\":6221:6222  i */\n              dup2\n                /* \"GambleGame.sol\":6221:6239  i < gambles.length */\n              lt\n                /* \"GambleGame.sol\":6204:6420  for( uint i = 0; i < gambles.length; i++) {\r... */\n              iszero\n              tag_199\n              jumpi\n                /* \"GambleGame.sol\":6266:6275  bool sent */\n              0x00\n                /* \"GambleGame.sol\":6281:6288  gambles */\n              0x0c\n                /* \"GambleGame.sol\":6289:6290  i */\n              dup3\n                /* \"GambleGame.sol\":6281:6291  gambles[i] */\n              dup2\n              sload\n              dup2\n              lt\n              tag_201\n              jumpi\n              mstore(0x00, 0x4e487b7100000000000000000000000000000000000000000000000000000000)\n              mstore(0x04, 0x32)\n              revert(0x00, 0x24)\n            tag_201:\n              swap1\n              0x00\n              mstore\n              keccak256(0x00, 0x20)\n              swap1\n              0x03\n              mul\n              add\n                /* \"GambleGame.sol\":6281:6305  gambles[i].playerAddress */\n              0x00\n              add\n              0x00\n              swap1\n              sload\n              swap1\n              0x0100\n              exp\n              swap1\n              div\n              0xffffffffffffffffffffffffffffffffffffffff\n              and\n                /* \"GambleGame.sol\":6281:6310  gambles[i].playerAddress.call */\n              0xffffffffffffffffffffffffffffffffffffffff\n              and\n                /* \"GambleGame.sol\":6343:6346  100 */\n              0x64\n                /* \"GambleGame.sol\":6338:6340  99 */\n              0x63\n                /* \"GambleGame.sol\":6318:6325  gambles */\n              0x0c\n                /* \"GambleGame.sol\":6326:6327  i */\n              dup6\n                /* \"GambleGame.sol\":6318:6328  gambles[i] */\n              dup2\n              sload\n              dup2\n              lt\n              tag_203\n              jumpi\n              mstore(0x00, 0x4e487b7100000000000000000000000000000000000000000000000000000000)\n              mstore(0x04, 0x32)\n              revert(0x00, 0x24)\n            tag_203:\n              swap1\n              0x00\n              mstore\n              keccak256(0x00, 0x20)\n              swap1\n              0x03\n              mul\n              add\n                /* \"GambleGame.sol\":6318:6335  gambles[i].amount */\n              0x02\n              add\n              sload\n                /* \"GambleGame.sol\":6318:6340  gambles[i].amount * 99 */\n              tag_205\n              swap2\n              swap1\n              tag_161\n              jump\t// in\n            tag_205:\n                /* \"GambleGame.sol\":6318:6346  gambles[i].amount * 99 / 100 */\n              tag_206\n              swap2\n              swap1\n              tag_164\n              jump\t// in\n            tag_206:\n                /* \"GambleGame.sol\":6281:6352  gambles[i].playerAddress.call{value: gambles[i].amount * 99 / 100 }(\"\") */\n              mload(0x40)\n              tag_207\n              swap1\n              tag_167\n              jump\t// in\n            tag_207:\n              0x00\n              mload(0x40)\n              dup1\n              dup4\n              sub\n              dup2\n              dup6\n              dup8\n              gas\n              call\n              swap3\n              pop\n              pop\n              pop\n              returndatasize\n              dup1\n              0x00\n              dup2\n              eq\n              tag_210\n              jumpi\n              mload(0x40)\n              swap2\n              pop\n              and(add(returndatasize, 0x3f), not(0x1f))\n              dup3\n              add\n              0x40\n              mstore\n              returndatasize\n              dup3\n              mstore\n              returndatasize\n              0x00\n              0x20\n              dup5\n              add\n              returndatacopy\n              jump(tag_209)\n            tag_210:\n              0x60\n              swap2\n              pop\n            tag_209:\n              pop\n                /* \"GambleGame.sol\":6265:6352  (bool sent, ) = gambles[i].playerAddress.call{value: gambles[i].amount * 99 / 100 }(\"\") */\n              pop\n              swap1\n              pop\n                /* \"GambleGame.sol\":6379:6383  sent */\n              dup1\n                /* \"GambleGame.sol\":6371:6408  require(sent, \"Failed to send Ether\") */\n              tag_211\n              jumpi\n              mload(0x40)\n              0x08c379a000000000000000000000000000000000000000000000000000000000\n              dup2\n              mstore\n              0x04\n              add\n              tag_212\n              swap1\n              tag_173\n              jump\t// in\n            tag_212:\n              mload(0x40)\n              dup1\n              swap2\n              sub\n              swap1\n              revert\n            tag_211:\n                /* \"GambleGame.sol\":6204:6420  for( uint i = 0; i < gambles.length; i++) {\r... */\n              pop\n                /* \"GambleGame.sol\":6241:6244  i++ */\n              dup1\n              dup1\n              tag_213\n              swap1\n              tag_176\n              jump\t// in\n            tag_213:\n              swap2\n              pop\n              pop\n                /* \"GambleGame.sol\":6204:6420  for( uint i = 0; i < gambles.length; i++) {\r... */\n              jump(tag_198)\n            tag_199:\n              pop\n                /* \"GambleGame.sol\":6453:6454  0 */\n              0x00\n                /* \"GambleGame.sol\":6432:6439  balance */\n              0x0d\n                /* \"GambleGame.sol\":6440:6449  firstTeam */\n              0x07\n                /* \"GambleGame.sol\":6432:6450  balance[firstTeam] */\n              mload(0x40)\n              tag_214\n              swap2\n              swap1\n              tag_180\n              jump\t// in\n            tag_214:\n              swap1\n              dup2\n              mstore\n              0x20\n              add\n              mload(0x40)\n              dup1\n              swap2\n              sub\n              swap1\n              keccak256\n                /* \"GambleGame.sol\":6432:6454  balance[firstTeam] = 0 */\n              dup2\n              swap1\n              sstore\n              pop\n                /* \"GambleGame.sol\":6487:6488  0 */\n              0x00\n                /* \"GambleGame.sol\":6465:6472  balance */\n              0x0d\n                /* \"GambleGame.sol\":6473:6483  secondTeam */\n              0x08\n                /* \"GambleGame.sol\":6465:6484  balance[secondTeam] */\n              mload(0x40)\n              tag_215\n              swap2\n              swap1\n              tag_180\n              jump\t// in\n            tag_215:\n              swap1\n              dup2\n              mstore\n              0x20\n              add\n              mload(0x40)\n              dup1\n              swap2\n              sub\n              swap1\n              keccak256\n                /* \"GambleGame.sol\":6465:6488  balance[secondTeam] = 0 */\n              dup2\n              swap1\n              sstore\n              pop\n                /* \"GambleGame.sol\":6506:6513  gambles */\n              0x0c\n              0x00\n                /* \"GambleGame.sol\":6499:6513  delete gambles */\n              tag_216\n              swap2\n              swap1\n              tag_183\n              jump\t// in\n            tag_216:\n                /* \"GambleGame.sol\":6536:6540  true */\n              0x01\n                /* \"GambleGame.sol\":6524:6533  completed */\n              dup1\n              0x00\n                /* \"GambleGame.sol\":6524:6540  completed = true */\n              0x0100\n              exp\n              dup2\n              sload\n              dup2\n              0xff\n              mul\n              not\n              and\n              swap1\n              dup4\n              iszero\n              iszero\n              mul\n              or\n              swap1\n              sstore\n              pop\n                /* \"GambleGame.sol\":6567:6582  block.timestamp */\n              timestamp\n                /* \"GambleGame.sol\":6551:6564  completedDate */\n              0x02\n                /* \"GambleGame.sol\":6551:6582  completedDate = block.timestamp */\n              dup2\n              swap1\n              sstore\n              pop\n                /* \"GambleGame.sol\":6594:6604  bool sent2 */\n              0x00\n                /* \"GambleGame.sol\":6610:6615  owner */\n              0x05\n              0x01\n              swap1\n              sload\n              swap1\n              0x0100\n              exp\n              swap1\n              div\n              0xffffffffffffffffffffffffffffffffffffffff\n              and\n                /* \"GambleGame.sol\":6610:6620  owner.call */\n              0xffffffffffffffffffffffffffffffffffffffff\n              and\n                /* \"GambleGame.sol\":6628:6649  address(this).balance */\n              selfbalance\n                /* \"GambleGame.sol\":6610:6655  owner.call{value: address(this).balance }(\"\") */\n              mload(0x40)\n              tag_217\n              swap1\n              tag_167\n              jump\t// in\n            tag_217:\n              0x00\n              mload(0x40)\n              dup1\n              dup4\n              sub\n              dup2\n              dup6\n              dup8\n              gas\n              call\n              swap3\n              pop\n              pop\n              pop\n              returndatasize\n              dup1\n              0x00\n              dup2\n              eq\n              tag_220\n              jumpi\n              mload(0x40)\n              swap2\n              pop\n              and(add(returndatasize, 0x3f), not(0x1f))\n              dup3\n              add\n              0x40\n              mstore\n              returndatasize\n              dup3\n              mstore\n              returndatasize\n              0x00\n              0x20\n              dup5\n              add\n              returndatacopy\n              jump(tag_219)\n            tag_220:\n              0x60\n              swap2\n              pop\n            tag_219:\n              pop\n                /* \"GambleGame.sol\":6593:6655  (bool sent2, ) = owner.call{value: address(this).balance }(\"\") */\n              pop\n              swap1\n              pop\n                /* \"GambleGame.sol\":6674:6679  sent2 */\n              dup1\n                /* \"GambleGame.sol\":6666:6704  require(sent2, \"Failed to send Ether\") */\n              tag_221\n              jumpi\n              mload(0x40)\n              0x08c379a000000000000000000000000000000000000000000000000000000000\n              dup2\n              mstore\n              0x04\n              add\n              tag_222\n              swap1\n              tag_173\n              jump\t// in\n            tag_222:\n              mload(0x40)\n              dup1\n              swap2\n              sub\n              swap1\n              revert\n            tag_221:\n                /* \"GambleGame.sol\":3942:3943  _ */\n              pop\n                /* \"GambleGame.sol\":6117:6712  function cancelGamble() public managerRequired mustBeIncompleted {\r... */\n              jump\t// out\n                /* \"GambleGame.sol\":3028:3068  mapping ( string => uint) public balance */\n            tag_39:\n              0x0d\n              dup2\n              dup1\n              mload\n              0x20\n              dup2\n              add\n              dup3\n              add\n              dup1\n              mload\n              dup5\n              dup3\n              mstore\n              0x20\n              dup4\n              add\n              0x20\n              dup6\n              add\n              keccak256\n              dup2\n              dup4\n              mstore\n              dup1\n              swap6\n              pop\n              pop\n              pop\n              pop\n              pop\n              pop\n              0x00\n              swap2\n              pop\n              swap1\n              pop\n              sload\n              dup2\n              jump\t// out\n                /* \"GambleGame.sol\":2812:2834  address public manager */\n            tag_44:\n              0x06\n              0x00\n              swap1\n              sload\n              swap1\n              0x0100\n              exp\n              swap1\n              div\n              0xffffffffffffffffffffffffffffffffffffffff\n              and\n              dup2\n              jump\t// out\n                /* \"GambleGame.sol\":4660:5125  function enterGamble( string calldata teamGambled ) payable public validTeam(teamGambled) mustBeIncompleted {\r... */\n            tag_49:\n                /* \"GambleGame.sol\":4737:4748  teamGambled */\n              dup2\n              dup2\n                /* \"GambleGame.sol\":3613:3617  team */\n              dup2\n              dup2\n                /* \"GambleGame.sol\":3602:3618  abi.encode(team) */\n              add(0x20, mload(0x40))\n              tag_224\n              swap3\n              swap2\n              swap1\n              tag_136\n              jump\t// in\n            tag_224:\n              mload(0x40)\n              0x20\n              dup2\n              dup4\n              sub\n              sub\n              dup2\n              mstore\n              swap1\n              0x40\n              mstore\n                /* \"GambleGame.sol\":3592:3619  keccak256(abi.encode(team)) */\n              dup1\n              mload\n              swap1\n              0x20\n              add\n              keccak256\n                /* \"GambleGame.sol\":3577:3586  firstTeam */\n              0x07\n                /* \"GambleGame.sol\":3566:3587  abi.encode(firstTeam) */\n              add(0x20, mload(0x40))\n              tag_225\n              swap2\n              swap1\n              tag_138\n              jump\t// in\n            tag_225:\n              mload(0x40)\n              0x20\n              dup2\n              dup4\n              sub\n              sub\n              dup2\n              mstore\n              swap1\n              0x40\n              mstore\n                /* \"GambleGame.sol\":3556:3588  keccak256(abi.encode(firstTeam)) */\n              dup1\n              mload\n              swap1\n              0x20\n              add\n              keccak256\n                /* \"GambleGame.sol\":3556:3619  keccak256(abi.encode(firstTeam)) == keccak256(abi.encode(team)) */\n              eq\n                /* \"GambleGame.sol\":3556:3715  keccak256(abi.encode(firstTeam)) == keccak256(abi.encode(team)) \r... */\n              dup1\n              tag_226\n              jumpi\n              pop\n                /* \"GambleGame.sol\":3709:3713  team */\n              dup2\n              dup2\n                /* \"GambleGame.sol\":3698:3714  abi.encode(team) */\n              add(0x20, mload(0x40))\n              tag_227\n              swap3\n              swap2\n              swap1\n              tag_136\n              jump\t// in\n            tag_227:\n              mload(0x40)\n              0x20\n              dup2\n              dup4\n              sub\n              sub\n              dup2\n              mstore\n              swap1\n              0x40\n              mstore\n                /* \"GambleGame.sol\":3688:3715  keccak256(abi.encode(team)) */\n              dup1\n              mload\n              swap1\n              0x20\n              add\n              keccak256\n                /* \"GambleGame.sol\":3672:3682  secondTeam */\n              0x08\n                /* \"GambleGame.sol\":3661:3683  abi.encode(secondTeam) */\n              add(0x20, mload(0x40))\n              tag_228\n              swap2\n              swap1\n              tag_138\n              jump\t// in\n            tag_228:\n              mload(0x40)\n              0x20\n              dup2\n              dup4\n              sub\n              sub\n              dup2\n              mstore\n              swap1\n              0x40\n              mstore\n                /* \"GambleGame.sol\":3651:3684  keccak256(abi.encode(secondTeam)) */\n              dup1\n              mload\n              swap1\n              0x20\n              add\n              keccak256\n                /* \"GambleGame.sol\":3651:3715  keccak256(abi.encode(secondTeam)) == keccak256(abi.encode(team)) */\n              eq\n                /* \"GambleGame.sol\":3556:3715  keccak256(abi.encode(firstTeam)) == keccak256(abi.encode(team)) \r... */\n            tag_226:\n                /* \"GambleGame.sol\":3534:3771  require(\r... */\n              tag_229\n              jumpi\n              mload(0x40)\n              0x08c379a000000000000000000000000000000000000000000000000000000000\n              dup2\n              mstore\n              0x04\n              add\n              tag_230\n              swap1\n              tag_144\n              jump\t// in\n            tag_230:\n              mload(0x40)\n              dup1\n              swap2\n              sub\n              swap1\n              revert\n            tag_229:\n                /* \"GambleGame.sol\":3862:3871  completed */\n              0x01\n              0x00\n              swap1\n              sload\n              swap1\n              0x0100\n              exp\n              swap1\n              div\n              0xff\n              and\n                /* \"GambleGame.sol\":3861:3871  !completed */\n              iszero\n                /* \"GambleGame.sol\":3839:3931  require(\r... */\n              tag_232\n              jumpi\n              mload(0x40)\n              0x08c379a000000000000000000000000000000000000000000000000000000000\n              dup2\n              mstore\n              0x04\n              add\n              tag_233\n              swap1\n              tag_133\n              jump\t// in\n            tag_233:\n              mload(0x40)\n              dup1\n              swap2\n              sub\n              swap1\n              revert\n            tag_232:\n                /* \"GambleGame.sol\":4814:4825  0.002 ether */\n              0x071afd498d0000\n                /* \"GambleGame.sol\":4801:4810  msg.value */\n              callvalue\n                /* \"GambleGame.sol\":4801:4825  msg.value >= 0.002 ether */\n              lt\n              iszero\n                /* \"GambleGame.sol\":4779:4890  require(\r... */\n              tag_235\n              jumpi\n              mload(0x40)\n              0x08c379a000000000000000000000000000000000000000000000000000000000\n              dup2\n              mstore\n              0x04\n              add\n              tag_236\n              swap1\n              tag_237\n              jump\t// in\n            tag_236:\n              mload(0x40)\n              dup1\n              swap2\n              sub\n              swap1\n              revert\n            tag_235:\n                /* \"GambleGame.sol\":4903:4910  gambles */\n              0x0c\n                /* \"GambleGame.sol\":4916:5061  Gamble({\r... */\n              mload(0x40)\n              dup1\n              0x60\n              add\n              0x40\n              mstore\n              dup1\n                /* \"GambleGame.sol\":4961:4971  msg.sender */\n              caller\n                /* \"GambleGame.sol\":4916:5061  Gamble({\r... */\n              0xffffffffffffffffffffffffffffffffffffffff\n              and\n              dup2\n              mstore\n              0x20\n              add\n                /* \"GambleGame.sol\":5001:5012  teamGambled */\n              dup7\n              dup7\n                /* \"GambleGame.sol\":4916:5061  Gamble({\r... */\n              dup1\n              dup1\n              0x1f\n              add\n              0x20\n              dup1\n              swap2\n              div\n              mul\n              0x20\n              add\n              mload(0x40)\n              swap1\n              dup2\n              add\n              0x40\n              mstore\n              dup1\n              swap4\n              swap3\n              swap2\n              swap1\n              dup2\n              dup2\n              mstore\n              0x20\n              add\n              dup4\n              dup4\n              dup1\n              dup3\n              dup5\n              calldatacopy\n              0x00\n              dup2\n              dup5\n              add\n              mstore\n              not(0x1f)\n              0x1f\n              dup3\n              add\n              and\n              swap1\n              pop\n              dup1\n              dup4\n              add\n              swap3\n              pop\n              pop\n              pop\n              pop\n              pop\n              pop\n              pop\n              dup2\n              mstore\n              0x20\n              add\n                /* \"GambleGame.sol\":5036:5045  msg.value */\n              callvalue\n                /* \"GambleGame.sol\":4916:5061  Gamble({\r... */\n              dup2\n              mstore\n              pop\n                /* \"GambleGame.sol\":4903:5072  gambles.push(Gamble({\r... */\n              swap1\n              dup1\n              0x01\n              dup2\n              sload\n              add\n              dup1\n              dup3\n              sstore\n              dup1\n              swap2\n              pop\n              pop\n              0x01\n              swap1\n              sub\n              swap1\n              0x00\n              mstore\n              keccak256(0x00, 0x20)\n              swap1\n              0x03\n              mul\n              add\n              0x00\n              swap1\n              swap2\n              swap1\n              swap2\n              swap1\n              swap2\n              pop\n              0x00\n              dup3\n              add\n              mload\n              dup2\n              0x00\n              add\n              exp(0x0100, 0x00)\n              dup2\n              sload\n              dup2\n              0xffffffffffffffffffffffffffffffffffffffff\n              mul\n              not\n              and\n              swap1\n              dup4\n              0xffffffffffffffffffffffffffffffffffffffff\n              and\n              mul\n              or\n              swap1\n              sstore\n              pop\n              0x20\n              dup3\n              add\n              mload\n              dup2\n              0x01\n              add\n              swap1\n              dup1\n              mload\n              swap1\n              0x20\n              add\n              swap1\n              tag_239\n              swap3\n              swap2\n              swap1\n              tag_240\n              jump\t// in\n            tag_239:\n              pop\n              0x40\n              dup3\n              add\n              mload\n              dup2\n              0x02\n              add\n              sstore\n              pop\n              pop\n                /* \"GambleGame.sol\":5108:5117  msg.value */\n              callvalue\n                /* \"GambleGame.sol\":5084:5091  balance */\n              0x0d\n                /* \"GambleGame.sol\":5092:5103  teamGambled */\n              dup6\n              dup6\n                /* \"GambleGame.sol\":5084:5104  balance[teamGambled] */\n              mload(0x40)\n              tag_241\n              swap3\n              swap2\n              swap1\n              tag_157\n              jump\t// in\n            tag_241:\n              swap1\n              dup2\n              mstore\n              0x20\n              add\n              mload(0x40)\n              dup1\n              swap2\n              sub\n              swap1\n              keccak256\n              0x00\n                /* \"GambleGame.sol\":5084:5117  balance[teamGambled] += msg.value */\n              dup3\n              dup3\n              sload\n              tag_242\n              swap2\n              swap1\n              tag_243\n              jump\t// in\n            tag_242:\n              swap3\n              pop\n              pop\n              dup2\n              swap1\n              sstore\n              pop\n                /* \"GambleGame.sol\":4660:5125  function enterGamble( string calldata teamGambled ) payable public validTeam(teamGambled) mustBeIncompleted {\r... */\n              pop\n              pop\n              pop\n              pop\n              jump\t// out\n                /* \"GambleGame.sol\":2599:2620  string public version */\n            tag_52:\n              0x00\n              dup1\n              sload\n              tag_244\n              swap1\n              tag_245\n              jump\t// in\n            tag_244:\n              dup1\n              0x1f\n              add\n              0x20\n              dup1\n              swap2\n              div\n              mul\n              0x20\n              add\n              mload(0x40)\n              swap1\n              dup2\n              add\n              0x40\n              mstore\n              dup1\n              swap3\n              swap2\n              swap1\n              dup2\n              dup2\n              mstore\n              0x20\n              add\n              dup3\n              dup1\n              sload\n              tag_246\n              swap1\n              tag_245\n              jump\t// in\n            tag_246:\n              dup1\n              iszero\n              tag_247\n              jumpi\n              dup1\n              0x1f\n              lt\n              tag_248\n              jumpi\n              0x0100\n              dup1\n              dup4\n              sload\n              div\n              mul\n              dup4\n              mstore\n              swap2\n              0x20\n              add\n              swap2\n              jump(tag_247)\n            tag_248:\n              dup3\n              add\n              swap2\n              swap1\n              0x00\n              mstore\n              keccak256(0x00, 0x20)\n              swap1\n            tag_249:\n              dup2\n              sload\n              dup2\n              mstore\n              swap1\n              0x01\n              add\n              swap1\n              0x20\n              add\n              dup1\n              dup4\n              gt\n              tag_249\n              jumpi\n              dup3\n              swap1\n              sub\n              0x1f\n              and\n              dup3\n              add\n              swap2\n            tag_247:\n              pop\n              pop\n              pop\n              pop\n              pop\n              dup2\n              jump\t// out\n                /* \"GambleGame.sol\":6821:6925  function getContractBalance() view public returns (uint) {\r... */\n            tag_57:\n                /* \"GambleGame.sol\":6872:6876  uint */\n              0x00\n                /* \"GambleGame.sol\":6896:6917  address(this).balance */\n              selfbalance\n                /* \"GambleGame.sol\":6889:6917  return address(this).balance */\n              swap1\n              pop\n                /* \"GambleGame.sol\":6821:6925  function getContractBalance() view public returns (uint) {\r... */\n              swap1\n              jump\t// out\n                /* \"GambleGame.sol\":6933:7045  function renounceOwnership() public virtual onlyOwner {\r... */\n            tag_61:\n                /* \"GambleGame.sol\":3146:3151  owner */\n              0x05\n              0x01\n              swap1\n              sload\n              swap1\n              0x0100\n              exp\n              swap1\n              div\n              0xffffffffffffffffffffffffffffffffffffffff\n              and\n                /* \"GambleGame.sol\":3132:3151  msg.sender == owner */\n              0xffffffffffffffffffffffffffffffffffffffff\n              and\n                /* \"GambleGame.sol\":3132:3142  msg.sender */\n              caller\n                /* \"GambleGame.sol\":3132:3151  msg.sender == owner */\n              0xffffffffffffffffffffffffffffffffffffffff\n              and\n              eq\n                /* \"GambleGame.sol\":3109:3234  require( \r... */\n              tag_252\n              jumpi\n              mload(0x40)\n              0x08c379a000000000000000000000000000000000000000000000000000000000\n              dup2\n              mstore\n              0x04\n              add\n              tag_253\n              swap1\n              tag_254\n              jump\t// in\n            tag_253:\n              mload(0x40)\n              dup1\n              swap2\n              sub\n              swap1\n              revert\n            tag_252:\n                /* \"GambleGame.sol\":6998:7037  _transferOwnership(payable(address(0))) */\n              tag_256\n                /* \"GambleGame.sol\":7033:7034  0 */\n              0x00\n                /* \"GambleGame.sol\":6998:7016  _transferOwnership */\n              tag_257\n                /* \"GambleGame.sol\":6998:7037  _transferOwnership(payable(address(0))) */\n              jump\t// in\n            tag_256:\n                /* \"GambleGame.sol\":6933:7045  function renounceOwnership() public virtual onlyOwner {\r... */\n              jump\t// out\n                /* \"GambleGame.sol\":6720:6813  function getGambles() view public returns (Gamble[] memory) {\r... */\n            tag_64:\n                /* \"GambleGame.sol\":6763:6778  Gamble[] memory */\n              0x60\n                /* \"GambleGame.sol\":6798:6805  gambles */\n              0x0c\n                /* \"GambleGame.sol\":6791:6805  return gambles */\n              dup1\n              sload\n              dup1\n              0x20\n              mul\n              0x20\n              add\n              mload(0x40)\n              swap1\n              dup2\n              add\n              0x40\n              mstore\n              dup1\n              swap3\n              swap2\n              swap1\n              dup2\n              dup2\n              mstore\n              0x20\n              add\n              0x00\n              swap1\n            tag_259:\n              dup3\n              dup3\n              lt\n              iszero\n              tag_260\n              jumpi\n              dup4\n              dup3\n              swap1\n              0x00\n              mstore\n              keccak256(0x00, 0x20)\n              swap1\n              0x03\n              mul\n              add\n              mload(0x40)\n              dup1\n              0x60\n              add\n              0x40\n              mstore\n              swap1\n              dup2\n              0x00\n              dup3\n              add\n              0x00\n              swap1\n              sload\n              swap1\n              0x0100\n              exp\n              swap1\n              div\n              0xffffffffffffffffffffffffffffffffffffffff\n              and\n              0xffffffffffffffffffffffffffffffffffffffff\n              and\n              0xffffffffffffffffffffffffffffffffffffffff\n              and\n              dup2\n              mstore\n              0x20\n              add\n              0x01\n              dup3\n              add\n              dup1\n              sload\n              tag_262\n              swap1\n              tag_245\n              jump\t// in\n            tag_262:\n              dup1\n              0x1f\n              add\n              0x20\n              dup1\n              swap2\n              div\n              mul\n              0x20\n              add\n              mload(0x40)\n              swap1\n              dup2\n              add\n              0x40\n              mstore\n              dup1\n              swap3\n              swap2\n              swap1\n              dup2\n              dup2\n              mstore\n              0x20\n              add\n              dup3\n              dup1\n              sload\n              tag_263\n              swap1\n              tag_245\n              jump\t// in\n            tag_263:\n              dup1\n              iszero\n              tag_264\n              jumpi\n              dup1\n              0x1f\n              lt\n              tag_265\n              jumpi\n              0x0100\n              dup1\n              dup4\n              sload\n              div\n              mul\n              dup4\n              mstore\n              swap2\n              0x20\n              add\n              swap2\n              jump(tag_264)\n            tag_265:\n              dup3\n              add\n              swap2\n              swap1\n              0x00\n              mstore\n              keccak256(0x00, 0x20)\n              swap1\n            tag_266:\n              dup2\n              sload\n              dup2\n              mstore\n              swap1\n              0x01\n              add\n              swap1\n              0x20\n              add\n              dup1\n              dup4\n              gt\n              tag_266\n              jumpi\n              dup3\n              swap1\n              sub\n              0x1f\n              and\n              dup3\n              add\n              swap2\n            tag_264:\n              pop\n              pop\n              pop\n              pop\n              pop\n              dup2\n              mstore\n              0x20\n              add\n              0x02\n              dup3\n              add\n              sload\n              dup2\n              mstore\n              pop\n              pop\n              dup2\n              mstore\n              0x20\n              add\n              swap1\n              0x01\n              add\n              swap1\n              jump(tag_259)\n            tag_260:\n              pop\n              pop\n              pop\n              pop\n              swap1\n              pop\n                /* \"GambleGame.sol\":6720:6813  function getGambles() view public returns (Gamble[] memory) {\r... */\n              swap1\n              jump\t// out\n                /* \"GambleGame.sol\":2777:2805  address payable public owner */\n            tag_69:\n              0x05\n              0x01\n              swap1\n              sload\n              swap1\n              0x0100\n              exp\n              swap1\n              div\n              0xffffffffffffffffffffffffffffffffffffffff\n              and\n              dup2\n              jump\t// out\n                /* \"GambleGame.sol\":2750:2770  bool public official */\n            tag_74:\n              0x05\n              0x00\n              swap1\n              sload\n              swap1\n              0x0100\n              exp\n              swap1\n              div\n              0xff\n              and\n              dup2\n              jump\t// out\n                /* \"GambleGame.sol\":2902:2926  string public gambleDesc */\n            tag_79:\n              0x09\n              dup1\n              sload\n              tag_267\n              swap1\n              tag_245\n              jump\t// in\n            tag_267:\n              dup1\n              0x1f\n              add\n              0x20\n              dup1\n              swap2\n              div\n              mul\n              0x20\n              add\n              mload(0x40)\n              swap1\n              dup2\n              add\n              0x40\n              mstore\n              dup1\n              swap3\n              swap2\n              swap1\n              dup2\n              dup2\n              mstore\n              0x20\n              add\n              dup3\n              dup1\n              sload\n              tag_268\n              swap1\n              tag_245\n              jump\t// in\n            tag_268:\n              dup1\n              iszero\n              tag_269\n              jumpi\n              dup1\n              0x1f\n              lt\n              tag_270\n              jumpi\n              0x0100\n              dup1\n              dup4\n              sload\n              div\n              mul\n              dup4\n              mstore\n              swap2\n              0x20\n              add\n              swap2\n              jump(tag_269)\n            tag_270:\n              dup3\n              add\n              swap2\n              swap1\n              0x00\n              mstore\n              keccak256(0x00, 0x20)\n              swap1\n            tag_271:\n              dup2\n              sload\n              dup2\n              mstore\n              swap1\n              0x01\n              add\n              swap1\n              0x20\n              add\n              dup1\n              dup4\n              gt\n              tag_271\n              jumpi\n              dup3\n              swap1\n              sub\n              0x1f\n              and\n              dup3\n              add\n              swap2\n            tag_269:\n              pop\n              pop\n              pop\n              pop\n              pop\n              dup2\n              jump\t// out\n                /* \"GambleGame.sol\":2627:2648  bool public completed */\n            tag_83:\n              0x01\n              0x00\n              swap1\n              sload\n              swap1\n              0x0100\n              exp\n              swap1\n              div\n              0xff\n              and\n              dup2\n              jump\t// out\n                /* \"GambleGame.sol\":2687:2716  bool public completedByWinner */\n            tag_87:\n              0x03\n              0x00\n              swap1\n              sload\n              swap1\n              0x0100\n              exp\n              swap1\n              div\n              0xff\n              and\n              dup2\n              jump\t// out\n                /* \"GambleGame.sol\":2841:2864  string public firstTeam */\n            tag_91:\n              0x07\n              dup1\n              sload\n              tag_272\n              swap1\n              tag_245\n              jump\t// in\n            tag_272:\n              dup1\n              0x1f\n              add\n              0x20\n              dup1\n              swap2\n              div\n              mul\n              0x20\n              add\n              mload(0x40)\n              swap1\n              dup2\n              add\n              0x40\n              mstore\n              dup1\n              swap3\n              swap2\n              swap1\n              dup2\n              dup2\n              mstore\n              0x20\n              add\n              dup3\n              dup1\n              sload\n              tag_273\n              swap1\n              tag_245\n              jump\t// in\n            tag_273:\n              dup1\n              iszero\n              tag_274\n              jumpi\n              dup1\n              0x1f\n              lt\n              tag_275\n              jumpi\n              0x0100\n              dup1\n              dup4\n              sload\n              div\n              mul\n              dup4\n              mstore\n              swap2\n              0x20\n              add\n              swap2\n              jump(tag_274)\n            tag_275:\n              dup3\n              add\n              swap2\n              swap1\n              0x00\n              mstore\n              keccak256(0x00, 0x20)\n              swap1\n            tag_276:\n              dup2\n              sload\n              dup2\n              mstore\n              swap1\n              0x01\n              add\n              swap1\n              0x20\n              add\n              dup1\n              dup4\n              gt\n              tag_276\n              jumpi\n              dup3\n              swap1\n              sub\n              0x1f\n              and\n              dup3\n              add\n              swap2\n            tag_274:\n              pop\n              pop\n              pop\n              pop\n              pop\n              dup2\n              jump\t// out\n                /* \"GambleGame.sol\":2655:2680  uint public completedDate */\n            tag_95:\n              sload(0x02)\n              dup2\n              jump\t// out\n                /* \"GambleGame.sol\":2964:2991  string public gambleSubType */\n            tag_99:\n              0x0b\n              dup1\n              sload\n              tag_277\n              swap1\n              tag_245\n              jump\t// in\n            tag_277:\n              dup1\n              0x1f\n              add\n              0x20\n              dup1\n              swap2\n              div\n              mul\n              0x20\n              add\n              mload(0x40)\n              swap1\n              dup2\n              add\n              0x40\n              mstore\n              dup1\n              swap3\n              swap2\n              swap1\n              dup2\n              dup2\n              mstore\n              0x20\n              add\n              dup3\n              dup1\n              sload\n              tag_278\n              swap1\n              tag_245\n              jump\t// in\n            tag_278:\n              dup1\n              iszero\n              tag_279\n              jumpi\n              dup1\n              0x1f\n              lt\n              tag_280\n              jumpi\n              0x0100\n              dup1\n              dup4\n              sload\n              div\n              mul\n              dup4\n              mstore\n              swap2\n              0x20\n              add\n              swap2\n              jump(tag_279)\n            tag_280:\n              dup3\n              add\n              swap2\n              swap1\n              0x00\n              mstore\n              keccak256(0x00, 0x20)\n              swap1\n            tag_281:\n              dup2\n              sload\n              dup2\n              mstore\n              swap1\n              0x01\n              add\n              swap1\n              0x20\n              add\n              dup1\n              dup4\n              gt\n              tag_281\n              jumpi\n              dup3\n              swap1\n              sub\n              0x1f\n              and\n              dup3\n              add\n              swap2\n            tag_279:\n              pop\n              pop\n              pop\n              pop\n              pop\n              dup2\n              jump\t// out\n                /* \"GambleGame.sol\":2998:3021  Gamble[] public gambles */\n            tag_105:\n              0x0c\n              dup2\n              dup2\n              sload\n              dup2\n              lt\n              tag_282\n              jumpi\n              0x00\n              dup1\n              revert\n            tag_282:\n              swap1\n              0x00\n              mstore\n              keccak256(0x00, 0x20)\n              swap1\n              0x03\n              mul\n              add\n              0x00\n              swap2\n              pop\n              swap1\n              pop\n              dup1\n              0x00\n              add\n              0x00\n              swap1\n              sload\n              swap1\n              0x0100\n              exp\n              swap1\n              div\n              0xffffffffffffffffffffffffffffffffffffffff\n              and\n              swap1\n              dup1\n              0x01\n              add\n              dup1\n              sload\n              tag_284\n              swap1\n              tag_245\n              jump\t// in\n            tag_284:\n              dup1\n              0x1f\n              add\n              0x20\n              dup1\n              swap2\n              div\n              mul\n              0x20\n              add\n              mload(0x40)\n              swap1\n              dup2\n              add\n              0x40\n              mstore\n              dup1\n              swap3\n              swap2\n              swap1\n              dup2\n              dup2\n              mstore\n              0x20\n              add\n              dup3\n              dup1\n              sload\n              tag_285\n              swap1\n              tag_245\n              jump\t// in\n            tag_285:\n              dup1\n              iszero\n              tag_286\n              jumpi\n              dup1\n              0x1f\n              lt\n              tag_287\n              jumpi\n              0x0100\n              dup1\n              dup4\n              sload\n              div\n              mul\n              dup4\n              mstore\n              swap2\n              0x20\n              add\n              swap2\n              jump(tag_286)\n            tag_287:\n              dup3\n              add\n              swap2\n              swap1\n              0x00\n              mstore\n              keccak256(0x00, 0x20)\n              swap1\n            tag_288:\n              dup2\n              sload\n              dup2\n              mstore\n              swap1\n              0x01\n              add\n              swap1\n              0x20\n              add\n              dup1\n              dup4\n              gt\n              tag_288\n              jumpi\n              dup3\n              swap1\n              sub\n              0x1f\n              and\n              dup3\n              add\n              swap2\n            tag_286:\n              pop\n              pop\n              pop\n              pop\n              pop\n              swap1\n              dup1\n              0x02\n              add\n              sload\n              swap1\n              pop\n              dup4\n              jump\t// out\n                /* \"GambleGame.sol\":2933:2957  string public gambleType */\n            tag_110:\n              0x0a\n              dup1\n              sload\n              tag_289\n              swap1\n              tag_245\n              jump\t// in\n            tag_289:\n              dup1\n              0x1f\n              add\n              0x20\n              dup1\n              swap2\n              div\n              mul\n              0x20\n              add\n              mload(0x40)\n              swap1\n              dup2\n              add\n              0x40\n              mstore\n              dup1\n              swap3\n              swap2\n              swap1\n              dup2\n              dup2\n              mstore\n              0x20\n              add\n              dup3\n              dup1\n              sload\n              tag_290\n              swap1\n              tag_245\n              jump\t// in\n            tag_290:\n              dup1\n              iszero\n              tag_291\n              jumpi\n              dup1\n              0x1f\n              lt\n              tag_292\n              jumpi\n              0x0100\n              dup1\n              dup4\n              sload\n              div\n              mul\n              dup4\n              mstore\n              swap2\n              0x20\n              add\n              swap2\n              jump(tag_291)\n            tag_292:\n              dup3\n              add\n              swap2\n              swap1\n              0x00\n              mstore\n              keccak256(0x00, 0x20)\n              swap1\n            tag_293:\n              dup2\n              sload\n              dup2\n              mstore\n              swap1\n              0x01\n              add\n              swap1\n              0x20\n              add\n              dup1\n              dup4\n              gt\n              tag_293\n              jumpi\n              dup3\n              swap1\n              sub\n              0x1f\n              and\n              dup3\n              add\n              swap2\n            tag_291:\n              pop\n              pop\n              pop\n              pop\n              pop\n              dup2\n              jump\t// out\n                /* \"GambleGame.sol\":2723:2743  string public winner */\n            tag_114:\n              0x04\n              dup1\n              sload\n              tag_294\n              swap1\n              tag_245\n              jump\t// in\n            tag_294:\n              dup1\n              0x1f\n              add\n              0x20\n              dup1\n              swap2\n              div\n              mul\n              0x20\n              add\n              mload(0x40)\n              swap1\n              dup2\n              add\n              0x40\n              mstore\n              dup1\n              swap3\n              swap2\n              swap1\n              dup2\n              dup2\n              mstore\n              0x20\n              add\n              dup3\n              dup1\n              sload\n              tag_295\n              swap1\n              tag_245\n              jump\t// in\n            tag_295:\n              dup1\n              iszero\n              tag_296\n              jumpi\n              dup1\n              0x1f\n              lt\n              tag_297\n              jumpi\n              0x0100\n              dup1\n              dup4\n              sload\n              div\n              mul\n              dup4\n              mstore\n              swap2\n              0x20\n              add\n              swap2\n              jump(tag_296)\n            tag_297:\n              dup3\n              add\n              swap2\n              swap1\n              0x00\n              mstore\n              keccak256(0x00, 0x20)\n              swap1\n            tag_298:\n              dup2\n              sload\n              dup2\n              mstore\n              swap1\n              0x01\n              add\n              swap1\n              0x20\n              add\n              dup1\n              dup4\n              gt\n              tag_298\n              jumpi\n              dup3\n              swap1\n              sub\n              0x1f\n              and\n              dup3\n              add\n              swap2\n            tag_296:\n              pop\n              pop\n              pop\n              pop\n              pop\n              dup2\n              jump\t// out\n                /* \"GambleGame.sol\":2871:2895  string public secondTeam */\n            tag_118:\n              0x08\n              dup1\n              sload\n              tag_299\n              swap1\n              tag_245\n              jump\t// in\n            tag_299:\n              dup1\n              0x1f\n              add\n              0x20\n              dup1\n              swap2\n              div\n              mul\n              0x20\n              add\n              mload(0x40)\n              swap1\n              dup2\n              add\n              0x40\n              mstore\n              dup1\n              swap3\n              swap2\n              swap1\n              dup2\n              dup2\n              mstore\n              0x20\n              add\n              dup3\n              dup1\n              sload\n              tag_300\n              swap1\n              tag_245\n              jump\t// in\n            tag_300:\n              dup1\n              iszero\n              tag_301\n              jumpi\n              dup1\n              0x1f\n              lt\n              tag_302\n              jumpi\n              0x0100\n              dup1\n              dup4\n              sload\n              div\n              mul\n              dup4\n              mstore\n              swap2\n              0x20\n              add\n              swap2\n              jump(tag_301)\n            tag_302:\n              dup3\n              add\n              swap2\n              swap1\n              0x00\n              mstore\n              keccak256(0x00, 0x20)\n              swap1\n            tag_303:\n              dup2\n              sload\n              dup2\n              mstore\n              swap1\n              0x01\n              add\n              swap1\n              0x20\n              add\n              dup1\n              dup4\n              gt\n              tag_303\n              jumpi\n              dup3\n              swap1\n              sub\n              0x1f\n              and\n              dup3\n              add\n              swap2\n            tag_301:\n              pop\n              pop\n              pop\n              pop\n              pop\n              dup2\n              jump\t// out\n                /* \"GambleGame.sol\":7053:7262  function transferOwnership(address payable newOwner) public virtual onlyOwner {\r... */\n            tag_124:\n                /* \"GambleGame.sol\":3146:3151  owner */\n              0x05\n              0x01\n              swap1\n              sload\n              swap1\n              0x0100\n              exp\n              swap1\n              div\n              0xffffffffffffffffffffffffffffffffffffffff\n              and\n                /* \"GambleGame.sol\":3132:3151  msg.sender == owner */\n              0xffffffffffffffffffffffffffffffffffffffff\n              and\n                /* \"GambleGame.sol\":3132:3142  msg.sender */\n              caller\n                /* \"GambleGame.sol\":3132:3151  msg.sender == owner */\n              0xffffffffffffffffffffffffffffffffffffffff\n              and\n              eq\n                /* \"GambleGame.sol\":3109:3234  require( \r... */\n              tag_305\n              jumpi\n              mload(0x40)\n              0x08c379a000000000000000000000000000000000000000000000000000000000\n              dup2\n              mstore\n              0x04\n              add\n              tag_306\n              swap1\n              tag_254\n              jump\t// in\n            tag_306:\n              mload(0x40)\n              dup1\n              swap2\n              sub\n              swap1\n              revert\n            tag_305:\n                /* \"GambleGame.sol\":7170:7171  0 */\n              0x00\n                /* \"GambleGame.sol\":7150:7172  newOwner != address(0) */\n              0xffffffffffffffffffffffffffffffffffffffff\n              and\n                /* \"GambleGame.sol\":7150:7158  newOwner */\n              dup2\n                /* \"GambleGame.sol\":7150:7172  newOwner != address(0) */\n              0xffffffffffffffffffffffffffffffffffffffff\n              and\n              eq\n              iszero\n                /* \"GambleGame.sol\":7142:7215  require(newOwner != address(0), \"Ownable: new owner is the zero address\") */\n              tag_308\n              jumpi\n              mload(0x40)\n              0x08c379a000000000000000000000000000000000000000000000000000000000\n              dup2\n              mstore\n              0x04\n              add\n              tag_309\n              swap1\n              tag_310\n              jump\t// in\n            tag_309:\n              mload(0x40)\n              dup1\n              swap2\n              sub\n              swap1\n              revert\n            tag_308:\n                /* \"GambleGame.sol\":7226:7254  _transferOwnership(newOwner) */\n              tag_311\n                /* \"GambleGame.sol\":7245:7253  newOwner */\n              dup2\n                /* \"GambleGame.sol\":7226:7244  _transferOwnership */\n              tag_257\n                /* \"GambleGame.sol\":7226:7254  _transferOwnership(newOwner) */\n              jump\t// in\n            tag_311:\n                /* \"GambleGame.sol\":7053:7262  function transferOwnership(address payable newOwner) public virtual onlyOwner {\r... */\n              pop\n              jump\t// out\n                /* \"GambleGame.sol\":7270:7376  function _transferOwnership(address payable newOwner) internal virtual {\r... */\n            tag_257:\n                /* \"GambleGame.sol\":7360:7368  newOwner */\n              dup1\n                /* \"GambleGame.sol\":7352:7357  owner */\n              0x05\n              0x01\n                /* \"GambleGame.sol\":7352:7368  owner = newOwner */\n              0x0100\n              exp\n              dup2\n              sload\n              dup2\n              0xffffffffffffffffffffffffffffffffffffffff\n              mul\n              not\n              and\n              swap1\n              dup4\n              0xffffffffffffffffffffffffffffffffffffffff\n              and\n              mul\n              or\n              swap1\n              sstore\n              pop\n                /* \"GambleGame.sol\":7270:7376  function _transferOwnership(address payable newOwner) internal virtual {\r... */\n              pop\n              jump\t// out\n            tag_178:\n              dup3\n              dup1\n              sload\n              tag_313\n              swap1\n              tag_245\n              jump\t// in\n            tag_313:\n              swap1\n              0x00\n              mstore\n              keccak256(0x00, 0x20)\n              swap1\n              0x1f\n              add\n              0x20\n              swap1\n              div\n              dup2\n              add\n              swap3\n              dup3\n              tag_315\n              jumpi\n              0x00\n              dup6\n              sstore\n              jump(tag_314)\n            tag_315:\n              dup3\n              0x1f\n              lt\n              tag_316\n              jumpi\n              dup1\n              calldataload\n              not(0xff)\n              and\n              dup4\n              dup1\n              add\n              or\n              dup6\n              sstore\n              jump(tag_314)\n            tag_316:\n              dup3\n              dup1\n              add\n              0x01\n              add\n              dup6\n              sstore\n              dup3\n              iszero\n              tag_314\n              jumpi\n              swap2\n              dup3\n              add\n            tag_317:\n              dup3\n              dup2\n              gt\n              iszero\n              tag_318\n              jumpi\n              dup3\n              calldataload\n              dup3\n              sstore\n              swap2\n              0x20\n              add\n              swap2\n              swap1\n              0x01\n              add\n              swap1\n              jump(tag_317)\n            tag_318:\n            tag_314:\n              pop\n              swap1\n              pop\n              tag_319\n              swap2\n              swap1\n              tag_320\n              jump\t// in\n            tag_319:\n              pop\n              swap1\n              jump\t// out\n            tag_183:\n              pop\n              dup1\n              sload\n              0x00\n              dup3\n              sstore\n              0x03\n              mul\n              swap1\n              0x00\n              mstore\n              keccak256(0x00, 0x20)\n              swap1\n              dup2\n              add\n              swap1\n              tag_322\n              swap2\n              swap1\n              tag_323\n              jump\t// in\n            tag_322:\n              pop\n              jump\t// out\n            tag_240:\n              dup3\n              dup1\n              sload\n              tag_324\n              swap1\n              tag_245\n              jump\t// in\n            tag_324:\n              swap1\n              0x00\n              mstore\n              keccak256(0x00, 0x20)\n              swap1\n              0x1f\n              add\n              0x20\n              swap1\n              div\n              dup2\n              add\n              swap3\n              dup3\n              tag_326\n              jumpi\n              0x00\n              dup6\n              sstore\n              jump(tag_325)\n            tag_326:\n              dup3\n              0x1f\n              lt\n              tag_327\n              jumpi\n              dup1\n              mload\n              not(0xff)\n              and\n              dup4\n              dup1\n              add\n              or\n              dup6\n              sstore\n              jump(tag_325)\n            tag_327:\n              dup3\n              dup1\n              add\n              0x01\n              add\n              dup6\n              sstore\n              dup3\n              iszero\n              tag_325\n              jumpi\n              swap2\n              dup3\n              add\n            tag_328:\n              dup3\n              dup2\n              gt\n              iszero\n              tag_329\n              jumpi\n              dup3\n              mload\n              dup3\n              sstore\n              swap2\n              0x20\n              add\n              swap2\n              swap1\n              0x01\n              add\n              swap1\n              jump(tag_328)\n            tag_329:\n            tag_325:\n              pop\n              swap1\n              pop\n              tag_330\n              swap2\n              swap1\n              tag_320\n              jump\t// in\n            tag_330:\n              pop\n              swap1\n              jump\t// out\n            tag_320:\n            tag_331:\n              dup1\n              dup3\n              gt\n              iszero\n              tag_332\n              jumpi\n              0x00\n              dup2\n              0x00\n              swap1\n              sstore\n              pop\n              0x01\n              add\n              jump(tag_331)\n            tag_332:\n              pop\n              swap1\n              jump\t// out\n            tag_323:\n            tag_333:\n              dup1\n              dup3\n              gt\n              iszero\n              tag_334\n              jumpi\n              0x00\n              dup1\n              dup3\n              add\n              exp(0x0100, 0x00)\n              dup2\n              sload\n              swap1\n              0xffffffffffffffffffffffffffffffffffffffff\n              mul\n              not\n              and\n              swap1\n              sstore\n              0x01\n              dup3\n              add\n              0x00\n              tag_335\n              swap2\n              swap1\n              tag_336\n              jump\t// in\n            tag_335:\n              0x02\n              dup3\n              add\n              0x00\n              swap1\n              sstore\n              pop\n              0x03\n              add\n              jump(tag_333)\n            tag_334:\n              pop\n              swap1\n              jump\t// out\n            tag_336:\n              pop\n              dup1\n              sload\n              tag_337\n              swap1\n              tag_245\n              jump\t// in\n            tag_337:\n              0x00\n              dup3\n              sstore\n              dup1\n              0x1f\n              lt\n              tag_339\n              jumpi\n              pop\n              jump(tag_338)\n            tag_339:\n              0x1f\n              add\n              0x20\n              swap1\n              div\n              swap1\n              0x00\n              mstore\n              keccak256(0x00, 0x20)\n              swap1\n              dup2\n              add\n              swap1\n              tag_340\n              swap2\n              swap1\n              tag_320\n              jump\t// in\n            tag_340:\n            tag_338:\n              pop\n              jump\t// out\n                /* \"#utility.yul\":7:351   */\n            tag_342:\n              0x00\n                /* \"#utility.yul\":110:175   */\n              tag_344\n                /* \"#utility.yul\":125:174   */\n              tag_345\n                /* \"#utility.yul\":167:173   */\n              dup5\n                /* \"#utility.yul\":125:174   */\n              tag_346\n              jump\t// in\n            tag_345:\n                /* \"#utility.yul\":110:175   */\n              tag_347\n              jump\t// in\n            tag_344:\n                /* \"#utility.yul\":101:175   */\n              swap1\n              pop\n                /* \"#utility.yul\":198:204   */\n              dup3\n                /* \"#utility.yul\":191:196   */\n              dup2\n                /* \"#utility.yul\":184:205   */\n              mstore\n                /* \"#utility.yul\":236:240   */\n              0x20\n                /* \"#utility.yul\":229:234   */\n              dup2\n                /* \"#utility.yul\":225:241   */\n              add\n                /* \"#utility.yul\":274:277   */\n              dup5\n                /* \"#utility.yul\":265:271   */\n              dup5\n                /* \"#utility.yul\":260:263   */\n              dup5\n                /* \"#utility.yul\":256:272   */\n              add\n                /* \"#utility.yul\":253:278   */\n              gt\n                /* \"#utility.yul\":250:252   */\n              iszero\n              tag_348\n              jumpi\n                /* \"#utility.yul\":291:292   */\n              0x00\n                /* \"#utility.yul\":288:289   */\n              dup1\n                /* \"#utility.yul\":281:293   */\n              revert\n                /* \"#utility.yul\":250:252   */\n            tag_348:\n                /* \"#utility.yul\":304:345   */\n              tag_349\n                /* \"#utility.yul\":338:344   */\n              dup5\n                /* \"#utility.yul\":333:336   */\n              dup3\n                /* \"#utility.yul\":328:331   */\n              dup6\n                /* \"#utility.yul\":304:345   */\n              tag_350\n              jump\t// in\n            tag_349:\n                /* \"#utility.yul\":91:351   */\n              pop\n              swap4\n              swap3\n              pop\n              pop\n              pop\n              jump\t// out\n                /* \"#utility.yul\":357:512   */\n            tag_351:\n              0x00\n                /* \"#utility.yul\":449:455   */\n              dup2\n                /* \"#utility.yul\":436:456   */\n              calldataload\n                /* \"#utility.yul\":427:456   */\n              swap1\n              pop\n                /* \"#utility.yul\":465:506   */\n              tag_353\n                /* \"#utility.yul\":500:505   */\n              dup2\n                /* \"#utility.yul\":465:506   */\n              tag_354\n              jump\t// in\n            tag_353:\n                /* \"#utility.yul\":417:512   */\n              swap3\n              swap2\n              pop\n              pop\n              jump\t// out\n                /* \"#utility.yul\":532:884   */\n            tag_355:\n              0x00\n              dup1\n                /* \"#utility.yul\":650:653   */\n              dup4\n                /* \"#utility.yul\":643:647   */\n              0x1f\n                /* \"#utility.yul\":635:641   */\n              dup5\n                /* \"#utility.yul\":631:648   */\n              add\n                /* \"#utility.yul\":627:654   */\n              slt\n                /* \"#utility.yul\":617:619   */\n              tag_357\n              jumpi\n                /* \"#utility.yul\":668:669   */\n              0x00\n                /* \"#utility.yul\":665:666   */\n              dup1\n                /* \"#utility.yul\":658:670   */\n              revert\n                /* \"#utility.yul\":617:619   */\n            tag_357:\n                /* \"#utility.yul\":704:710   */\n              dup3\n                /* \"#utility.yul\":691:711   */\n              calldataload\n                /* \"#utility.yul\":681:711   */\n              swap1\n              pop\n                /* \"#utility.yul\":734:752   */\n              0xffffffffffffffff\n                /* \"#utility.yul\":726:732   */\n              dup2\n                /* \"#utility.yul\":723:753   */\n              gt\n                /* \"#utility.yul\":720:722   */\n              iszero\n              tag_358\n              jumpi\n                /* \"#utility.yul\":766:767   */\n              0x00\n                /* \"#utility.yul\":763:764   */\n              dup1\n                /* \"#utility.yul\":756:768   */\n              revert\n                /* \"#utility.yul\":720:722   */\n            tag_358:\n                /* \"#utility.yul\":803:807   */\n              0x20\n                /* \"#utility.yul\":795:801   */\n              dup4\n                /* \"#utility.yul\":791:808   */\n              add\n                /* \"#utility.yul\":779:808   */\n              swap2\n              pop\n                /* \"#utility.yul\":857:860   */\n              dup4\n                /* \"#utility.yul\":849:853   */\n              0x01\n                /* \"#utility.yul\":841:847   */\n              dup3\n                /* \"#utility.yul\":837:854   */\n              mul\n                /* \"#utility.yul\":827:835   */\n              dup4\n                /* \"#utility.yul\":823:855   */\n              add\n                /* \"#utility.yul\":820:861   */\n              gt\n                /* \"#utility.yul\":817:819   */\n              iszero\n              tag_359\n              jumpi\n                /* \"#utility.yul\":874:875   */\n              0x00\n                /* \"#utility.yul\":871:872   */\n              dup1\n                /* \"#utility.yul\":864:876   */\n              revert\n                /* \"#utility.yul\":817:819   */\n            tag_359:\n                /* \"#utility.yul\":607:884   */\n              swap3\n              pop\n              swap3\n              swap1\n              pop\n              jump\t// out\n                /* \"#utility.yul\":904:1177   */\n            tag_360:\n              0x00\n                /* \"#utility.yul\":1009:1012   */\n              dup3\n                /* \"#utility.yul\":1002:1006   */\n              0x1f\n                /* \"#utility.yul\":994:1000   */\n              dup4\n                /* \"#utility.yul\":990:1007   */\n              add\n                /* \"#utility.yul\":986:1013   */\n              slt\n                /* \"#utility.yul\":976:978   */\n              tag_362\n              jumpi\n                /* \"#utility.yul\":1027:1028   */\n              0x00\n                /* \"#utility.yul\":1024:1025   */\n              dup1\n                /* \"#utility.yul\":1017:1029   */\n              revert\n                /* \"#utility.yul\":976:978   */\n            tag_362:\n                /* \"#utility.yul\":1067:1073   */\n              dup2\n                /* \"#utility.yul\":1054:1074   */\n              calldataload\n                /* \"#utility.yul\":1092:1171   */\n              tag_363\n                /* \"#utility.yul\":1167:1170   */\n              dup5\n                /* \"#utility.yul\":1159:1165   */\n              dup3\n                /* \"#utility.yul\":1152:1156   */\n              0x20\n                /* \"#utility.yul\":1144:1150   */\n              dup7\n                /* \"#utility.yul\":1140:1157   */\n              add\n                /* \"#utility.yul\":1092:1171   */\n              tag_342\n              jump\t// in\n            tag_363:\n                /* \"#utility.yul\":1083:1171   */\n              swap2\n              pop\n                /* \"#utility.yul\":966:1177   */\n              pop\n              swap3\n              swap2\n              pop\n              pop\n              jump\t// out\n                /* \"#utility.yul\":1183:1322   */\n            tag_364:\n              0x00\n                /* \"#utility.yul\":1267:1273   */\n              dup2\n                /* \"#utility.yul\":1254:1274   */\n              calldataload\n                /* \"#utility.yul\":1245:1274   */\n              swap1\n              pop\n                /* \"#utility.yul\":1283:1316   */\n              tag_366\n                /* \"#utility.yul\":1310:1315   */\n              dup2\n                /* \"#utility.yul\":1283:1316   */\n              tag_367\n              jump\t// in\n            tag_366:\n                /* \"#utility.yul\":1235:1322   */\n              swap3\n              swap2\n              pop\n              pop\n              jump\t// out\n                /* \"#utility.yul\":1328:1606   */\n            tag_123:\n              0x00\n                /* \"#utility.yul\":1444:1446   */\n              0x20\n                /* \"#utility.yul\":1432:1441   */\n              dup3\n                /* \"#utility.yul\":1423:1430   */\n              dup5\n                /* \"#utility.yul\":1419:1442   */\n              sub\n                /* \"#utility.yul\":1415:1447   */\n              slt\n                /* \"#utility.yul\":1412:1414   */\n              iszero\n              tag_369\n              jumpi\n                /* \"#utility.yul\":1460:1461   */\n              0x00\n                /* \"#utility.yul\":1457:1458   */\n              dup1\n                /* \"#utility.yul\":1450:1462   */\n              revert\n                /* \"#utility.yul\":1412:1414   */\n            tag_369:\n                /* \"#utility.yul\":1503:1504   */\n              0x00\n                /* \"#utility.yul\":1528:1589   */\n              tag_370\n                /* \"#utility.yul\":1581:1588   */\n              dup5\n                /* \"#utility.yul\":1572:1578   */\n              dup3\n                /* \"#utility.yul\":1561:1570   */\n              dup6\n                /* \"#utility.yul\":1557:1579   */\n              add\n                /* \"#utility.yul\":1528:1589   */\n              tag_351\n              jump\t// in\n            tag_370:\n                /* \"#utility.yul\":1518:1589   */\n              swap2\n              pop\n                /* \"#utility.yul\":1474:1599   */\n              pop\n                /* \"#utility.yul\":1402:1606   */\n              swap3\n              swap2\n              pop\n              pop\n              jump\t// out\n                /* \"#utility.yul\":1612:2007   */\n            tag_30:\n              0x00\n              dup1\n                /* \"#utility.yul\":1740:1742   */\n              0x20\n                /* \"#utility.yul\":1728:1737   */\n              dup4\n                /* \"#utility.yul\":1719:1726   */\n              dup6\n                /* \"#utility.yul\":1715:1738   */\n              sub\n                /* \"#utility.yul\":1711:1743   */\n              slt\n                /* \"#utility.yul\":1708:1710   */\n              iszero\n              tag_372\n              jumpi\n                /* \"#utility.yul\":1756:1757   */\n              0x00\n                /* \"#utility.yul\":1753:1754   */\n              dup1\n                /* \"#utility.yul\":1746:1758   */\n              revert\n                /* \"#utility.yul\":1708:1710   */\n            tag_372:\n                /* \"#utility.yul\":1827:1828   */\n              0x00\n                /* \"#utility.yul\":1816:1825   */\n              dup4\n                /* \"#utility.yul\":1812:1829   */\n              add\n                /* \"#utility.yul\":1799:1830   */\n              calldataload\n                /* \"#utility.yul\":1857:1875   */\n              0xffffffffffffffff\n                /* \"#utility.yul\":1849:1855   */\n              dup2\n                /* \"#utility.yul\":1846:1876   */\n              gt\n                /* \"#utility.yul\":1843:1845   */\n              iszero\n              tag_373\n              jumpi\n                /* \"#utility.yul\":1889:1890   */\n              0x00\n                /* \"#utility.yul\":1886:1887   */\n              dup1\n                /* \"#utility.yul\":1879:1891   */\n              revert\n                /* \"#utility.yul\":1843:1845   */\n            tag_373:\n                /* \"#utility.yul\":1925:1990   */\n              tag_374\n                /* \"#utility.yul\":1982:1989   */\n              dup6\n                /* \"#utility.yul\":1973:1979   */\n              dup3\n                /* \"#utility.yul\":1962:1971   */\n              dup7\n                /* \"#utility.yul\":1958:1980   */\n              add\n                /* \"#utility.yul\":1925:1990   */\n              tag_355\n              jump\t// in\n            tag_374:\n                /* \"#utility.yul\":1907:1990   */\n              swap3\n              pop\n              swap3\n              pop\n                /* \"#utility.yul\":1770:2000   */\n              pop\n                /* \"#utility.yul\":1698:2007   */\n              swap3\n              pop\n              swap3\n              swap1\n              pop\n              jump\t// out\n                /* \"#utility.yul\":2013:2388   */\n            tag_38:\n              0x00\n                /* \"#utility.yul\":2131:2133   */\n              0x20\n                /* \"#utility.yul\":2119:2128   */\n              dup3\n                /* \"#utility.yul\":2110:2117   */\n              dup5\n                /* \"#utility.yul\":2106:2129   */\n              sub\n                /* \"#utility.yul\":2102:2134   */\n              slt\n                /* \"#utility.yul\":2099:2101   */\n              iszero\n              tag_376\n              jumpi\n                /* \"#utility.yul\":2147:2148   */\n              0x00\n                /* \"#utility.yul\":2144:2145   */\n              dup1\n                /* \"#utility.yul\":2137:2149   */\n              revert\n                /* \"#utility.yul\":2099:2101   */\n            tag_376:\n                /* \"#utility.yul\":2218:2219   */\n              0x00\n                /* \"#utility.yul\":2207:2216   */\n              dup3\n                /* \"#utility.yul\":2203:2220   */\n              add\n                /* \"#utility.yul\":2190:2221   */\n              calldataload\n                /* \"#utility.yul\":2248:2266   */\n              0xffffffffffffffff\n                /* \"#utility.yul\":2240:2246   */\n              dup2\n                /* \"#utility.yul\":2237:2267   */\n              gt\n                /* \"#utility.yul\":2234:2236   */\n              iszero\n              tag_377\n              jumpi\n                /* \"#utility.yul\":2280:2281   */\n              0x00\n                /* \"#utility.yul\":2277:2278   */\n              dup1\n                /* \"#utility.yul\":2270:2282   */\n              revert\n                /* \"#utility.yul\":2234:2236   */\n            tag_377:\n                /* \"#utility.yul\":2308:2371   */\n              tag_378\n                /* \"#utility.yul\":2363:2370   */\n              dup5\n                /* \"#utility.yul\":2354:2360   */\n              dup3\n                /* \"#utility.yul\":2343:2352   */\n              dup6\n                /* \"#utility.yul\":2339:2361   */\n              add\n                /* \"#utility.yul\":2308:2371   */\n              tag_360\n              jump\t// in\n            tag_378:\n                /* \"#utility.yul\":2298:2371   */\n              swap2\n              pop\n                /* \"#utility.yul\":2161:2381   */\n              pop\n                /* \"#utility.yul\":2089:2388   */\n              swap3\n              swap2\n              pop\n              pop\n              jump\t// out\n                /* \"#utility.yul\":2394:2656   */\n            tag_104:\n              0x00\n                /* \"#utility.yul\":2502:2504   */\n              0x20\n                /* \"#utility.yul\":2490:2499   */\n              dup3\n                /* \"#utility.yul\":2481:2488   */\n              dup5\n                /* \"#utility.yul\":2477:2500   */\n              sub\n                /* \"#utility.yul\":2473:2505   */\n              slt\n                /* \"#utility.yul\":2470:2472   */\n              iszero\n              tag_380\n              jumpi\n                /* \"#utility.yul\":2518:2519   */\n              0x00\n                /* \"#utility.yul\":2515:2516   */\n              dup1\n                /* \"#utility.yul\":2508:2520   */\n              revert\n                /* \"#utility.yul\":2470:2472   */\n            tag_380:\n                /* \"#utility.yul\":2561:2562   */\n              0x00\n                /* \"#utility.yul\":2586:2639   */\n              tag_381\n                /* \"#utility.yul\":2631:2638   */\n              dup5\n                /* \"#utility.yul\":2622:2628   */\n              dup3\n                /* \"#utility.yul\":2611:2620   */\n              dup6\n                /* \"#utility.yul\":2607:2629   */\n              add\n                /* \"#utility.yul\":2586:2639   */\n              tag_364\n              jump\t// in\n            tag_381:\n                /* \"#utility.yul\":2576:2639   */\n              swap2\n              pop\n                /* \"#utility.yul\":2532:2649   */\n              pop\n                /* \"#utility.yul\":2460:2656   */\n              swap3\n              swap2\n              pop\n              pop\n              jump\t// out\n                /* \"#utility.yul\":2662:2910   */\n            tag_382:\n              0x00\n                /* \"#utility.yul\":2812:2904   */\n              tag_384\n                /* \"#utility.yul\":2900:2903   */\n              dup4\n                /* \"#utility.yul\":2892:2898   */\n              dup4\n                /* \"#utility.yul\":2812:2904   */\n              tag_385\n              jump\t// in\n            tag_384:\n                /* \"#utility.yul\":2798:2904   */\n              swap1\n              pop\n                /* \"#utility.yul\":2788:2910   */\n              swap3\n              swap2\n              pop\n              pop\n              jump\t// out\n                /* \"#utility.yul\":2916:3048   */\n            tag_386:\n                /* \"#utility.yul\":3009:3041   */\n              tag_388\n                /* \"#utility.yul\":3035:3040   */\n              dup2\n                /* \"#utility.yul\":3009:3041   */\n              tag_389\n              jump\t// in\n            tag_388:\n                /* \"#utility.yul\":3004:3007   */\n              dup3\n                /* \"#utility.yul\":2997:3042   */\n              mstore\n                /* \"#utility.yul\":2987:3048   */\n              pop\n              pop\n              jump\t// out\n                /* \"#utility.yul\":3054:3196   */\n            tag_390:\n                /* \"#utility.yul\":3157:3189   */\n              tag_392\n                /* \"#utility.yul\":3183:3188   */\n              dup2\n                /* \"#utility.yul\":3157:3189   */\n              tag_389\n              jump\t// in\n            tag_392:\n                /* \"#utility.yul\":3152:3155   */\n              dup3\n                /* \"#utility.yul\":3145:3190   */\n              mstore\n                /* \"#utility.yul\":3135:3196   */\n              pop\n              pop\n              jump\t// out\n                /* \"#utility.yul\":3202:3320   */\n            tag_393:\n                /* \"#utility.yul\":3289:3313   */\n              tag_395\n                /* \"#utility.yul\":3307:3312   */\n              dup2\n                /* \"#utility.yul\":3289:3313   */\n              tag_396\n              jump\t// in\n            tag_395:\n                /* \"#utility.yul\":3284:3287   */\n              dup3\n                /* \"#utility.yul\":3277:3314   */\n              mstore\n                /* \"#utility.yul\":3267:3320   */\n              pop\n              pop\n              jump\t// out\n                /* \"#utility.yul\":3390:4485   */\n            tag_397:\n              0x00\n                /* \"#utility.yul\":3584:3661   */\n              tag_399\n                /* \"#utility.yul\":3655:3660   */\n              dup3\n                /* \"#utility.yul\":3584:3661   */\n              tag_400\n              jump\t// in\n            tag_399:\n                /* \"#utility.yul\":3677:3786   */\n              tag_401\n                /* \"#utility.yul\":3779:3785   */\n              dup2\n                /* \"#utility.yul\":3774:3777   */\n              dup6\n                /* \"#utility.yul\":3677:3786   */\n              tag_402\n              jump\t// in\n            tag_401:\n                /* \"#utility.yul\":3670:3786   */\n              swap4\n              pop\n                /* \"#utility.yul\":3812:3815   */\n              dup4\n                /* \"#utility.yul\":3857:3861   */\n              0x20\n                /* \"#utility.yul\":3849:3855   */\n              dup3\n                /* \"#utility.yul\":3845:3862   */\n              mul\n                /* \"#utility.yul\":3840:3843   */\n              dup6\n                /* \"#utility.yul\":3836:3863   */\n              add\n                /* \"#utility.yul\":3887:3966   */\n              tag_403\n                /* \"#utility.yul\":3960:3965   */\n              dup6\n                /* \"#utility.yul\":3887:3966   */\n              tag_404\n              jump\t// in\n            tag_403:\n                /* \"#utility.yul\":3989:3996   */\n              dup1\n                /* \"#utility.yul\":4020:4021   */\n              0x00\n                /* \"#utility.yul\":4005:4440   */\n            tag_405:\n                /* \"#utility.yul\":4030:4036   */\n              dup6\n                /* \"#utility.yul\":4027:4028   */\n              dup2\n                /* \"#utility.yul\":4024:4037   */\n              lt\n                /* \"#utility.yul\":4005:4440   */\n              iszero\n              tag_407\n              jumpi\n                /* \"#utility.yul\":4101:4110   */\n              dup5\n                /* \"#utility.yul\":4095:4099   */\n              dup5\n                /* \"#utility.yul\":4091:4111   */\n              sub\n                /* \"#utility.yul\":4086:4089   */\n              dup10\n                /* \"#utility.yul\":4079:4112   */\n              mstore\n                /* \"#utility.yul\":4152:4158   */\n              dup2\n                /* \"#utility.yul\":4146:4159   */\n              mload\n                /* \"#utility.yul\":4180:4290   */\n              tag_408\n                /* \"#utility.yul\":4285:4289   */\n              dup6\n                /* \"#utility.yul\":4270:4283   */\n              dup3\n                /* \"#utility.yul\":4180:4290   */\n              tag_382\n              jump\t// in\n            tag_408:\n                /* \"#utility.yul\":4172:4290   */\n              swap5\n              pop\n                /* \"#utility.yul\":4313:4396   */\n              tag_409\n                /* \"#utility.yul\":4389:4395   */\n              dup4\n                /* \"#utility.yul\":4313:4396   */\n              tag_410\n              jump\t// in\n            tag_409:\n                /* \"#utility.yul\":4303:4396   */\n              swap3\n              pop\n                /* \"#utility.yul\":4425:4429   */\n              0x20\n                /* \"#utility.yul\":4420:4423   */\n              dup11\n                /* \"#utility.yul\":4416:4430   */\n              add\n                /* \"#utility.yul\":4409:4430   */\n              swap10\n              pop\n                /* \"#utility.yul\":4065:4440   */\n              pop\n                /* \"#utility.yul\":4052:4053   */\n              0x01\n                /* \"#utility.yul\":4049:4050   */\n              dup2\n                /* \"#utility.yul\":4045:4054   */\n              add\n                /* \"#utility.yul\":4040:4054   */\n              swap1\n              pop\n                /* \"#utility.yul\":4005:4440   */\n              jump(tag_405)\n            tag_407:\n                /* \"#utility.yul\":4009:4023   */\n              pop\n                /* \"#utility.yul\":4456:4460   */\n              dup3\n                /* \"#utility.yul\":4449:4460   */\n              swap8\n              pop\n                /* \"#utility.yul\":4476:4479   */\n              dup8\n                /* \"#utility.yul\":4469:4479   */\n              swap6\n              pop\n                /* \"#utility.yul\":3560:4485   */\n              pop\n              pop\n              pop\n              pop\n              pop\n              swap3\n              swap2\n              pop\n              pop\n              jump\t// out\n                /* \"#utility.yul\":4491:4600   */\n            tag_411:\n                /* \"#utility.yul\":4572:4593   */\n              tag_413\n                /* \"#utility.yul\":4587:4592   */\n              dup2\n                /* \"#utility.yul\":4572:4593   */\n              tag_414\n              jump\t// in\n            tag_413:\n                /* \"#utility.yul\":4567:4570   */\n              dup3\n                /* \"#utility.yul\":4560:4594   */\n              mstore\n                /* \"#utility.yul\":4550:4600   */\n              pop\n              pop\n              jump\t// out\n                /* \"#utility.yul\":4630:4934   */\n            tag_415:\n              0x00\n                /* \"#utility.yul\":4749:4820   */\n              tag_417\n                /* \"#utility.yul\":4813:4819   */\n              dup4\n                /* \"#utility.yul\":4808:4811   */\n              dup6\n                /* \"#utility.yul\":4749:4820   */\n              tag_418\n              jump\t// in\n            tag_417:\n                /* \"#utility.yul\":4742:4820   */\n              swap4\n              pop\n                /* \"#utility.yul\":4830:4873   */\n              tag_419\n                /* \"#utility.yul\":4866:4872   */\n              dup4\n                /* \"#utility.yul\":4861:4864   */\n              dup6\n                /* \"#utility.yul\":4854:4859   */\n              dup5\n                /* \"#utility.yul\":4830:4873   */\n              tag_350\n              jump\t// in\n            tag_419:\n                /* \"#utility.yul\":4898:4927   */\n              tag_420\n                /* \"#utility.yul\":4920:4926   */\n              dup4\n                /* \"#utility.yul\":4898:4927   */\n              tag_421\n              jump\t// in\n            tag_420:\n                /* \"#utility.yul\":4893:4896   */\n              dup5\n                /* \"#utility.yul\":4889:4928   */\n              add\n                /* \"#utility.yul\":4882:4928   */\n              swap1\n              pop\n                /* \"#utility.yul\":4732:4934   */\n              swap4\n              swap3\n              pop\n              pop\n              pop\n              jump\t// out\n                /* \"#utility.yul\":4964:5281   */\n            tag_422:\n              0x00\n                /* \"#utility.yul\":5101:5190   */\n              tag_424\n                /* \"#utility.yul\":5183:5189   */\n              dup4\n                /* \"#utility.yul\":5178:5181   */\n              dup6\n                /* \"#utility.yul\":5101:5190   */\n              tag_425\n              jump\t// in\n            tag_424:\n                /* \"#utility.yul\":5094:5190   */\n              swap4\n              pop\n                /* \"#utility.yul\":5200:5243   */\n              tag_426\n                /* \"#utility.yul\":5236:5242   */\n              dup4\n                /* \"#utility.yul\":5231:5234   */\n              dup6\n                /* \"#utility.yul\":5224:5229   */\n              dup5\n                /* \"#utility.yul\":5200:5243   */\n              tag_350\n              jump\t// in\n            tag_426:\n                /* \"#utility.yul\":5268:5274   */\n              dup3\n                /* \"#utility.yul\":5263:5266   */\n              dup5\n                /* \"#utility.yul\":5259:5275   */\n              add\n                /* \"#utility.yul\":5252:5275   */\n              swap1\n              pop\n                /* \"#utility.yul\":5084:5281   */\n              swap4\n              swap3\n              pop\n              pop\n              pop\n              jump\t// out\n                /* \"#utility.yul\":5287:5631   */\n            tag_427:\n              0x00\n                /* \"#utility.yul\":5393:5432   */\n              tag_429\n                /* \"#utility.yul\":5426:5431   */\n              dup3\n                /* \"#utility.yul\":5393:5432   */\n              tag_430\n              jump\t// in\n            tag_429:\n                /* \"#utility.yul\":5448:5509   */\n              tag_431\n                /* \"#utility.yul\":5502:5508   */\n              dup2\n                /* \"#utility.yul\":5497:5500   */\n              dup6\n                /* \"#utility.yul\":5448:5509   */\n              tag_432\n              jump\t// in\n            tag_431:\n                /* \"#utility.yul\":5441:5509   */\n              swap4\n              pop\n                /* \"#utility.yul\":5518:5570   */\n              tag_433\n                /* \"#utility.yul\":5563:5569   */\n              dup2\n                /* \"#utility.yul\":5558:5561   */\n              dup6\n                /* \"#utility.yul\":5551:5555   */\n              0x20\n                /* \"#utility.yul\":5544:5549   */\n              dup7\n                /* \"#utility.yul\":5540:5556   */\n              add\n                /* \"#utility.yul\":5518:5570   */\n              tag_434\n              jump\t// in\n            tag_433:\n                /* \"#utility.yul\":5595:5624   */\n              tag_435\n                /* \"#utility.yul\":5617:5623   */\n              dup2\n                /* \"#utility.yul\":5595:5624   */\n              tag_421\n              jump\t// in\n            tag_435:\n                /* \"#utility.yul\":5590:5593   */\n              dup5\n                /* \"#utility.yul\":5586:5625   */\n              add\n                /* \"#utility.yul\":5579:5625   */\n              swap2\n              pop\n                /* \"#utility.yul\":5369:5631   */\n              pop\n              swap3\n              swap2\n              pop\n              pop\n              jump\t// out\n                /* \"#utility.yul\":5637:6001   */\n            tag_436:\n              0x00\n                /* \"#utility.yul\":5753:5792   */\n              tag_438\n                /* \"#utility.yul\":5786:5791   */\n              dup3\n                /* \"#utility.yul\":5753:5792   */\n              tag_430\n              jump\t// in\n            tag_438:\n                /* \"#utility.yul\":5808:5879   */\n              tag_439\n                /* \"#utility.yul\":5872:5878   */\n              dup2\n                /* \"#utility.yul\":5867:5870   */\n              dup6\n                /* \"#utility.yul\":5808:5879   */\n              tag_418\n              jump\t// in\n            tag_439:\n                /* \"#utility.yul\":5801:5879   */\n              swap4\n              pop\n                /* \"#utility.yul\":5888:5940   */\n              tag_440\n                /* \"#utility.yul\":5933:5939   */\n              dup2\n                /* \"#utility.yul\":5928:5931   */\n              dup6\n                /* \"#utility.yul\":5921:5925   */\n              0x20\n                /* \"#utility.yul\":5914:5919   */\n              dup7\n                /* \"#utility.yul\":5910:5926   */\n              add\n                /* \"#utility.yul\":5888:5940   */\n              tag_434\n              jump\t// in\n            tag_440:\n                /* \"#utility.yul\":5965:5994   */\n              tag_441\n                /* \"#utility.yul\":5987:5993   */\n              dup2\n                /* \"#utility.yul\":5965:5994   */\n              tag_421\n              jump\t// in\n            tag_441:\n                /* \"#utility.yul\":5960:5963   */\n              dup5\n                /* \"#utility.yul\":5956:5995   */\n              add\n                /* \"#utility.yul\":5949:5995   */\n              swap2\n              pop\n                /* \"#utility.yul\":5729:6001   */\n              pop\n              swap3\n              swap2\n              pop\n              pop\n              jump\t// out\n                /* \"#utility.yul\":6031:6833   */\n            tag_442:\n              0x00\n                /* \"#utility.yul\":6153:6158   */\n              dup2\n                /* \"#utility.yul\":6147:6159   */\n              sload\n                /* \"#utility.yul\":6182:6218   */\n              tag_444\n                /* \"#utility.yul\":6208:6217   */\n              dup2\n                /* \"#utility.yul\":6182:6218   */\n              tag_245\n              jump\t// in\n            tag_444:\n                /* \"#utility.yul\":6234:6305   */\n              tag_445\n                /* \"#utility.yul\":6298:6304   */\n              dup2\n                /* \"#utility.yul\":6293:6296   */\n              dup7\n                /* \"#utility.yul\":6234:6305   */\n              tag_418\n              jump\t// in\n            tag_445:\n                /* \"#utility.yul\":6227:6305   */\n              swap5\n              pop\n                /* \"#utility.yul\":6336:6337   */\n              0x01\n                /* \"#utility.yul\":6325:6334   */\n              dup3\n                /* \"#utility.yul\":6321:6338   */\n              and\n                /* \"#utility.yul\":6352:6353   */\n              0x00\n                /* \"#utility.yul\":6347:6482   */\n              dup2\n              eq\n              tag_447\n              jumpi\n                /* \"#utility.yul\":6496:6497   */\n              0x01\n                /* \"#utility.yul\":6491:6827   */\n              dup2\n              eq\n              tag_448\n              jumpi\n                /* \"#utility.yul\":6314:6827   */\n              jump(tag_446)\n                /* \"#utility.yul\":6347:6482   */\n            tag_447:\n                /* \"#utility.yul\":6431:6435   */\n              0xff\n                /* \"#utility.yul\":6427:6436   */\n              not\n                /* \"#utility.yul\":6416:6425   */\n              dup4\n                /* \"#utility.yul\":6412:6437   */\n              and\n                /* \"#utility.yul\":6407:6410   */\n              dup7\n                /* \"#utility.yul\":6400:6438   */\n              mstore\n                /* \"#utility.yul\":6467:6471   */\n              0x20\n                /* \"#utility.yul\":6462:6465   */\n              dup7\n                /* \"#utility.yul\":6458:6472   */\n              add\n                /* \"#utility.yul\":6451:6472   */\n              swap4\n              pop\n                /* \"#utility.yul\":6347:6482   */\n              jump(tag_446)\n                /* \"#utility.yul\":6491:6827   */\n            tag_448:\n                /* \"#utility.yul\":6558:6596   */\n              tag_449\n                /* \"#utility.yul\":6590:6595   */\n              dup6\n                /* \"#utility.yul\":6558:6596   */\n              tag_450\n              jump\t// in\n            tag_449:\n                /* \"#utility.yul\":6618:6619   */\n              0x00\n                /* \"#utility.yul\":6632:6786   */\n            tag_451:\n                /* \"#utility.yul\":6646:6652   */\n              dup4\n                /* \"#utility.yul\":6643:6644   */\n              dup2\n                /* \"#utility.yul\":6640:6653   */\n              lt\n                /* \"#utility.yul\":6632:6786   */\n              iszero\n              tag_453\n              jumpi\n                /* \"#utility.yul\":6720:6727   */\n              dup2\n                /* \"#utility.yul\":6714:6728   */\n              sload\n                /* \"#utility.yul\":6710:6711   */\n              dup2\n                /* \"#utility.yul\":6705:6708   */\n              dup10\n                /* \"#utility.yul\":6701:6712   */\n              add\n                /* \"#utility.yul\":6694:6729   */\n              mstore\n                /* \"#utility.yul\":6770:6771   */\n              0x01\n                /* \"#utility.yul\":6761:6768   */\n              dup3\n                /* \"#utility.yul\":6757:6772   */\n              add\n                /* \"#utility.yul\":6746:6772   */\n              swap2\n              pop\n                /* \"#utility.yul\":6668:6672   */\n              0x20\n                /* \"#utility.yul\":6665:6666   */\n              dup2\n                /* \"#utility.yul\":6661:6673   */\n              add\n                /* \"#utility.yul\":6656:6673   */\n              swap1\n              pop\n                /* \"#utility.yul\":6632:6786   */\n              jump(tag_451)\n            tag_453:\n                /* \"#utility.yul\":6815:6816   */\n              dup1\n                /* \"#utility.yul\":6810:6813   */\n              dup9\n                /* \"#utility.yul\":6806:6817   */\n              add\n                /* \"#utility.yul\":6799:6817   */\n              swap6\n              pop\n                /* \"#utility.yul\":6498:6827   */\n              pop\n              pop\n                /* \"#utility.yul\":6314:6827   */\n            tag_446:\n              pop\n                /* \"#utility.yul\":6120:6833   */\n              pop\n              pop\n              swap3\n              swap2\n              pop\n              pop\n              jump\t// out\n                /* \"#utility.yul\":6863:7708   */\n            tag_454:\n              0x00\n                /* \"#utility.yul\":7003:7008   */\n              dup2\n                /* \"#utility.yul\":6997:7009   */\n              sload\n                /* \"#utility.yul\":7032:7068   */\n              tag_456\n                /* \"#utility.yul\":7058:7067   */\n              dup2\n                /* \"#utility.yul\":7032:7068   */\n              tag_245\n              jump\t// in\n            tag_456:\n                /* \"#utility.yul\":7084:7173   */\n              tag_457\n                /* \"#utility.yul\":7166:7172   */\n              dup2\n                /* \"#utility.yul\":7161:7164   */\n              dup7\n                /* \"#utility.yul\":7084:7173   */\n              tag_425\n              jump\t// in\n            tag_457:\n                /* \"#utility.yul\":7077:7173   */\n              swap5\n              pop\n                /* \"#utility.yul\":7204:7205   */\n              0x01\n                /* \"#utility.yul\":7193:7202   */\n              dup3\n                /* \"#utility.yul\":7189:7206   */\n              and\n                /* \"#utility.yul\":7220:7221   */\n              0x00\n                /* \"#utility.yul\":7215:7352   */\n              dup2\n              eq\n              tag_459\n              jumpi\n                /* \"#utility.yul\":7366:7367   */\n              0x01\n                /* \"#utility.yul\":7361:7702   */\n              dup2\n              eq\n              tag_460\n              jumpi\n                /* \"#utility.yul\":7182:7702   */\n              jump(tag_458)\n                /* \"#utility.yul\":7215:7352   */\n            tag_459:\n                /* \"#utility.yul\":7299:7303   */\n              0xff\n                /* \"#utility.yul\":7295:7304   */\n              not\n                /* \"#utility.yul\":7284:7293   */\n              dup4\n                /* \"#utility.yul\":7280:7305   */\n              and\n                /* \"#utility.yul\":7275:7278   */\n              dup7\n                /* \"#utility.yul\":7268:7306   */\n              mstore\n                /* \"#utility.yul\":7335:7341   */\n              dup2\n                /* \"#utility.yul\":7330:7333   */\n              dup7\n                /* \"#utility.yul\":7326:7342   */\n              add\n                /* \"#utility.yul\":7319:7342   */\n              swap4\n              pop\n                /* \"#utility.yul\":7215:7352   */\n              jump(tag_458)\n                /* \"#utility.yul\":7361:7702   */\n            tag_460:\n                /* \"#utility.yul\":7428:7466   */\n              tag_461\n                /* \"#utility.yul\":7460:7465   */\n              dup6\n                /* \"#utility.yul\":7428:7466   */\n              tag_450\n              jump\t// in\n            tag_461:\n                /* \"#utility.yul\":7488:7489   */\n              0x00\n                /* \"#utility.yul\":7502:7656   */\n            tag_462:\n                /* \"#utility.yul\":7516:7522   */\n              dup4\n                /* \"#utility.yul\":7513:7514   */\n              dup2\n                /* \"#utility.yul\":7510:7523   */\n              lt\n                /* \"#utility.yul\":7502:7656   */\n              iszero\n              tag_464\n              jumpi\n                /* \"#utility.yul\":7590:7597   */\n              dup2\n                /* \"#utility.yul\":7584:7598   */\n              sload\n                /* \"#utility.yul\":7580:7581   */\n              dup2\n                /* \"#utility.yul\":7575:7578   */\n              dup10\n                /* \"#utility.yul\":7571:7582   */\n              add\n                /* \"#utility.yul\":7564:7599   */\n              mstore\n                /* \"#utility.yul\":7640:7641   */\n              0x01\n                /* \"#utility.yul\":7631:7638   */\n              dup3\n                /* \"#utility.yul\":7627:7642   */\n              add\n                /* \"#utility.yul\":7616:7642   */\n              swap2\n              pop\n                /* \"#utility.yul\":7538:7542   */\n              0x20\n                /* \"#utility.yul\":7535:7536   */\n              dup2\n                /* \"#utility.yul\":7531:7543   */\n              add\n                /* \"#utility.yul\":7526:7543   */\n              swap1\n              pop\n                /* \"#utility.yul\":7502:7656   */\n              jump(tag_462)\n            tag_464:\n                /* \"#utility.yul\":7685:7691   */\n              dup4\n                /* \"#utility.yul\":7680:7683   */\n              dup9\n                /* \"#utility.yul\":7676:7692   */\n              add\n                /* \"#utility.yul\":7669:7692   */\n              swap6\n              pop\n                /* \"#utility.yul\":7368:7702   */\n              pop\n              pop\n                /* \"#utility.yul\":7182:7702   */\n            tag_458:\n              pop\n                /* \"#utility.yul\":6970:7708   */\n              pop\n              pop\n              swap3\n              swap2\n              pop\n              pop\n              jump\t// out\n                /* \"#utility.yul\":7714:8044   */\n            tag_465:\n              0x00\n                /* \"#utility.yul\":7877:7944   */\n              tag_467\n                /* \"#utility.yul\":7941:7943   */\n              0x20\n                /* \"#utility.yul\":7936:7939   */\n              dup4\n                /* \"#utility.yul\":7877:7944   */\n              tag_418\n              jump\t// in\n            tag_467:\n                /* \"#utility.yul\":7870:7944   */\n              swap2\n              pop\n                /* \"#utility.yul\":7974:8008   */\n              0x546869732067616d626c6520697320616c726561647920636f6d706c65746564\n                /* \"#utility.yul\":7970:7971   */\n              0x00\n                /* \"#utility.yul\":7965:7968   */\n              dup4\n                /* \"#utility.yul\":7961:7972   */\n              add\n                /* \"#utility.yul\":7954:8009   */\n              mstore\n                /* \"#utility.yul\":8035:8037   */\n              0x20\n                /* \"#utility.yul\":8030:8033   */\n              dup3\n                /* \"#utility.yul\":8026:8038   */\n              add\n                /* \"#utility.yul\":8019:8038   */\n              swap1\n              pop\n                /* \"#utility.yul\":7860:8044   */\n              swap2\n              swap1\n              pop\n              jump\t// out\n                /* \"#utility.yul\":8050:8420   */\n            tag_468:\n              0x00\n                /* \"#utility.yul\":8213:8280   */\n              tag_470\n                /* \"#utility.yul\":8277:8279   */\n              0x26\n                /* \"#utility.yul\":8272:8275   */\n              dup4\n                /* \"#utility.yul\":8213:8280   */\n              tag_418\n              jump\t// in\n            tag_470:\n                /* \"#utility.yul\":8206:8280   */\n              swap2\n              pop\n                /* \"#utility.yul\":8310:8344   */\n              0x4f776e61626c653a206e6577206f776e657220697320746865207a65726f2061\n                /* \"#utility.yul\":8306:8307   */\n              0x00\n                /* \"#utility.yul\":8301:8304   */\n              dup4\n                /* \"#utility.yul\":8297:8308   */\n              add\n                /* \"#utility.yul\":8290:8345   */\n              mstore\n                /* \"#utility.yul\":8376:8384   */\n              0x6464726573730000000000000000000000000000000000000000000000000000\n                /* \"#utility.yul\":8371:8373   */\n              0x20\n                /* \"#utility.yul\":8366:8369   */\n              dup4\n                /* \"#utility.yul\":8362:8374   */\n              add\n                /* \"#utility.yul\":8355:8385   */\n              mstore\n                /* \"#utility.yul\":8411:8413   */\n              0x40\n                /* \"#utility.yul\":8406:8409   */\n              dup3\n                /* \"#utility.yul\":8402:8414   */\n              add\n                /* \"#utility.yul\":8395:8414   */\n              swap1\n              pop\n                /* \"#utility.yul\":8196:8420   */\n              swap2\n              swap1\n              pop\n              jump\t// out\n                /* \"#utility.yul\":8426:8744   */\n            tag_471:\n              0x00\n                /* \"#utility.yul\":8589:8656   */\n              tag_473\n                /* \"#utility.yul\":8653:8655   */\n              0x14\n                /* \"#utility.yul\":8648:8651   */\n              dup4\n                /* \"#utility.yul\":8589:8656   */\n              tag_418\n              jump\t// in\n            tag_473:\n                /* \"#utility.yul\":8582:8656   */\n              swap2\n              pop\n                /* \"#utility.yul\":8686:8708   */\n              0x4661696c656420746f2073656e64204574686572000000000000000000000000\n                /* \"#utility.yul\":8682:8683   */\n              0x00\n                /* \"#utility.yul\":8677:8680   */\n              dup4\n                /* \"#utility.yul\":8673:8684   */\n              add\n                /* \"#utility.yul\":8666:8709   */\n              mstore\n                /* \"#utility.yul\":8735:8737   */\n              0x20\n                /* \"#utility.yul\":8730:8733   */\n              dup3\n                /* \"#utility.yul\":8726:8738   */\n              add\n                /* \"#utility.yul\":8719:8738   */\n              swap1\n              pop\n                /* \"#utility.yul\":8572:8744   */\n              swap2\n              swap1\n              pop\n              jump\t// out\n                /* \"#utility.yul\":8750:9138   */\n            tag_474:\n              0x00\n                /* \"#utility.yul\":8913:8980   */\n              tag_476\n                /* \"#utility.yul\":8977:8979   */\n              0x38\n                /* \"#utility.yul\":8972:8975   */\n              dup4\n                /* \"#utility.yul\":8913:8980   */\n              tag_418\n              jump\t// in\n            tag_476:\n                /* \"#utility.yul\":8906:8980   */\n              swap2\n              pop\n                /* \"#utility.yul\":9010:9044   */\n              0x4f6e6c7920746865206d616e61676572206f66207468652067616d626c652063\n                /* \"#utility.yul\":9006:9007   */\n              0x00\n                /* \"#utility.yul\":9001:9004   */\n              dup4\n                /* \"#utility.yul\":8997:9008   */\n              add\n                /* \"#utility.yul\":8990:9045   */\n              mstore\n                /* \"#utility.yul\":9076:9102   */\n              0x616e206578656375746520746869732066756e6374696f6e0000000000000000\n                /* \"#utility.yul\":9071:9073   */\n              0x20\n                /* \"#utility.yul\":9066:9069   */\n              dup4\n                /* \"#utility.yul\":9062:9074   */\n              add\n                /* \"#utility.yul\":9055:9103   */\n              mstore\n                /* \"#utility.yul\":9129:9131   */\n              0x40\n                /* \"#utility.yul\":9124:9127   */\n              dup3\n                /* \"#utility.yul\":9120:9132   */\n              add\n                /* \"#utility.yul\":9113:9132   */\n              swap1\n              pop\n                /* \"#utility.yul\":8896:9138   */\n              swap2\n              swap1\n              pop\n              jump\t// out\n                /* \"#utility.yul\":9144:9530   */\n            tag_477:\n              0x00\n                /* \"#utility.yul\":9307:9374   */\n              tag_479\n                /* \"#utility.yul\":9371:9373   */\n              0x36\n                /* \"#utility.yul\":9366:9369   */\n              dup4\n                /* \"#utility.yul\":9307:9374   */\n              tag_418\n              jump\t// in\n            tag_479:\n                /* \"#utility.yul\":9300:9374   */\n              swap2\n              pop\n                /* \"#utility.yul\":9404:9438   */\n              0x4f6e6c7920746865206f776e6572206f66207468652067616d626c652063616e\n                /* \"#utility.yul\":9400:9401   */\n              0x00\n                /* \"#utility.yul\":9395:9398   */\n              dup4\n                /* \"#utility.yul\":9391:9402   */\n              add\n                /* \"#utility.yul\":9384:9439   */\n              mstore\n                /* \"#utility.yul\":9470:9494   */\n              0x206578656375746520746869732066756e6374696f6e00000000000000000000\n                /* \"#utility.yul\":9465:9467   */\n              0x20\n                /* \"#utility.yul\":9460:9463   */\n              dup4\n                /* \"#utility.yul\":9456:9468   */\n              add\n                /* \"#utility.yul\":9449:9495   */\n              mstore\n                /* \"#utility.yul\":9521:9523   */\n              0x40\n                /* \"#utility.yul\":9516:9519   */\n              dup3\n                /* \"#utility.yul\":9512:9524   */\n              add\n                /* \"#utility.yul\":9505:9524   */\n              swap1\n              pop\n                /* \"#utility.yul\":9290:9530   */\n              swap2\n              swap1\n              pop\n              jump\t// out\n                /* \"#utility.yul\":9536:9862   */\n            tag_480:\n              0x00\n                /* \"#utility.yul\":9699:9766   */\n              tag_482\n                /* \"#utility.yul\":9763:9765   */\n              0x1c\n                /* \"#utility.yul\":9758:9761   */\n              dup4\n                /* \"#utility.yul\":9699:9766   */\n              tag_418\n              jump\t// in\n            tag_482:\n                /* \"#utility.yul\":9692:9766   */\n              swap2\n              pop\n                /* \"#utility.yul\":9796:9826   */\n              0x596f75206d7573742073656c65637420612076616c6964207465616d00000000\n                /* \"#utility.yul\":9792:9793   */\n              0x00\n                /* \"#utility.yul\":9787:9790   */\n              dup4\n                /* \"#utility.yul\":9783:9794   */\n              add\n                /* \"#utility.yul\":9776:9827   */\n              mstore\n                /* \"#utility.yul\":9853:9855   */\n              0x20\n                /* \"#utility.yul\":9848:9851   */\n              dup3\n                /* \"#utility.yul\":9844:9856   */\n              add\n                /* \"#utility.yul\":9837:9856   */\n              swap1\n              pop\n                /* \"#utility.yul\":9682:9862   */\n              swap2\n              swap1\n              pop\n              jump\t// out\n                /* \"#utility.yul\":9868:10165   */\n            tag_483:\n              0x00\n                /* \"#utility.yul\":10048:10131   */\n              tag_485\n                /* \"#utility.yul\":10129:10130   */\n              0x00\n                /* \"#utility.yul\":10124:10127   */\n              dup4\n                /* \"#utility.yul\":10048:10131   */\n              tag_486\n              jump\t// in\n            tag_485:\n                /* \"#utility.yul\":10041:10131   */\n              swap2\n              pop\n                /* \"#utility.yul\":10157:10158   */\n              0x00\n                /* \"#utility.yul\":10152:10155   */\n              dup3\n                /* \"#utility.yul\":10148:10159   */\n              add\n                /* \"#utility.yul\":10141:10159   */\n              swap1\n              pop\n                /* \"#utility.yul\":10031:10165   */\n              swap2\n              swap1\n              pop\n              jump\t// out\n                /* \"#utility.yul\":10171:10540   */\n            tag_487:\n              0x00\n                /* \"#utility.yul\":10334:10401   */\n              tag_489\n                /* \"#utility.yul\":10398:10400   */\n              0x25\n                /* \"#utility.yul\":10393:10396   */\n              dup4\n                /* \"#utility.yul\":10334:10401   */\n              tag_418\n              jump\t// in\n            tag_489:\n                /* \"#utility.yul\":10327:10401   */\n              swap2\n              pop\n                /* \"#utility.yul\":10431:10465   */\n              0x4d696e696d756d20616d6f756e7420746f2067616d626c6520697320302e3030\n                /* \"#utility.yul\":10427:10428   */\n              0x00\n                /* \"#utility.yul\":10422:10425   */\n              dup4\n                /* \"#utility.yul\":10418:10429   */\n              add\n                /* \"#utility.yul\":10411:10466   */\n              mstore\n                /* \"#utility.yul\":10497:10504   */\n              0x3220657468000000000000000000000000000000000000000000000000000000\n                /* \"#utility.yul\":10492:10494   */\n              0x20\n                /* \"#utility.yul\":10487:10490   */\n              dup4\n                /* \"#utility.yul\":10483:10495   */\n              add\n                /* \"#utility.yul\":10476:10505   */\n              mstore\n                /* \"#utility.yul\":10531:10533   */\n              0x40\n                /* \"#utility.yul\":10526:10529   */\n              dup3\n                /* \"#utility.yul\":10522:10534   */\n              add\n                /* \"#utility.yul\":10515:10534   */\n              swap1\n              pop\n                /* \"#utility.yul\":10317:10540   */\n              swap2\n              swap1\n              pop\n              jump\t// out\n                /* \"#utility.yul\":10606:11406   */\n            tag_385:\n              0x00\n                /* \"#utility.yul\":10747:10751   */\n              0x60\n                /* \"#utility.yul\":10742:10745   */\n              dup4\n                /* \"#utility.yul\":10738:10752   */\n              add\n                /* \"#utility.yul\":10843:10847   */\n              0x00\n                /* \"#utility.yul\":10836:10841   */\n              dup4\n                /* \"#utility.yul\":10832:10848   */\n              add\n                /* \"#utility.yul\":10826:10849   */\n              mload\n                /* \"#utility.yul\":10862:10941   */\n              tag_491\n                /* \"#utility.yul\":10935:10939   */\n              0x00\n                /* \"#utility.yul\":10930:10933   */\n              dup7\n                /* \"#utility.yul\":10926:10940   */\n              add\n                /* \"#utility.yul\":10912:10924   */\n              dup3\n                /* \"#utility.yul\":10862:10941   */\n              tag_386\n              jump\t// in\n            tag_491:\n                /* \"#utility.yul\":10762:10951   */\n              pop\n                /* \"#utility.yul\":11040:11044   */\n              0x20\n                /* \"#utility.yul\":11033:11038   */\n              dup4\n                /* \"#utility.yul\":11029:11045   */\n              add\n                /* \"#utility.yul\":11023:11046   */\n              mload\n                /* \"#utility.yul\":11093:11096   */\n              dup5\n                /* \"#utility.yul\":11087:11091   */\n              dup3\n                /* \"#utility.yul\":11083:11097   */\n              sub\n                /* \"#utility.yul\":11076:11080   */\n              0x20\n                /* \"#utility.yul\":11071:11074   */\n              dup7\n                /* \"#utility.yul\":11067:11081   */\n              add\n                /* \"#utility.yul\":11060:11098   */\n              mstore\n                /* \"#utility.yul\":11119:11192   */\n              tag_492\n                /* \"#utility.yul\":11187:11191   */\n              dup3\n                /* \"#utility.yul\":11173:11185   */\n              dup3\n                /* \"#utility.yul\":11119:11192   */\n              tag_427\n              jump\t// in\n            tag_492:\n                /* \"#utility.yul\":11111:11192   */\n              swap2\n              pop\n                /* \"#utility.yul\":10961:11203   */\n              pop\n                /* \"#utility.yul\":11287:11291   */\n              0x40\n                /* \"#utility.yul\":11280:11285   */\n              dup4\n                /* \"#utility.yul\":11276:11292   */\n              add\n                /* \"#utility.yul\":11270:11293   */\n              mload\n                /* \"#utility.yul\":11306:11369   */\n              tag_493\n                /* \"#utility.yul\":11363:11367   */\n              0x40\n                /* \"#utility.yul\":11358:11361   */\n              dup7\n                /* \"#utility.yul\":11354:11368   */\n              add\n                /* \"#utility.yul\":11340:11352   */\n              dup3\n                /* \"#utility.yul\":11306:11369   */\n              tag_494\n              jump\t// in\n            tag_493:\n                /* \"#utility.yul\":11213:11379   */\n              pop\n                /* \"#utility.yul\":11396:11400   */\n              dup1\n                /* \"#utility.yul\":11389:11400   */\n              swap2\n              pop\n                /* \"#utility.yul\":10716:11406   */\n              pop\n              swap3\n              swap2\n              pop\n              pop\n              jump\t// out\n                /* \"#utility.yul\":11412:11520   */\n            tag_494:\n                /* \"#utility.yul\":11489:11513   */\n              tag_496\n                /* \"#utility.yul\":11507:11512   */\n              dup2\n                /* \"#utility.yul\":11489:11513   */\n              tag_497\n              jump\t// in\n            tag_496:\n                /* \"#utility.yul\":11484:11487   */\n              dup3\n                /* \"#utility.yul\":11477:11514   */\n              mstore\n                /* \"#utility.yul\":11467:11520   */\n              pop\n              pop\n              jump\t// out\n                /* \"#utility.yul\":11526:11644   */\n            tag_498:\n                /* \"#utility.yul\":11613:11637   */\n              tag_500\n                /* \"#utility.yul\":11631:11636   */\n              dup2\n                /* \"#utility.yul\":11613:11637   */\n              tag_497\n              jump\t// in\n            tag_500:\n                /* \"#utility.yul\":11608:11611   */\n              dup3\n                /* \"#utility.yul\":11601:11638   */\n              mstore\n                /* \"#utility.yul\":11591:11644   */\n              pop\n              pop\n              jump\t// out\n                /* \"#utility.yul\":11650:11945   */\n            tag_157:\n              0x00\n                /* \"#utility.yul\":11814:11919   */\n              tag_502\n                /* \"#utility.yul\":11915:11918   */\n              dup3\n                /* \"#utility.yul\":11906:11912   */\n              dup5\n                /* \"#utility.yul\":11898:11904   */\n              dup7\n                /* \"#utility.yul\":11814:11919   */\n              tag_422\n              jump\t// in\n            tag_502:\n                /* \"#utility.yul\":11807:11919   */\n              swap2\n              pop\n                /* \"#utility.yul\":11936:11939   */\n              dup2\n                /* \"#utility.yul\":11929:11939   */\n              swap1\n              pop\n                /* \"#utility.yul\":11796:11945   */\n              swap4\n              swap3\n              pop\n              pop\n              pop\n              jump\t// out\n                /* \"#utility.yul\":11951:12220   */\n            tag_180:\n              0x00\n                /* \"#utility.yul\":12102:12194   */\n              tag_504\n                /* \"#utility.yul\":12190:12193   */\n              dup3\n                /* \"#utility.yul\":12181:12187   */\n              dup5\n                /* \"#utility.yul\":12102:12194   */\n              tag_454\n              jump\t// in\n            tag_504:\n                /* \"#utility.yul\":12095:12194   */\n              swap2\n              pop\n                /* \"#utility.yul\":12211:12214   */\n              dup2\n                /* \"#utility.yul\":12204:12214   */\n              swap1\n              pop\n                /* \"#utility.yul\":12084:12220   */\n              swap3\n              swap2\n              pop\n              pop\n              jump\t// out\n                /* \"#utility.yul\":12226:12605   */\n            tag_167:\n              0x00\n                /* \"#utility.yul\":12432:12579   */\n              tag_506\n                /* \"#utility.yul\":12575:12578   */\n              dup3\n                /* \"#utility.yul\":12432:12579   */\n              tag_483\n              jump\t// in\n            tag_506:\n                /* \"#utility.yul\":12425:12579   */\n              swap2\n              pop\n                /* \"#utility.yul\":12596:12599   */\n              dup2\n                /* \"#utility.yul\":12589:12599   */\n              swap1\n              pop\n                /* \"#utility.yul\":12414:12605   */\n              swap2\n              swap1\n              pop\n              jump\t// out\n                /* \"#utility.yul\":12611:12833   */\n            tag_46:\n              0x00\n                /* \"#utility.yul\":12742:12744   */\n              0x20\n                /* \"#utility.yul\":12731:12740   */\n              dup3\n                /* \"#utility.yul\":12727:12745   */\n              add\n                /* \"#utility.yul\":12719:12745   */\n              swap1\n              pop\n                /* \"#utility.yul\":12755:12826   */\n              tag_508\n                /* \"#utility.yul\":12823:12824   */\n              0x00\n                /* \"#utility.yul\":12812:12821   */\n              dup4\n                /* \"#utility.yul\":12808:12825   */\n              add\n                /* \"#utility.yul\":12799:12805   */\n              dup5\n                /* \"#utility.yul\":12755:12826   */\n              tag_393\n              jump\t// in\n            tag_508:\n                /* \"#utility.yul\":12709:12833   */\n              swap3\n              swap2\n              pop\n              pop\n              jump\t// out\n                /* \"#utility.yul\":12839:13093   */\n            tag_71:\n              0x00\n                /* \"#utility.yul\":12986:12988   */\n              0x20\n                /* \"#utility.yul\":12975:12984   */\n              dup3\n                /* \"#utility.yul\":12971:12989   */\n              add\n                /* \"#utility.yul\":12963:12989   */\n              swap1\n              pop\n                /* \"#utility.yul\":12999:13086   */\n              tag_510\n                /* \"#utility.yul\":13083:13084   */\n              0x00\n                /* \"#utility.yul\":13072:13081   */\n              dup4\n                /* \"#utility.yul\":13068:13085   */\n              add\n                /* \"#utility.yul\":13059:13065   */\n              dup5\n                /* \"#utility.yul\":12999:13086   */\n              tag_390\n              jump\t// in\n            tag_510:\n                /* \"#utility.yul\":12953:13093   */\n              swap3\n              swap2\n              pop\n              pop\n              jump\t// out\n                /* \"#utility.yul\":13099:13664   */\n            tag_107:\n              0x00\n                /* \"#utility.yul\":13322:13324   */\n              0x60\n                /* \"#utility.yul\":13311:13320   */\n              dup3\n                /* \"#utility.yul\":13307:13325   */\n              add\n                /* \"#utility.yul\":13299:13325   */\n              swap1\n              pop\n                /* \"#utility.yul\":13335:13422   */\n              tag_512\n                /* \"#utility.yul\":13419:13420   */\n              0x00\n                /* \"#utility.yul\":13408:13417   */\n              dup4\n                /* \"#utility.yul\":13404:13421   */\n              add\n                /* \"#utility.yul\":13395:13401   */\n              dup7\n                /* \"#utility.yul\":13335:13422   */\n              tag_390\n              jump\t// in\n            tag_512:\n                /* \"#utility.yul\":13469:13478   */\n              dup2\n                /* \"#utility.yul\":13463:13467   */\n              dup2\n                /* \"#utility.yul\":13459:13479   */\n              sub\n                /* \"#utility.yul\":13454:13456   */\n              0x20\n                /* \"#utility.yul\":13443:13452   */\n              dup4\n                /* \"#utility.yul\":13439:13457   */\n              add\n                /* \"#utility.yul\":13432:13480   */\n              mstore\n                /* \"#utility.yul\":13497:13575   */\n              tag_513\n                /* \"#utility.yul\":13570:13574   */\n              dup2\n                /* \"#utility.yul\":13561:13567   */\n              dup6\n                /* \"#utility.yul\":13497:13575   */\n              tag_436\n              jump\t// in\n            tag_513:\n                /* \"#utility.yul\":13489:13575   */\n              swap1\n              pop\n                /* \"#utility.yul\":13585:13657   */\n              tag_514\n                /* \"#utility.yul\":13653:13655   */\n              0x40\n                /* \"#utility.yul\":13642:13651   */\n              dup4\n                /* \"#utility.yul\":13638:13656   */\n              add\n                /* \"#utility.yul\":13629:13635   */\n              dup5\n                /* \"#utility.yul\":13585:13657   */\n              tag_498\n              jump\t// in\n            tag_514:\n                /* \"#utility.yul\":13289:13664   */\n              swap5\n              swap4\n              pop\n              pop\n              pop\n              pop\n              jump\t// out\n                /* \"#utility.yul\":13670:14135   */\n            tag_66:\n              0x00\n                /* \"#utility.yul\":13897:13899   */\n              0x20\n                /* \"#utility.yul\":13886:13895   */\n              dup3\n                /* \"#utility.yul\":13882:13900   */\n              add\n                /* \"#utility.yul\":13874:13900   */\n              swap1\n              pop\n                /* \"#utility.yul\":13946:13955   */\n              dup2\n                /* \"#utility.yul\":13940:13944   */\n              dup2\n                /* \"#utility.yul\":13936:13956   */\n              sub\n                /* \"#utility.yul\":13932:13933   */\n              0x00\n                /* \"#utility.yul\":13921:13930   */\n              dup4\n                /* \"#utility.yul\":13917:13934   */\n              add\n                /* \"#utility.yul\":13910:13957   */\n              mstore\n                /* \"#utility.yul\":13974:14128   */\n              tag_516\n                /* \"#utility.yul\":14123:14127   */\n              dup2\n                /* \"#utility.yul\":14114:14120   */\n              dup5\n                /* \"#utility.yul\":13974:14128   */\n              tag_397\n              jump\t// in\n            tag_516:\n                /* \"#utility.yul\":13966:14128   */\n              swap1\n              pop\n                /* \"#utility.yul\":13864:14135   */\n              swap3\n              swap2\n              pop\n              pop\n              jump\t// out\n                /* \"#utility.yul\":14141:14351   */\n            tag_76:\n              0x00\n                /* \"#utility.yul\":14266:14268   */\n              0x20\n                /* \"#utility.yul\":14255:14264   */\n              dup3\n                /* \"#utility.yul\":14251:14269   */\n              add\n                /* \"#utility.yul\":14243:14269   */\n              swap1\n              pop\n                /* \"#utility.yul\":14279:14344   */\n              tag_518\n                /* \"#utility.yul\":14341:14342   */\n              0x00\n                /* \"#utility.yul\":14330:14339   */\n              dup4\n                /* \"#utility.yul\":14326:14343   */\n              add\n                /* \"#utility.yul\":14317:14323   */\n              dup5\n                /* \"#utility.yul\":14279:14344   */\n              tag_411\n              jump\t// in\n            tag_518:\n                /* \"#utility.yul\":14233:14351   */\n              swap3\n              swap2\n              pop\n              pop\n              jump\t// out\n                /* \"#utility.yul\":14357:14690   */\n            tag_136:\n              0x00\n                /* \"#utility.yul\":14518:14520   */\n              0x20\n                /* \"#utility.yul\":14507:14516   */\n              dup3\n                /* \"#utility.yul\":14503:14521   */\n              add\n                /* \"#utility.yul\":14495:14521   */\n              swap1\n              pop\n                /* \"#utility.yul\":14567:14576   */\n              dup2\n                /* \"#utility.yul\":14561:14565   */\n              dup2\n                /* \"#utility.yul\":14557:14577   */\n              sub\n                /* \"#utility.yul\":14553:14554   */\n              0x00\n                /* \"#utility.yul\":14542:14551   */\n              dup4\n                /* \"#utility.yul\":14538:14555   */\n              add\n                /* \"#utility.yul\":14531:14578   */\n              mstore\n                /* \"#utility.yul\":14595:14683   */\n              tag_520\n                /* \"#utility.yul\":14678:14682   */\n              dup2\n                /* \"#utility.yul\":14669:14675   */\n              dup5\n                /* \"#utility.yul\":14661:14667   */\n              dup7\n                /* \"#utility.yul\":14595:14683   */\n              tag_415\n              jump\t// in\n            tag_520:\n                /* \"#utility.yul\":14587:14683   */\n              swap1\n              pop\n                /* \"#utility.yul\":14485:14690   */\n              swap4\n              swap3\n              pop\n              pop\n              pop\n              jump\t// out\n                /* \"#utility.yul\":14696:15009   */\n            tag_54:\n              0x00\n                /* \"#utility.yul\":14847:14849   */\n              0x20\n                /* \"#utility.yul\":14836:14845   */\n              dup3\n                /* \"#utility.yul\":14832:14850   */\n              add\n                /* \"#utility.yul\":14824:14850   */\n              swap1\n              pop\n                /* \"#utility.yul\":14896:14905   */\n              dup2\n                /* \"#utility.yul\":14890:14894   */\n              dup2\n                /* \"#utility.yul\":14886:14906   */\n              sub\n                /* \"#utility.yul\":14882:14883   */\n              0x00\n                /* \"#utility.yul\":14871:14880   */\n              dup4\n                /* \"#utility.yul\":14867:14884   */\n              add\n                /* \"#utility.yul\":14860:14907   */\n              mstore\n                /* \"#utility.yul\":14924:15002   */\n              tag_522\n                /* \"#utility.yul\":14997:15001   */\n              dup2\n                /* \"#utility.yul\":14988:14994   */\n              dup5\n                /* \"#utility.yul\":14924:15002   */\n              tag_436\n              jump\t// in\n            tag_522:\n                /* \"#utility.yul\":14916:15002   */\n              swap1\n              pop\n                /* \"#utility.yul\":14814:15009   */\n              swap3\n              swap2\n              pop\n              pop\n              jump\t// out\n                /* \"#utility.yul\":15015:15322   */\n            tag_138:\n              0x00\n                /* \"#utility.yul\":15163:15165   */\n              0x20\n                /* \"#utility.yul\":15152:15161   */\n              dup3\n                /* \"#utility.yul\":15148:15166   */\n              add\n                /* \"#utility.yul\":15140:15166   */\n              swap1\n              pop\n                /* \"#utility.yul\":15212:15221   */\n              dup2\n                /* \"#utility.yul\":15206:15210   */\n              dup2\n                /* \"#utility.yul\":15202:15222   */\n              sub\n                /* \"#utility.yul\":15198:15199   */\n              0x00\n                /* \"#utility.yul\":15187:15196   */\n              dup4\n                /* \"#utility.yul\":15183:15200   */\n              add\n                /* \"#utility.yul\":15176:15223   */\n              mstore\n                /* \"#utility.yul\":15240:15315   */\n              tag_524\n                /* \"#utility.yul\":15310:15314   */\n              dup2\n                /* \"#utility.yul\":15301:15307   */\n              dup5\n                /* \"#utility.yul\":15240:15315   */\n              tag_442\n              jump\t// in\n            tag_524:\n                /* \"#utility.yul\":15232:15315   */\n              swap1\n              pop\n                /* \"#utility.yul\":15130:15322   */\n              swap3\n              swap2\n              pop\n              pop\n              jump\t// out\n                /* \"#utility.yul\":15328:15747   */\n            tag_133:\n              0x00\n                /* \"#utility.yul\":15532:15534   */\n              0x20\n                /* \"#utility.yul\":15521:15530   */\n              dup3\n                /* \"#utility.yul\":15517:15535   */\n              add\n                /* \"#utility.yul\":15509:15535   */\n              swap1\n              pop\n                /* \"#utility.yul\":15581:15590   */\n              dup2\n                /* \"#utility.yul\":15575:15579   */\n              dup2\n                /* \"#utility.yul\":15571:15591   */\n              sub\n                /* \"#utility.yul\":15567:15568   */\n              0x00\n                /* \"#utility.yul\":15556:15565   */\n              dup4\n                /* \"#utility.yul\":15552:15569   */\n              add\n                /* \"#utility.yul\":15545:15592   */\n              mstore\n                /* \"#utility.yul\":15609:15740   */\n              tag_526\n                /* \"#utility.yul\":15735:15739   */\n              dup2\n                /* \"#utility.yul\":15609:15740   */\n              tag_465\n              jump\t// in\n            tag_526:\n                /* \"#utility.yul\":15601:15740   */\n              swap1\n              pop\n                /* \"#utility.yul\":15499:15747   */\n              swap2\n              swap1\n              pop\n              jump\t// out\n                /* \"#utility.yul\":15753:16172   */\n            tag_310:\n              0x00\n                /* \"#utility.yul\":15957:15959   */\n              0x20\n                /* \"#utility.yul\":15946:15955   */\n              dup3\n                /* \"#utility.yul\":15942:15960   */\n              add\n                /* \"#utility.yul\":15934:15960   */\n              swap1\n              pop\n                /* \"#utility.yul\":16006:16015   */\n              dup2\n                /* \"#utility.yul\":16000:16004   */\n              dup2\n                /* \"#utility.yul\":15996:16016   */\n              sub\n                /* \"#utility.yul\":15992:15993   */\n              0x00\n                /* \"#utility.yul\":15981:15990   */\n              dup4\n                /* \"#utility.yul\":15977:15994   */\n              add\n                /* \"#utility.yul\":15970:16017   */\n              mstore\n                /* \"#utility.yul\":16034:16165   */\n              tag_528\n                /* \"#utility.yul\":16160:16164   */\n              dup2\n                /* \"#utility.yul\":16034:16165   */\n              tag_468\n              jump\t// in\n            tag_528:\n                /* \"#utility.yul\":16026:16165   */\n              swap1\n              pop\n                /* \"#utility.yul\":15924:16172   */\n              swap2\n              swap1\n              pop\n              jump\t// out\n                /* \"#utility.yul\":16178:16597   */\n            tag_173:\n              0x00\n                /* \"#utility.yul\":16382:16384   */\n              0x20\n                /* \"#utility.yul\":16371:16380   */\n              dup3\n                /* \"#utility.yul\":16367:16385   */\n              add\n                /* \"#utility.yul\":16359:16385   */\n              swap1\n              pop\n                /* \"#utility.yul\":16431:16440   */\n              dup2\n                /* \"#utility.yul\":16425:16429   */\n              dup2\n                /* \"#utility.yul\":16421:16441   */\n              sub\n                /* \"#utility.yul\":16417:16418   */\n              0x00\n                /* \"#utility.yul\":16406:16415   */\n              dup4\n                /* \"#utility.yul\":16402:16419   */\n              add\n                /* \"#utility.yul\":16395:16442   */\n              mstore\n                /* \"#utility.yul\":16459:16590   */\n              tag_530\n                /* \"#utility.yul\":16585:16589   */\n              dup2\n                /* \"#utility.yul\":16459:16590   */\n              tag_471\n              jump\t// in\n            tag_530:\n                /* \"#utility.yul\":16451:16590   */\n              swap1\n              pop\n                /* \"#utility.yul\":16349:16597   */\n              swap2\n              swap1\n              pop\n              jump\t// out\n                /* \"#utility.yul\":16603:17022   */\n            tag_129:\n              0x00\n                /* \"#utility.yul\":16807:16809   */\n              0x20\n                /* \"#utility.yul\":16796:16805   */\n              dup3\n                /* \"#utility.yul\":16792:16810   */\n              add\n                /* \"#utility.yul\":16784:16810   */\n              swap1\n              pop\n                /* \"#utility.yul\":16856:16865   */\n              dup2\n                /* \"#utility.yul\":16850:16854   */\n              dup2\n                /* \"#utility.yul\":16846:16866   */\n              sub\n                /* \"#utility.yul\":16842:16843   */\n              0x00\n                /* \"#utility.yul\":16831:16840   */\n              dup4\n                /* \"#utility.yul\":16827:16844   */\n              add\n                /* \"#utility.yul\":16820:16867   */\n              mstore\n                /* \"#utility.yul\":16884:17015   */\n              tag_532\n                /* \"#utility.yul\":17010:17014   */\n              dup2\n                /* \"#utility.yul\":16884:17015   */\n              tag_474\n              jump\t// in\n            tag_532:\n                /* \"#utility.yul\":16876:17015   */\n              swap1\n              pop\n                /* \"#utility.yul\":16774:17022   */\n              swap2\n              swap1\n              pop\n              jump\t// out\n                /* \"#utility.yul\":17028:17447   */\n            tag_254:\n              0x00\n                /* \"#utility.yul\":17232:17234   */\n              0x20\n                /* \"#utility.yul\":17221:17230   */\n              dup3\n                /* \"#utility.yul\":17217:17235   */\n              add\n                /* \"#utility.yul\":17209:17235   */\n              swap1\n              pop\n                /* \"#utility.yul\":17281:17290   */\n              dup2\n                /* \"#utility.yul\":17275:17279   */\n              dup2\n                /* \"#utility.yul\":17271:17291   */\n              sub\n                /* \"#utility.yul\":17267:17268   */\n              0x00\n                /* \"#utility.yul\":17256:17265   */\n              dup4\n                /* \"#utility.yul\":17252:17269   */\n              add\n                /* \"#utility.yul\":17245:17292   */\n              mstore\n                /* \"#utility.yul\":17309:17440   */\n              tag_534\n                /* \"#utility.yul\":17435:17439   */\n              dup2\n                /* \"#utility.yul\":17309:17440   */\n              tag_477\n              jump\t// in\n            tag_534:\n                /* \"#utility.yul\":17301:17440   */\n              swap1\n              pop\n                /* \"#utility.yul\":17199:17447   */\n              swap2\n              swap1\n              pop\n              jump\t// out\n                /* \"#utility.yul\":17453:17872   */\n            tag_144:\n              0x00\n                /* \"#utility.yul\":17657:17659   */\n              0x20\n                /* \"#utility.yul\":17646:17655   */\n              dup3\n                /* \"#utility.yul\":17642:17660   */\n              add\n                /* \"#utility.yul\":17634:17660   */\n              swap1\n              pop\n                /* \"#utility.yul\":17706:17715   */\n              dup2\n                /* \"#utility.yul\":17700:17704   */\n              dup2\n                /* \"#utility.yul\":17696:17716   */\n              sub\n                /* \"#utility.yul\":17692:17693   */\n              0x00\n                /* \"#utility.yul\":17681:17690   */\n              dup4\n                /* \"#utility.yul\":17677:17694   */\n              add\n                /* \"#utility.yul\":17670:17717   */\n              mstore\n                /* \"#utility.yul\":17734:17865   */\n              tag_536\n                /* \"#utility.yul\":17860:17864   */\n              dup2\n                /* \"#utility.yul\":17734:17865   */\n              tag_480\n              jump\t// in\n            tag_536:\n                /* \"#utility.yul\":17726:17865   */\n              swap1\n              pop\n                /* \"#utility.yul\":17624:17872   */\n              swap2\n              swap1\n              pop\n              jump\t// out\n                /* \"#utility.yul\":17878:18297   */\n            tag_237:\n              0x00\n                /* \"#utility.yul\":18082:18084   */\n              0x20\n                /* \"#utility.yul\":18071:18080   */\n              dup3\n                /* \"#utility.yul\":18067:18085   */\n              add\n                /* \"#utility.yul\":18059:18085   */\n              swap1\n              pop\n                /* \"#utility.yul\":18131:18140   */\n              dup2\n                /* \"#utility.yul\":18125:18129   */\n              dup2\n                /* \"#utility.yul\":18121:18141   */\n              sub\n                /* \"#utility.yul\":18117:18118   */\n              0x00\n                /* \"#utility.yul\":18106:18115   */\n              dup4\n                /* \"#utility.yul\":18102:18119   */\n              add\n                /* \"#utility.yul\":18095:18142   */\n              mstore\n                /* \"#utility.yul\":18159:18290   */\n              tag_538\n                /* \"#utility.yul\":18285:18289   */\n              dup2\n                /* \"#utility.yul\":18159:18290   */\n              tag_487\n              jump\t// in\n            tag_538:\n                /* \"#utility.yul\":18151:18290   */\n              swap1\n              pop\n                /* \"#utility.yul\":18049:18297   */\n              swap2\n              swap1\n              pop\n              jump\t// out\n                /* \"#utility.yul\":18303:18525   */\n            tag_41:\n              0x00\n                /* \"#utility.yul\":18434:18436   */\n              0x20\n                /* \"#utility.yul\":18423:18432   */\n              dup3\n                /* \"#utility.yul\":18419:18437   */\n              add\n                /* \"#utility.yul\":18411:18437   */\n              swap1\n              pop\n                /* \"#utility.yul\":18447:18518   */\n              tag_540\n                /* \"#utility.yul\":18515:18516   */\n              0x00\n                /* \"#utility.yul\":18504:18513   */\n              dup4\n                /* \"#utility.yul\":18500:18517   */\n              add\n                /* \"#utility.yul\":18491:18497   */\n              dup5\n                /* \"#utility.yul\":18447:18518   */\n              tag_498\n              jump\t// in\n            tag_540:\n                /* \"#utility.yul\":18401:18525   */\n              swap3\n              swap2\n              pop\n              pop\n              jump\t// out\n                /* \"#utility.yul\":18531:18814   */\n            tag_347:\n              0x00\n                /* \"#utility.yul\":18597:18599   */\n              0x40\n                /* \"#utility.yul\":18591:18600   */\n              mload\n                /* \"#utility.yul\":18581:18600   */\n              swap1\n              pop\n                /* \"#utility.yul\":18639:18643   */\n              dup2\n                /* \"#utility.yul\":18631:18637   */\n              dup2\n                /* \"#utility.yul\":18627:18644   */\n              add\n                /* \"#utility.yul\":18746:18752   */\n              dup2\n                /* \"#utility.yul\":18734:18744   */\n              dup2\n                /* \"#utility.yul\":18731:18753   */\n              lt\n                /* \"#utility.yul\":18710:18728   */\n              0xffffffffffffffff\n                /* \"#utility.yul\":18698:18708   */\n              dup3\n                /* \"#utility.yul\":18695:18729   */\n              gt\n                /* \"#utility.yul\":18692:18754   */\n              or\n                /* \"#utility.yul\":18689:18691   */\n              iszero\n              tag_542\n              jumpi\n                /* \"#utility.yul\":18757:18775   */\n              tag_543\n              tag_544\n              jump\t// in\n            tag_543:\n                /* \"#utility.yul\":18689:18691   */\n            tag_542:\n                /* \"#utility.yul\":18797:18807   */\n              dup1\n                /* \"#utility.yul\":18793:18795   */\n              0x40\n                /* \"#utility.yul\":18786:18808   */\n              mstore\n                /* \"#utility.yul\":18571:18814   */\n              pop\n              swap2\n              swap1\n              pop\n              jump\t// out\n                /* \"#utility.yul\":18820:19152   */\n            tag_346:\n              0x00\n                /* \"#utility.yul\":18972:18990   */\n              0xffffffffffffffff\n                /* \"#utility.yul\":18964:18970   */\n              dup3\n                /* \"#utility.yul\":18961:18991   */\n              gt\n                /* \"#utility.yul\":18958:18960   */\n              iszero\n              tag_546\n              jumpi\n                /* \"#utility.yul\":18994:19012   */\n              tag_547\n              tag_544\n              jump\t// in\n            tag_547:\n                /* \"#utility.yul\":18958:18960   */\n            tag_546:\n                /* \"#utility.yul\":19079:19083   */\n              0x1f\n                /* \"#utility.yul\":19075:19084   */\n              not\n                /* \"#utility.yul\":19068:19072   */\n              0x1f\n                /* \"#utility.yul\":19060:19066   */\n              dup4\n                /* \"#utility.yul\":19056:19073   */\n              add\n                /* \"#utility.yul\":19052:19085   */\n              and\n                /* \"#utility.yul\":19044:19085   */\n              swap1\n              pop\n                /* \"#utility.yul\":19140:19144   */\n              0x20\n                /* \"#utility.yul\":19134:19138   */\n              dup2\n                /* \"#utility.yul\":19130:19145   */\n              add\n                /* \"#utility.yul\":19122:19145   */\n              swap1\n              pop\n                /* \"#utility.yul\":18887:19152   */\n              swap2\n              swap1\n              pop\n              jump\t// out\n                /* \"#utility.yul\":19158:19313   */\n            tag_404:\n              0x00\n                /* \"#utility.yul\":19271:19274   */\n              dup2\n                /* \"#utility.yul\":19263:19274   */\n              swap1\n              pop\n                /* \"#utility.yul\":19301:19305   */\n              0x20\n                /* \"#utility.yul\":19296:19299   */\n              dup3\n                /* \"#utility.yul\":19292:19306   */\n              add\n                /* \"#utility.yul\":19284:19306   */\n              swap1\n              pop\n                /* \"#utility.yul\":19253:19313   */\n              swap2\n              swap1\n              pop\n              jump\t// out\n                /* \"#utility.yul\":19319:19460   */\n            tag_450:\n              0x00\n                /* \"#utility.yul\":19391:19394   */\n              dup2\n                /* \"#utility.yul\":19383:19394   */\n              swap1\n              pop\n                /* \"#utility.yul\":19414:19417   */\n              dup2\n                /* \"#utility.yul\":19411:19412   */\n              0x00\n                /* \"#utility.yul\":19404:19418   */\n              mstore\n                /* \"#utility.yul\":19448:19452   */\n              0x20\n                /* \"#utility.yul\":19445:19446   */\n              0x00\n                /* \"#utility.yul\":19435:19453   */\n              keccak256\n                /* \"#utility.yul\":19427:19453   */\n              swap1\n              pop\n                /* \"#utility.yul\":19373:19460   */\n              swap2\n              swap1\n              pop\n              jump\t// out\n                /* \"#utility.yul\":19466:19603   */\n            tag_400:\n              0x00\n                /* \"#utility.yul\":19590:19595   */\n              dup2\n                /* \"#utility.yul\":19584:19596   */\n              mload\n                /* \"#utility.yul\":19574:19596   */\n              swap1\n              pop\n                /* \"#utility.yul\":19563:19603   */\n              swap2\n              swap1\n              pop\n              jump\t// out\n                /* \"#utility.yul\":19609:19708   */\n            tag_430:\n              0x00\n                /* \"#utility.yul\":19695:19700   */\n              dup2\n                /* \"#utility.yul\":19689:19701   */\n              mload\n                /* \"#utility.yul\":19679:19701   */\n              swap1\n              pop\n                /* \"#utility.yul\":19668:19708   */\n              swap2\n              swap1\n              pop\n              jump\t// out\n                /* \"#utility.yul\":19714:19850   */\n            tag_410:\n              0x00\n                /* \"#utility.yul\":19839:19843   */\n              0x20\n                /* \"#utility.yul\":19834:19837   */\n              dup3\n                /* \"#utility.yul\":19830:19844   */\n              add\n                /* \"#utility.yul\":19822:19844   */\n              swap1\n              pop\n                /* \"#utility.yul\":19812:19850   */\n              swap2\n              swap1\n              pop\n              jump\t// out\n                /* \"#utility.yul\":19856:20063   */\n            tag_402:\n              0x00\n                /* \"#utility.yul\":20012:20018   */\n              dup3\n                /* \"#utility.yul\":20007:20010   */\n              dup3\n                /* \"#utility.yul\":20000:20019   */\n              mstore\n                /* \"#utility.yul\":20052:20056   */\n              0x20\n                /* \"#utility.yul\":20047:20050   */\n              dup3\n                /* \"#utility.yul\":20043:20057   */\n              add\n                /* \"#utility.yul\":20028:20057   */\n              swap1\n              pop\n                /* \"#utility.yul\":19990:20063   */\n              swap3\n              swap2\n              pop\n              pop\n              jump\t// out\n                /* \"#utility.yul\":20069:20216   */\n            tag_486:\n              0x00\n                /* \"#utility.yul\":20207:20210   */\n              dup2\n                /* \"#utility.yul\":20192:20210   */\n              swap1\n              pop\n                /* \"#utility.yul\":20182:20216   */\n              swap3\n              swap2\n              pop\n              pop\n              jump\t// out\n                /* \"#utility.yul\":20222:20381   */\n            tag_432:\n              0x00\n                /* \"#utility.yul\":20330:20336   */\n              dup3\n                /* \"#utility.yul\":20325:20328   */\n              dup3\n                /* \"#utility.yul\":20318:20337   */\n              mstore\n                /* \"#utility.yul\":20370:20374   */\n              0x20\n                /* \"#utility.yul\":20365:20368   */\n              dup3\n                /* \"#utility.yul\":20361:20375   */\n              add\n                /* \"#utility.yul\":20346:20375   */\n              swap1\n              pop\n                /* \"#utility.yul\":20308:20381   */\n              swap3\n              swap2\n              pop\n              pop\n              jump\t// out\n                /* \"#utility.yul\":20387:20556   */\n            tag_418:\n              0x00\n                /* \"#utility.yul\":20505:20511   */\n              dup3\n                /* \"#utility.yul\":20500:20503   */\n              dup3\n                /* \"#utility.yul\":20493:20512   */\n              mstore\n                /* \"#utility.yul\":20545:20549   */\n              0x20\n                /* \"#utility.yul\":20540:20543   */\n              dup3\n                /* \"#utility.yul\":20536:20550   */\n              add\n                /* \"#utility.yul\":20521:20550   */\n              swap1\n              pop\n                /* \"#utility.yul\":20483:20556   */\n              swap3\n              swap2\n              pop\n              pop\n              jump\t// out\n                /* \"#utility.yul\":20562:20710   */\n            tag_425:\n              0x00\n                /* \"#utility.yul\":20701:20704   */\n              dup2\n                /* \"#utility.yul\":20686:20704   */\n              swap1\n              pop\n                /* \"#utility.yul\":20676:20710   */\n              swap3\n              swap2\n              pop\n              pop\n              jump\t// out\n                /* \"#utility.yul\":20716:21021   */\n            tag_243:\n              0x00\n                /* \"#utility.yul\":20775:20795   */\n              tag_559\n                /* \"#utility.yul\":20793:20794   */\n              dup3\n                /* \"#utility.yul\":20775:20795   */\n              tag_497\n              jump\t// in\n            tag_559:\n                /* \"#utility.yul\":20770:20795   */\n              swap2\n              pop\n                /* \"#utility.yul\":20809:20829   */\n              tag_560\n                /* \"#utility.yul\":20827:20828   */\n              dup4\n                /* \"#utility.yul\":20809:20829   */\n              tag_497\n              jump\t// in\n            tag_560:\n                /* \"#utility.yul\":20804:20829   */\n              swap3\n              pop\n                /* \"#utility.yul\":20963:20964   */\n              dup3\n                /* \"#utility.yul\":20895:20961   */\n              0xffffffffffffffffffffffffffffffffffffffffffffffffffffffffffffffff\n                /* \"#utility.yul\":20891:20965   */\n              sub\n                /* \"#utility.yul\":20888:20889   */\n              dup3\n                /* \"#utility.yul\":20885:20966   */\n              gt\n                /* \"#utility.yul\":20882:20884   */\n              iszero\n              tag_561\n              jumpi\n                /* \"#utility.yul\":20969:20987   */\n              tag_562\n              tag_563\n              jump\t// in\n            tag_562:\n                /* \"#utility.yul\":20882:20884   */\n            tag_561:\n                /* \"#utility.yul\":21013:21014   */\n              dup3\n                /* \"#utility.yul\":21010:21011   */\n              dup3\n                /* \"#utility.yul\":21006:21015   */\n              add\n                /* \"#utility.yul\":20999:21015   */\n              swap1\n              pop\n                /* \"#utility.yul\":20760:21021   */\n              swap3\n              swap2\n              pop\n              pop\n              jump\t// out\n                /* \"#utility.yul\":21027:21212   */\n            tag_164:\n              0x00\n                /* \"#utility.yul\":21084:21104   */\n              tag_565\n                /* \"#utility.yul\":21102:21103   */\n              dup3\n                /* \"#utility.yul\":21084:21104   */\n              tag_497\n              jump\t// in\n            tag_565:\n                /* \"#utility.yul\":21079:21104   */\n              swap2\n              pop\n                /* \"#utility.yul\":21118:21138   */\n              tag_566\n                /* \"#utility.yul\":21136:21137   */\n              dup4\n                /* \"#utility.yul\":21118:21138   */\n              tag_497\n              jump\t// in\n            tag_566:\n                /* \"#utility.yul\":21113:21138   */\n              swap3\n              pop\n                /* \"#utility.yul\":21157:21158   */\n              dup3\n                /* \"#utility.yul\":21147:21149   */\n              tag_567\n              jumpi\n                /* \"#utility.yul\":21162:21180   */\n              tag_568\n              tag_569\n              jump\t// in\n            tag_568:\n                /* \"#utility.yul\":21147:21149   */\n            tag_567:\n                /* \"#utility.yul\":21204:21205   */\n              dup3\n                /* \"#utility.yul\":21201:21202   */\n              dup3\n                /* \"#utility.yul\":21197:21206   */\n              div\n                /* \"#utility.yul\":21192:21206   */\n              swap1\n              pop\n                /* \"#utility.yul\":21069:21212   */\n              swap3\n              swap2\n              pop\n              pop\n              jump\t// out\n                /* \"#utility.yul\":21218:21566   */\n            tag_161:\n              0x00\n                /* \"#utility.yul\":21281:21301   */\n              tag_571\n                /* \"#utility.yul\":21299:21300   */\n              dup3\n                /* \"#utility.yul\":21281:21301   */\n              tag_497\n              jump\t// in\n            tag_571:\n                /* \"#utility.yul\":21276:21301   */\n              swap2\n              pop\n                /* \"#utility.yul\":21315:21335   */\n              tag_572\n                /* \"#utility.yul\":21333:21334   */\n              dup4\n                /* \"#utility.yul\":21315:21335   */\n              tag_497\n              jump\t// in\n            tag_572:\n                /* \"#utility.yul\":21310:21335   */\n              swap3\n              pop\n                /* \"#utility.yul\":21503:21504   */\n              dup2\n                /* \"#utility.yul\":21435:21501   */\n              0xffffffffffffffffffffffffffffffffffffffffffffffffffffffffffffffff\n                /* \"#utility.yul\":21431:21505   */\n              div\n                /* \"#utility.yul\":21428:21429   */\n              dup4\n                /* \"#utility.yul\":21425:21506   */\n              gt\n                /* \"#utility.yul\":21420:21421   */\n              dup3\n                /* \"#utility.yul\":21413:21422   */\n              iszero\n                /* \"#utility.yul\":21406:21423   */\n              iszero\n                /* \"#utility.yul\":21402:21507   */\n              and\n                /* \"#utility.yul\":21399:21401   */\n              iszero\n              tag_573\n              jumpi\n                /* \"#utility.yul\":21510:21528   */\n              tag_574\n              tag_563\n              jump\t// in\n            tag_574:\n                /* \"#utility.yul\":21399:21401   */\n            tag_573:\n                /* \"#utility.yul\":21558:21559   */\n              dup3\n                /* \"#utility.yul\":21555:21556   */\n              dup3\n                /* \"#utility.yul\":21551:21560   */\n              mul\n                /* \"#utility.yul\":21540:21560   */\n              swap1\n              pop\n                /* \"#utility.yul\":21266:21566   */\n              swap3\n              swap2\n              pop\n              pop\n              jump\t// out\n                /* \"#utility.yul\":21572:21668   */\n            tag_396:\n              0x00\n                /* \"#utility.yul\":21638:21662   */\n              tag_576\n                /* \"#utility.yul\":21656:21661   */\n              dup3\n                /* \"#utility.yul\":21638:21662   */\n              tag_577\n              jump\t// in\n            tag_576:\n                /* \"#utility.yul\":21627:21662   */\n              swap1\n              pop\n                /* \"#utility.yul\":21617:21668   */\n              swap2\n              swap1\n              pop\n              jump\t// out\n                /* \"#utility.yul\":21674:21778   */\n            tag_389:\n              0x00\n                /* \"#utility.yul\":21748:21772   */\n              tag_579\n                /* \"#utility.yul\":21766:21771   */\n              dup3\n                /* \"#utility.yul\":21748:21772   */\n              tag_577\n              jump\t// in\n            tag_579:\n                /* \"#utility.yul\":21737:21772   */\n              swap1\n              pop\n                /* \"#utility.yul\":21727:21778   */\n              swap2\n              swap1\n              pop\n              jump\t// out\n                /* \"#utility.yul\":21784:21874   */\n            tag_414:\n              0x00\n                /* \"#utility.yul\":21861:21866   */\n              dup2\n                /* \"#utility.yul\":21854:21867   */\n              iszero\n                /* \"#utility.yul\":21847:21868   */\n              iszero\n                /* \"#utility.yul\":21836:21868   */\n              swap1\n              pop\n                /* \"#utility.yul\":21826:21874   */\n              swap2\n              swap1\n              pop\n              jump\t// out\n                /* \"#utility.yul\":21880:22006   */\n            tag_577:\n              0x00\n                /* \"#utility.yul\":21957:21999   */\n              0xffffffffffffffffffffffffffffffffffffffff\n                /* \"#utility.yul\":21950:21955   */\n              dup3\n                /* \"#utility.yul\":21946:22000   */\n              and\n                /* \"#utility.yul\":21935:22000   */\n              swap1\n              pop\n                /* \"#utility.yul\":21925:22006   */\n              swap2\n              swap1\n              pop\n              jump\t// out\n                /* \"#utility.yul\":22012:22089   */\n            tag_497:\n              0x00\n                /* \"#utility.yul\":22078:22083   */\n              dup2\n                /* \"#utility.yul\":22067:22083   */\n              swap1\n              pop\n                /* \"#utility.yul\":22057:22089   */\n              swap2\n              swap1\n              pop\n              jump\t// out\n                /* \"#utility.yul\":22095:22249   */\n            tag_350:\n                /* \"#utility.yul\":22179:22185   */\n              dup3\n                /* \"#utility.yul\":22174:22177   */\n              dup2\n                /* \"#utility.yul\":22169:22172   */\n              dup4\n                /* \"#utility.yul\":22156:22186   */\n              calldatacopy\n                /* \"#utility.yul\":22241:22242   */\n              0x00\n                /* \"#utility.yul\":22232:22238   */\n              dup4\n                /* \"#utility.yul\":22227:22230   */\n              dup4\n                /* \"#utility.yul\":22223:22239   */\n              add\n                /* \"#utility.yul\":22216:22243   */\n              mstore\n                /* \"#utility.yul\":22146:22249   */\n              pop\n              pop\n              pop\n              jump\t// out\n                /* \"#utility.yul\":22255:22562   */\n            tag_434:\n                /* \"#utility.yul\":22323:22324   */\n              0x00\n                /* \"#utility.yul\":22333:22446   */\n            tag_585:\n                /* \"#utility.yul\":22347:22353   */\n              dup4\n                /* \"#utility.yul\":22344:22345   */\n              dup2\n                /* \"#utility.yul\":22341:22354   */\n              lt\n                /* \"#utility.yul\":22333:22446   */\n              iszero\n              tag_587\n              jumpi\n                /* \"#utility.yul\":22432:22433   */\n              dup1\n                /* \"#utility.yul\":22427:22430   */\n              dup3\n                /* \"#utility.yul\":22423:22434   */\n              add\n                /* \"#utility.yul\":22417:22435   */\n              mload\n                /* \"#utility.yul\":22413:22414   */\n              dup2\n                /* \"#utility.yul\":22408:22411   */\n              dup5\n                /* \"#utility.yul\":22404:22415   */\n              add\n                /* \"#utility.yul\":22397:22436   */\n              mstore\n                /* \"#utility.yul\":22369:22371   */\n              0x20\n                /* \"#utility.yul\":22366:22367   */\n              dup2\n                /* \"#utility.yul\":22362:22372   */\n              add\n                /* \"#utility.yul\":22357:22372   */\n              swap1\n              pop\n                /* \"#utility.yul\":22333:22446   */\n              jump(tag_585)\n            tag_587:\n                /* \"#utility.yul\":22464:22470   */\n              dup4\n                /* \"#utility.yul\":22461:22462   */\n              dup2\n                /* \"#utility.yul\":22458:22471   */\n              gt\n                /* \"#utility.yul\":22455:22457   */\n              iszero\n              tag_588\n              jumpi\n                /* \"#utility.yul\":22544:22545   */\n              0x00\n                /* \"#utility.yul\":22535:22541   */\n              dup5\n                /* \"#utility.yul\":22530:22533   */\n              dup5\n                /* \"#utility.yul\":22526:22542   */\n              add\n                /* \"#utility.yul\":22519:22546   */\n              mstore\n                /* \"#utility.yul\":22455:22457   */\n            tag_588:\n                /* \"#utility.yul\":22304:22562   */\n              pop\n              pop\n              pop\n              pop\n              jump\t// out\n                /* \"#utility.yul\":22568:22888   */\n            tag_245:\n              0x00\n                /* \"#utility.yul\":22649:22650   */\n              0x02\n                /* \"#utility.yul\":22643:22647   */\n              dup3\n                /* \"#utility.yul\":22639:22651   */\n              div\n                /* \"#utility.yul\":22629:22651   */\n              swap1\n              pop\n                /* \"#utility.yul\":22696:22697   */\n              0x01\n                /* \"#utility.yul\":22690:22694   */\n              dup3\n                /* \"#utility.yul\":22686:22698   */\n              and\n                /* \"#utility.yul\":22717:22735   */\n              dup1\n                /* \"#utility.yul\":22707:22709   */\n              tag_590\n              jumpi\n                /* \"#utility.yul\":22773:22777   */\n              0x7f\n                /* \"#utility.yul\":22765:22771   */\n              dup3\n                /* \"#utility.yul\":22761:22778   */\n              and\n                /* \"#utility.yul\":22751:22778   */\n              swap2\n              pop\n                /* \"#utility.yul\":22707:22709   */\n            tag_590:\n                /* \"#utility.yul\":22835:22837   */\n              0x20\n                /* \"#utility.yul\":22827:22833   */\n              dup3\n                /* \"#utility.yul\":22824:22838   */\n              lt\n                /* \"#utility.yul\":22804:22822   */\n              dup2\n                /* \"#utility.yul\":22801:22839   */\n              eq\n                /* \"#utility.yul\":22798:22800   */\n              iszero\n              tag_591\n              jumpi\n                /* \"#utility.yul\":22854:22872   */\n              tag_592\n              tag_593\n              jump\t// in\n            tag_592:\n                /* \"#utility.yul\":22798:22800   */\n            tag_591:\n                /* \"#utility.yul\":22619:22888   */\n              pop\n              swap2\n              swap1\n              pop\n              jump\t// out\n                /* \"#utility.yul\":22894:23127   */\n            tag_176:\n              0x00\n                /* \"#utility.yul\":22956:22980   */\n              tag_595\n                /* \"#utility.yul\":22974:22979   */\n              dup3\n                /* \"#utility.yul\":22956:22980   */\n              tag_497\n              jump\t// in\n            tag_595:\n                /* \"#utility.yul\":22947:22980   */\n              swap2\n              pop\n                /* \"#utility.yul\":23002:23068   */\n              0xffffffffffffffffffffffffffffffffffffffffffffffffffffffffffffffff\n                /* \"#utility.yul\":22995:23000   */\n              dup3\n                /* \"#utility.yul\":22992:23069   */\n              eq\n                /* \"#utility.yul\":22989:22991   */\n              iszero\n              tag_596\n              jumpi\n                /* \"#utility.yul\":23072:23090   */\n              tag_597\n              tag_563\n              jump\t// in\n            tag_597:\n                /* \"#utility.yul\":22989:22991   */\n            tag_596:\n                /* \"#utility.yul\":23119:23120   */\n              0x01\n                /* \"#utility.yul\":23112:23117   */\n              dup3\n                /* \"#utility.yul\":23108:23121   */\n              add\n                /* \"#utility.yul\":23101:23121   */\n              swap1\n              pop\n                /* \"#utility.yul\":22937:23127   */\n              swap2\n              swap1\n              pop\n              jump\t// out\n                /* \"#utility.yul\":23133:23313   */\n            tag_563:\n                /* \"#utility.yul\":23181:23258   */\n              0x4e487b7100000000000000000000000000000000000000000000000000000000\n                /* \"#utility.yul\":23178:23179   */\n              0x00\n                /* \"#utility.yul\":23171:23259   */\n              mstore\n                /* \"#utility.yul\":23278:23282   */\n              0x11\n                /* \"#utility.yul\":23275:23276   */\n              0x04\n                /* \"#utility.yul\":23268:23283   */\n              mstore\n                /* \"#utility.yul\":23302:23306   */\n              0x24\n                /* \"#utility.yul\":23299:23300   */\n              0x00\n                /* \"#utility.yul\":23292:23307   */\n              revert\n                /* \"#utility.yul\":23319:23499   */\n            tag_569:\n                /* \"#utility.yul\":23367:23444   */\n              0x4e487b7100000000000000000000000000000000000000000000000000000000\n                /* \"#utility.yul\":23364:23365   */\n              0x00\n                /* \"#utility.yul\":23357:23445   */\n              mstore\n                /* \"#utility.yul\":23464:23468   */\n              0x12\n                /* \"#utility.yul\":23461:23462   */\n              0x04\n                /* \"#utility.yul\":23454:23469   */\n              mstore\n                /* \"#utility.yul\":23488:23492   */\n              0x24\n                /* \"#utility.yul\":23485:23486   */\n              0x00\n                /* \"#utility.yul\":23478:23493   */\n              revert\n                /* \"#utility.yul\":23505:23685   */\n            tag_593:\n                /* \"#utility.yul\":23553:23630   */\n              0x4e487b7100000000000000000000000000000000000000000000000000000000\n                /* \"#utility.yul\":23550:23551   */\n              0x00\n                /* \"#utility.yul\":23543:23631   */\n              mstore\n                /* \"#utility.yul\":23650:23654   */\n              0x22\n                /* \"#utility.yul\":23647:23648   */\n              0x04\n                /* \"#utility.yul\":23640:23655   */\n              mstore\n                /* \"#utility.yul\":23674:23678   */\n              0x24\n                /* \"#utility.yul\":23671:23672   */\n              0x00\n                /* \"#utility.yul\":23664:23679   */\n              revert\n                /* \"#utility.yul\":23691:23871   */\n            tag_544:\n                /* \"#utility.yul\":23739:23816   */\n              0x4e487b7100000000000000000000000000000000000000000000000000000000\n                /* \"#utility.yul\":23736:23737   */\n              0x00\n                /* \"#utility.yul\":23729:23817   */\n              mstore\n                /* \"#utility.yul\":23836:23840   */\n              0x41\n                /* \"#utility.yul\":23833:23834   */\n              0x04\n                /* \"#utility.yul\":23826:23841   */\n              mstore\n                /* \"#utility.yul\":23860:23864   */\n              0x24\n                /* \"#utility.yul\":23857:23858   */\n              0x00\n                /* \"#utility.yul\":23850:23865   */\n              revert\n                /* \"#utility.yul\":23877:23979   */\n            tag_421:\n              0x00\n                /* \"#utility.yul\":23969:23971   */\n              0x1f\n                /* \"#utility.yul\":23965:23972   */\n              not\n                /* \"#utility.yul\":23960:23962   */\n              0x1f\n                /* \"#utility.yul\":23953:23958   */\n              dup4\n                /* \"#utility.yul\":23949:23963   */\n              add\n                /* \"#utility.yul\":23945:23973   */\n              and\n                /* \"#utility.yul\":23935:23973   */\n              swap1\n              pop\n                /* \"#utility.yul\":23925:23979   */\n              swap2\n              swap1\n              pop\n              jump\t// out\n                /* \"#utility.yul\":23985:24123   */\n            tag_354:\n                /* \"#utility.yul\":24066:24098   */\n              tag_604\n                /* \"#utility.yul\":24092:24097   */\n              dup2\n                /* \"#utility.yul\":24066:24098   */\n              tag_389\n              jump\t// in\n            tag_604:\n                /* \"#utility.yul\":24059:24064   */\n              dup2\n                /* \"#utility.yul\":24056:24099   */\n              eq\n                /* \"#utility.yul\":24046:24048   */\n              tag_605\n              jumpi\n                /* \"#utility.yul\":24113:24114   */\n              0x00\n                /* \"#utility.yul\":24110:24111   */\n              dup1\n                /* \"#utility.yul\":24103:24115   */\n              revert\n                /* \"#utility.yul\":24046:24048   */\n            tag_605:\n                /* \"#utility.yul\":24036:24123   */\n              pop\n              jump\t// out\n                /* \"#utility.yul\":24129:24251   */\n            tag_367:\n                /* \"#utility.yul\":24202:24226   */\n              tag_607\n                /* \"#utility.yul\":24220:24225   */\n              dup2\n                /* \"#utility.yul\":24202:24226   */\n              tag_497\n              jump\t// in\n            tag_607:\n                /* \"#utility.yul\":24195:24200   */\n              dup2\n                /* \"#utility.yul\":24192:24227   */\n              eq\n                /* \"#utility.yul\":24182:24184   */\n              tag_608\n              jumpi\n                /* \"#utility.yul\":24241:24242   */\n              0x00\n                /* \"#utility.yul\":24238:24239   */\n              dup1\n                /* \"#utility.yul\":24231:24243   */\n              revert\n                /* \"#utility.yul\":24182:24184   */\n            tag_608:\n                /* \"#utility.yul\":24172:24251   */\n              pop\n              jump\t// out\n\n            auxdata: 0xa2646970667358221220db35c4520e6b412a27d89fe14f0834b708bb7794b2ae7b48aafecff8b8887acf64736f6c63430008000033\n        }\n    }\n\n    auxdata: 0xa26469706673582212209a32ca6e7c51a35877b4480f75ddbbe9836d00dcab1fbaa6fe46355456b0967564736f6c63430008000033\n}\n","bytecode":{"linkReferences":{},"object":"60806040523480156200001157600080fd5b5033600160006101000a81548173ffffffffffffffffffffffffffffffffffffffff021916908373ffffffffffffffffffffffffffffffffffffffff1602179055506040518060400160405280600581526020017f302e302e3100000000000000000000000000000000000000000000000000000081525060029080519060200190620000a0929190620000a7565b50620001bc565b828054620000b59062000157565b90600052602060002090601f016020900481019282620000d9576000855562000125565b82601f10620000f457805160ff191683800117855562000125565b8280016001018555821562000125579182015b828111156200012457825182559160200191906001019062000107565b5b50905062000134919062000138565b5090565b5b808211156200015357600081600090555060010162000139565b5090565b600060028204905060018216806200017057607f821691505b602082108114156200018757620001866200018d565b5b50919050565b7f4e487b7100000000000000000000000000000000000000000000000000000000600052602260045260246000fd5b61433880620001cc6000396000f3fe60806040523480156200001157600080fd5b5060043610620000945760003560e01c80638da5cb5b11620000635780638da5cb5b1462000109578063d78d0f9f146200012b578063f2fde38b146200014d578063fdf13c8e146200016d5762000094565b80631b046afe146200009957806354fd4d5014620000b95780636f9fb98a14620000db578063715018a614620000fd575b600080fd5b620000b76004803603810190620000b191906200089f565b620001a3565b005b620000c362000438565b604051620000d2919062000eda565b60405180910390f35b620000e5620004ce565b604051620000f4919062000fa8565b60405180910390f35b62000107620004d6565b005b6200011362000577565b60405162000122919062000dc4565b60405180910390f35b620001356200059d565b60405162000144919062000e99565b60405180910390f35b6200016b600480360381019062000165919062000873565b6200062d565b005b6200018b60048036038101906200018591906200099e565b62000741565b6040516200019a919062000ebd565b60405180910390f35b60008551118015620001b6575060008451115b801562000213575083604051602001620001d1919062000eda565b6040516020818303038152906040528051906020012085604051602001620001fa919062000eda565b6040516020818303038152906040528051906020012014155b801562000221575060008351115b62000263576040517f08c379a00000000000000000000000000000000000000000000000000000000081526004016200025a9062000efe565b60405180910390fd5b601f8551108015620002765750601f8451105b801562000285575061012d8351105b620002c7576040517f08c379a0000000000000000000000000000000000000000000000000000000008152600401620002be9062000f64565b60405180910390fd5b601f8251108015620002da5750601f8151105b6200031c576040517f08c379a0000000000000000000000000000000000000000000000000000000008152600401620003139062000f42565b60405180910390fd5b6000338686868686600160009054906101000a900473ffffffffffffffffffffffffffffffffffffffff1660026040516200035790620007c5565b6200036a98979695949392919062000de1565b604051809103906000f08015801562000387573d6000803e3d6000fd5b5090508073ffffffffffffffffffffffffffffffffffffffff167f4807f95fc145722c41eff243080a4915925ec88acf2296fd1445632b42dc888760405160405180910390a26000819080600181540180825580915050600190039060005260206000200160009091909190916101000a81548173ffffffffffffffffffffffffffffffffffffffff021916908373ffffffffffffffffffffffffffffffffffffffff160217905550505050505050565b60028054620004479062001155565b80601f0160208091040260200160405190810160405280929190818152602001828054620004759062001155565b8015620004c65780601f106200049a57610100808354040283529160200191620004c6565b820191906000526020600020905b815481529060010190602001808311620004a857829003601f168201915b505050505081565b600047905090565b600160009054906101000a900473ffffffffffffffffffffffffffffffffffffffff1673ffffffffffffffffffffffffffffffffffffffff163373ffffffffffffffffffffffffffffffffffffffff161462000569576040517f08c379a0000000000000000000000000000000000000000000000000000000008152600401620005609062000f86565b60405180910390fd5b62000575600062000781565b565b600160009054906101000a900473ffffffffffffffffffffffffffffffffffffffff1681565b606060008054806020026020016040519081016040528092919081815260200182805480156200062357602002820191906000526020600020905b8160009054906101000a900473ffffffffffffffffffffffffffffffffffffffff1673ffffffffffffffffffffffffffffffffffffffff1681526020019060010190808311620005d8575b5050505050905090565b600160009054906101000a900473ffffffffffffffffffffffffffffffffffffffff1673ffffffffffffffffffffffffffffffffffffffff163373ffffffffffffffffffffffffffffffffffffffff1614620006c0576040517f08c379a0000000000000000000000000000000000000000000000000000000008152600401620006b79062000f86565b60405180910390fd5b600073ffffffffffffffffffffffffffffffffffffffff168173ffffffffffffffffffffffffffffffffffffffff16141562000733576040517f08c379a00000000000000000000000000000000000000000000000000000000081526004016200072a9062000f20565b60405180910390fd5b6200073e8162000781565b50565b600081815481106200075257600080fd5b906000526020600020016000915054906101000a900473ffffffffffffffffffffffffffffffffffffffff1681565b80600160006101000a81548173ffffffffffffffffffffffffffffffffffffffff021916908373ffffffffffffffffffffffffffffffffffffffff16021790555050565b6130d4806200122f83390190565b6000620007ea620007e48462000ff9565b62000fc5565b9050828152602081018484840111156200080357600080fd5b6200081084828562001110565b509392505050565b6000813590506200082981620011fa565b92915050565b600082601f8301126200084157600080fd5b813562000853848260208601620007d3565b91505092915050565b6000813590506200086d8162001214565b92915050565b6000602082840312156200088657600080fd5b6000620008968482850162000818565b91505092915050565b600080600080600060a08688031215620008b857600080fd5b600086013567ffffffffffffffff811115620008d357600080fd5b620008e1888289016200082f565b955050602086013567ffffffffffffffff811115620008ff57600080fd5b6200090d888289016200082f565b945050604086013567ffffffffffffffff8111156200092b57600080fd5b62000939888289016200082f565b935050606086013567ffffffffffffffff8111156200095757600080fd5b62000965888289016200082f565b925050608086013567ffffffffffffffff8111156200098357600080fd5b62000991888289016200082f565b9150509295509295909350565b600060208284031215620009b157600080fd5b6000620009c1848285016200085c565b91505092915050565b6000620009d8838362000a70565b60208301905092915050565b620009ef81620010aa565b82525050565b62000a008162001096565b82525050565b600062000a138262001051565b62000a1f818562001074565b935062000a2c836200102c565b8060005b8381101562000a6357815162000a478882620009ca565b975062000a548362001067565b92505060018101905062000a30565b5085935050505092915050565b62000a7b81620010e8565b82525050565b62000a8c81620010e8565b82525050565b600062000a9f826200105c565b62000aab818562001085565b935062000abd8185602086016200111f565b62000ac881620011e9565b840191505092915050565b6000815462000ae28162001155565b62000aee818662001085565b9450600182166000811462000b0c576001811462000b1f5762000b56565b60ff198316865260208601935062000b56565b62000b2a856200103c565b60005b8381101562000b4e5781548189015260018201915060208101905062000b2d565b808801955050505b50505092915050565b600062000b6e603e8362001085565b91507f596f75206d75737420656e746572206174206c656173742074776f206469666660008301527f6572656e74207465616d732c20616e642061206465736372697074696f6e00006020830152604082019050919050565b600062000bd660268362001085565b91507f4f776e61626c653a206e6577206f776e657220697320746865207a65726f206160008301527f64647265737300000000000000000000000000000000000000000000000000006020830152604082019050919050565b600062000c3e60278362001085565b91507f546865206d6178206c656e677468206f6620747970652069732033302063686160008301527f72616374657273000000000000000000000000000000000000000000000000006020830152604082019050919050565b600062000ca660628362001085565b91507f546865206d6178206c656e677468206f66207465616d206e616d65732069732060008301527f3330206368617261637465727320616e6420746865206d6178206c656e67746860208301527f20666f72206465736372697074696f6e2069732033303020636861726163746560408301527f72730000000000000000000000000000000000000000000000000000000000006060830152608082019050919050565b600062000d5a60368362001085565b91507f4f6e6c7920746865206f776e6572206f66207468652067616d626c652063616e60008301527f206578656375746520746869732066756e6374696f6e000000000000000000006020830152604082019050919050565b62000dbe81620010de565b82525050565b600060208201905062000ddb6000830184620009e4565b92915050565b60006101008201905062000df9600083018b620009f5565b818103602083015262000e0d818a62000a92565b9050818103604083015262000e23818962000a92565b9050818103606083015262000e39818862000a92565b9050818103608083015262000e4f818762000a92565b905081810360a083015262000e65818662000a92565b905062000e7660c0830185620009e4565b81810360e083015262000e8a818462000ad3565b90509998505050505050505050565b6000602082019050818103600083015262000eb5818462000a06565b905092915050565b600060208201905062000ed4600083018462000a81565b92915050565b6000602082019050818103600083015262000ef6818462000a92565b905092915050565b6000602082019050818103600083015262000f198162000b5f565b9050919050565b6000602082019050818103600083015262000f3b8162000bc7565b9050919050565b6000602082019050818103600083015262000f5d8162000c2f565b9050919050565b6000602082019050818103600083015262000f7f8162000c97565b9050919050565b6000602082019050818103600083015262000fa18162000d4b565b9050919050565b600060208201905062000fbf600083018462000db3565b92915050565b6000604051905081810181811067ffffffffffffffff8211171562000fef5762000fee620011ba565b5b8060405250919050565b600067ffffffffffffffff821115620010175762001016620011ba565b5b601f19601f8301169050602081019050919050565b6000819050602082019050919050565b60008190508160005260206000209050919050565b600081519050919050565b600081519050919050565b6000602082019050919050565b600082825260208201905092915050565b600082825260208201905092915050565b6000620010a382620010be565b9050919050565b6000620010b782620010be565b9050919050565b600073ffffffffffffffffffffffffffffffffffffffff82169050919050565b6000819050919050565b6000620010f582620010fc565b9050919050565b60006200110982620010be565b9050919050565b82818337600083830152505050565b60005b838110156200113f57808201518184015260208101905062001122565b838111156200114f576000848401525b50505050565b600060028204905060018216806200116e57607f821691505b602082108114156200118557620011846200118b565b5b50919050565b7f4e487b7100000000000000000000000000000000000000000000000000000000600052602260045260246000fd5b7f4e487b7100000000000000000000000000000000000000000000000000000000600052604160045260246000fd5b6000601f19601f8301169050919050565b6200120581620010aa565b81146200121157600080fd5b50565b6200121f81620010de565b81146200122b57600080fd5b5056fe60806040523480156200001157600080fd5b50604051620030d4380380620030d4833981810160405281019062000037919062000399565b81600560016101000a81548173ffffffffffffffffffffffffffffffffffffffff021916908373ffffffffffffffffffffffffffffffffffffffff16021790555087600660006101000a81548173ffffffffffffffffffffffffffffffffffffffff021916908373ffffffffffffffffffffffffffffffffffffffff1602179055508660079080519060200190620000d192919062000249565b508560089080519060200190620000ea92919062000249565b5084600990805190602001906200010392919062000249565b5083600a90805190602001906200011c92919062000249565b5082600b90805190602001906200013592919062000249565b506000600160006101000a81548160ff0219169083151502179055506000600360006101000a81548160ff02191690831515021790555080600090805190602001906200018492919062000249565b50600560019054906101000a900473ffffffffffffffffffffffffffffffffffffffff1673ffffffffffffffffffffffffffffffffffffffff16600660009054906101000a900473ffffffffffffffffffffffffffffffffffffffff1673ffffffffffffffffffffffffffffffffffffffff1614156200021f576001600560006101000a81548160ff0219169083151502179055506200023b565b6000600560006101000a81548160ff0219169083151502179055505b50505050505050506200069f565b8280546200025790620005d7565b90600052602060002090601f0160209004810192826200027b5760008555620002c7565b82601f106200029657805160ff1916838001178555620002c7565b82800160010185558215620002c7579182015b82811115620002c6578251825591602001919060010190620002a9565b5b509050620002d69190620002da565b5090565b5b80821115620002f5576000816000905550600101620002db565b5090565b6000620003106200030a8462000526565b620004f2565b9050828152602081018484840111156200032957600080fd5b62000336848285620005a1565b509392505050565b6000815190506200034f816200066b565b92915050565b600081519050620003668162000685565b92915050565b600082601f8301126200037e57600080fd5b815162000390848260208601620002f9565b91505092915050565b600080600080600080600080610100898b031215620003b757600080fd5b6000620003c78b828c016200033e565b985050602089015167ffffffffffffffff811115620003e557600080fd5b620003f38b828c016200036c565b975050604089015167ffffffffffffffff8111156200041157600080fd5b6200041f8b828c016200036c565b965050606089015167ffffffffffffffff8111156200043d57600080fd5b6200044b8b828c016200036c565b955050608089015167ffffffffffffffff8111156200046957600080fd5b620004778b828c016200036c565b94505060a089015167ffffffffffffffff8111156200049557600080fd5b620004a38b828c016200036c565b93505060c0620004b68b828c0162000355565b92505060e089015167ffffffffffffffff811115620004d457600080fd5b620004e28b828c016200036c565b9150509295985092959890939650565b6000604051905081810181811067ffffffffffffffff821117156200051c576200051b6200063c565b5b8060405250919050565b600067ffffffffffffffff8211156200054457620005436200063c565b5b601f19601f8301169050602081019050919050565b6000620005668262000581565b9050919050565b60006200057a8262000581565b9050919050565b600073ffffffffffffffffffffffffffffffffffffffff82169050919050565b60005b83811015620005c1578082015181840152602081019050620005a4565b83811115620005d1576000848401525b50505050565b60006002820490506001821680620005f057607f821691505b602082108114156200060757620006066200060d565b5b50919050565b7f4e487b7100000000000000000000000000000000000000000000000000000000600052602260045260246000fd5b7f4e487b7100000000000000000000000000000000000000000000000000000000600052604160045260246000fd5b620006768162000559565b81146200068257600080fd5b50565b62000690816200056d565b81146200069c57600080fd5b50565b612a2580620006af6000396000f3fe6080604052600436106101355760003560e01c8063985cb113116100ab578063bfd4d92e1161006f578063bfd4d92e146103c3578063c1e77c4a146103ee578063cc1f044d1461042d578063dfbf53ae14610458578063efdeccff14610483578063f2fde38b146104ae57610135565b8063985cb113146102ec5780639d9a7fe914610317578063a4457c8814610342578063aca227391461036d578063bd0873aa1461039857610135565b806354fd4d50116100fd57806354fd4d50146101fe5780636f9fb98a14610229578063715018a6146102545780637580f81d1461026b5780638da5cb5b14610296578063980389e0146102c157610135565b806307ebef701461013a57806312ef3512146101635780633d80b5321461017a578063481c6a75146101b757806354f2c521146101e2575b600080fd5b34801561014657600080fd5b50610161600480360381019061015c9190611d9a565b6104d7565b005b34801561016f57600080fd5b50610178610afc565b005b34801561018657600080fd5b506101a1600480360381019061019c9190611ddf565b610f1d565b6040516101ae91906125ef565b60405180910390f35b3480156101c357600080fd5b506101cc610f4b565b6040516101d991906123f6565b60405180910390f35b6101fc60048036038101906101f79190611d9a565b610f71565b005b34801561020a57600080fd5b50610213611244565b60405161022091906124cb565b60405180910390f35b34801561023557600080fd5b5061023e6112d2565b60405161024b91906125ef565b60405180910390f35b34801561026057600080fd5b506102696112da565b005b34801561027757600080fd5b50610280611376565b60405161028d919061246a565b60405180910390f35b3480156102a257600080fd5b506102ab6114c7565b6040516102b89190612411565b60405180910390f35b3480156102cd57600080fd5b506102d66114ed565b6040516102e3919061248c565b60405180910390f35b3480156102f857600080fd5b50610301611500565b60405161030e91906124cb565b60405180910390f35b34801561032357600080fd5b5061032c61158e565b604051610339919061248c565b60405180910390f35b34801561034e57600080fd5b506103576115a1565b604051610364919061248c565b60405180910390f35b34801561037957600080fd5b506103826115b4565b60405161038f91906124cb565b60405180910390f35b3480156103a457600080fd5b506103ad611642565b6040516103ba91906125ef565b60405180910390f35b3480156103cf57600080fd5b506103d8611648565b6040516103e591906124cb565b60405180910390f35b3480156103fa57600080fd5b5061041560048036038101906104109190611e20565b6116d6565b6040516104249392919061242c565b60405180910390f35b34801561043957600080fd5b506104426117b8565b60405161044f91906124cb565b60405180910390f35b34801561046457600080fd5b5061046d611846565b60405161047a91906124cb565b60405180910390f35b34801561048f57600080fd5b506104986118d4565b6040516104a591906124cb565b60405180910390f35b3480156104ba57600080fd5b506104d560048036038101906104d09190611d71565b611962565b005b600660009054906101000a900473ffffffffffffffffffffffffffffffffffffffff1673ffffffffffffffffffffffffffffffffffffffff163373ffffffffffffffffffffffffffffffffffffffff1614806105805750600560019054906101000a900473ffffffffffffffffffffffffffffffffffffffff1673ffffffffffffffffffffffffffffffffffffffff163373ffffffffffffffffffffffffffffffffffffffff16145b6105bf576040517f08c379a00000000000000000000000000000000000000000000000000000000081526004016105b69061256f565b60405180910390fd5b600160009054906101000a900460ff161561060f576040517f08c379a00000000000000000000000000000000000000000000000000000000081526004016106069061250f565b60405180910390fd5b818181816040516020016106249291906124a7565b60405160208183030381529060405280519060200120600760405160200161064c91906124ed565b6040516020818303038152906040528051906020012014806106bc5750818160405160200161067c9291906124a7565b6040516020818303038152906040528051906020012060086040516020016106a491906124ed565b60405160208183030381529060405280519060200120145b6106fb576040517f08c379a00000000000000000000000000000000000000000000000000000000081526004016106f2906125af565b60405180910390fd5b600047905060005b600c8054905081101561097f5785856040516020016107239291906124a7565b60405160208183030381529060405280519060200120600c8281548110610773577f4e487b7100000000000000000000000000000000000000000000000000000000600052603260045260246000fd5b906000526020600020906003020160010160405160200161079491906124ed565b604051602081830303815290604052805190602001201415610966576000600c82815481106107ec577f4e487b7100000000000000000000000000000000000000000000000000000000600052603260045260246000fd5b906000526020600020906003020160000160009054906101000a900473ffffffffffffffffffffffffffffffffffffffff1673ffffffffffffffffffffffffffffffffffffffff16600d88886040516108469291906123b1565b90815260200160405180910390205460646063600c8681548110610893577f4e487b7100000000000000000000000000000000000000000000000000000000600052603260045260246000fd5b906000526020600020906003020160020154876108b09190612783565b6108ba9190612783565b6108c49190612752565b6108ce9190612752565b6040516108da906123e1565b60006040518083038185875af1925050503d8060008114610917576040519150601f19603f3d011682016040523d82523d6000602084013e61091c565b606091505b5050905080610960576040517f08c379a00000000000000000000000000000000000000000000000000000000081526004016109579061254f565b60405180910390fd5b5061096b565b61096c565b5b8080610977906128ab565b915050610703565b50848460049190610991929190611ab2565b506000600d60076040516109a591906123ca565b9081526020016040518091039020819055506000600d60086040516109ca91906123ca565b908152602001604051809103902081905550600c60006109ea9190611b38565b60018060006101000a81548160ff0219169083151502179055506001600360006101000a81548160ff021916908315150217905550426002819055506000600560019054906101000a900473ffffffffffffffffffffffffffffffffffffffff1673ffffffffffffffffffffffffffffffffffffffff1647604051610a6e906123e1565b60006040518083038185875af1925050503d8060008114610aab576040519150601f19603f3d011682016040523d82523d6000602084013e610ab0565b606091505b5050905080610af4576040517f08c379a0000000000000000000000000000000000000000000000000000000008152600401610aeb9061254f565b60405180910390fd5b505050505050565b600660009054906101000a900473ffffffffffffffffffffffffffffffffffffffff1673ffffffffffffffffffffffffffffffffffffffff163373ffffffffffffffffffffffffffffffffffffffff161480610ba55750600560019054906101000a900473ffffffffffffffffffffffffffffffffffffffff1673ffffffffffffffffffffffffffffffffffffffff163373ffffffffffffffffffffffffffffffffffffffff16145b610be4576040517f08c379a0000000000000000000000000000000000000000000000000000000008152600401610bdb9061256f565b60405180910390fd5b600160009054906101000a900460ff1615610c34576040517f08c379a0000000000000000000000000000000000000000000000000000000008152600401610c2b9061250f565b60405180910390fd5b60005b600c80549050811015610dd2576000600c8281548110610c80577f4e487b7100000000000000000000000000000000000000000000000000000000600052603260045260246000fd5b906000526020600020906003020160000160009054906101000a900473ffffffffffffffffffffffffffffffffffffffff1673ffffffffffffffffffffffffffffffffffffffff1660646063600c8581548110610d06577f4e487b7100000000000000000000000000000000000000000000000000000000600052603260045260246000fd5b906000526020600020906003020160020154610d229190612783565b610d2c9190612752565b604051610d38906123e1565b60006040518083038185875af1925050503d8060008114610d75576040519150601f19603f3d011682016040523d82523d6000602084013e610d7a565b606091505b5050905080610dbe576040517f08c379a0000000000000000000000000000000000000000000000000000000008152600401610db59061254f565b60405180910390fd5b508080610dca906128ab565b915050610c37565b506000600d6007604051610de691906123ca565b9081526020016040518091039020819055506000600d6008604051610e0b91906123ca565b908152602001604051809103902081905550600c6000610e2b9190611b38565b60018060006101000a81548160ff021916908315150217905550426002819055506000600560019054906101000a900473ffffffffffffffffffffffffffffffffffffffff1673ffffffffffffffffffffffffffffffffffffffff1647604051610e94906123e1565b60006040518083038185875af1925050503d8060008114610ed1576040519150601f19603f3d011682016040523d82523d6000602084013e610ed6565b606091505b5050905080610f1a576040517f08c379a0000000000000000000000000000000000000000000000000000000008152600401610f119061254f565b60405180910390fd5b50565b600d818051602081018201805184825260208301602085012081835280955050505050506000915090505481565b600660009054906101000a900473ffffffffffffffffffffffffffffffffffffffff1681565b81818181604051602001610f869291906124a7565b604051602081830303815290604052805190602001206007604051602001610fae91906124ed565b60405160208183030381529060405280519060200120148061101e57508181604051602001610fde9291906124a7565b60405160208183030381529060405280519060200120600860405160200161100691906124ed565b60405160208183030381529060405280519060200120145b61105d576040517f08c379a0000000000000000000000000000000000000000000000000000000008152600401611054906125af565b60405180910390fd5b600160009054906101000a900460ff16156110ad576040517f08c379a00000000000000000000000000000000000000000000000000000000081526004016110a49061250f565b60405180910390fd5b66071afd498d00003410156110f7576040517f08c379a00000000000000000000000000000000000000000000000000000000081526004016110ee906125cf565b60405180910390fd5b600c60405180606001604052803373ffffffffffffffffffffffffffffffffffffffff16815260200186868080601f016020809104026020016040519081016040528093929190818152602001838380828437600081840152601f19601f82011690508083019250505050505050815260200134815250908060018154018082558091505060019003906000526020600020906003020160009091909190915060008201518160000160006101000a81548173ffffffffffffffffffffffffffffffffffffffff021916908373ffffffffffffffffffffffffffffffffffffffff16021790555060208201518160010190805190602001906111fa929190611b5c565b5060408201518160020155505034600d858560405161121a9291906123b1565b9081526020016040518091039020600082825461123791906126fc565b9250508190555050505050565b6000805461125190612879565b80601f016020809104026020016040519081016040528092919081815260200182805461127d90612879565b80156112ca5780601f1061129f576101008083540402835291602001916112ca565b820191906000526020600020905b8154815290600101906020018083116112ad57829003601f168201915b505050505081565b600047905090565b600560019054906101000a900473ffffffffffffffffffffffffffffffffffffffff1673ffffffffffffffffffffffffffffffffffffffff163373ffffffffffffffffffffffffffffffffffffffff161461136a576040517f08c379a00000000000000000000000000000000000000000000000000000000081526004016113619061258f565b60405180910390fd5b6113746000611a6e565b565b6060600c805480602002602001604051908101604052809291908181526020016000905b828210156114be57838290600052602060002090600302016040518060600160405290816000820160009054906101000a900473ffffffffffffffffffffffffffffffffffffffff1673ffffffffffffffffffffffffffffffffffffffff1673ffffffffffffffffffffffffffffffffffffffff16815260200160018201805461142390612879565b80601f016020809104026020016040519081016040528092919081815260200182805461144f90612879565b801561149c5780601f106114715761010080835404028352916020019161149c565b820191906000526020600020905b81548152906001019060200180831161147f57829003601f168201915b505050505081526020016002820154815250508152602001906001019061139a565b50505050905090565b600560019054906101000a900473ffffffffffffffffffffffffffffffffffffffff1681565b600560009054906101000a900460ff1681565b6009805461150d90612879565b80601f016020809104026020016040519081016040528092919081815260200182805461153990612879565b80156115865780601f1061155b57610100808354040283529160200191611586565b820191906000526020600020905b81548152906001019060200180831161156957829003601f168201915b505050505081565b600160009054906101000a900460ff1681565b600360009054906101000a900460ff1681565b600780546115c190612879565b80601f01602080910402602001604051908101604052809291908181526020018280546115ed90612879565b801561163a5780601f1061160f5761010080835404028352916020019161163a565b820191906000526020600020905b81548152906001019060200180831161161d57829003601f168201915b505050505081565b60025481565b600b805461165590612879565b80601f016020809104026020016040519081016040528092919081815260200182805461168190612879565b80156116ce5780601f106116a3576101008083540402835291602001916116ce565b820191906000526020600020905b8154815290600101906020018083116116b157829003601f168201915b505050505081565b600c81815481106116e657600080fd5b90600052602060002090600302016000915090508060000160009054906101000a900473ffffffffffffffffffffffffffffffffffffffff169080600101805461172f90612879565b80601f016020809104026020016040519081016040528092919081815260200182805461175b90612879565b80156117a85780601f1061177d576101008083540402835291602001916117a8565b820191906000526020600020905b81548152906001019060200180831161178b57829003601f168201915b5050505050908060020154905083565b600a80546117c590612879565b80601f01602080910402602001604051908101604052809291908181526020018280546117f190612879565b801561183e5780601f106118135761010080835404028352916020019161183e565b820191906000526020600020905b81548152906001019060200180831161182157829003601f168201915b505050505081565b6004805461185390612879565b80601f016020809104026020016040519081016040528092919081815260200182805461187f90612879565b80156118cc5780601f106118a1576101008083540402835291602001916118cc565b820191906000526020600020905b8154815290600101906020018083116118af57829003601f168201915b505050505081565b600880546118e190612879565b80601f016020809104026020016040519081016040528092919081815260200182805461190d90612879565b801561195a5780601f1061192f5761010080835404028352916020019161195a565b820191906000526020600020905b81548152906001019060200180831161193d57829003601f168201915b505050505081565b600560019054906101000a900473ffffffffffffffffffffffffffffffffffffffff1673ffffffffffffffffffffffffffffffffffffffff163373ffffffffffffffffffffffffffffffffffffffff16146119f2576040517f08c379a00000000000000000000000000000000000000000000000000000000081526004016119e99061258f565b60405180910390fd5b600073ffffffffffffffffffffffffffffffffffffffff168173ffffffffffffffffffffffffffffffffffffffff161415611a62576040517f08c379a0000000000000000000000000000000000000000000000000000000008152600401611a599061252f565b60405180910390fd5b611a6b81611a6e565b50565b80600560016101000a81548173ffffffffffffffffffffffffffffffffffffffff021916908373ffffffffffffffffffffffffffffffffffffffff16021790555050565b828054611abe90612879565b90600052602060002090601f016020900481019282611ae05760008555611b27565b82601f10611af957803560ff1916838001178555611b27565b82800160010185558215611b27579182015b82811115611b26578235825591602001919060010190611b0b565b5b509050611b349190611be2565b5090565b5080546000825560030290600052602060002090810190611b599190611bff565b50565b828054611b6890612879565b90600052602060002090601f016020900481019282611b8a5760008555611bd1565b82601f10611ba357805160ff1916838001178555611bd1565b82800160010185558215611bd1579182015b82811115611bd0578251825591602001919060010190611bb5565b5b509050611bde9190611be2565b5090565b5b80821115611bfb576000816000905550600101611be3565b5090565b5b80821115611c5157600080820160006101000a81549073ffffffffffffffffffffffffffffffffffffffff0219169055600182016000611c409190611c55565b600282016000905550600301611c00565b5090565b508054611c6190612879565b6000825580601f10611c735750611c92565b601f016020900490600052602060002090810190611c919190611be2565b5b50565b6000611ca8611ca38461263b565b61260a565b905082815260208101848484011115611cc057600080fd5b611ccb848285612837565b509392505050565b600081359050611ce2816129c1565b92915050565b60008083601f840112611cfa57600080fd5b8235905067ffffffffffffffff811115611d1357600080fd5b602083019150836001820283011115611d2b57600080fd5b9250929050565b600082601f830112611d4357600080fd5b8135611d53848260208601611c95565b91505092915050565b600081359050611d6b816129d8565b92915050565b600060208284031215611d8357600080fd5b6000611d9184828501611cd3565b91505092915050565b60008060208385031215611dad57600080fd5b600083013567ffffffffffffffff811115611dc757600080fd5b611dd385828601611ce8565b92509250509250929050565b600060208284031215611df157600080fd5b600082013567ffffffffffffffff811115611e0b57600080fd5b611e1784828501611d32565b91505092915050565b600060208284031215611e3257600080fd5b6000611e4084828501611d5c565b91505092915050565b6000611e558383612343565b905092915050565b611e66816127ef565b82525050565b611e75816127ef565b82525050565b611e84816127dd565b82525050565b6000611e9582612690565b611e9f81856126b3565b935083602082028501611eb18561266b565b8060005b85811015611eed5784840389528151611ece8582611e49565b9450611ed9836126a6565b925060208a01995050600181019050611eb5565b50829750879550505050505092915050565b611f0881612801565b82525050565b6000611f1a83856126e0565b9350611f27838584612837565b611f30836129b0565b840190509392505050565b6000611f4783856126f1565b9350611f54838584612837565b82840190509392505050565b6000611f6b8261269b565b611f7581856126cf565b9350611f85818560208601612846565b611f8e816129b0565b840191505092915050565b6000611fa48261269b565b611fae81856126e0565b9350611fbe818560208601612846565b611fc7816129b0565b840191505092915050565b60008154611fdf81612879565b611fe981866126e0565b94506001821660008114612004576001811461201657612049565b60ff1983168652602086019350612049565b61201f8561267b565b60005b8381101561204157815481890152600182019150602081019050612022565b808801955050505b50505092915050565b6000815461205f81612879565b61206981866126f1565b945060018216600081146120845760018114612095576120c8565b60ff198316865281860193506120c8565b61209e8561267b565b60005b838110156120c0578154818901526001820191506020810190506120a1565b838801955050505b50505092915050565b60006120de6020836126e0565b91507f546869732067616d626c6520697320616c726561647920636f6d706c657465646000830152602082019050919050565b600061211e6026836126e0565b91507f4f776e61626c653a206e6577206f776e657220697320746865207a65726f206160008301527f64647265737300000000000000000000000000000000000000000000000000006020830152604082019050919050565b60006121846014836126e0565b91507f4661696c656420746f2073656e642045746865720000000000000000000000006000830152602082019050919050565b60006121c46038836126e0565b91507f4f6e6c7920746865206d616e61676572206f66207468652067616d626c65206360008301527f616e206578656375746520746869732066756e6374696f6e00000000000000006020830152604082019050919050565b600061222a6036836126e0565b91507f4f6e6c7920746865206f776e6572206f66207468652067616d626c652063616e60008301527f206578656375746520746869732066756e6374696f6e000000000000000000006020830152604082019050919050565b6000612290601c836126e0565b91507f596f75206d7573742073656c65637420612076616c6964207465616d000000006000830152602082019050919050565b60006122d06000836126c4565b9150600082019050919050565b60006122ea6025836126e0565b91507f4d696e696d756d20616d6f756e7420746f2067616d626c6520697320302e303060008301527f32206574680000000000000000000000000000000000000000000000000000006020830152604082019050919050565b600060608301600083015161235b6000860182611e5d565b50602083015184820360208601526123738282611f60565b91505060408301516123886040860182612393565b508091505092915050565b61239c8161282d565b82525050565b6123ab8161282d565b82525050565b60006123be828486611f3b565b91508190509392505050565b60006123d68284612052565b915081905092915050565b60006123ec826122c3565b9150819050919050565b600060208201905061240b6000830184611e7b565b92915050565b60006020820190506124266000830184611e6c565b92915050565b60006060820190506124416000830186611e6c565b81810360208301526124538185611f99565b905061246260408301846123a2565b949350505050565b600060208201905081810360008301526124848184611e8a565b905092915050565b60006020820190506124a16000830184611eff565b92915050565b600060208201905081810360008301526124c2818486611f0e565b90509392505050565b600060208201905081810360008301526124e58184611f99565b905092915050565b600060208201905081810360008301526125078184611fd2565b905092915050565b60006020820190508181036000830152612528816120d1565b9050919050565b6000602082019050818103600083015261254881612111565b9050919050565b6000602082019050818103600083015261256881612177565b9050919050565b60006020820190508181036000830152612588816121b7565b9050919050565b600060208201905081810360008301526125a88161221d565b9050919050565b600060208201905081810360008301526125c881612283565b9050919050565b600060208201905081810360008301526125e8816122dd565b9050919050565b600060208201905061260460008301846123a2565b92915050565b6000604051905081810181811067ffffffffffffffff8211171561263157612630612981565b5b8060405250919050565b600067ffffffffffffffff82111561265657612655612981565b5b601f19601f8301169050602081019050919050565b6000819050602082019050919050565b60008190508160005260206000209050919050565b600081519050919050565b600081519050919050565b6000602082019050919050565b600082825260208201905092915050565b600081905092915050565b600082825260208201905092915050565b600082825260208201905092915050565b600081905092915050565b60006127078261282d565b91506127128361282d565b9250827fffffffffffffffffffffffffffffffffffffffffffffffffffffffffffffffff03821115612747576127466128f4565b5b828201905092915050565b600061275d8261282d565b91506127688361282d565b92508261277857612777612923565b5b828204905092915050565b600061278e8261282d565b91506127998361282d565b9250817fffffffffffffffffffffffffffffffffffffffffffffffffffffffffffffffff04831182151516156127d2576127d16128f4565b5b828202905092915050565b60006127e88261280d565b9050919050565b60006127fa8261280d565b9050919050565b60008115159050919050565b600073ffffffffffffffffffffffffffffffffffffffff82169050919050565b6000819050919050565b82818337600083830152505050565b60005b83811015612864578082015181840152602081019050612849565b83811115612873576000848401525b50505050565b6000600282049050600182168061289157607f821691505b602082108114156128a5576128a4612952565b5b50919050565b60006128b68261282d565b91507fffffffffffffffffffffffffffffffffffffffffffffffffffffffffffffffff8214156128e9576128e86128f4565b5b600182019050919050565b7f4e487b7100000000000000000000000000000000000000000000000000000000600052601160045260246000fd5b7f4e487b7100000000000000000000000000000000000000000000000000000000600052601260045260246000fd5b7f4e487b7100000000000000000000000000000000000000000000000000000000600052602260045260246000fd5b7f4e487b7100000000000000000000000000000000000000000000000000000000600052604160045260246000fd5b6000601f19601f8301169050919050565b6129ca816127ef565b81146129d557600080fd5b50565b6129e18161282d565b81146129ec57600080fd5b5056fea2646970667358221220db35c4520e6b412a27d89fe14f0834b708bb7794b2ae7b48aafecff8b8887acf64736f6c63430008000033a26469706673582212209a32ca6e7c51a35877b4480f75ddbbe9836d00dcab1fbaa6fe46355456b0967564736f6c63430008000033","opcodes":"PUSH1 0x80 PUSH1 0x40 MSTORE CALLVALUE DUP1 ISZERO PUSH3 0x11 JUMPI PUSH1 0x0 DUP1 REVERT JUMPDEST POP CALLER PUSH1 0x1 PUSH1 0x0 PUSH2 0x100 EXP DUP2 SLOAD DUP2 PUSH20 0xFFFFFFFFFFFFFFFFFFFFFFFFFFFFFFFFFFFFFFFF MUL NOT AND SWAP1 DUP4 PUSH20 0xFFFFFFFFFFFFFFFFFFFFFFFFFFFFFFFFFFFFFFFF AND MUL OR SWAP1 SSTORE POP PUSH1 0x40 MLOAD DUP1 PUSH1 0x40 ADD PUSH1 0x40 MSTORE DUP1 PUSH1 0x5 DUP2 MSTORE PUSH1 0x20 ADD PUSH32 0x302E302E31000000000000000000000000000000000000000000000000000000 DUP2 MSTORE POP PUSH1 0x2 SWAP1 DUP1 MLOAD SWAP1 PUSH1 0x20 ADD SWAP1 PUSH3 0xA0 SWAP3 SWAP2 SWAP1 PUSH3 0xA7 JUMP JUMPDEST POP PUSH3 0x1BC JUMP JUMPDEST DUP3 DUP1 SLOAD PUSH3 0xB5 SWAP1 PUSH3 0x157 JUMP JUMPDEST SWAP1 PUSH1 0x0 MSTORE PUSH1 0x20 PUSH1 0x0 KECCAK256 SWAP1 PUSH1 0x1F ADD PUSH1 0x20 SWAP1 DIV DUP2 ADD SWAP3 DUP3 PUSH3 0xD9 JUMPI PUSH1 0x0 DUP6 SSTORE PUSH3 0x125 JUMP JUMPDEST DUP3 PUSH1 0x1F LT PUSH3 0xF4 JUMPI DUP1 MLOAD PUSH1 0xFF NOT AND DUP4 DUP1 ADD OR DUP6 SSTORE PUSH3 0x125 JUMP JUMPDEST DUP3 DUP1 ADD PUSH1 0x1 ADD DUP6 SSTORE DUP3 ISZERO PUSH3 0x125 JUMPI SWAP2 DUP3 ADD JUMPDEST DUP3 DUP2 GT ISZERO PUSH3 0x124 JUMPI DUP3 MLOAD DUP3 SSTORE SWAP2 PUSH1 0x20 ADD SWAP2 SWAP1 PUSH1 0x1 ADD SWAP1 PUSH3 0x107 JUMP JUMPDEST JUMPDEST POP SWAP1 POP PUSH3 0x134 SWAP2 SWAP1 PUSH3 0x138 JUMP JUMPDEST POP SWAP1 JUMP JUMPDEST JUMPDEST DUP1 DUP3 GT ISZERO PUSH3 0x153 JUMPI PUSH1 0x0 DUP2 PUSH1 0x0 SWAP1 SSTORE POP PUSH1 0x1 ADD PUSH3 0x139 JUMP JUMPDEST POP SWAP1 JUMP JUMPDEST PUSH1 0x0 PUSH1 0x2 DUP3 DIV SWAP1 POP PUSH1 0x1 DUP3 AND DUP1 PUSH3 0x170 JUMPI PUSH1 0x7F DUP3 AND SWAP2 POP JUMPDEST PUSH1 0x20 DUP3 LT DUP2 EQ ISZERO PUSH3 0x187 JUMPI PUSH3 0x186 PUSH3 0x18D JUMP JUMPDEST JUMPDEST POP SWAP2 SWAP1 POP JUMP JUMPDEST PUSH32 0x4E487B7100000000000000000000000000000000000000000000000000000000 PUSH1 0x0 MSTORE PUSH1 0x22 PUSH1 0x4 MSTORE PUSH1 0x24 PUSH1 0x0 REVERT JUMPDEST PUSH2 0x4338 DUP1 PUSH3 0x1CC PUSH1 0x0 CODECOPY PUSH1 0x0 RETURN INVALID PUSH1 0x80 PUSH1 0x40 MSTORE CALLVALUE DUP1 ISZERO PUSH3 0x11 JUMPI PUSH1 0x0 DUP1 REVERT JUMPDEST POP PUSH1 0x4 CALLDATASIZE LT PUSH3 0x94 JUMPI PUSH1 0x0 CALLDATALOAD PUSH1 0xE0 SHR DUP1 PUSH4 0x8DA5CB5B GT PUSH3 0x63 JUMPI DUP1 PUSH4 0x8DA5CB5B EQ PUSH3 0x109 JUMPI DUP1 PUSH4 0xD78D0F9F EQ PUSH3 0x12B JUMPI DUP1 PUSH4 0xF2FDE38B EQ PUSH3 0x14D JUMPI DUP1 PUSH4 0xFDF13C8E EQ PUSH3 0x16D JUMPI PUSH3 0x94 JUMP JUMPDEST DUP1 PUSH4 0x1B046AFE EQ PUSH3 0x99 JUMPI DUP1 PUSH4 0x54FD4D50 EQ PUSH3 0xB9 JUMPI DUP1 PUSH4 0x6F9FB98A EQ PUSH3 0xDB JUMPI DUP1 PUSH4 0x715018A6 EQ PUSH3 0xFD JUMPI JUMPDEST PUSH1 0x0 DUP1 REVERT JUMPDEST PUSH3 0xB7 PUSH1 0x4 DUP1 CALLDATASIZE SUB DUP2 ADD SWAP1 PUSH3 0xB1 SWAP2 SWAP1 PUSH3 0x89F JUMP JUMPDEST PUSH3 0x1A3 JUMP JUMPDEST STOP JUMPDEST PUSH3 0xC3 PUSH3 0x438 JUMP JUMPDEST PUSH1 0x40 MLOAD PUSH3 0xD2 SWAP2 SWAP1 PUSH3 0xEDA JUMP JUMPDEST PUSH1 0x40 MLOAD DUP1 SWAP2 SUB SWAP1 RETURN JUMPDEST PUSH3 0xE5 PUSH3 0x4CE JUMP JUMPDEST PUSH1 0x40 MLOAD PUSH3 0xF4 SWAP2 SWAP1 PUSH3 0xFA8 JUMP JUMPDEST PUSH1 0x40 MLOAD DUP1 SWAP2 SUB SWAP1 RETURN JUMPDEST PUSH3 0x107 PUSH3 0x4D6 JUMP JUMPDEST STOP JUMPDEST PUSH3 0x113 PUSH3 0x577 JUMP JUMPDEST PUSH1 0x40 MLOAD PUSH3 0x122 SWAP2 SWAP1 PUSH3 0xDC4 JUMP JUMPDEST PUSH1 0x40 MLOAD DUP1 SWAP2 SUB SWAP1 RETURN JUMPDEST PUSH3 0x135 PUSH3 0x59D JUMP JUMPDEST PUSH1 0x40 MLOAD PUSH3 0x144 SWAP2 SWAP1 PUSH3 0xE99 JUMP JUMPDEST PUSH1 0x40 MLOAD DUP1 SWAP2 SUB SWAP1 RETURN JUMPDEST PUSH3 0x16B PUSH1 0x4 DUP1 CALLDATASIZE SUB DUP2 ADD SWAP1 PUSH3 0x165 SWAP2 SWAP1 PUSH3 0x873 JUMP JUMPDEST PUSH3 0x62D JUMP JUMPDEST STOP JUMPDEST PUSH3 0x18B PUSH1 0x4 DUP1 CALLDATASIZE SUB DUP2 ADD SWAP1 PUSH3 0x185 SWAP2 SWAP1 PUSH3 0x99E JUMP JUMPDEST PUSH3 0x741 JUMP JUMPDEST PUSH1 0x40 MLOAD PUSH3 0x19A SWAP2 SWAP1 PUSH3 0xEBD JUMP JUMPDEST PUSH1 0x40 MLOAD DUP1 SWAP2 SUB SWAP1 RETURN JUMPDEST PUSH1 0x0 DUP6 MLOAD GT DUP1 ISZERO PUSH3 0x1B6 JUMPI POP PUSH1 0x0 DUP5 MLOAD GT JUMPDEST DUP1 ISZERO PUSH3 0x213 JUMPI POP DUP4 PUSH1 0x40 MLOAD PUSH1 0x20 ADD PUSH3 0x1D1 SWAP2 SWAP1 PUSH3 0xEDA JUMP JUMPDEST PUSH1 0x40 MLOAD PUSH1 0x20 DUP2 DUP4 SUB SUB DUP2 MSTORE SWAP1 PUSH1 0x40 MSTORE DUP1 MLOAD SWAP1 PUSH1 0x20 ADD KECCAK256 DUP6 PUSH1 0x40 MLOAD PUSH1 0x20 ADD PUSH3 0x1FA SWAP2 SWAP1 PUSH3 0xEDA JUMP JUMPDEST PUSH1 0x40 MLOAD PUSH1 0x20 DUP2 DUP4 SUB SUB DUP2 MSTORE SWAP1 PUSH1 0x40 MSTORE DUP1 MLOAD SWAP1 PUSH1 0x20 ADD KECCAK256 EQ ISZERO JUMPDEST DUP1 ISZERO PUSH3 0x221 JUMPI POP PUSH1 0x0 DUP4 MLOAD GT JUMPDEST PUSH3 0x263 JUMPI PUSH1 0x40 MLOAD PUSH32 0x8C379A000000000000000000000000000000000000000000000000000000000 DUP2 MSTORE PUSH1 0x4 ADD PUSH3 0x25A SWAP1 PUSH3 0xEFE JUMP JUMPDEST PUSH1 0x40 MLOAD DUP1 SWAP2 SUB SWAP1 REVERT JUMPDEST PUSH1 0x1F DUP6 MLOAD LT DUP1 ISZERO PUSH3 0x276 JUMPI POP PUSH1 0x1F DUP5 MLOAD LT JUMPDEST DUP1 ISZERO PUSH3 0x285 JUMPI POP PUSH2 0x12D DUP4 MLOAD LT JUMPDEST PUSH3 0x2C7 JUMPI PUSH1 0x40 MLOAD PUSH32 0x8C379A000000000000000000000000000000000000000000000000000000000 DUP2 MSTORE PUSH1 0x4 ADD PUSH3 0x2BE SWAP1 PUSH3 0xF64 JUMP JUMPDEST PUSH1 0x40 MLOAD DUP1 SWAP2 SUB SWAP1 REVERT JUMPDEST PUSH1 0x1F DUP3 MLOAD LT DUP1 ISZERO PUSH3 0x2DA JUMPI POP PUSH1 0x1F DUP2 MLOAD LT JUMPDEST PUSH3 0x31C JUMPI PUSH1 0x40 MLOAD PUSH32 0x8C379A000000000000000000000000000000000000000000000000000000000 DUP2 MSTORE PUSH1 0x4 ADD PUSH3 0x313 SWAP1 PUSH3 0xF42 JUMP JUMPDEST PUSH1 0x40 MLOAD DUP1 SWAP2 SUB SWAP1 REVERT JUMPDEST PUSH1 0x0 CALLER DUP7 DUP7 DUP7 DUP7 DUP7 PUSH1 0x1 PUSH1 0x0 SWAP1 SLOAD SWAP1 PUSH2 0x100 EXP SWAP1 DIV PUSH20 0xFFFFFFFFFFFFFFFFFFFFFFFFFFFFFFFFFFFFFFFF AND PUSH1 0x2 PUSH1 0x40 MLOAD PUSH3 0x357 SWAP1 PUSH3 0x7C5 JUMP JUMPDEST PUSH3 0x36A SWAP9 SWAP8 SWAP7 SWAP6 SWAP5 SWAP4 SWAP3 SWAP2 SWAP1 PUSH3 0xDE1 JUMP JUMPDEST PUSH1 0x40 MLOAD DUP1 SWAP2 SUB SWAP1 PUSH1 0x0 CREATE DUP1 ISZERO DUP1 ISZERO PUSH3 0x387 JUMPI RETURNDATASIZE PUSH1 0x0 DUP1 RETURNDATACOPY RETURNDATASIZE PUSH1 0x0 REVERT JUMPDEST POP SWAP1 POP DUP1 PUSH20 0xFFFFFFFFFFFFFFFFFFFFFFFFFFFFFFFFFFFFFFFF AND PUSH32 0x4807F95FC145722C41EFF243080A4915925EC88ACF2296FD1445632B42DC8887 PUSH1 0x40 MLOAD PUSH1 0x40 MLOAD DUP1 SWAP2 SUB SWAP1 LOG2 PUSH1 0x0 DUP2 SWAP1 DUP1 PUSH1 0x1 DUP2 SLOAD ADD DUP1 DUP3 SSTORE DUP1 SWAP2 POP POP PUSH1 0x1 SWAP1 SUB SWAP1 PUSH1 0x0 MSTORE PUSH1 0x20 PUSH1 0x0 KECCAK256 ADD PUSH1 0x0 SWAP1 SWAP2 SWAP1 SWAP2 SWAP1 SWAP2 PUSH2 0x100 EXP DUP2 SLOAD DUP2 PUSH20 0xFFFFFFFFFFFFFFFFFFFFFFFFFFFFFFFFFFFFFFFF MUL NOT AND SWAP1 DUP4 PUSH20 0xFFFFFFFFFFFFFFFFFFFFFFFFFFFFFFFFFFFFFFFF AND MUL OR SWAP1 SSTORE POP POP POP POP POP POP POP JUMP JUMPDEST PUSH1 0x2 DUP1 SLOAD PUSH3 0x447 SWAP1 PUSH3 0x1155 JUMP JUMPDEST DUP1 PUSH1 0x1F ADD PUSH1 0x20 DUP1 SWAP2 DIV MUL PUSH1 0x20 ADD PUSH1 0x40 MLOAD SWAP1 DUP2 ADD PUSH1 0x40 MSTORE DUP1 SWAP3 SWAP2 SWAP1 DUP2 DUP2 MSTORE PUSH1 0x20 ADD DUP3 DUP1 SLOAD PUSH3 0x475 SWAP1 PUSH3 0x1155 JUMP JUMPDEST DUP1 ISZERO PUSH3 0x4C6 JUMPI DUP1 PUSH1 0x1F LT PUSH3 0x49A JUMPI PUSH2 0x100 DUP1 DUP4 SLOAD DIV MUL DUP4 MSTORE SWAP2 PUSH1 0x20 ADD SWAP2 PUSH3 0x4C6 JUMP JUMPDEST DUP3 ADD SWAP2 SWAP1 PUSH1 0x0 MSTORE PUSH1 0x20 PUSH1 0x0 KECCAK256 SWAP1 JUMPDEST DUP2 SLOAD DUP2 MSTORE SWAP1 PUSH1 0x1 ADD SWAP1 PUSH1 0x20 ADD DUP1 DUP4 GT PUSH3 0x4A8 JUMPI DUP3 SWAP1 SUB PUSH1 0x1F AND DUP3 ADD SWAP2 JUMPDEST POP POP POP POP POP DUP2 JUMP JUMPDEST PUSH1 0x0 SELFBALANCE SWAP1 POP SWAP1 JUMP JUMPDEST PUSH1 0x1 PUSH1 0x0 SWAP1 SLOAD SWAP1 PUSH2 0x100 EXP SWAP1 DIV PUSH20 0xFFFFFFFFFFFFFFFFFFFFFFFFFFFFFFFFFFFFFFFF AND PUSH20 0xFFFFFFFFFFFFFFFFFFFFFFFFFFFFFFFFFFFFFFFF AND CALLER PUSH20 0xFFFFFFFFFFFFFFFFFFFFFFFFFFFFFFFFFFFFFFFF AND EQ PUSH3 0x569 JUMPI PUSH1 0x40 MLOAD PUSH32 0x8C379A000000000000000000000000000000000000000000000000000000000 DUP2 MSTORE PUSH1 0x4 ADD PUSH3 0x560 SWAP1 PUSH3 0xF86 JUMP JUMPDEST PUSH1 0x40 MLOAD DUP1 SWAP2 SUB SWAP1 REVERT JUMPDEST PUSH3 0x575 PUSH1 0x0 PUSH3 0x781 JUMP JUMPDEST JUMP JUMPDEST PUSH1 0x1 PUSH1 0x0 SWAP1 SLOAD SWAP1 PUSH2 0x100 EXP SWAP1 DIV PUSH20 0xFFFFFFFFFFFFFFFFFFFFFFFFFFFFFFFFFFFFFFFF AND DUP2 JUMP JUMPDEST PUSH1 0x60 PUSH1 0x0 DUP1 SLOAD DUP1 PUSH1 0x20 MUL PUSH1 0x20 ADD PUSH1 0x40 MLOAD SWAP1 DUP2 ADD PUSH1 0x40 MSTORE DUP1 SWAP3 SWAP2 SWAP1 DUP2 DUP2 MSTORE PUSH1 0x20 ADD DUP3 DUP1 SLOAD DUP1 ISZERO PUSH3 0x623 JUMPI PUSH1 0x20 MUL DUP3 ADD SWAP2 SWAP1 PUSH1 0x0 MSTORE PUSH1 0x20 PUSH1 0x0 KECCAK256 SWAP1 JUMPDEST DUP2 PUSH1 0x0 SWAP1 SLOAD SWAP1 PUSH2 0x100 EXP SWAP1 DIV PUSH20 0xFFFFFFFFFFFFFFFFFFFFFFFFFFFFFFFFFFFFFFFF AND PUSH20 0xFFFFFFFFFFFFFFFFFFFFFFFFFFFFFFFFFFFFFFFF AND DUP2 MSTORE PUSH1 0x20 ADD SWAP1 PUSH1 0x1 ADD SWAP1 DUP1 DUP4 GT PUSH3 0x5D8 JUMPI JUMPDEST POP POP POP POP POP SWAP1 POP SWAP1 JUMP JUMPDEST PUSH1 0x1 PUSH1 0x0 SWAP1 SLOAD SWAP1 PUSH2 0x100 EXP SWAP1 DIV PUSH20 0xFFFFFFFFFFFFFFFFFFFFFFFFFFFFFFFFFFFFFFFF AND PUSH20 0xFFFFFFFFFFFFFFFFFFFFFFFFFFFFFFFFFFFFFFFF AND CALLER PUSH20 0xFFFFFFFFFFFFFFFFFFFFFFFFFFFFFFFFFFFFFFFF AND EQ PUSH3 0x6C0 JUMPI PUSH1 0x40 MLOAD PUSH32 0x8C379A000000000000000000000000000000000000000000000000000000000 DUP2 MSTORE PUSH1 0x4 ADD PUSH3 0x6B7 SWAP1 PUSH3 0xF86 JUMP JUMPDEST PUSH1 0x40 MLOAD DUP1 SWAP2 SUB SWAP1 REVERT JUMPDEST PUSH1 0x0 PUSH20 0xFFFFFFFFFFFFFFFFFFFFFFFFFFFFFFFFFFFFFFFF AND DUP2 PUSH20 0xFFFFFFFFFFFFFFFFFFFFFFFFFFFFFFFFFFFFFFFF AND EQ ISZERO PUSH3 0x733 JUMPI PUSH1 0x40 MLOAD PUSH32 0x8C379A000000000000000000000000000000000000000000000000000000000 DUP2 MSTORE PUSH1 0x4 ADD PUSH3 0x72A SWAP1 PUSH3 0xF20 JUMP JUMPDEST PUSH1 0x40 MLOAD DUP1 SWAP2 SUB SWAP1 REVERT JUMPDEST PUSH3 0x73E DUP2 PUSH3 0x781 JUMP JUMPDEST POP JUMP JUMPDEST PUSH1 0x0 DUP2 DUP2 SLOAD DUP2 LT PUSH3 0x752 JUMPI PUSH1 0x0 DUP1 REVERT JUMPDEST SWAP1 PUSH1 0x0 MSTORE PUSH1 0x20 PUSH1 0x0 KECCAK256 ADD PUSH1 0x0 SWAP2 POP SLOAD SWAP1 PUSH2 0x100 EXP SWAP1 DIV PUSH20 0xFFFFFFFFFFFFFFFFFFFFFFFFFFFFFFFFFFFFFFFF AND DUP2 JUMP JUMPDEST DUP1 PUSH1 0x1 PUSH1 0x0 PUSH2 0x100 EXP DUP2 SLOAD DUP2 PUSH20 0xFFFFFFFFFFFFFFFFFFFFFFFFFFFFFFFFFFFFFFFF MUL NOT AND SWAP1 DUP4 PUSH20 0xFFFFFFFFFFFFFFFFFFFFFFFFFFFFFFFFFFFFFFFF AND MUL OR SWAP1 SSTORE POP POP JUMP JUMPDEST PUSH2 0x30D4 DUP1 PUSH3 0x122F DUP4 CODECOPY ADD SWAP1 JUMP JUMPDEST PUSH1 0x0 PUSH3 0x7EA PUSH3 0x7E4 DUP5 PUSH3 0xFF9 JUMP JUMPDEST PUSH3 0xFC5 JUMP JUMPDEST SWAP1 POP DUP3 DUP2 MSTORE PUSH1 0x20 DUP2 ADD DUP5 DUP5 DUP5 ADD GT ISZERO PUSH3 0x803 JUMPI PUSH1 0x0 DUP1 REVERT JUMPDEST PUSH3 0x810 DUP5 DUP3 DUP6 PUSH3 0x1110 JUMP JUMPDEST POP SWAP4 SWAP3 POP POP POP JUMP JUMPDEST PUSH1 0x0 DUP2 CALLDATALOAD SWAP1 POP PUSH3 0x829 DUP2 PUSH3 0x11FA JUMP JUMPDEST SWAP3 SWAP2 POP POP JUMP JUMPDEST PUSH1 0x0 DUP3 PUSH1 0x1F DUP4 ADD SLT PUSH3 0x841 JUMPI PUSH1 0x0 DUP1 REVERT JUMPDEST DUP2 CALLDATALOAD PUSH3 0x853 DUP5 DUP3 PUSH1 0x20 DUP7 ADD PUSH3 0x7D3 JUMP JUMPDEST SWAP2 POP POP SWAP3 SWAP2 POP POP JUMP JUMPDEST PUSH1 0x0 DUP2 CALLDATALOAD SWAP1 POP PUSH3 0x86D DUP2 PUSH3 0x1214 JUMP JUMPDEST SWAP3 SWAP2 POP POP JUMP JUMPDEST PUSH1 0x0 PUSH1 0x20 DUP3 DUP5 SUB SLT ISZERO PUSH3 0x886 JUMPI PUSH1 0x0 DUP1 REVERT JUMPDEST PUSH1 0x0 PUSH3 0x896 DUP5 DUP3 DUP6 ADD PUSH3 0x818 JUMP JUMPDEST SWAP2 POP POP SWAP3 SWAP2 POP POP JUMP JUMPDEST PUSH1 0x0 DUP1 PUSH1 0x0 DUP1 PUSH1 0x0 PUSH1 0xA0 DUP7 DUP9 SUB SLT ISZERO PUSH3 0x8B8 JUMPI PUSH1 0x0 DUP1 REVERT JUMPDEST PUSH1 0x0 DUP7 ADD CALLDATALOAD PUSH8 0xFFFFFFFFFFFFFFFF DUP2 GT ISZERO PUSH3 0x8D3 JUMPI PUSH1 0x0 DUP1 REVERT JUMPDEST PUSH3 0x8E1 DUP9 DUP3 DUP10 ADD PUSH3 0x82F JUMP JUMPDEST SWAP6 POP POP PUSH1 0x20 DUP7 ADD CALLDATALOAD PUSH8 0xFFFFFFFFFFFFFFFF DUP2 GT ISZERO PUSH3 0x8FF JUMPI PUSH1 0x0 DUP1 REVERT JUMPDEST PUSH3 0x90D DUP9 DUP3 DUP10 ADD PUSH3 0x82F JUMP JUMPDEST SWAP5 POP POP PUSH1 0x40 DUP7 ADD CALLDATALOAD PUSH8 0xFFFFFFFFFFFFFFFF DUP2 GT ISZERO PUSH3 0x92B JUMPI PUSH1 0x0 DUP1 REVERT JUMPDEST PUSH3 0x939 DUP9 DUP3 DUP10 ADD PUSH3 0x82F JUMP JUMPDEST SWAP4 POP POP PUSH1 0x60 DUP7 ADD CALLDATALOAD PUSH8 0xFFFFFFFFFFFFFFFF DUP2 GT ISZERO PUSH3 0x957 JUMPI PUSH1 0x0 DUP1 REVERT JUMPDEST PUSH3 0x965 DUP9 DUP3 DUP10 ADD PUSH3 0x82F JUMP JUMPDEST SWAP3 POP POP PUSH1 0x80 DUP7 ADD CALLDATALOAD PUSH8 0xFFFFFFFFFFFFFFFF DUP2 GT ISZERO PUSH3 0x983 JUMPI PUSH1 0x0 DUP1 REVERT JUMPDEST PUSH3 0x991 DUP9 DUP3 DUP10 ADD PUSH3 0x82F JUMP JUMPDEST SWAP2 POP POP SWAP3 SWAP6 POP SWAP3 SWAP6 SWAP1 SWAP4 POP JUMP JUMPDEST PUSH1 0x0 PUSH1 0x20 DUP3 DUP5 SUB SLT ISZERO PUSH3 0x9B1 JUMPI PUSH1 0x0 DUP1 REVERT JUMPDEST PUSH1 0x0 PUSH3 0x9C1 DUP5 DUP3 DUP6 ADD PUSH3 0x85C JUMP JUMPDEST SWAP2 POP POP SWAP3 SWAP2 POP POP JUMP JUMPDEST PUSH1 0x0 PUSH3 0x9D8 DUP4 DUP4 PUSH3 0xA70 JUMP JUMPDEST PUSH1 0x20 DUP4 ADD SWAP1 POP SWAP3 SWAP2 POP POP JUMP JUMPDEST PUSH3 0x9EF DUP2 PUSH3 0x10AA JUMP JUMPDEST DUP3 MSTORE POP POP JUMP JUMPDEST PUSH3 0xA00 DUP2 PUSH3 0x1096 JUMP JUMPDEST DUP3 MSTORE POP POP JUMP JUMPDEST PUSH1 0x0 PUSH3 0xA13 DUP3 PUSH3 0x1051 JUMP JUMPDEST PUSH3 0xA1F DUP2 DUP6 PUSH3 0x1074 JUMP JUMPDEST SWAP4 POP PUSH3 0xA2C DUP4 PUSH3 0x102C JUMP JUMPDEST DUP1 PUSH1 0x0 JUMPDEST DUP4 DUP2 LT ISZERO PUSH3 0xA63 JUMPI DUP2 MLOAD PUSH3 0xA47 DUP9 DUP3 PUSH3 0x9CA JUMP JUMPDEST SWAP8 POP PUSH3 0xA54 DUP4 PUSH3 0x1067 JUMP JUMPDEST SWAP3 POP POP PUSH1 0x1 DUP2 ADD SWAP1 POP PUSH3 0xA30 JUMP JUMPDEST POP DUP6 SWAP4 POP POP POP POP SWAP3 SWAP2 POP POP JUMP JUMPDEST PUSH3 0xA7B DUP2 PUSH3 0x10E8 JUMP JUMPDEST DUP3 MSTORE POP POP JUMP JUMPDEST PUSH3 0xA8C DUP2 PUSH3 0x10E8 JUMP JUMPDEST DUP3 MSTORE POP POP JUMP JUMPDEST PUSH1 0x0 PUSH3 0xA9F DUP3 PUSH3 0x105C JUMP JUMPDEST PUSH3 0xAAB DUP2 DUP6 PUSH3 0x1085 JUMP JUMPDEST SWAP4 POP PUSH3 0xABD DUP2 DUP6 PUSH1 0x20 DUP7 ADD PUSH3 0x111F JUMP JUMPDEST PUSH3 0xAC8 DUP2 PUSH3 0x11E9 JUMP JUMPDEST DUP5 ADD SWAP2 POP POP SWAP3 SWAP2 POP POP JUMP JUMPDEST PUSH1 0x0 DUP2 SLOAD PUSH3 0xAE2 DUP2 PUSH3 0x1155 JUMP JUMPDEST PUSH3 0xAEE DUP2 DUP7 PUSH3 0x1085 JUMP JUMPDEST SWAP5 POP PUSH1 0x1 DUP3 AND PUSH1 0x0 DUP2 EQ PUSH3 0xB0C JUMPI PUSH1 0x1 DUP2 EQ PUSH3 0xB1F JUMPI PUSH3 0xB56 JUMP JUMPDEST PUSH1 0xFF NOT DUP4 AND DUP7 MSTORE PUSH1 0x20 DUP7 ADD SWAP4 POP PUSH3 0xB56 JUMP JUMPDEST PUSH3 0xB2A DUP6 PUSH3 0x103C JUMP JUMPDEST PUSH1 0x0 JUMPDEST DUP4 DUP2 LT ISZERO PUSH3 0xB4E JUMPI DUP2 SLOAD DUP2 DUP10 ADD MSTORE PUSH1 0x1 DUP3 ADD SWAP2 POP PUSH1 0x20 DUP2 ADD SWAP1 POP PUSH3 0xB2D JUMP JUMPDEST DUP1 DUP9 ADD SWAP6 POP POP POP JUMPDEST POP POP POP SWAP3 SWAP2 POP POP JUMP JUMPDEST PUSH1 0x0 PUSH3 0xB6E PUSH1 0x3E DUP4 PUSH3 0x1085 JUMP JUMPDEST SWAP2 POP PUSH32 0x596F75206D75737420656E746572206174206C656173742074776F2064696666 PUSH1 0x0 DUP4 ADD MSTORE PUSH32 0x6572656E74207465616D732C20616E642061206465736372697074696F6E0000 PUSH1 0x20 DUP4 ADD MSTORE PUSH1 0x40 DUP3 ADD SWAP1 POP SWAP2 SWAP1 POP JUMP JUMPDEST PUSH1 0x0 PUSH3 0xBD6 PUSH1 0x26 DUP4 PUSH3 0x1085 JUMP JUMPDEST SWAP2 POP PUSH32 0x4F776E61626C653A206E6577206F776E657220697320746865207A65726F2061 PUSH1 0x0 DUP4 ADD MSTORE PUSH32 0x6464726573730000000000000000000000000000000000000000000000000000 PUSH1 0x20 DUP4 ADD MSTORE PUSH1 0x40 DUP3 ADD SWAP1 POP SWAP2 SWAP1 POP JUMP JUMPDEST PUSH1 0x0 PUSH3 0xC3E PUSH1 0x27 DUP4 PUSH3 0x1085 JUMP JUMPDEST SWAP2 POP PUSH32 0x546865206D6178206C656E677468206F66207479706520697320333020636861 PUSH1 0x0 DUP4 ADD MSTORE PUSH32 0x7261637465727300000000000000000000000000000000000000000000000000 PUSH1 0x20 DUP4 ADD MSTORE PUSH1 0x40 DUP3 ADD SWAP1 POP SWAP2 SWAP1 POP JUMP JUMPDEST PUSH1 0x0 PUSH3 0xCA6 PUSH1 0x62 DUP4 PUSH3 0x1085 JUMP JUMPDEST SWAP2 POP PUSH32 0x546865206D6178206C656E677468206F66207465616D206E616D657320697320 PUSH1 0x0 DUP4 ADD MSTORE PUSH32 0x3330206368617261637465727320616E6420746865206D6178206C656E677468 PUSH1 0x20 DUP4 ADD MSTORE PUSH32 0x20666F72206465736372697074696F6E20697320333030206368617261637465 PUSH1 0x40 DUP4 ADD MSTORE PUSH32 0x7273000000000000000000000000000000000000000000000000000000000000 PUSH1 0x60 DUP4 ADD MSTORE PUSH1 0x80 DUP3 ADD SWAP1 POP SWAP2 SWAP1 POP JUMP JUMPDEST PUSH1 0x0 PUSH3 0xD5A PUSH1 0x36 DUP4 PUSH3 0x1085 JUMP JUMPDEST SWAP2 POP PUSH32 0x4F6E6C7920746865206F776E6572206F66207468652067616D626C652063616E PUSH1 0x0 DUP4 ADD MSTORE PUSH32 0x206578656375746520746869732066756E6374696F6E00000000000000000000 PUSH1 0x20 DUP4 ADD MSTORE PUSH1 0x40 DUP3 ADD SWAP1 POP SWAP2 SWAP1 POP JUMP JUMPDEST PUSH3 0xDBE DUP2 PUSH3 0x10DE JUMP JUMPDEST DUP3 MSTORE POP POP JUMP JUMPDEST PUSH1 0x0 PUSH1 0x20 DUP3 ADD SWAP1 POP PUSH3 0xDDB PUSH1 0x0 DUP4 ADD DUP5 PUSH3 0x9E4 JUMP JUMPDEST SWAP3 SWAP2 POP POP JUMP JUMPDEST PUSH1 0x0 PUSH2 0x100 DUP3 ADD SWAP1 POP PUSH3 0xDF9 PUSH1 0x0 DUP4 ADD DUP12 PUSH3 0x9F5 JUMP JUMPDEST DUP2 DUP2 SUB PUSH1 0x20 DUP4 ADD MSTORE PUSH3 0xE0D DUP2 DUP11 PUSH3 0xA92 JUMP JUMPDEST SWAP1 POP DUP2 DUP2 SUB PUSH1 0x40 DUP4 ADD MSTORE PUSH3 0xE23 DUP2 DUP10 PUSH3 0xA92 JUMP JUMPDEST SWAP1 POP DUP2 DUP2 SUB PUSH1 0x60 DUP4 ADD MSTORE PUSH3 0xE39 DUP2 DUP9 PUSH3 0xA92 JUMP JUMPDEST SWAP1 POP DUP2 DUP2 SUB PUSH1 0x80 DUP4 ADD MSTORE PUSH3 0xE4F DUP2 DUP8 PUSH3 0xA92 JUMP JUMPDEST SWAP1 POP DUP2 DUP2 SUB PUSH1 0xA0 DUP4 ADD MSTORE PUSH3 0xE65 DUP2 DUP7 PUSH3 0xA92 JUMP JUMPDEST SWAP1 POP PUSH3 0xE76 PUSH1 0xC0 DUP4 ADD DUP6 PUSH3 0x9E4 JUMP JUMPDEST DUP2 DUP2 SUB PUSH1 0xE0 DUP4 ADD MSTORE PUSH3 0xE8A DUP2 DUP5 PUSH3 0xAD3 JUMP JUMPDEST SWAP1 POP SWAP10 SWAP9 POP POP POP POP POP POP POP POP POP JUMP JUMPDEST PUSH1 0x0 PUSH1 0x20 DUP3 ADD SWAP1 POP DUP2 DUP2 SUB PUSH1 0x0 DUP4 ADD MSTORE PUSH3 0xEB5 DUP2 DUP5 PUSH3 0xA06 JUMP JUMPDEST SWAP1 POP SWAP3 SWAP2 POP POP JUMP JUMPDEST PUSH1 0x0 PUSH1 0x20 DUP3 ADD SWAP1 POP PUSH3 0xED4 PUSH1 0x0 DUP4 ADD DUP5 PUSH3 0xA81 JUMP JUMPDEST SWAP3 SWAP2 POP POP JUMP JUMPDEST PUSH1 0x0 PUSH1 0x20 DUP3 ADD SWAP1 POP DUP2 DUP2 SUB PUSH1 0x0 DUP4 ADD MSTORE PUSH3 0xEF6 DUP2 DUP5 PUSH3 0xA92 JUMP JUMPDEST SWAP1 POP SWAP3 SWAP2 POP POP JUMP JUMPDEST PUSH1 0x0 PUSH1 0x20 DUP3 ADD SWAP1 POP DUP2 DUP2 SUB PUSH1 0x0 DUP4 ADD MSTORE PUSH3 0xF19 DUP2 PUSH3 0xB5F JUMP JUMPDEST SWAP1 POP SWAP2 SWAP1 POP JUMP JUMPDEST PUSH1 0x0 PUSH1 0x20 DUP3 ADD SWAP1 POP DUP2 DUP2 SUB PUSH1 0x0 DUP4 ADD MSTORE PUSH3 0xF3B DUP2 PUSH3 0xBC7 JUMP JUMPDEST SWAP1 POP SWAP2 SWAP1 POP JUMP JUMPDEST PUSH1 0x0 PUSH1 0x20 DUP3 ADD SWAP1 POP DUP2 DUP2 SUB PUSH1 0x0 DUP4 ADD MSTORE PUSH3 0xF5D DUP2 PUSH3 0xC2F JUMP JUMPDEST SWAP1 POP SWAP2 SWAP1 POP JUMP JUMPDEST PUSH1 0x0 PUSH1 0x20 DUP3 ADD SWAP1 POP DUP2 DUP2 SUB PUSH1 0x0 DUP4 ADD MSTORE PUSH3 0xF7F DUP2 PUSH3 0xC97 JUMP JUMPDEST SWAP1 POP SWAP2 SWAP1 POP JUMP JUMPDEST PUSH1 0x0 PUSH1 0x20 DUP3 ADD SWAP1 POP DUP2 DUP2 SUB PUSH1 0x0 DUP4 ADD MSTORE PUSH3 0xFA1 DUP2 PUSH3 0xD4B JUMP JUMPDEST SWAP1 POP SWAP2 SWAP1 POP JUMP JUMPDEST PUSH1 0x0 PUSH1 0x20 DUP3 ADD SWAP1 POP PUSH3 0xFBF PUSH1 0x0 DUP4 ADD DUP5 PUSH3 0xDB3 JUMP JUMPDEST SWAP3 SWAP2 POP POP JUMP JUMPDEST PUSH1 0x0 PUSH1 0x40 MLOAD SWAP1 POP DUP2 DUP2 ADD DUP2 DUP2 LT PUSH8 0xFFFFFFFFFFFFFFFF DUP3 GT OR ISZERO PUSH3 0xFEF JUMPI PUSH3 0xFEE PUSH3 0x11BA JUMP JUMPDEST JUMPDEST DUP1 PUSH1 0x40 MSTORE POP SWAP2 SWAP1 POP JUMP JUMPDEST PUSH1 0x0 PUSH8 0xFFFFFFFFFFFFFFFF DUP3 GT ISZERO PUSH3 0x1017 JUMPI PUSH3 0x1016 PUSH3 0x11BA JUMP JUMPDEST JUMPDEST PUSH1 0x1F NOT PUSH1 0x1F DUP4 ADD AND SWAP1 POP PUSH1 0x20 DUP2 ADD SWAP1 POP SWAP2 SWAP1 POP JUMP JUMPDEST PUSH1 0x0 DUP2 SWAP1 POP PUSH1 0x20 DUP3 ADD SWAP1 POP SWAP2 SWAP1 POP JUMP JUMPDEST PUSH1 0x0 DUP2 SWAP1 POP DUP2 PUSH1 0x0 MSTORE PUSH1 0x20 PUSH1 0x0 KECCAK256 SWAP1 POP SWAP2 SWAP1 POP JUMP JUMPDEST PUSH1 0x0 DUP2 MLOAD SWAP1 POP SWAP2 SWAP1 POP JUMP JUMPDEST PUSH1 0x0 DUP2 MLOAD SWAP1 POP SWAP2 SWAP1 POP JUMP JUMPDEST PUSH1 0x0 PUSH1 0x20 DUP3 ADD SWAP1 POP SWAP2 SWAP1 POP JUMP JUMPDEST PUSH1 0x0 DUP3 DUP3 MSTORE PUSH1 0x20 DUP3 ADD SWAP1 POP SWAP3 SWAP2 POP POP JUMP JUMPDEST PUSH1 0x0 DUP3 DUP3 MSTORE PUSH1 0x20 DUP3 ADD SWAP1 POP SWAP3 SWAP2 POP POP JUMP JUMPDEST PUSH1 0x0 PUSH3 0x10A3 DUP3 PUSH3 0x10BE JUMP JUMPDEST SWAP1 POP SWAP2 SWAP1 POP JUMP JUMPDEST PUSH1 0x0 PUSH3 0x10B7 DUP3 PUSH3 0x10BE JUMP JUMPDEST SWAP1 POP SWAP2 SWAP1 POP JUMP JUMPDEST PUSH1 0x0 PUSH20 0xFFFFFFFFFFFFFFFFFFFFFFFFFFFFFFFFFFFFFFFF DUP3 AND SWAP1 POP SWAP2 SWAP1 POP JUMP JUMPDEST PUSH1 0x0 DUP2 SWAP1 POP SWAP2 SWAP1 POP JUMP JUMPDEST PUSH1 0x0 PUSH3 0x10F5 DUP3 PUSH3 0x10FC JUMP JUMPDEST SWAP1 POP SWAP2 SWAP1 POP JUMP JUMPDEST PUSH1 0x0 PUSH3 0x1109 DUP3 PUSH3 0x10BE JUMP JUMPDEST SWAP1 POP SWAP2 SWAP1 POP JUMP JUMPDEST DUP3 DUP2 DUP4 CALLDATACOPY PUSH1 0x0 DUP4 DUP4 ADD MSTORE POP POP POP JUMP JUMPDEST PUSH1 0x0 JUMPDEST DUP4 DUP2 LT ISZERO PUSH3 0x113F JUMPI DUP1 DUP3 ADD MLOAD DUP2 DUP5 ADD MSTORE PUSH1 0x20 DUP2 ADD SWAP1 POP PUSH3 0x1122 JUMP JUMPDEST DUP4 DUP2 GT ISZERO PUSH3 0x114F JUMPI PUSH1 0x0 DUP5 DUP5 ADD MSTORE JUMPDEST POP POP POP POP JUMP JUMPDEST PUSH1 0x0 PUSH1 0x2 DUP3 DIV SWAP1 POP PUSH1 0x1 DUP3 AND DUP1 PUSH3 0x116E JUMPI PUSH1 0x7F DUP3 AND SWAP2 POP JUMPDEST PUSH1 0x20 DUP3 LT DUP2 EQ ISZERO PUSH3 0x1185 JUMPI PUSH3 0x1184 PUSH3 0x118B JUMP JUMPDEST JUMPDEST POP SWAP2 SWAP1 POP JUMP JUMPDEST PUSH32 0x4E487B7100000000000000000000000000000000000000000000000000000000 PUSH1 0x0 MSTORE PUSH1 0x22 PUSH1 0x4 MSTORE PUSH1 0x24 PUSH1 0x0 REVERT JUMPDEST PUSH32 0x4E487B7100000000000000000000000000000000000000000000000000000000 PUSH1 0x0 MSTORE PUSH1 0x41 PUSH1 0x4 MSTORE PUSH1 0x24 PUSH1 0x0 REVERT JUMPDEST PUSH1 0x0 PUSH1 0x1F NOT PUSH1 0x1F DUP4 ADD AND SWAP1 POP SWAP2 SWAP1 POP JUMP JUMPDEST PUSH3 0x1205 DUP2 PUSH3 0x10AA JUMP JUMPDEST DUP2 EQ PUSH3 0x1211 JUMPI PUSH1 0x0 DUP1 REVERT JUMPDEST POP JUMP JUMPDEST PUSH3 0x121F DUP2 PUSH3 0x10DE JUMP JUMPDEST DUP2 EQ PUSH3 0x122B JUMPI PUSH1 0x0 DUP1 REVERT JUMPDEST POP JUMP INVALID PUSH1 0x80 PUSH1 0x40 MSTORE CALLVALUE DUP1 ISZERO PUSH3 0x11 JUMPI PUSH1 0x0 DUP1 REVERT JUMPDEST POP PUSH1 0x40 MLOAD PUSH3 0x30D4 CODESIZE SUB DUP1 PUSH3 0x30D4 DUP4 CODECOPY DUP2 DUP2 ADD PUSH1 0x40 MSTORE DUP2 ADD SWAP1 PUSH3 0x37 SWAP2 SWAP1 PUSH3 0x399 JUMP JUMPDEST DUP2 PUSH1 0x5 PUSH1 0x1 PUSH2 0x100 EXP DUP2 SLOAD DUP2 PUSH20 0xFFFFFFFFFFFFFFFFFFFFFFFFFFFFFFFFFFFFFFFF MUL NOT AND SWAP1 DUP4 PUSH20 0xFFFFFFFFFFFFFFFFFFFFFFFFFFFFFFFFFFFFFFFF AND MUL OR SWAP1 SSTORE POP DUP8 PUSH1 0x6 PUSH1 0x0 PUSH2 0x100 EXP DUP2 SLOAD DUP2 PUSH20 0xFFFFFFFFFFFFFFFFFFFFFFFFFFFFFFFFFFFFFFFF MUL NOT AND SWAP1 DUP4 PUSH20 0xFFFFFFFFFFFFFFFFFFFFFFFFFFFFFFFFFFFFFFFF AND MUL OR SWAP1 SSTORE POP DUP7 PUSH1 0x7 SWAP1 DUP1 MLOAD SWAP1 PUSH1 0x20 ADD SWAP1 PUSH3 0xD1 SWAP3 SWAP2 SWAP1 PUSH3 0x249 JUMP JUMPDEST POP DUP6 PUSH1 0x8 SWAP1 DUP1 MLOAD SWAP1 PUSH1 0x20 ADD SWAP1 PUSH3 0xEA SWAP3 SWAP2 SWAP1 PUSH3 0x249 JUMP JUMPDEST POP DUP5 PUSH1 0x9 SWAP1 DUP1 MLOAD SWAP1 PUSH1 0x20 ADD SWAP1 PUSH3 0x103 SWAP3 SWAP2 SWAP1 PUSH3 0x249 JUMP JUMPDEST POP DUP4 PUSH1 0xA SWAP1 DUP1 MLOAD SWAP1 PUSH1 0x20 ADD SWAP1 PUSH3 0x11C SWAP3 SWAP2 SWAP1 PUSH3 0x249 JUMP JUMPDEST POP DUP3 PUSH1 0xB SWAP1 DUP1 MLOAD SWAP1 PUSH1 0x20 ADD SWAP1 PUSH3 0x135 SWAP3 SWAP2 SWAP1 PUSH3 0x249 JUMP JUMPDEST POP PUSH1 0x0 PUSH1 0x1 PUSH1 0x0 PUSH2 0x100 EXP DUP2 SLOAD DUP2 PUSH1 0xFF MUL NOT AND SWAP1 DUP4 ISZERO ISZERO MUL OR SWAP1 SSTORE POP PUSH1 0x0 PUSH1 0x3 PUSH1 0x0 PUSH2 0x100 EXP DUP2 SLOAD DUP2 PUSH1 0xFF MUL NOT AND SWAP1 DUP4 ISZERO ISZERO MUL OR SWAP1 SSTORE POP DUP1 PUSH1 0x0 SWAP1 DUP1 MLOAD SWAP1 PUSH1 0x20 ADD SWAP1 PUSH3 0x184 SWAP3 SWAP2 SWAP1 PUSH3 0x249 JUMP JUMPDEST POP PUSH1 0x5 PUSH1 0x1 SWAP1 SLOAD SWAP1 PUSH2 0x100 EXP SWAP1 DIV PUSH20 0xFFFFFFFFFFFFFFFFFFFFFFFFFFFFFFFFFFFFFFFF AND PUSH20 0xFFFFFFFFFFFFFFFFFFFFFFFFFFFFFFFFFFFFFFFF AND PUSH1 0x6 PUSH1 0x0 SWAP1 SLOAD SWAP1 PUSH2 0x100 EXP SWAP1 DIV PUSH20 0xFFFFFFFFFFFFFFFFFFFFFFFFFFFFFFFFFFFFFFFF AND PUSH20 0xFFFFFFFFFFFFFFFFFFFFFFFFFFFFFFFFFFFFFFFF AND EQ ISZERO PUSH3 0x21F JUMPI PUSH1 0x1 PUSH1 0x5 PUSH1 0x0 PUSH2 0x100 EXP DUP2 SLOAD DUP2 PUSH1 0xFF MUL NOT AND SWAP1 DUP4 ISZERO ISZERO MUL OR SWAP1 SSTORE POP PUSH3 0x23B JUMP JUMPDEST PUSH1 0x0 PUSH1 0x5 PUSH1 0x0 PUSH2 0x100 EXP DUP2 SLOAD DUP2 PUSH1 0xFF MUL NOT AND SWAP1 DUP4 ISZERO ISZERO MUL OR SWAP1 SSTORE POP JUMPDEST POP POP POP POP POP POP POP POP PUSH3 0x69F JUMP JUMPDEST DUP3 DUP1 SLOAD PUSH3 0x257 SWAP1 PUSH3 0x5D7 JUMP JUMPDEST SWAP1 PUSH1 0x0 MSTORE PUSH1 0x20 PUSH1 0x0 KECCAK256 SWAP1 PUSH1 0x1F ADD PUSH1 0x20 SWAP1 DIV DUP2 ADD SWAP3 DUP3 PUSH3 0x27B JUMPI PUSH1 0x0 DUP6 SSTORE PUSH3 0x2C7 JUMP JUMPDEST DUP3 PUSH1 0x1F LT PUSH3 0x296 JUMPI DUP1 MLOAD PUSH1 0xFF NOT AND DUP4 DUP1 ADD OR DUP6 SSTORE PUSH3 0x2C7 JUMP JUMPDEST DUP3 DUP1 ADD PUSH1 0x1 ADD DUP6 SSTORE DUP3 ISZERO PUSH3 0x2C7 JUMPI SWAP2 DUP3 ADD JUMPDEST DUP3 DUP2 GT ISZERO PUSH3 0x2C6 JUMPI DUP3 MLOAD DUP3 SSTORE SWAP2 PUSH1 0x20 ADD SWAP2 SWAP1 PUSH1 0x1 ADD SWAP1 PUSH3 0x2A9 JUMP JUMPDEST JUMPDEST POP SWAP1 POP PUSH3 0x2D6 SWAP2 SWAP1 PUSH3 0x2DA JUMP JUMPDEST POP SWAP1 JUMP JUMPDEST JUMPDEST DUP1 DUP3 GT ISZERO PUSH3 0x2F5 JUMPI PUSH1 0x0 DUP2 PUSH1 0x0 SWAP1 SSTORE POP PUSH1 0x1 ADD PUSH3 0x2DB JUMP JUMPDEST POP SWAP1 JUMP JUMPDEST PUSH1 0x0 PUSH3 0x310 PUSH3 0x30A DUP5 PUSH3 0x526 JUMP JUMPDEST PUSH3 0x4F2 JUMP JUMPDEST SWAP1 POP DUP3 DUP2 MSTORE PUSH1 0x20 DUP2 ADD DUP5 DUP5 DUP5 ADD GT ISZERO PUSH3 0x329 JUMPI PUSH1 0x0 DUP1 REVERT JUMPDEST PUSH3 0x336 DUP5 DUP3 DUP6 PUSH3 0x5A1 JUMP JUMPDEST POP SWAP4 SWAP3 POP POP POP JUMP JUMPDEST PUSH1 0x0 DUP2 MLOAD SWAP1 POP PUSH3 0x34F DUP2 PUSH3 0x66B JUMP JUMPDEST SWAP3 SWAP2 POP POP JUMP JUMPDEST PUSH1 0x0 DUP2 MLOAD SWAP1 POP PUSH3 0x366 DUP2 PUSH3 0x685 JUMP JUMPDEST SWAP3 SWAP2 POP POP JUMP JUMPDEST PUSH1 0x0 DUP3 PUSH1 0x1F DUP4 ADD SLT PUSH3 0x37E JUMPI PUSH1 0x0 DUP1 REVERT JUMPDEST DUP2 MLOAD PUSH3 0x390 DUP5 DUP3 PUSH1 0x20 DUP7 ADD PUSH3 0x2F9 JUMP JUMPDEST SWAP2 POP POP SWAP3 SWAP2 POP POP JUMP JUMPDEST PUSH1 0x0 DUP1 PUSH1 0x0 DUP1 PUSH1 0x0 DUP1 PUSH1 0x0 DUP1 PUSH2 0x100 DUP10 DUP12 SUB SLT ISZERO PUSH3 0x3B7 JUMPI PUSH1 0x0 DUP1 REVERT JUMPDEST PUSH1 0x0 PUSH3 0x3C7 DUP12 DUP3 DUP13 ADD PUSH3 0x33E JUMP JUMPDEST SWAP9 POP POP PUSH1 0x20 DUP10 ADD MLOAD PUSH8 0xFFFFFFFFFFFFFFFF DUP2 GT ISZERO PUSH3 0x3E5 JUMPI PUSH1 0x0 DUP1 REVERT JUMPDEST PUSH3 0x3F3 DUP12 DUP3 DUP13 ADD PUSH3 0x36C JUMP JUMPDEST SWAP8 POP POP PUSH1 0x40 DUP10 ADD MLOAD PUSH8 0xFFFFFFFFFFFFFFFF DUP2 GT ISZERO PUSH3 0x411 JUMPI PUSH1 0x0 DUP1 REVERT JUMPDEST PUSH3 0x41F DUP12 DUP3 DUP13 ADD PUSH3 0x36C JUMP JUMPDEST SWAP7 POP POP PUSH1 0x60 DUP10 ADD MLOAD PUSH8 0xFFFFFFFFFFFFFFFF DUP2 GT ISZERO PUSH3 0x43D JUMPI PUSH1 0x0 DUP1 REVERT JUMPDEST PUSH3 0x44B DUP12 DUP3 DUP13 ADD PUSH3 0x36C JUMP JUMPDEST SWAP6 POP POP PUSH1 0x80 DUP10 ADD MLOAD PUSH8 0xFFFFFFFFFFFFFFFF DUP2 GT ISZERO PUSH3 0x469 JUMPI PUSH1 0x0 DUP1 REVERT JUMPDEST PUSH3 0x477 DUP12 DUP3 DUP13 ADD PUSH3 0x36C JUMP JUMPDEST SWAP5 POP POP PUSH1 0xA0 DUP10 ADD MLOAD PUSH8 0xFFFFFFFFFFFFFFFF DUP2 GT ISZERO PUSH3 0x495 JUMPI PUSH1 0x0 DUP1 REVERT JUMPDEST PUSH3 0x4A3 DUP12 DUP3 DUP13 ADD PUSH3 0x36C JUMP JUMPDEST SWAP4 POP POP PUSH1 0xC0 PUSH3 0x4B6 DUP12 DUP3 DUP13 ADD PUSH3 0x355 JUMP JUMPDEST SWAP3 POP POP PUSH1 0xE0 DUP10 ADD MLOAD PUSH8 0xFFFFFFFFFFFFFFFF DUP2 GT ISZERO PUSH3 0x4D4 JUMPI PUSH1 0x0 DUP1 REVERT JUMPDEST PUSH3 0x4E2 DUP12 DUP3 DUP13 ADD PUSH3 0x36C JUMP JUMPDEST SWAP2 POP POP SWAP3 SWAP6 SWAP9 POP SWAP3 SWAP6 SWAP9 SWAP1 SWAP4 SWAP7 POP JUMP JUMPDEST PUSH1 0x0 PUSH1 0x40 MLOAD SWAP1 POP DUP2 DUP2 ADD DUP2 DUP2 LT PUSH8 0xFFFFFFFFFFFFFFFF DUP3 GT OR ISZERO PUSH3 0x51C JUMPI PUSH3 0x51B PUSH3 0x63C JUMP JUMPDEST JUMPDEST DUP1 PUSH1 0x40 MSTORE POP SWAP2 SWAP1 POP JUMP JUMPDEST PUSH1 0x0 PUSH8 0xFFFFFFFFFFFFFFFF DUP3 GT ISZERO PUSH3 0x544 JUMPI PUSH3 0x543 PUSH3 0x63C JUMP JUMPDEST JUMPDEST PUSH1 0x1F NOT PUSH1 0x1F DUP4 ADD AND SWAP1 POP PUSH1 0x20 DUP2 ADD SWAP1 POP SWAP2 SWAP1 POP JUMP JUMPDEST PUSH1 0x0 PUSH3 0x566 DUP3 PUSH3 0x581 JUMP JUMPDEST SWAP1 POP SWAP2 SWAP1 POP JUMP JUMPDEST PUSH1 0x0 PUSH3 0x57A DUP3 PUSH3 0x581 JUMP JUMPDEST SWAP1 POP SWAP2 SWAP1 POP JUMP JUMPDEST PUSH1 0x0 PUSH20 0xFFFFFFFFFFFFFFFFFFFFFFFFFFFFFFFFFFFFFFFF DUP3 AND SWAP1 POP SWAP2 SWAP1 POP JUMP JUMPDEST PUSH1 0x0 JUMPDEST DUP4 DUP2 LT ISZERO PUSH3 0x5C1 JUMPI DUP1 DUP3 ADD MLOAD DUP2 DUP5 ADD MSTORE PUSH1 0x20 DUP2 ADD SWAP1 POP PUSH3 0x5A4 JUMP JUMPDEST DUP4 DUP2 GT ISZERO PUSH3 0x5D1 JUMPI PUSH1 0x0 DUP5 DUP5 ADD MSTORE JUMPDEST POP POP POP POP JUMP JUMPDEST PUSH1 0x0 PUSH1 0x2 DUP3 DIV SWAP1 POP PUSH1 0x1 DUP3 AND DUP1 PUSH3 0x5F0 JUMPI PUSH1 0x7F DUP3 AND SWAP2 POP JUMPDEST PUSH1 0x20 DUP3 LT DUP2 EQ ISZERO PUSH3 0x607 JUMPI PUSH3 0x606 PUSH3 0x60D JUMP JUMPDEST JUMPDEST POP SWAP2 SWAP1 POP JUMP JUMPDEST PUSH32 0x4E487B7100000000000000000000000000000000000000000000000000000000 PUSH1 0x0 MSTORE PUSH1 0x22 PUSH1 0x4 MSTORE PUSH1 0x24 PUSH1 0x0 REVERT JUMPDEST PUSH32 0x4E487B7100000000000000000000000000000000000000000000000000000000 PUSH1 0x0 MSTORE PUSH1 0x41 PUSH1 0x4 MSTORE PUSH1 0x24 PUSH1 0x0 REVERT JUMPDEST PUSH3 0x676 DUP2 PUSH3 0x559 JUMP JUMPDEST DUP2 EQ PUSH3 0x682 JUMPI PUSH1 0x0 DUP1 REVERT JUMPDEST POP JUMP JUMPDEST PUSH3 0x690 DUP2 PUSH3 0x56D JUMP JUMPDEST DUP2 EQ PUSH3 0x69C JUMPI PUSH1 0x0 DUP1 REVERT JUMPDEST POP JUMP JUMPDEST PUSH2 0x2A25 DUP1 PUSH3 0x6AF PUSH1 0x0 CODECOPY PUSH1 0x0 RETURN INVALID PUSH1 0x80 PUSH1 0x40 MSTORE PUSH1 0x4 CALLDATASIZE LT PUSH2 0x135 JUMPI PUSH1 0x0 CALLDATALOAD PUSH1 0xE0 SHR DUP1 PUSH4 0x985CB113 GT PUSH2 0xAB JUMPI DUP1 PUSH4 0xBFD4D92E GT PUSH2 0x6F JUMPI DUP1 PUSH4 0xBFD4D92E EQ PUSH2 0x3C3 JUMPI DUP1 PUSH4 0xC1E77C4A EQ PUSH2 0x3EE JUMPI DUP1 PUSH4 0xCC1F044D EQ PUSH2 0x42D JUMPI DUP1 PUSH4 0xDFBF53AE EQ PUSH2 0x458 JUMPI DUP1 PUSH4 0xEFDECCFF EQ PUSH2 0x483 JUMPI DUP1 PUSH4 0xF2FDE38B EQ PUSH2 0x4AE JUMPI PUSH2 0x135 JUMP JUMPDEST DUP1 PUSH4 0x985CB113 EQ PUSH2 0x2EC JUMPI DUP1 PUSH4 0x9D9A7FE9 EQ PUSH2 0x317 JUMPI DUP1 PUSH4 0xA4457C88 EQ PUSH2 0x342 JUMPI DUP1 PUSH4 0xACA22739 EQ PUSH2 0x36D JUMPI DUP1 PUSH4 0xBD0873AA EQ PUSH2 0x398 JUMPI PUSH2 0x135 JUMP JUMPDEST DUP1 PUSH4 0x54FD4D50 GT PUSH2 0xFD JUMPI DUP1 PUSH4 0x54FD4D50 EQ PUSH2 0x1FE JUMPI DUP1 PUSH4 0x6F9FB98A EQ PUSH2 0x229 JUMPI DUP1 PUSH4 0x715018A6 EQ PUSH2 0x254 JUMPI DUP1 PUSH4 0x7580F81D EQ PUSH2 0x26B JUMPI DUP1 PUSH4 0x8DA5CB5B EQ PUSH2 0x296 JUMPI DUP1 PUSH4 0x980389E0 EQ PUSH2 0x2C1 JUMPI PUSH2 0x135 JUMP JUMPDEST DUP1 PUSH4 0x7EBEF70 EQ PUSH2 0x13A JUMPI DUP1 PUSH4 0x12EF3512 EQ PUSH2 0x163 JUMPI DUP1 PUSH4 0x3D80B532 EQ PUSH2 0x17A JUMPI DUP1 PUSH4 0x481C6A75 EQ PUSH2 0x1B7 JUMPI DUP1 PUSH4 0x54F2C521 EQ PUSH2 0x1E2 JUMPI JUMPDEST PUSH1 0x0 DUP1 REVERT JUMPDEST CALLVALUE DUP1 ISZERO PUSH2 0x146 JUMPI PUSH1 0x0 DUP1 REVERT JUMPDEST POP PUSH2 0x161 PUSH1 0x4 DUP1 CALLDATASIZE SUB DUP2 ADD SWAP1 PUSH2 0x15C SWAP2 SWAP1 PUSH2 0x1D9A JUMP JUMPDEST PUSH2 0x4D7 JUMP JUMPDEST STOP JUMPDEST CALLVALUE DUP1 ISZERO PUSH2 0x16F JUMPI PUSH1 0x0 DUP1 REVERT JUMPDEST POP PUSH2 0x178 PUSH2 0xAFC JUMP JUMPDEST STOP JUMPDEST CALLVALUE DUP1 ISZERO PUSH2 0x186 JUMPI PUSH1 0x0 DUP1 REVERT JUMPDEST POP PUSH2 0x1A1 PUSH1 0x4 DUP1 CALLDATASIZE SUB DUP2 ADD SWAP1 PUSH2 0x19C SWAP2 SWAP1 PUSH2 0x1DDF JUMP JUMPDEST PUSH2 0xF1D JUMP JUMPDEST PUSH1 0x40 MLOAD PUSH2 0x1AE SWAP2 SWAP1 PUSH2 0x25EF JUMP JUMPDEST PUSH1 0x40 MLOAD DUP1 SWAP2 SUB SWAP1 RETURN JUMPDEST CALLVALUE DUP1 ISZERO PUSH2 0x1C3 JUMPI PUSH1 0x0 DUP1 REVERT JUMPDEST POP PUSH2 0x1CC PUSH2 0xF4B JUMP JUMPDEST PUSH1 0x40 MLOAD PUSH2 0x1D9 SWAP2 SWAP1 PUSH2 0x23F6 JUMP JUMPDEST PUSH1 0x40 MLOAD DUP1 SWAP2 SUB SWAP1 RETURN JUMPDEST PUSH2 0x1FC PUSH1 0x4 DUP1 CALLDATASIZE SUB DUP2 ADD SWAP1 PUSH2 0x1F7 SWAP2 SWAP1 PUSH2 0x1D9A JUMP JUMPDEST PUSH2 0xF71 JUMP JUMPDEST STOP JUMPDEST CALLVALUE DUP1 ISZERO PUSH2 0x20A JUMPI PUSH1 0x0 DUP1 REVERT JUMPDEST POP PUSH2 0x213 PUSH2 0x1244 JUMP JUMPDEST PUSH1 0x40 MLOAD PUSH2 0x220 SWAP2 SWAP1 PUSH2 0x24CB JUMP JUMPDEST PUSH1 0x40 MLOAD DUP1 SWAP2 SUB SWAP1 RETURN JUMPDEST CALLVALUE DUP1 ISZERO PUSH2 0x235 JUMPI PUSH1 0x0 DUP1 REVERT JUMPDEST POP PUSH2 0x23E PUSH2 0x12D2 JUMP JUMPDEST PUSH1 0x40 MLOAD PUSH2 0x24B SWAP2 SWAP1 PUSH2 0x25EF JUMP JUMPDEST PUSH1 0x40 MLOAD DUP1 SWAP2 SUB SWAP1 RETURN JUMPDEST CALLVALUE DUP1 ISZERO PUSH2 0x260 JUMPI PUSH1 0x0 DUP1 REVERT JUMPDEST POP PUSH2 0x269 PUSH2 0x12DA JUMP JUMPDEST STOP JUMPDEST CALLVALUE DUP1 ISZERO PUSH2 0x277 JUMPI PUSH1 0x0 DUP1 REVERT JUMPDEST POP PUSH2 0x280 PUSH2 0x1376 JUMP JUMPDEST PUSH1 0x40 MLOAD PUSH2 0x28D SWAP2 SWAP1 PUSH2 0x246A JUMP JUMPDEST PUSH1 0x40 MLOAD DUP1 SWAP2 SUB SWAP1 RETURN JUMPDEST CALLVALUE DUP1 ISZERO PUSH2 0x2A2 JUMPI PUSH1 0x0 DUP1 REVERT JUMPDEST POP PUSH2 0x2AB PUSH2 0x14C7 JUMP JUMPDEST PUSH1 0x40 MLOAD PUSH2 0x2B8 SWAP2 SWAP1 PUSH2 0x2411 JUMP JUMPDEST PUSH1 0x40 MLOAD DUP1 SWAP2 SUB SWAP1 RETURN JUMPDEST CALLVALUE DUP1 ISZERO PUSH2 0x2CD JUMPI PUSH1 0x0 DUP1 REVERT JUMPDEST POP PUSH2 0x2D6 PUSH2 0x14ED JUMP JUMPDEST PUSH1 0x40 MLOAD PUSH2 0x2E3 SWAP2 SWAP1 PUSH2 0x248C JUMP JUMPDEST PUSH1 0x40 MLOAD DUP1 SWAP2 SUB SWAP1 RETURN JUMPDEST CALLVALUE DUP1 ISZERO PUSH2 0x2F8 JUMPI PUSH1 0x0 DUP1 REVERT JUMPDEST POP PUSH2 0x301 PUSH2 0x1500 JUMP JUMPDEST PUSH1 0x40 MLOAD PUSH2 0x30E SWAP2 SWAP1 PUSH2 0x24CB JUMP JUMPDEST PUSH1 0x40 MLOAD DUP1 SWAP2 SUB SWAP1 RETURN JUMPDEST CALLVALUE DUP1 ISZERO PUSH2 0x323 JUMPI PUSH1 0x0 DUP1 REVERT JUMPDEST POP PUSH2 0x32C PUSH2 0x158E JUMP JUMPDEST PUSH1 0x40 MLOAD PUSH2 0x339 SWAP2 SWAP1 PUSH2 0x248C JUMP JUMPDEST PUSH1 0x40 MLOAD DUP1 SWAP2 SUB SWAP1 RETURN JUMPDEST CALLVALUE DUP1 ISZERO PUSH2 0x34E JUMPI PUSH1 0x0 DUP1 REVERT JUMPDEST POP PUSH2 0x357 PUSH2 0x15A1 JUMP JUMPDEST PUSH1 0x40 MLOAD PUSH2 0x364 SWAP2 SWAP1 PUSH2 0x248C JUMP JUMPDEST PUSH1 0x40 MLOAD DUP1 SWAP2 SUB SWAP1 RETURN JUMPDEST CALLVALUE DUP1 ISZERO PUSH2 0x379 JUMPI PUSH1 0x0 DUP1 REVERT JUMPDEST POP PUSH2 0x382 PUSH2 0x15B4 JUMP JUMPDEST PUSH1 0x40 MLOAD PUSH2 0x38F SWAP2 SWAP1 PUSH2 0x24CB JUMP JUMPDEST PUSH1 0x40 MLOAD DUP1 SWAP2 SUB SWAP1 RETURN JUMPDEST CALLVALUE DUP1 ISZERO PUSH2 0x3A4 JUMPI PUSH1 0x0 DUP1 REVERT JUMPDEST POP PUSH2 0x3AD PUSH2 0x1642 JUMP JUMPDEST PUSH1 0x40 MLOAD PUSH2 0x3BA SWAP2 SWAP1 PUSH2 0x25EF JUMP JUMPDEST PUSH1 0x40 MLOAD DUP1 SWAP2 SUB SWAP1 RETURN JUMPDEST CALLVALUE DUP1 ISZERO PUSH2 0x3CF JUMPI PUSH1 0x0 DUP1 REVERT JUMPDEST POP PUSH2 0x3D8 PUSH2 0x1648 JUMP JUMPDEST PUSH1 0x40 MLOAD PUSH2 0x3E5 SWAP2 SWAP1 PUSH2 0x24CB JUMP JUMPDEST PUSH1 0x40 MLOAD DUP1 SWAP2 SUB SWAP1 RETURN JUMPDEST CALLVALUE DUP1 ISZERO PUSH2 0x3FA JUMPI PUSH1 0x0 DUP1 REVERT JUMPDEST POP PUSH2 0x415 PUSH1 0x4 DUP1 CALLDATASIZE SUB DUP2 ADD SWAP1 PUSH2 0x410 SWAP2 SWAP1 PUSH2 0x1E20 JUMP JUMPDEST PUSH2 0x16D6 JUMP JUMPDEST PUSH1 0x40 MLOAD PUSH2 0x424 SWAP4 SWAP3 SWAP2 SWAP1 PUSH2 0x242C JUMP JUMPDEST PUSH1 0x40 MLOAD DUP1 SWAP2 SUB SWAP1 RETURN JUMPDEST CALLVALUE DUP1 ISZERO PUSH2 0x439 JUMPI PUSH1 0x0 DUP1 REVERT JUMPDEST POP PUSH2 0x442 PUSH2 0x17B8 JUMP JUMPDEST PUSH1 0x40 MLOAD PUSH2 0x44F SWAP2 SWAP1 PUSH2 0x24CB JUMP JUMPDEST PUSH1 0x40 MLOAD DUP1 SWAP2 SUB SWAP1 RETURN JUMPDEST CALLVALUE DUP1 ISZERO PUSH2 0x464 JUMPI PUSH1 0x0 DUP1 REVERT JUMPDEST POP PUSH2 0x46D PUSH2 0x1846 JUMP JUMPDEST PUSH1 0x40 MLOAD PUSH2 0x47A SWAP2 SWAP1 PUSH2 0x24CB JUMP JUMPDEST PUSH1 0x40 MLOAD DUP1 SWAP2 SUB SWAP1 RETURN JUMPDEST CALLVALUE DUP1 ISZERO PUSH2 0x48F JUMPI PUSH1 0x0 DUP1 REVERT JUMPDEST POP PUSH2 0x498 PUSH2 0x18D4 JUMP JUMPDEST PUSH1 0x40 MLOAD PUSH2 0x4A5 SWAP2 SWAP1 PUSH2 0x24CB JUMP JUMPDEST PUSH1 0x40 MLOAD DUP1 SWAP2 SUB SWAP1 RETURN JUMPDEST CALLVALUE DUP1 ISZERO PUSH2 0x4BA JUMPI PUSH1 0x0 DUP1 REVERT JUMPDEST POP PUSH2 0x4D5 PUSH1 0x4 DUP1 CALLDATASIZE SUB DUP2 ADD SWAP1 PUSH2 0x4D0 SWAP2 SWAP1 PUSH2 0x1D71 JUMP JUMPDEST PUSH2 0x1962 JUMP JUMPDEST STOP JUMPDEST PUSH1 0x6 PUSH1 0x0 SWAP1 SLOAD SWAP1 PUSH2 0x100 EXP SWAP1 DIV PUSH20 0xFFFFFFFFFFFFFFFFFFFFFFFFFFFFFFFFFFFFFFFF AND PUSH20 0xFFFFFFFFFFFFFFFFFFFFFFFFFFFFFFFFFFFFFFFF AND CALLER PUSH20 0xFFFFFFFFFFFFFFFFFFFFFFFFFFFFFFFFFFFFFFFF AND EQ DUP1 PUSH2 0x580 JUMPI POP PUSH1 0x5 PUSH1 0x1 SWAP1 SLOAD SWAP1 PUSH2 0x100 EXP SWAP1 DIV PUSH20 0xFFFFFFFFFFFFFFFFFFFFFFFFFFFFFFFFFFFFFFFF AND PUSH20 0xFFFFFFFFFFFFFFFFFFFFFFFFFFFFFFFFFFFFFFFF AND CALLER PUSH20 0xFFFFFFFFFFFFFFFFFFFFFFFFFFFFFFFFFFFFFFFF AND EQ JUMPDEST PUSH2 0x5BF JUMPI PUSH1 0x40 MLOAD PUSH32 0x8C379A000000000000000000000000000000000000000000000000000000000 DUP2 MSTORE PUSH1 0x4 ADD PUSH2 0x5B6 SWAP1 PUSH2 0x256F JUMP JUMPDEST PUSH1 0x40 MLOAD DUP1 SWAP2 SUB SWAP1 REVERT JUMPDEST PUSH1 0x1 PUSH1 0x0 SWAP1 SLOAD SWAP1 PUSH2 0x100 EXP SWAP1 DIV PUSH1 0xFF AND ISZERO PUSH2 0x60F JUMPI PUSH1 0x40 MLOAD PUSH32 0x8C379A000000000000000000000000000000000000000000000000000000000 DUP2 MSTORE PUSH1 0x4 ADD PUSH2 0x606 SWAP1 PUSH2 0x250F JUMP JUMPDEST PUSH1 0x40 MLOAD DUP1 SWAP2 SUB SWAP1 REVERT JUMPDEST DUP2 DUP2 DUP2 DUP2 PUSH1 0x40 MLOAD PUSH1 0x20 ADD PUSH2 0x624 SWAP3 SWAP2 SWAP1 PUSH2 0x24A7 JUMP JUMPDEST PUSH1 0x40 MLOAD PUSH1 0x20 DUP2 DUP4 SUB SUB DUP2 MSTORE SWAP1 PUSH1 0x40 MSTORE DUP1 MLOAD SWAP1 PUSH1 0x20 ADD KECCAK256 PUSH1 0x7 PUSH1 0x40 MLOAD PUSH1 0x20 ADD PUSH2 0x64C SWAP2 SWAP1 PUSH2 0x24ED JUMP JUMPDEST PUSH1 0x40 MLOAD PUSH1 0x20 DUP2 DUP4 SUB SUB DUP2 MSTORE SWAP1 PUSH1 0x40 MSTORE DUP1 MLOAD SWAP1 PUSH1 0x20 ADD KECCAK256 EQ DUP1 PUSH2 0x6BC JUMPI POP DUP2 DUP2 PUSH1 0x40 MLOAD PUSH1 0x20 ADD PUSH2 0x67C SWAP3 SWAP2 SWAP1 PUSH2 0x24A7 JUMP JUMPDEST PUSH1 0x40 MLOAD PUSH1 0x20 DUP2 DUP4 SUB SUB DUP2 MSTORE SWAP1 PUSH1 0x40 MSTORE DUP1 MLOAD SWAP1 PUSH1 0x20 ADD KECCAK256 PUSH1 0x8 PUSH1 0x40 MLOAD PUSH1 0x20 ADD PUSH2 0x6A4 SWAP2 SWAP1 PUSH2 0x24ED JUMP JUMPDEST PUSH1 0x40 MLOAD PUSH1 0x20 DUP2 DUP4 SUB SUB DUP2 MSTORE SWAP1 PUSH1 0x40 MSTORE DUP1 MLOAD SWAP1 PUSH1 0x20 ADD KECCAK256 EQ JUMPDEST PUSH2 0x6FB JUMPI PUSH1 0x40 MLOAD PUSH32 0x8C379A000000000000000000000000000000000000000000000000000000000 DUP2 MSTORE PUSH1 0x4 ADD PUSH2 0x6F2 SWAP1 PUSH2 0x25AF JUMP JUMPDEST PUSH1 0x40 MLOAD DUP1 SWAP2 SUB SWAP1 REVERT JUMPDEST PUSH1 0x0 SELFBALANCE SWAP1 POP PUSH1 0x0 JUMPDEST PUSH1 0xC DUP1 SLOAD SWAP1 POP DUP2 LT ISZERO PUSH2 0x97F JUMPI DUP6 DUP6 PUSH1 0x40 MLOAD PUSH1 0x20 ADD PUSH2 0x723 SWAP3 SWAP2 SWAP1 PUSH2 0x24A7 JUMP JUMPDEST PUSH1 0x40 MLOAD PUSH1 0x20 DUP2 DUP4 SUB SUB DUP2 MSTORE SWAP1 PUSH1 0x40 MSTORE DUP1 MLOAD SWAP1 PUSH1 0x20 ADD KECCAK256 PUSH1 0xC DUP3 DUP2 SLOAD DUP2 LT PUSH2 0x773 JUMPI PUSH32 0x4E487B7100000000000000000000000000000000000000000000000000000000 PUSH1 0x0 MSTORE PUSH1 0x32 PUSH1 0x4 MSTORE PUSH1 0x24 PUSH1 0x0 REVERT JUMPDEST SWAP1 PUSH1 0x0 MSTORE PUSH1 0x20 PUSH1 0x0 KECCAK256 SWAP1 PUSH1 0x3 MUL ADD PUSH1 0x1 ADD PUSH1 0x40 MLOAD PUSH1 0x20 ADD PUSH2 0x794 SWAP2 SWAP1 PUSH2 0x24ED JUMP JUMPDEST PUSH1 0x40 MLOAD PUSH1 0x20 DUP2 DUP4 SUB SUB DUP2 MSTORE SWAP1 PUSH1 0x40 MSTORE DUP1 MLOAD SWAP1 PUSH1 0x20 ADD KECCAK256 EQ ISZERO PUSH2 0x966 JUMPI PUSH1 0x0 PUSH1 0xC DUP3 DUP2 SLOAD DUP2 LT PUSH2 0x7EC JUMPI PUSH32 0x4E487B7100000000000000000000000000000000000000000000000000000000 PUSH1 0x0 MSTORE PUSH1 0x32 PUSH1 0x4 MSTORE PUSH1 0x24 PUSH1 0x0 REVERT JUMPDEST SWAP1 PUSH1 0x0 MSTORE PUSH1 0x20 PUSH1 0x0 KECCAK256 SWAP1 PUSH1 0x3 MUL ADD PUSH1 0x0 ADD PUSH1 0x0 SWAP1 SLOAD SWAP1 PUSH2 0x100 EXP SWAP1 DIV PUSH20 0xFFFFFFFFFFFFFFFFFFFFFFFFFFFFFFFFFFFFFFFF AND PUSH20 0xFFFFFFFFFFFFFFFFFFFFFFFFFFFFFFFFFFFFFFFF AND PUSH1 0xD DUP9 DUP9 PUSH1 0x40 MLOAD PUSH2 0x846 SWAP3 SWAP2 SWAP1 PUSH2 0x23B1 JUMP JUMPDEST SWAP1 DUP2 MSTORE PUSH1 0x20 ADD PUSH1 0x40 MLOAD DUP1 SWAP2 SUB SWAP1 KECCAK256 SLOAD PUSH1 0x64 PUSH1 0x63 PUSH1 0xC DUP7 DUP2 SLOAD DUP2 LT PUSH2 0x893 JUMPI PUSH32 0x4E487B7100000000000000000000000000000000000000000000000000000000 PUSH1 0x0 MSTORE PUSH1 0x32 PUSH1 0x4 MSTORE PUSH1 0x24 PUSH1 0x0 REVERT JUMPDEST SWAP1 PUSH1 0x0 MSTORE PUSH1 0x20 PUSH1 0x0 KECCAK256 SWAP1 PUSH1 0x3 MUL ADD PUSH1 0x2 ADD SLOAD DUP8 PUSH2 0x8B0 SWAP2 SWAP1 PUSH2 0x2783 JUMP JUMPDEST PUSH2 0x8BA SWAP2 SWAP1 PUSH2 0x2783 JUMP JUMPDEST PUSH2 0x8C4 SWAP2 SWAP1 PUSH2 0x2752 JUMP JUMPDEST PUSH2 0x8CE SWAP2 SWAP1 PUSH2 0x2752 JUMP JUMPDEST PUSH1 0x40 MLOAD PUSH2 0x8DA SWAP1 PUSH2 0x23E1 JUMP JUMPDEST PUSH1 0x0 PUSH1 0x40 MLOAD DUP1 DUP4 SUB DUP2 DUP6 DUP8 GAS CALL SWAP3 POP POP POP RETURNDATASIZE DUP1 PUSH1 0x0 DUP2 EQ PUSH2 0x917 JUMPI PUSH1 0x40 MLOAD SWAP2 POP PUSH1 0x1F NOT PUSH1 0x3F RETURNDATASIZE ADD AND DUP3 ADD PUSH1 0x40 MSTORE RETURNDATASIZE DUP3 MSTORE RETURNDATASIZE PUSH1 0x0 PUSH1 0x20 DUP5 ADD RETURNDATACOPY PUSH2 0x91C JUMP JUMPDEST PUSH1 0x60 SWAP2 POP JUMPDEST POP POP SWAP1 POP DUP1 PUSH2 0x960 JUMPI PUSH1 0x40 MLOAD PUSH32 0x8C379A000000000000000000000000000000000000000000000000000000000 DUP2 MSTORE PUSH1 0x4 ADD PUSH2 0x957 SWAP1 PUSH2 0x254F JUMP JUMPDEST PUSH1 0x40 MLOAD DUP1 SWAP2 SUB SWAP1 REVERT JUMPDEST POP PUSH2 0x96B JUMP JUMPDEST PUSH2 0x96C JUMP JUMPDEST JUMPDEST DUP1 DUP1 PUSH2 0x977 SWAP1 PUSH2 0x28AB JUMP JUMPDEST SWAP2 POP POP PUSH2 0x703 JUMP JUMPDEST POP DUP5 DUP5 PUSH1 0x4 SWAP2 SWAP1 PUSH2 0x991 SWAP3 SWAP2 SWAP1 PUSH2 0x1AB2 JUMP JUMPDEST POP PUSH1 0x0 PUSH1 0xD PUSH1 0x7 PUSH1 0x40 MLOAD PUSH2 0x9A5 SWAP2 SWAP1 PUSH2 0x23CA JUMP JUMPDEST SWAP1 DUP2 MSTORE PUSH1 0x20 ADD PUSH1 0x40 MLOAD DUP1 SWAP2 SUB SWAP1 KECCAK256 DUP2 SWAP1 SSTORE POP PUSH1 0x0 PUSH1 0xD PUSH1 0x8 PUSH1 0x40 MLOAD PUSH2 0x9CA SWAP2 SWAP1 PUSH2 0x23CA JUMP JUMPDEST SWAP1 DUP2 MSTORE PUSH1 0x20 ADD PUSH1 0x40 MLOAD DUP1 SWAP2 SUB SWAP1 KECCAK256 DUP2 SWAP1 SSTORE POP PUSH1 0xC PUSH1 0x0 PUSH2 0x9EA SWAP2 SWAP1 PUSH2 0x1B38 JUMP JUMPDEST PUSH1 0x1 DUP1 PUSH1 0x0 PUSH2 0x100 EXP DUP2 SLOAD DUP2 PUSH1 0xFF MUL NOT AND SWAP1 DUP4 ISZERO ISZERO MUL OR SWAP1 SSTORE POP PUSH1 0x1 PUSH1 0x3 PUSH1 0x0 PUSH2 0x100 EXP DUP2 SLOAD DUP2 PUSH1 0xFF MUL NOT AND SWAP1 DUP4 ISZERO ISZERO MUL OR SWAP1 SSTORE POP TIMESTAMP PUSH1 0x2 DUP2 SWAP1 SSTORE POP PUSH1 0x0 PUSH1 0x5 PUSH1 0x1 SWAP1 SLOAD SWAP1 PUSH2 0x100 EXP SWAP1 DIV PUSH20 0xFFFFFFFFFFFFFFFFFFFFFFFFFFFFFFFFFFFFFFFF AND PUSH20 0xFFFFFFFFFFFFFFFFFFFFFFFFFFFFFFFFFFFFFFFF AND SELFBALANCE PUSH1 0x40 MLOAD PUSH2 0xA6E SWAP1 PUSH2 0x23E1 JUMP JUMPDEST PUSH1 0x0 PUSH1 0x40 MLOAD DUP1 DUP4 SUB DUP2 DUP6 DUP8 GAS CALL SWAP3 POP POP POP RETURNDATASIZE DUP1 PUSH1 0x0 DUP2 EQ PUSH2 0xAAB JUMPI PUSH1 0x40 MLOAD SWAP2 POP PUSH1 0x1F NOT PUSH1 0x3F RETURNDATASIZE ADD AND DUP3 ADD PUSH1 0x40 MSTORE RETURNDATASIZE DUP3 MSTORE RETURNDATASIZE PUSH1 0x0 PUSH1 0x20 DUP5 ADD RETURNDATACOPY PUSH2 0xAB0 JUMP JUMPDEST PUSH1 0x60 SWAP2 POP JUMPDEST POP POP SWAP1 POP DUP1 PUSH2 0xAF4 JUMPI PUSH1 0x40 MLOAD PUSH32 0x8C379A000000000000000000000000000000000000000000000000000000000 DUP2 MSTORE PUSH1 0x4 ADD PUSH2 0xAEB SWAP1 PUSH2 0x254F JUMP JUMPDEST PUSH1 0x40 MLOAD DUP1 SWAP2 SUB SWAP1 REVERT JUMPDEST POP POP POP POP POP POP JUMP JUMPDEST PUSH1 0x6 PUSH1 0x0 SWAP1 SLOAD SWAP1 PUSH2 0x100 EXP SWAP1 DIV PUSH20 0xFFFFFFFFFFFFFFFFFFFFFFFFFFFFFFFFFFFFFFFF AND PUSH20 0xFFFFFFFFFFFFFFFFFFFFFFFFFFFFFFFFFFFFFFFF AND CALLER PUSH20 0xFFFFFFFFFFFFFFFFFFFFFFFFFFFFFFFFFFFFFFFF AND EQ DUP1 PUSH2 0xBA5 JUMPI POP PUSH1 0x5 PUSH1 0x1 SWAP1 SLOAD SWAP1 PUSH2 0x100 EXP SWAP1 DIV PUSH20 0xFFFFFFFFFFFFFFFFFFFFFFFFFFFFFFFFFFFFFFFF AND PUSH20 0xFFFFFFFFFFFFFFFFFFFFFFFFFFFFFFFFFFFFFFFF AND CALLER PUSH20 0xFFFFFFFFFFFFFFFFFFFFFFFFFFFFFFFFFFFFFFFF AND EQ JUMPDEST PUSH2 0xBE4 JUMPI PUSH1 0x40 MLOAD PUSH32 0x8C379A000000000000000000000000000000000000000000000000000000000 DUP2 MSTORE PUSH1 0x4 ADD PUSH2 0xBDB SWAP1 PUSH2 0x256F JUMP JUMPDEST PUSH1 0x40 MLOAD DUP1 SWAP2 SUB SWAP1 REVERT JUMPDEST PUSH1 0x1 PUSH1 0x0 SWAP1 SLOAD SWAP1 PUSH2 0x100 EXP SWAP1 DIV PUSH1 0xFF AND ISZERO PUSH2 0xC34 JUMPI PUSH1 0x40 MLOAD PUSH32 0x8C379A000000000000000000000000000000000000000000000000000000000 DUP2 MSTORE PUSH1 0x4 ADD PUSH2 0xC2B SWAP1 PUSH2 0x250F JUMP JUMPDEST PUSH1 0x40 MLOAD DUP1 SWAP2 SUB SWAP1 REVERT JUMPDEST PUSH1 0x0 JUMPDEST PUSH1 0xC DUP1 SLOAD SWAP1 POP DUP2 LT ISZERO PUSH2 0xDD2 JUMPI PUSH1 0x0 PUSH1 0xC DUP3 DUP2 SLOAD DUP2 LT PUSH2 0xC80 JUMPI PUSH32 0x4E487B7100000000000000000000000000000000000000000000000000000000 PUSH1 0x0 MSTORE PUSH1 0x32 PUSH1 0x4 MSTORE PUSH1 0x24 PUSH1 0x0 REVERT JUMPDEST SWAP1 PUSH1 0x0 MSTORE PUSH1 0x20 PUSH1 0x0 KECCAK256 SWAP1 PUSH1 0x3 MUL ADD PUSH1 0x0 ADD PUSH1 0x0 SWAP1 SLOAD SWAP1 PUSH2 0x100 EXP SWAP1 DIV PUSH20 0xFFFFFFFFFFFFFFFFFFFFFFFFFFFFFFFFFFFFFFFF AND PUSH20 0xFFFFFFFFFFFFFFFFFFFFFFFFFFFFFFFFFFFFFFFF AND PUSH1 0x64 PUSH1 0x63 PUSH1 0xC DUP6 DUP2 SLOAD DUP2 LT PUSH2 0xD06 JUMPI PUSH32 0x4E487B7100000000000000000000000000000000000000000000000000000000 PUSH1 0x0 MSTORE PUSH1 0x32 PUSH1 0x4 MSTORE PUSH1 0x24 PUSH1 0x0 REVERT JUMPDEST SWAP1 PUSH1 0x0 MSTORE PUSH1 0x20 PUSH1 0x0 KECCAK256 SWAP1 PUSH1 0x3 MUL ADD PUSH1 0x2 ADD SLOAD PUSH2 0xD22 SWAP2 SWAP1 PUSH2 0x2783 JUMP JUMPDEST PUSH2 0xD2C SWAP2 SWAP1 PUSH2 0x2752 JUMP JUMPDEST PUSH1 0x40 MLOAD PUSH2 0xD38 SWAP1 PUSH2 0x23E1 JUMP JUMPDEST PUSH1 0x0 PUSH1 0x40 MLOAD DUP1 DUP4 SUB DUP2 DUP6 DUP8 GAS CALL SWAP3 POP POP POP RETURNDATASIZE DUP1 PUSH1 0x0 DUP2 EQ PUSH2 0xD75 JUMPI PUSH1 0x40 MLOAD SWAP2 POP PUSH1 0x1F NOT PUSH1 0x3F RETURNDATASIZE ADD AND DUP3 ADD PUSH1 0x40 MSTORE RETURNDATASIZE DUP3 MSTORE RETURNDATASIZE PUSH1 0x0 PUSH1 0x20 DUP5 ADD RETURNDATACOPY PUSH2 0xD7A JUMP JUMPDEST PUSH1 0x60 SWAP2 POP JUMPDEST POP POP SWAP1 POP DUP1 PUSH2 0xDBE JUMPI PUSH1 0x40 MLOAD PUSH32 0x8C379A000000000000000000000000000000000000000000000000000000000 DUP2 MSTORE PUSH1 0x4 ADD PUSH2 0xDB5 SWAP1 PUSH2 0x254F JUMP JUMPDEST PUSH1 0x40 MLOAD DUP1 SWAP2 SUB SWAP1 REVERT JUMPDEST POP DUP1 DUP1 PUSH2 0xDCA SWAP1 PUSH2 0x28AB JUMP JUMPDEST SWAP2 POP POP PUSH2 0xC37 JUMP JUMPDEST POP PUSH1 0x0 PUSH1 0xD PUSH1 0x7 PUSH1 0x40 MLOAD PUSH2 0xDE6 SWAP2 SWAP1 PUSH2 0x23CA JUMP JUMPDEST SWAP1 DUP2 MSTORE PUSH1 0x20 ADD PUSH1 0x40 MLOAD DUP1 SWAP2 SUB SWAP1 KECCAK256 DUP2 SWAP1 SSTORE POP PUSH1 0x0 PUSH1 0xD PUSH1 0x8 PUSH1 0x40 MLOAD PUSH2 0xE0B SWAP2 SWAP1 PUSH2 0x23CA JUMP JUMPDEST SWAP1 DUP2 MSTORE PUSH1 0x20 ADD PUSH1 0x40 MLOAD DUP1 SWAP2 SUB SWAP1 KECCAK256 DUP2 SWAP1 SSTORE POP PUSH1 0xC PUSH1 0x0 PUSH2 0xE2B SWAP2 SWAP1 PUSH2 0x1B38 JUMP JUMPDEST PUSH1 0x1 DUP1 PUSH1 0x0 PUSH2 0x100 EXP DUP2 SLOAD DUP2 PUSH1 0xFF MUL NOT AND SWAP1 DUP4 ISZERO ISZERO MUL OR SWAP1 SSTORE POP TIMESTAMP PUSH1 0x2 DUP2 SWAP1 SSTORE POP PUSH1 0x0 PUSH1 0x5 PUSH1 0x1 SWAP1 SLOAD SWAP1 PUSH2 0x100 EXP SWAP1 DIV PUSH20 0xFFFFFFFFFFFFFFFFFFFFFFFFFFFFFFFFFFFFFFFF AND PUSH20 0xFFFFFFFFFFFFFFFFFFFFFFFFFFFFFFFFFFFFFFFF AND SELFBALANCE PUSH1 0x40 MLOAD PUSH2 0xE94 SWAP1 PUSH2 0x23E1 JUMP JUMPDEST PUSH1 0x0 PUSH1 0x40 MLOAD DUP1 DUP4 SUB DUP2 DUP6 DUP8 GAS CALL SWAP3 POP POP POP RETURNDATASIZE DUP1 PUSH1 0x0 DUP2 EQ PUSH2 0xED1 JUMPI PUSH1 0x40 MLOAD SWAP2 POP PUSH1 0x1F NOT PUSH1 0x3F RETURNDATASIZE ADD AND DUP3 ADD PUSH1 0x40 MSTORE RETURNDATASIZE DUP3 MSTORE RETURNDATASIZE PUSH1 0x0 PUSH1 0x20 DUP5 ADD RETURNDATACOPY PUSH2 0xED6 JUMP JUMPDEST PUSH1 0x60 SWAP2 POP JUMPDEST POP POP SWAP1 POP DUP1 PUSH2 0xF1A JUMPI PUSH1 0x40 MLOAD PUSH32 0x8C379A000000000000000000000000000000000000000000000000000000000 DUP2 MSTORE PUSH1 0x4 ADD PUSH2 0xF11 SWAP1 PUSH2 0x254F JUMP JUMPDEST PUSH1 0x40 MLOAD DUP1 SWAP2 SUB SWAP1 REVERT JUMPDEST POP JUMP JUMPDEST PUSH1 0xD DUP2 DUP1 MLOAD PUSH1 0x20 DUP2 ADD DUP3 ADD DUP1 MLOAD DUP5 DUP3 MSTORE PUSH1 0x20 DUP4 ADD PUSH1 0x20 DUP6 ADD KECCAK256 DUP2 DUP4 MSTORE DUP1 SWAP6 POP POP POP POP POP POP PUSH1 0x0 SWAP2 POP SWAP1 POP SLOAD DUP2 JUMP JUMPDEST PUSH1 0x6 PUSH1 0x0 SWAP1 SLOAD SWAP1 PUSH2 0x100 EXP SWAP1 DIV PUSH20 0xFFFFFFFFFFFFFFFFFFFFFFFFFFFFFFFFFFFFFFFF AND DUP2 JUMP JUMPDEST DUP2 DUP2 DUP2 DUP2 PUSH1 0x40 MLOAD PUSH1 0x20 ADD PUSH2 0xF86 SWAP3 SWAP2 SWAP1 PUSH2 0x24A7 JUMP JUMPDEST PUSH1 0x40 MLOAD PUSH1 0x20 DUP2 DUP4 SUB SUB DUP2 MSTORE SWAP1 PUSH1 0x40 MSTORE DUP1 MLOAD SWAP1 PUSH1 0x20 ADD KECCAK256 PUSH1 0x7 PUSH1 0x40 MLOAD PUSH1 0x20 ADD PUSH2 0xFAE SWAP2 SWAP1 PUSH2 0x24ED JUMP JUMPDEST PUSH1 0x40 MLOAD PUSH1 0x20 DUP2 DUP4 SUB SUB DUP2 MSTORE SWAP1 PUSH1 0x40 MSTORE DUP1 MLOAD SWAP1 PUSH1 0x20 ADD KECCAK256 EQ DUP1 PUSH2 0x101E JUMPI POP DUP2 DUP2 PUSH1 0x40 MLOAD PUSH1 0x20 ADD PUSH2 0xFDE SWAP3 SWAP2 SWAP1 PUSH2 0x24A7 JUMP JUMPDEST PUSH1 0x40 MLOAD PUSH1 0x20 DUP2 DUP4 SUB SUB DUP2 MSTORE SWAP1 PUSH1 0x40 MSTORE DUP1 MLOAD SWAP1 PUSH1 0x20 ADD KECCAK256 PUSH1 0x8 PUSH1 0x40 MLOAD PUSH1 0x20 ADD PUSH2 0x1006 SWAP2 SWAP1 PUSH2 0x24ED JUMP JUMPDEST PUSH1 0x40 MLOAD PUSH1 0x20 DUP2 DUP4 SUB SUB DUP2 MSTORE SWAP1 PUSH1 0x40 MSTORE DUP1 MLOAD SWAP1 PUSH1 0x20 ADD KECCAK256 EQ JUMPDEST PUSH2 0x105D JUMPI PUSH1 0x40 MLOAD PUSH32 0x8C379A000000000000000000000000000000000000000000000000000000000 DUP2 MSTORE PUSH1 0x4 ADD PUSH2 0x1054 SWAP1 PUSH2 0x25AF JUMP JUMPDEST PUSH1 0x40 MLOAD DUP1 SWAP2 SUB SWAP1 REVERT JUMPDEST PUSH1 0x1 PUSH1 0x0 SWAP1 SLOAD SWAP1 PUSH2 0x100 EXP SWAP1 DIV PUSH1 0xFF AND ISZERO PUSH2 0x10AD JUMPI PUSH1 0x40 MLOAD PUSH32 0x8C379A000000000000000000000000000000000000000000000000000000000 DUP2 MSTORE PUSH1 0x4 ADD PUSH2 0x10A4 SWAP1 PUSH2 0x250F JUMP JUMPDEST PUSH1 0x40 MLOAD DUP1 SWAP2 SUB SWAP1 REVERT JUMPDEST PUSH7 0x71AFD498D0000 CALLVALUE LT ISZERO PUSH2 0x10F7 JUMPI PUSH1 0x40 MLOAD PUSH32 0x8C379A000000000000000000000000000000000000000000000000000000000 DUP2 MSTORE PUSH1 0x4 ADD PUSH2 0x10EE SWAP1 PUSH2 0x25CF JUMP JUMPDEST PUSH1 0x40 MLOAD DUP1 SWAP2 SUB SWAP1 REVERT JUMPDEST PUSH1 0xC PUSH1 0x40 MLOAD DUP1 PUSH1 0x60 ADD PUSH1 0x40 MSTORE DUP1 CALLER PUSH20 0xFFFFFFFFFFFFFFFFFFFFFFFFFFFFFFFFFFFFFFFF AND DUP2 MSTORE PUSH1 0x20 ADD DUP7 DUP7 DUP1 DUP1 PUSH1 0x1F ADD PUSH1 0x20 DUP1 SWAP2 DIV MUL PUSH1 0x20 ADD PUSH1 0x40 MLOAD SWAP1 DUP2 ADD PUSH1 0x40 MSTORE DUP1 SWAP4 SWAP3 SWAP2 SWAP1 DUP2 DUP2 MSTORE PUSH1 0x20 ADD DUP4 DUP4 DUP1 DUP3 DUP5 CALLDATACOPY PUSH1 0x0 DUP2 DUP5 ADD MSTORE PUSH1 0x1F NOT PUSH1 0x1F DUP3 ADD AND SWAP1 POP DUP1 DUP4 ADD SWAP3 POP POP POP POP POP POP POP DUP2 MSTORE PUSH1 0x20 ADD CALLVALUE DUP2 MSTORE POP SWAP1 DUP1 PUSH1 0x1 DUP2 SLOAD ADD DUP1 DUP3 SSTORE DUP1 SWAP2 POP POP PUSH1 0x1 SWAP1 SUB SWAP1 PUSH1 0x0 MSTORE PUSH1 0x20 PUSH1 0x0 KECCAK256 SWAP1 PUSH1 0x3 MUL ADD PUSH1 0x0 SWAP1 SWAP2 SWAP1 SWAP2 SWAP1 SWAP2 POP PUSH1 0x0 DUP3 ADD MLOAD DUP2 PUSH1 0x0 ADD PUSH1 0x0 PUSH2 0x100 EXP DUP2 SLOAD DUP2 PUSH20 0xFFFFFFFFFFFFFFFFFFFFFFFFFFFFFFFFFFFFFFFF MUL NOT AND SWAP1 DUP4 PUSH20 0xFFFFFFFFFFFFFFFFFFFFFFFFFFFFFFFFFFFFFFFF AND MUL OR SWAP1 SSTORE POP PUSH1 0x20 DUP3 ADD MLOAD DUP2 PUSH1 0x1 ADD SWAP1 DUP1 MLOAD SWAP1 PUSH1 0x20 ADD SWAP1 PUSH2 0x11FA SWAP3 SWAP2 SWAP1 PUSH2 0x1B5C JUMP JUMPDEST POP PUSH1 0x40 DUP3 ADD MLOAD DUP2 PUSH1 0x2 ADD SSTORE POP POP CALLVALUE PUSH1 0xD DUP6 DUP6 PUSH1 0x40 MLOAD PUSH2 0x121A SWAP3 SWAP2 SWAP1 PUSH2 0x23B1 JUMP JUMPDEST SWAP1 DUP2 MSTORE PUSH1 0x20 ADD PUSH1 0x40 MLOAD DUP1 SWAP2 SUB SWAP1 KECCAK256 PUSH1 0x0 DUP3 DUP3 SLOAD PUSH2 0x1237 SWAP2 SWAP1 PUSH2 0x26FC JUMP JUMPDEST SWAP3 POP POP DUP2 SWAP1 SSTORE POP POP POP POP POP JUMP JUMPDEST PUSH1 0x0 DUP1 SLOAD PUSH2 0x1251 SWAP1 PUSH2 0x2879 JUMP JUMPDEST DUP1 PUSH1 0x1F ADD PUSH1 0x20 DUP1 SWAP2 DIV MUL PUSH1 0x20 ADD PUSH1 0x40 MLOAD SWAP1 DUP2 ADD PUSH1 0x40 MSTORE DUP1 SWAP3 SWAP2 SWAP1 DUP2 DUP2 MSTORE PUSH1 0x20 ADD DUP3 DUP1 SLOAD PUSH2 0x127D SWAP1 PUSH2 0x2879 JUMP JUMPDEST DUP1 ISZERO PUSH2 0x12CA JUMPI DUP1 PUSH1 0x1F LT PUSH2 0x129F JUMPI PUSH2 0x100 DUP1 DUP4 SLOAD DIV MUL DUP4 MSTORE SWAP2 PUSH1 0x20 ADD SWAP2 PUSH2 0x12CA JUMP JUMPDEST DUP3 ADD SWAP2 SWAP1 PUSH1 0x0 MSTORE PUSH1 0x20 PUSH1 0x0 KECCAK256 SWAP1 JUMPDEST DUP2 SLOAD DUP2 MSTORE SWAP1 PUSH1 0x1 ADD SWAP1 PUSH1 0x20 ADD DUP1 DUP4 GT PUSH2 0x12AD JUMPI DUP3 SWAP1 SUB PUSH1 0x1F AND DUP3 ADD SWAP2 JUMPDEST POP POP POP POP POP DUP2 JUMP JUMPDEST PUSH1 0x0 SELFBALANCE SWAP1 POP SWAP1 JUMP JUMPDEST PUSH1 0x5 PUSH1 0x1 SWAP1 SLOAD SWAP1 PUSH2 0x100 EXP SWAP1 DIV PUSH20 0xFFFFFFFFFFFFFFFFFFFFFFFFFFFFFFFFFFFFFFFF AND PUSH20 0xFFFFFFFFFFFFFFFFFFFFFFFFFFFFFFFFFFFFFFFF AND CALLER PUSH20 0xFFFFFFFFFFFFFFFFFFFFFFFFFFFFFFFFFFFFFFFF AND EQ PUSH2 0x136A JUMPI PUSH1 0x40 MLOAD PUSH32 0x8C379A000000000000000000000000000000000000000000000000000000000 DUP2 MSTORE PUSH1 0x4 ADD PUSH2 0x1361 SWAP1 PUSH2 0x258F JUMP JUMPDEST PUSH1 0x40 MLOAD DUP1 SWAP2 SUB SWAP1 REVERT JUMPDEST PUSH2 0x1374 PUSH1 0x0 PUSH2 0x1A6E JUMP JUMPDEST JUMP JUMPDEST PUSH1 0x60 PUSH1 0xC DUP1 SLOAD DUP1 PUSH1 0x20 MUL PUSH1 0x20 ADD PUSH1 0x40 MLOAD SWAP1 DUP2 ADD PUSH1 0x40 MSTORE DUP1 SWAP3 SWAP2 SWAP1 DUP2 DUP2 MSTORE PUSH1 0x20 ADD PUSH1 0x0 SWAP1 JUMPDEST DUP3 DUP3 LT ISZERO PUSH2 0x14BE JUMPI DUP4 DUP3 SWAP1 PUSH1 0x0 MSTORE PUSH1 0x20 PUSH1 0x0 KECCAK256 SWAP1 PUSH1 0x3 MUL ADD PUSH1 0x40 MLOAD DUP1 PUSH1 0x60 ADD PUSH1 0x40 MSTORE SWAP1 DUP2 PUSH1 0x0 DUP3 ADD PUSH1 0x0 SWAP1 SLOAD SWAP1 PUSH2 0x100 EXP SWAP1 DIV PUSH20 0xFFFFFFFFFFFFFFFFFFFFFFFFFFFFFFFFFFFFFFFF AND PUSH20 0xFFFFFFFFFFFFFFFFFFFFFFFFFFFFFFFFFFFFFFFF AND PUSH20 0xFFFFFFFFFFFFFFFFFFFFFFFFFFFFFFFFFFFFFFFF AND DUP2 MSTORE PUSH1 0x20 ADD PUSH1 0x1 DUP3 ADD DUP1 SLOAD PUSH2 0x1423 SWAP1 PUSH2 0x2879 JUMP JUMPDEST DUP1 PUSH1 0x1F ADD PUSH1 0x20 DUP1 SWAP2 DIV MUL PUSH1 0x20 ADD PUSH1 0x40 MLOAD SWAP1 DUP2 ADD PUSH1 0x40 MSTORE DUP1 SWAP3 SWAP2 SWAP1 DUP2 DUP2 MSTORE PUSH1 0x20 ADD DUP3 DUP1 SLOAD PUSH2 0x144F SWAP1 PUSH2 0x2879 JUMP JUMPDEST DUP1 ISZERO PUSH2 0x149C JUMPI DUP1 PUSH1 0x1F LT PUSH2 0x1471 JUMPI PUSH2 0x100 DUP1 DUP4 SLOAD DIV MUL DUP4 MSTORE SWAP2 PUSH1 0x20 ADD SWAP2 PUSH2 0x149C JUMP JUMPDEST DUP3 ADD SWAP2 SWAP1 PUSH1 0x0 MSTORE PUSH1 0x20 PUSH1 0x0 KECCAK256 SWAP1 JUMPDEST DUP2 SLOAD DUP2 MSTORE SWAP1 PUSH1 0x1 ADD SWAP1 PUSH1 0x20 ADD DUP1 DUP4 GT PUSH2 0x147F JUMPI DUP3 SWAP1 SUB PUSH1 0x1F AND DUP3 ADD SWAP2 JUMPDEST POP POP POP POP POP DUP2 MSTORE PUSH1 0x20 ADD PUSH1 0x2 DUP3 ADD SLOAD DUP2 MSTORE POP POP DUP2 MSTORE PUSH1 0x20 ADD SWAP1 PUSH1 0x1 ADD SWAP1 PUSH2 0x139A JUMP JUMPDEST POP POP POP POP SWAP1 POP SWAP1 JUMP JUMPDEST PUSH1 0x5 PUSH1 0x1 SWAP1 SLOAD SWAP1 PUSH2 0x100 EXP SWAP1 DIV PUSH20 0xFFFFFFFFFFFFFFFFFFFFFFFFFFFFFFFFFFFFFFFF AND DUP2 JUMP JUMPDEST PUSH1 0x5 PUSH1 0x0 SWAP1 SLOAD SWAP1 PUSH2 0x100 EXP SWAP1 DIV PUSH1 0xFF AND DUP2 JUMP JUMPDEST PUSH1 0x9 DUP1 SLOAD PUSH2 0x150D SWAP1 PUSH2 0x2879 JUMP JUMPDEST DUP1 PUSH1 0x1F ADD PUSH1 0x20 DUP1 SWAP2 DIV MUL PUSH1 0x20 ADD PUSH1 0x40 MLOAD SWAP1 DUP2 ADD PUSH1 0x40 MSTORE DUP1 SWAP3 SWAP2 SWAP1 DUP2 DUP2 MSTORE PUSH1 0x20 ADD DUP3 DUP1 SLOAD PUSH2 0x1539 SWAP1 PUSH2 0x2879 JUMP JUMPDEST DUP1 ISZERO PUSH2 0x1586 JUMPI DUP1 PUSH1 0x1F LT PUSH2 0x155B JUMPI PUSH2 0x100 DUP1 DUP4 SLOAD DIV MUL DUP4 MSTORE SWAP2 PUSH1 0x20 ADD SWAP2 PUSH2 0x1586 JUMP JUMPDEST DUP3 ADD SWAP2 SWAP1 PUSH1 0x0 MSTORE PUSH1 0x20 PUSH1 0x0 KECCAK256 SWAP1 JUMPDEST DUP2 SLOAD DUP2 MSTORE SWAP1 PUSH1 0x1 ADD SWAP1 PUSH1 0x20 ADD DUP1 DUP4 GT PUSH2 0x1569 JUMPI DUP3 SWAP1 SUB PUSH1 0x1F AND DUP3 ADD SWAP2 JUMPDEST POP POP POP POP POP DUP2 JUMP JUMPDEST PUSH1 0x1 PUSH1 0x0 SWAP1 SLOAD SWAP1 PUSH2 0x100 EXP SWAP1 DIV PUSH1 0xFF AND DUP2 JUMP JUMPDEST PUSH1 0x3 PUSH1 0x0 SWAP1 SLOAD SWAP1 PUSH2 0x100 EXP SWAP1 DIV PUSH1 0xFF AND DUP2 JUMP JUMPDEST PUSH1 0x7 DUP1 SLOAD PUSH2 0x15C1 SWAP1 PUSH2 0x2879 JUMP JUMPDEST DUP1 PUSH1 0x1F ADD PUSH1 0x20 DUP1 SWAP2 DIV MUL PUSH1 0x20 ADD PUSH1 0x40 MLOAD SWAP1 DUP2 ADD PUSH1 0x40 MSTORE DUP1 SWAP3 SWAP2 SWAP1 DUP2 DUP2 MSTORE PUSH1 0x20 ADD DUP3 DUP1 SLOAD PUSH2 0x15ED SWAP1 PUSH2 0x2879 JUMP JUMPDEST DUP1 ISZERO PUSH2 0x163A JUMPI DUP1 PUSH1 0x1F LT PUSH2 0x160F JUMPI PUSH2 0x100 DUP1 DUP4 SLOAD DIV MUL DUP4 MSTORE SWAP2 PUSH1 0x20 ADD SWAP2 PUSH2 0x163A JUMP JUMPDEST DUP3 ADD SWAP2 SWAP1 PUSH1 0x0 MSTORE PUSH1 0x20 PUSH1 0x0 KECCAK256 SWAP1 JUMPDEST DUP2 SLOAD DUP2 MSTORE SWAP1 PUSH1 0x1 ADD SWAP1 PUSH1 0x20 ADD DUP1 DUP4 GT PUSH2 0x161D JUMPI DUP3 SWAP1 SUB PUSH1 0x1F AND DUP3 ADD SWAP2 JUMPDEST POP POP POP POP POP DUP2 JUMP JUMPDEST PUSH1 0x2 SLOAD DUP2 JUMP JUMPDEST PUSH1 0xB DUP1 SLOAD PUSH2 0x1655 SWAP1 PUSH2 0x2879 JUMP JUMPDEST DUP1 PUSH1 0x1F ADD PUSH1 0x20 DUP1 SWAP2 DIV MUL PUSH1 0x20 ADD PUSH1 0x40 MLOAD SWAP1 DUP2 ADD PUSH1 0x40 MSTORE DUP1 SWAP3 SWAP2 SWAP1 DUP2 DUP2 MSTORE PUSH1 0x20 ADD DUP3 DUP1 SLOAD PUSH2 0x1681 SWAP1 PUSH2 0x2879 JUMP JUMPDEST DUP1 ISZERO PUSH2 0x16CE JUMPI DUP1 PUSH1 0x1F LT PUSH2 0x16A3 JUMPI PUSH2 0x100 DUP1 DUP4 SLOAD DIV MUL DUP4 MSTORE SWAP2 PUSH1 0x20 ADD SWAP2 PUSH2 0x16CE JUMP JUMPDEST DUP3 ADD SWAP2 SWAP1 PUSH1 0x0 MSTORE PUSH1 0x20 PUSH1 0x0 KECCAK256 SWAP1 JUMPDEST DUP2 SLOAD DUP2 MSTORE SWAP1 PUSH1 0x1 ADD SWAP1 PUSH1 0x20 ADD DUP1 DUP4 GT PUSH2 0x16B1 JUMPI DUP3 SWAP1 SUB PUSH1 0x1F AND DUP3 ADD SWAP2 JUMPDEST POP POP POP POP POP DUP2 JUMP JUMPDEST PUSH1 0xC DUP2 DUP2 SLOAD DUP2 LT PUSH2 0x16E6 JUMPI PUSH1 0x0 DUP1 REVERT JUMPDEST SWAP1 PUSH1 0x0 MSTORE PUSH1 0x20 PUSH1 0x0 KECCAK256 SWAP1 PUSH1 0x3 MUL ADD PUSH1 0x0 SWAP2 POP SWAP1 POP DUP1 PUSH1 0x0 ADD PUSH1 0x0 SWAP1 SLOAD SWAP1 PUSH2 0x100 EXP SWAP1 DIV PUSH20 0xFFFFFFFFFFFFFFFFFFFFFFFFFFFFFFFFFFFFFFFF AND SWAP1 DUP1 PUSH1 0x1 ADD DUP1 SLOAD PUSH2 0x172F SWAP1 PUSH2 0x2879 JUMP JUMPDEST DUP1 PUSH1 0x1F ADD PUSH1 0x20 DUP1 SWAP2 DIV MUL PUSH1 0x20 ADD PUSH1 0x40 MLOAD SWAP1 DUP2 ADD PUSH1 0x40 MSTORE DUP1 SWAP3 SWAP2 SWAP1 DUP2 DUP2 MSTORE PUSH1 0x20 ADD DUP3 DUP1 SLOAD PUSH2 0x175B SWAP1 PUSH2 0x2879 JUMP JUMPDEST DUP1 ISZERO PUSH2 0x17A8 JUMPI DUP1 PUSH1 0x1F LT PUSH2 0x177D JUMPI PUSH2 0x100 DUP1 DUP4 SLOAD DIV MUL DUP4 MSTORE SWAP2 PUSH1 0x20 ADD SWAP2 PUSH2 0x17A8 JUMP JUMPDEST DUP3 ADD SWAP2 SWAP1 PUSH1 0x0 MSTORE PUSH1 0x20 PUSH1 0x0 KECCAK256 SWAP1 JUMPDEST DUP2 SLOAD DUP2 MSTORE SWAP1 PUSH1 0x1 ADD SWAP1 PUSH1 0x20 ADD DUP1 DUP4 GT PUSH2 0x178B JUMPI DUP3 SWAP1 SUB PUSH1 0x1F AND DUP3 ADD SWAP2 JUMPDEST POP POP POP POP POP SWAP1 DUP1 PUSH1 0x2 ADD SLOAD SWAP1 POP DUP4 JUMP JUMPDEST PUSH1 0xA DUP1 SLOAD PUSH2 0x17C5 SWAP1 PUSH2 0x2879 JUMP JUMPDEST DUP1 PUSH1 0x1F ADD PUSH1 0x20 DUP1 SWAP2 DIV MUL PUSH1 0x20 ADD PUSH1 0x40 MLOAD SWAP1 DUP2 ADD PUSH1 0x40 MSTORE DUP1 SWAP3 SWAP2 SWAP1 DUP2 DUP2 MSTORE PUSH1 0x20 ADD DUP3 DUP1 SLOAD PUSH2 0x17F1 SWAP1 PUSH2 0x2879 JUMP JUMPDEST DUP1 ISZERO PUSH2 0x183E JUMPI DUP1 PUSH1 0x1F LT PUSH2 0x1813 JUMPI PUSH2 0x100 DUP1 DUP4 SLOAD DIV MUL DUP4 MSTORE SWAP2 PUSH1 0x20 ADD SWAP2 PUSH2 0x183E JUMP JUMPDEST DUP3 ADD SWAP2 SWAP1 PUSH1 0x0 MSTORE PUSH1 0x20 PUSH1 0x0 KECCAK256 SWAP1 JUMPDEST DUP2 SLOAD DUP2 MSTORE SWAP1 PUSH1 0x1 ADD SWAP1 PUSH1 0x20 ADD DUP1 DUP4 GT PUSH2 0x1821 JUMPI DUP3 SWAP1 SUB PUSH1 0x1F AND DUP3 ADD SWAP2 JUMPDEST POP POP POP POP POP DUP2 JUMP JUMPDEST PUSH1 0x4 DUP1 SLOAD PUSH2 0x1853 SWAP1 PUSH2 0x2879 JUMP JUMPDEST DUP1 PUSH1 0x1F ADD PUSH1 0x20 DUP1 SWAP2 DIV MUL PUSH1 0x20 ADD PUSH1 0x40 MLOAD SWAP1 DUP2 ADD PUSH1 0x40 MSTORE DUP1 SWAP3 SWAP2 SWAP1 DUP2 DUP2 MSTORE PUSH1 0x20 ADD DUP3 DUP1 SLOAD PUSH2 0x187F SWAP1 PUSH2 0x2879 JUMP JUMPDEST DUP1 ISZERO PUSH2 0x18CC JUMPI DUP1 PUSH1 0x1F LT PUSH2 0x18A1 JUMPI PUSH2 0x100 DUP1 DUP4 SLOAD DIV MUL DUP4 MSTORE SWAP2 PUSH1 0x20 ADD SWAP2 PUSH2 0x18CC JUMP JUMPDEST DUP3 ADD SWAP2 SWAP1 PUSH1 0x0 MSTORE PUSH1 0x20 PUSH1 0x0 KECCAK256 SWAP1 JUMPDEST DUP2 SLOAD DUP2 MSTORE SWAP1 PUSH1 0x1 ADD SWAP1 PUSH1 0x20 ADD DUP1 DUP4 GT PUSH2 0x18AF JUMPI DUP3 SWAP1 SUB PUSH1 0x1F AND DUP3 ADD SWAP2 JUMPDEST POP POP POP POP POP DUP2 JUMP JUMPDEST PUSH1 0x8 DUP1 SLOAD PUSH2 0x18E1 SWAP1 PUSH2 0x2879 JUMP JUMPDEST DUP1 PUSH1 0x1F ADD PUSH1 0x20 DUP1 SWAP2 DIV MUL PUSH1 0x20 ADD PUSH1 0x40 MLOAD SWAP1 DUP2 ADD PUSH1 0x40 MSTORE DUP1 SWAP3 SWAP2 SWAP1 DUP2 DUP2 MSTORE PUSH1 0x20 ADD DUP3 DUP1 SLOAD PUSH2 0x190D SWAP1 PUSH2 0x2879 JUMP JUMPDEST DUP1 ISZERO PUSH2 0x195A JUMPI DUP1 PUSH1 0x1F LT PUSH2 0x192F JUMPI PUSH2 0x100 DUP1 DUP4 SLOAD DIV MUL DUP4 MSTORE SWAP2 PUSH1 0x20 ADD SWAP2 PUSH2 0x195A JUMP JUMPDEST DUP3 ADD SWAP2 SWAP1 PUSH1 0x0 MSTORE PUSH1 0x20 PUSH1 0x0 KECCAK256 SWAP1 JUMPDEST DUP2 SLOAD DUP2 MSTORE SWAP1 PUSH1 0x1 ADD SWAP1 PUSH1 0x20 ADD DUP1 DUP4 GT PUSH2 0x193D JUMPI DUP3 SWAP1 SUB PUSH1 0x1F AND DUP3 ADD SWAP2 JUMPDEST POP POP POP POP POP DUP2 JUMP JUMPDEST PUSH1 0x5 PUSH1 0x1 SWAP1 SLOAD SWAP1 PUSH2 0x100 EXP SWAP1 DIV PUSH20 0xFFFFFFFFFFFFFFFFFFFFFFFFFFFFFFFFFFFFFFFF AND PUSH20 0xFFFFFFFFFFFFFFFFFFFFFFFFFFFFFFFFFFFFFFFF AND CALLER PUSH20 0xFFFFFFFFFFFFFFFFFFFFFFFFFFFFFFFFFFFFFFFF AND EQ PUSH2 0x19F2 JUMPI PUSH1 0x40 MLOAD PUSH32 0x8C379A000000000000000000000000000000000000000000000000000000000 DUP2 MSTORE PUSH1 0x4 ADD PUSH2 0x19E9 SWAP1 PUSH2 0x258F JUMP JUMPDEST PUSH1 0x40 MLOAD DUP1 SWAP2 SUB SWAP1 REVERT JUMPDEST PUSH1 0x0 PUSH20 0xFFFFFFFFFFFFFFFFFFFFFFFFFFFFFFFFFFFFFFFF AND DUP2 PUSH20 0xFFFFFFFFFFFFFFFFFFFFFFFFFFFFFFFFFFFFFFFF AND EQ ISZERO PUSH2 0x1A62 JUMPI PUSH1 0x40 MLOAD PUSH32 0x8C379A000000000000000000000000000000000000000000000000000000000 DUP2 MSTORE PUSH1 0x4 ADD PUSH2 0x1A59 SWAP1 PUSH2 0x252F JUMP JUMPDEST PUSH1 0x40 MLOAD DUP1 SWAP2 SUB SWAP1 REVERT JUMPDEST PUSH2 0x1A6B DUP2 PUSH2 0x1A6E JUMP JUMPDEST POP JUMP JUMPDEST DUP1 PUSH1 0x5 PUSH1 0x1 PUSH2 0x100 EXP DUP2 SLOAD DUP2 PUSH20 0xFFFFFFFFFFFFFFFFFFFFFFFFFFFFFFFFFFFFFFFF MUL NOT AND SWAP1 DUP4 PUSH20 0xFFFFFFFFFFFFFFFFFFFFFFFFFFFFFFFFFFFFFFFF AND MUL OR SWAP1 SSTORE POP POP JUMP JUMPDEST DUP3 DUP1 SLOAD PUSH2 0x1ABE SWAP1 PUSH2 0x2879 JUMP JUMPDEST SWAP1 PUSH1 0x0 MSTORE PUSH1 0x20 PUSH1 0x0 KECCAK256 SWAP1 PUSH1 0x1F ADD PUSH1 0x20 SWAP1 DIV DUP2 ADD SWAP3 DUP3 PUSH2 0x1AE0 JUMPI PUSH1 0x0 DUP6 SSTORE PUSH2 0x1B27 JUMP JUMPDEST DUP3 PUSH1 0x1F LT PUSH2 0x1AF9 JUMPI DUP1 CALLDATALOAD PUSH1 0xFF NOT AND DUP4 DUP1 ADD OR DUP6 SSTORE PUSH2 0x1B27 JUMP JUMPDEST DUP3 DUP1 ADD PUSH1 0x1 ADD DUP6 SSTORE DUP3 ISZERO PUSH2 0x1B27 JUMPI SWAP2 DUP3 ADD JUMPDEST DUP3 DUP2 GT ISZERO PUSH2 0x1B26 JUMPI DUP3 CALLDATALOAD DUP3 SSTORE SWAP2 PUSH1 0x20 ADD SWAP2 SWAP1 PUSH1 0x1 ADD SWAP1 PUSH2 0x1B0B JUMP JUMPDEST JUMPDEST POP SWAP1 POP PUSH2 0x1B34 SWAP2 SWAP1 PUSH2 0x1BE2 JUMP JUMPDEST POP SWAP1 JUMP JUMPDEST POP DUP1 SLOAD PUSH1 0x0 DUP3 SSTORE PUSH1 0x3 MUL SWAP1 PUSH1 0x0 MSTORE PUSH1 0x20 PUSH1 0x0 KECCAK256 SWAP1 DUP2 ADD SWAP1 PUSH2 0x1B59 SWAP2 SWAP1 PUSH2 0x1BFF JUMP JUMPDEST POP JUMP JUMPDEST DUP3 DUP1 SLOAD PUSH2 0x1B68 SWAP1 PUSH2 0x2879 JUMP JUMPDEST SWAP1 PUSH1 0x0 MSTORE PUSH1 0x20 PUSH1 0x0 KECCAK256 SWAP1 PUSH1 0x1F ADD PUSH1 0x20 SWAP1 DIV DUP2 ADD SWAP3 DUP3 PUSH2 0x1B8A JUMPI PUSH1 0x0 DUP6 SSTORE PUSH2 0x1BD1 JUMP JUMPDEST DUP3 PUSH1 0x1F LT PUSH2 0x1BA3 JUMPI DUP1 MLOAD PUSH1 0xFF NOT AND DUP4 DUP1 ADD OR DUP6 SSTORE PUSH2 0x1BD1 JUMP JUMPDEST DUP3 DUP1 ADD PUSH1 0x1 ADD DUP6 SSTORE DUP3 ISZERO PUSH2 0x1BD1 JUMPI SWAP2 DUP3 ADD JUMPDEST DUP3 DUP2 GT ISZERO PUSH2 0x1BD0 JUMPI DUP3 MLOAD DUP3 SSTORE SWAP2 PUSH1 0x20 ADD SWAP2 SWAP1 PUSH1 0x1 ADD SWAP1 PUSH2 0x1BB5 JUMP JUMPDEST JUMPDEST POP SWAP1 POP PUSH2 0x1BDE SWAP2 SWAP1 PUSH2 0x1BE2 JUMP JUMPDEST POP SWAP1 JUMP JUMPDEST JUMPDEST DUP1 DUP3 GT ISZERO PUSH2 0x1BFB JUMPI PUSH1 0x0 DUP2 PUSH1 0x0 SWAP1 SSTORE POP PUSH1 0x1 ADD PUSH2 0x1BE3 JUMP JUMPDEST POP SWAP1 JUMP JUMPDEST JUMPDEST DUP1 DUP3 GT ISZERO PUSH2 0x1C51 JUMPI PUSH1 0x0 DUP1 DUP3 ADD PUSH1 0x0 PUSH2 0x100 EXP DUP2 SLOAD SWAP1 PUSH20 0xFFFFFFFFFFFFFFFFFFFFFFFFFFFFFFFFFFFFFFFF MUL NOT AND SWAP1 SSTORE PUSH1 0x1 DUP3 ADD PUSH1 0x0 PUSH2 0x1C40 SWAP2 SWAP1 PUSH2 0x1C55 JUMP JUMPDEST PUSH1 0x2 DUP3 ADD PUSH1 0x0 SWAP1 SSTORE POP PUSH1 0x3 ADD PUSH2 0x1C00 JUMP JUMPDEST POP SWAP1 JUMP JUMPDEST POP DUP1 SLOAD PUSH2 0x1C61 SWAP1 PUSH2 0x2879 JUMP JUMPDEST PUSH1 0x0 DUP3 SSTORE DUP1 PUSH1 0x1F LT PUSH2 0x1C73 JUMPI POP PUSH2 0x1C92 JUMP JUMPDEST PUSH1 0x1F ADD PUSH1 0x20 SWAP1 DIV SWAP1 PUSH1 0x0 MSTORE PUSH1 0x20 PUSH1 0x0 KECCAK256 SWAP1 DUP2 ADD SWAP1 PUSH2 0x1C91 SWAP2 SWAP1 PUSH2 0x1BE2 JUMP JUMPDEST JUMPDEST POP JUMP JUMPDEST PUSH1 0x0 PUSH2 0x1CA8 PUSH2 0x1CA3 DUP5 PUSH2 0x263B JUMP JUMPDEST PUSH2 0x260A JUMP JUMPDEST SWAP1 POP DUP3 DUP2 MSTORE PUSH1 0x20 DUP2 ADD DUP5 DUP5 DUP5 ADD GT ISZERO PUSH2 0x1CC0 JUMPI PUSH1 0x0 DUP1 REVERT JUMPDEST PUSH2 0x1CCB DUP5 DUP3 DUP6 PUSH2 0x2837 JUMP JUMPDEST POP SWAP4 SWAP3 POP POP POP JUMP JUMPDEST PUSH1 0x0 DUP2 CALLDATALOAD SWAP1 POP PUSH2 0x1CE2 DUP2 PUSH2 0x29C1 JUMP JUMPDEST SWAP3 SWAP2 POP POP JUMP JUMPDEST PUSH1 0x0 DUP1 DUP4 PUSH1 0x1F DUP5 ADD SLT PUSH2 0x1CFA JUMPI PUSH1 0x0 DUP1 REVERT JUMPDEST DUP3 CALLDATALOAD SWAP1 POP PUSH8 0xFFFFFFFFFFFFFFFF DUP2 GT ISZERO PUSH2 0x1D13 JUMPI PUSH1 0x0 DUP1 REVERT JUMPDEST PUSH1 0x20 DUP4 ADD SWAP2 POP DUP4 PUSH1 0x1 DUP3 MUL DUP4 ADD GT ISZERO PUSH2 0x1D2B JUMPI PUSH1 0x0 DUP1 REVERT JUMPDEST SWAP3 POP SWAP3 SWAP1 POP JUMP JUMPDEST PUSH1 0x0 DUP3 PUSH1 0x1F DUP4 ADD SLT PUSH2 0x1D43 JUMPI PUSH1 0x0 DUP1 REVERT JUMPDEST DUP2 CALLDATALOAD PUSH2 0x1D53 DUP5 DUP3 PUSH1 0x20 DUP7 ADD PUSH2 0x1C95 JUMP JUMPDEST SWAP2 POP POP SWAP3 SWAP2 POP POP JUMP JUMPDEST PUSH1 0x0 DUP2 CALLDATALOAD SWAP1 POP PUSH2 0x1D6B DUP2 PUSH2 0x29D8 JUMP JUMPDEST SWAP3 SWAP2 POP POP JUMP JUMPDEST PUSH1 0x0 PUSH1 0x20 DUP3 DUP5 SUB SLT ISZERO PUSH2 0x1D83 JUMPI PUSH1 0x0 DUP1 REVERT JUMPDEST PUSH1 0x0 PUSH2 0x1D91 DUP5 DUP3 DUP6 ADD PUSH2 0x1CD3 JUMP JUMPDEST SWAP2 POP POP SWAP3 SWAP2 POP POP JUMP JUMPDEST PUSH1 0x0 DUP1 PUSH1 0x20 DUP4 DUP6 SUB SLT ISZERO PUSH2 0x1DAD JUMPI PUSH1 0x0 DUP1 REVERT JUMPDEST PUSH1 0x0 DUP4 ADD CALLDATALOAD PUSH8 0xFFFFFFFFFFFFFFFF DUP2 GT ISZERO PUSH2 0x1DC7 JUMPI PUSH1 0x0 DUP1 REVERT JUMPDEST PUSH2 0x1DD3 DUP6 DUP3 DUP7 ADD PUSH2 0x1CE8 JUMP JUMPDEST SWAP3 POP SWAP3 POP POP SWAP3 POP SWAP3 SWAP1 POP JUMP JUMPDEST PUSH1 0x0 PUSH1 0x20 DUP3 DUP5 SUB SLT ISZERO PUSH2 0x1DF1 JUMPI PUSH1 0x0 DUP1 REVERT JUMPDEST PUSH1 0x0 DUP3 ADD CALLDATALOAD PUSH8 0xFFFFFFFFFFFFFFFF DUP2 GT ISZERO PUSH2 0x1E0B JUMPI PUSH1 0x0 DUP1 REVERT JUMPDEST PUSH2 0x1E17 DUP5 DUP3 DUP6 ADD PUSH2 0x1D32 JUMP JUMPDEST SWAP2 POP POP SWAP3 SWAP2 POP POP JUMP JUMPDEST PUSH1 0x0 PUSH1 0x20 DUP3 DUP5 SUB SLT ISZERO PUSH2 0x1E32 JUMPI PUSH1 0x0 DUP1 REVERT JUMPDEST PUSH1 0x0 PUSH2 0x1E40 DUP5 DUP3 DUP6 ADD PUSH2 0x1D5C JUMP JUMPDEST SWAP2 POP POP SWAP3 SWAP2 POP POP JUMP JUMPDEST PUSH1 0x0 PUSH2 0x1E55 DUP4 DUP4 PUSH2 0x2343 JUMP JUMPDEST SWAP1 POP SWAP3 SWAP2 POP POP JUMP JUMPDEST PUSH2 0x1E66 DUP2 PUSH2 0x27EF JUMP JUMPDEST DUP3 MSTORE POP POP JUMP JUMPDEST PUSH2 0x1E75 DUP2 PUSH2 0x27EF JUMP JUMPDEST DUP3 MSTORE POP POP JUMP JUMPDEST PUSH2 0x1E84 DUP2 PUSH2 0x27DD JUMP JUMPDEST DUP3 MSTORE POP POP JUMP JUMPDEST PUSH1 0x0 PUSH2 0x1E95 DUP3 PUSH2 0x2690 JUMP JUMPDEST PUSH2 0x1E9F DUP2 DUP6 PUSH2 0x26B3 JUMP JUMPDEST SWAP4 POP DUP4 PUSH1 0x20 DUP3 MUL DUP6 ADD PUSH2 0x1EB1 DUP6 PUSH2 0x266B JUMP JUMPDEST DUP1 PUSH1 0x0 JUMPDEST DUP6 DUP2 LT ISZERO PUSH2 0x1EED JUMPI DUP5 DUP5 SUB DUP10 MSTORE DUP2 MLOAD PUSH2 0x1ECE DUP6 DUP3 PUSH2 0x1E49 JUMP JUMPDEST SWAP5 POP PUSH2 0x1ED9 DUP4 PUSH2 0x26A6 JUMP JUMPDEST SWAP3 POP PUSH1 0x20 DUP11 ADD SWAP10 POP POP PUSH1 0x1 DUP2 ADD SWAP1 POP PUSH2 0x1EB5 JUMP JUMPDEST POP DUP3 SWAP8 POP DUP8 SWAP6 POP POP POP POP POP POP SWAP3 SWAP2 POP POP JUMP JUMPDEST PUSH2 0x1F08 DUP2 PUSH2 0x2801 JUMP JUMPDEST DUP3 MSTORE POP POP JUMP JUMPDEST PUSH1 0x0 PUSH2 0x1F1A DUP4 DUP6 PUSH2 0x26E0 JUMP JUMPDEST SWAP4 POP PUSH2 0x1F27 DUP4 DUP6 DUP5 PUSH2 0x2837 JUMP JUMPDEST PUSH2 0x1F30 DUP4 PUSH2 0x29B0 JUMP JUMPDEST DUP5 ADD SWAP1 POP SWAP4 SWAP3 POP POP POP JUMP JUMPDEST PUSH1 0x0 PUSH2 0x1F47 DUP4 DUP6 PUSH2 0x26F1 JUMP JUMPDEST SWAP4 POP PUSH2 0x1F54 DUP4 DUP6 DUP5 PUSH2 0x2837 JUMP JUMPDEST DUP3 DUP5 ADD SWAP1 POP SWAP4 SWAP3 POP POP POP JUMP JUMPDEST PUSH1 0x0 PUSH2 0x1F6B DUP3 PUSH2 0x269B JUMP JUMPDEST PUSH2 0x1F75 DUP2 DUP6 PUSH2 0x26CF JUMP JUMPDEST SWAP4 POP PUSH2 0x1F85 DUP2 DUP6 PUSH1 0x20 DUP7 ADD PUSH2 0x2846 JUMP JUMPDEST PUSH2 0x1F8E DUP2 PUSH2 0x29B0 JUMP JUMPDEST DUP5 ADD SWAP2 POP POP SWAP3 SWAP2 POP POP JUMP JUMPDEST PUSH1 0x0 PUSH2 0x1FA4 DUP3 PUSH2 0x269B JUMP JUMPDEST PUSH2 0x1FAE DUP2 DUP6 PUSH2 0x26E0 JUMP JUMPDEST SWAP4 POP PUSH2 0x1FBE DUP2 DUP6 PUSH1 0x20 DUP7 ADD PUSH2 0x2846 JUMP JUMPDEST PUSH2 0x1FC7 DUP2 PUSH2 0x29B0 JUMP JUMPDEST DUP5 ADD SWAP2 POP POP SWAP3 SWAP2 POP POP JUMP JUMPDEST PUSH1 0x0 DUP2 SLOAD PUSH2 0x1FDF DUP2 PUSH2 0x2879 JUMP JUMPDEST PUSH2 0x1FE9 DUP2 DUP7 PUSH2 0x26E0 JUMP JUMPDEST SWAP5 POP PUSH1 0x1 DUP3 AND PUSH1 0x0 DUP2 EQ PUSH2 0x2004 JUMPI PUSH1 0x1 DUP2 EQ PUSH2 0x2016 JUMPI PUSH2 0x2049 JUMP JUMPDEST PUSH1 0xFF NOT DUP4 AND DUP7 MSTORE PUSH1 0x20 DUP7 ADD SWAP4 POP PUSH2 0x2049 JUMP JUMPDEST PUSH2 0x201F DUP6 PUSH2 0x267B JUMP JUMPDEST PUSH1 0x0 JUMPDEST DUP4 DUP2 LT ISZERO PUSH2 0x2041 JUMPI DUP2 SLOAD DUP2 DUP10 ADD MSTORE PUSH1 0x1 DUP3 ADD SWAP2 POP PUSH1 0x20 DUP2 ADD SWAP1 POP PUSH2 0x2022 JUMP JUMPDEST DUP1 DUP9 ADD SWAP6 POP POP POP JUMPDEST POP POP POP SWAP3 SWAP2 POP POP JUMP JUMPDEST PUSH1 0x0 DUP2 SLOAD PUSH2 0x205F DUP2 PUSH2 0x2879 JUMP JUMPDEST PUSH2 0x2069 DUP2 DUP7 PUSH2 0x26F1 JUMP JUMPDEST SWAP5 POP PUSH1 0x1 DUP3 AND PUSH1 0x0 DUP2 EQ PUSH2 0x2084 JUMPI PUSH1 0x1 DUP2 EQ PUSH2 0x2095 JUMPI PUSH2 0x20C8 JUMP JUMPDEST PUSH1 0xFF NOT DUP4 AND DUP7 MSTORE DUP2 DUP7 ADD SWAP4 POP PUSH2 0x20C8 JUMP JUMPDEST PUSH2 0x209E DUP6 PUSH2 0x267B JUMP JUMPDEST PUSH1 0x0 JUMPDEST DUP4 DUP2 LT ISZERO PUSH2 0x20C0 JUMPI DUP2 SLOAD DUP2 DUP10 ADD MSTORE PUSH1 0x1 DUP3 ADD SWAP2 POP PUSH1 0x20 DUP2 ADD SWAP1 POP PUSH2 0x20A1 JUMP JUMPDEST DUP4 DUP9 ADD SWAP6 POP POP POP JUMPDEST POP POP POP SWAP3 SWAP2 POP POP JUMP JUMPDEST PUSH1 0x0 PUSH2 0x20DE PUSH1 0x20 DUP4 PUSH2 0x26E0 JUMP JUMPDEST SWAP2 POP PUSH32 0x546869732067616D626C6520697320616C726561647920636F6D706C65746564 PUSH1 0x0 DUP4 ADD MSTORE PUSH1 0x20 DUP3 ADD SWAP1 POP SWAP2 SWAP1 POP JUMP JUMPDEST PUSH1 0x0 PUSH2 0x211E PUSH1 0x26 DUP4 PUSH2 0x26E0 JUMP JUMPDEST SWAP2 POP PUSH32 0x4F776E61626C653A206E6577206F776E657220697320746865207A65726F2061 PUSH1 0x0 DUP4 ADD MSTORE PUSH32 0x6464726573730000000000000000000000000000000000000000000000000000 PUSH1 0x20 DUP4 ADD MSTORE PUSH1 0x40 DUP3 ADD SWAP1 POP SWAP2 SWAP1 POP JUMP JUMPDEST PUSH1 0x0 PUSH2 0x2184 PUSH1 0x14 DUP4 PUSH2 0x26E0 JUMP JUMPDEST SWAP2 POP PUSH32 0x4661696C656420746F2073656E64204574686572000000000000000000000000 PUSH1 0x0 DUP4 ADD MSTORE PUSH1 0x20 DUP3 ADD SWAP1 POP SWAP2 SWAP1 POP JUMP JUMPDEST PUSH1 0x0 PUSH2 0x21C4 PUSH1 0x38 DUP4 PUSH2 0x26E0 JUMP JUMPDEST SWAP2 POP PUSH32 0x4F6E6C7920746865206D616E61676572206F66207468652067616D626C652063 PUSH1 0x0 DUP4 ADD MSTORE PUSH32 0x616E206578656375746520746869732066756E6374696F6E0000000000000000 PUSH1 0x20 DUP4 ADD MSTORE PUSH1 0x40 DUP3 ADD SWAP1 POP SWAP2 SWAP1 POP JUMP JUMPDEST PUSH1 0x0 PUSH2 0x222A PUSH1 0x36 DUP4 PUSH2 0x26E0 JUMP JUMPDEST SWAP2 POP PUSH32 0x4F6E6C7920746865206F776E6572206F66207468652067616D626C652063616E PUSH1 0x0 DUP4 ADD MSTORE PUSH32 0x206578656375746520746869732066756E6374696F6E00000000000000000000 PUSH1 0x20 DUP4 ADD MSTORE PUSH1 0x40 DUP3 ADD SWAP1 POP SWAP2 SWAP1 POP JUMP JUMPDEST PUSH1 0x0 PUSH2 0x2290 PUSH1 0x1C DUP4 PUSH2 0x26E0 JUMP JUMPDEST SWAP2 POP PUSH32 0x596F75206D7573742073656C65637420612076616C6964207465616D00000000 PUSH1 0x0 DUP4 ADD MSTORE PUSH1 0x20 DUP3 ADD SWAP1 POP SWAP2 SWAP1 POP JUMP JUMPDEST PUSH1 0x0 PUSH2 0x22D0 PUSH1 0x0 DUP4 PUSH2 0x26C4 JUMP JUMPDEST SWAP2 POP PUSH1 0x0 DUP3 ADD SWAP1 POP SWAP2 SWAP1 POP JUMP JUMPDEST PUSH1 0x0 PUSH2 0x22EA PUSH1 0x25 DUP4 PUSH2 0x26E0 JUMP JUMPDEST SWAP2 POP PUSH32 0x4D696E696D756D20616D6F756E7420746F2067616D626C6520697320302E3030 PUSH1 0x0 DUP4 ADD MSTORE PUSH32 0x3220657468000000000000000000000000000000000000000000000000000000 PUSH1 0x20 DUP4 ADD MSTORE PUSH1 0x40 DUP3 ADD SWAP1 POP SWAP2 SWAP1 POP JUMP JUMPDEST PUSH1 0x0 PUSH1 0x60 DUP4 ADD PUSH1 0x0 DUP4 ADD MLOAD PUSH2 0x235B PUSH1 0x0 DUP7 ADD DUP3 PUSH2 0x1E5D JUMP JUMPDEST POP PUSH1 0x20 DUP4 ADD MLOAD DUP5 DUP3 SUB PUSH1 0x20 DUP7 ADD MSTORE PUSH2 0x2373 DUP3 DUP3 PUSH2 0x1F60 JUMP JUMPDEST SWAP2 POP POP PUSH1 0x40 DUP4 ADD MLOAD PUSH2 0x2388 PUSH1 0x40 DUP7 ADD DUP3 PUSH2 0x2393 JUMP JUMPDEST POP DUP1 SWAP2 POP POP SWAP3 SWAP2 POP POP JUMP JUMPDEST PUSH2 0x239C DUP2 PUSH2 0x282D JUMP JUMPDEST DUP3 MSTORE POP POP JUMP JUMPDEST PUSH2 0x23AB DUP2 PUSH2 0x282D JUMP JUMPDEST DUP3 MSTORE POP POP JUMP JUMPDEST PUSH1 0x0 PUSH2 0x23BE DUP3 DUP5 DUP7 PUSH2 0x1F3B JUMP JUMPDEST SWAP2 POP DUP2 SWAP1 POP SWAP4 SWAP3 POP POP POP JUMP JUMPDEST PUSH1 0x0 PUSH2 0x23D6 DUP3 DUP5 PUSH2 0x2052 JUMP JUMPDEST SWAP2 POP DUP2 SWAP1 POP SWAP3 SWAP2 POP POP JUMP JUMPDEST PUSH1 0x0 PUSH2 0x23EC DUP3 PUSH2 0x22C3 JUMP JUMPDEST SWAP2 POP DUP2 SWAP1 POP SWAP2 SWAP1 POP JUMP JUMPDEST PUSH1 0x0 PUSH1 0x20 DUP3 ADD SWAP1 POP PUSH2 0x240B PUSH1 0x0 DUP4 ADD DUP5 PUSH2 0x1E7B JUMP JUMPDEST SWAP3 SWAP2 POP POP JUMP JUMPDEST PUSH1 0x0 PUSH1 0x20 DUP3 ADD SWAP1 POP PUSH2 0x2426 PUSH1 0x0 DUP4 ADD DUP5 PUSH2 0x1E6C JUMP JUMPDEST SWAP3 SWAP2 POP POP JUMP JUMPDEST PUSH1 0x0 PUSH1 0x60 DUP3 ADD SWAP1 POP PUSH2 0x2441 PUSH1 0x0 DUP4 ADD DUP7 PUSH2 0x1E6C JUMP JUMPDEST DUP2 DUP2 SUB PUSH1 0x20 DUP4 ADD MSTORE PUSH2 0x2453 DUP2 DUP6 PUSH2 0x1F99 JUMP JUMPDEST SWAP1 POP PUSH2 0x2462 PUSH1 0x40 DUP4 ADD DUP5 PUSH2 0x23A2 JUMP JUMPDEST SWAP5 SWAP4 POP POP POP POP JUMP JUMPDEST PUSH1 0x0 PUSH1 0x20 DUP3 ADD SWAP1 POP DUP2 DUP2 SUB PUSH1 0x0 DUP4 ADD MSTORE PUSH2 0x2484 DUP2 DUP5 PUSH2 0x1E8A JUMP JUMPDEST SWAP1 POP SWAP3 SWAP2 POP POP JUMP JUMPDEST PUSH1 0x0 PUSH1 0x20 DUP3 ADD SWAP1 POP PUSH2 0x24A1 PUSH1 0x0 DUP4 ADD DUP5 PUSH2 0x1EFF JUMP JUMPDEST SWAP3 SWAP2 POP POP JUMP JUMPDEST PUSH1 0x0 PUSH1 0x20 DUP3 ADD SWAP1 POP DUP2 DUP2 SUB PUSH1 0x0 DUP4 ADD MSTORE PUSH2 0x24C2 DUP2 DUP5 DUP7 PUSH2 0x1F0E JUMP JUMPDEST SWAP1 POP SWAP4 SWAP3 POP POP POP JUMP JUMPDEST PUSH1 0x0 PUSH1 0x20 DUP3 ADD SWAP1 POP DUP2 DUP2 SUB PUSH1 0x0 DUP4 ADD MSTORE PUSH2 0x24E5 DUP2 DUP5 PUSH2 0x1F99 JUMP JUMPDEST SWAP1 POP SWAP3 SWAP2 POP POP JUMP JUMPDEST PUSH1 0x0 PUSH1 0x20 DUP3 ADD SWAP1 POP DUP2 DUP2 SUB PUSH1 0x0 DUP4 ADD MSTORE PUSH2 0x2507 DUP2 DUP5 PUSH2 0x1FD2 JUMP JUMPDEST SWAP1 POP SWAP3 SWAP2 POP POP JUMP JUMPDEST PUSH1 0x0 PUSH1 0x20 DUP3 ADD SWAP1 POP DUP2 DUP2 SUB PUSH1 0x0 DUP4 ADD MSTORE PUSH2 0x2528 DUP2 PUSH2 0x20D1 JUMP JUMPDEST SWAP1 POP SWAP2 SWAP1 POP JUMP JUMPDEST PUSH1 0x0 PUSH1 0x20 DUP3 ADD SWAP1 POP DUP2 DUP2 SUB PUSH1 0x0 DUP4 ADD MSTORE PUSH2 0x2548 DUP2 PUSH2 0x2111 JUMP JUMPDEST SWAP1 POP SWAP2 SWAP1 POP JUMP JUMPDEST PUSH1 0x0 PUSH1 0x20 DUP3 ADD SWAP1 POP DUP2 DUP2 SUB PUSH1 0x0 DUP4 ADD MSTORE PUSH2 0x2568 DUP2 PUSH2 0x2177 JUMP JUMPDEST SWAP1 POP SWAP2 SWAP1 POP JUMP JUMPDEST PUSH1 0x0 PUSH1 0x20 DUP3 ADD SWAP1 POP DUP2 DUP2 SUB PUSH1 0x0 DUP4 ADD MSTORE PUSH2 0x2588 DUP2 PUSH2 0x21B7 JUMP JUMPDEST SWAP1 POP SWAP2 SWAP1 POP JUMP JUMPDEST PUSH1 0x0 PUSH1 0x20 DUP3 ADD SWAP1 POP DUP2 DUP2 SUB PUSH1 0x0 DUP4 ADD MSTORE PUSH2 0x25A8 DUP2 PUSH2 0x221D JUMP JUMPDEST SWAP1 POP SWAP2 SWAP1 POP JUMP JUMPDEST PUSH1 0x0 PUSH1 0x20 DUP3 ADD SWAP1 POP DUP2 DUP2 SUB PUSH1 0x0 DUP4 ADD MSTORE PUSH2 0x25C8 DUP2 PUSH2 0x2283 JUMP JUMPDEST SWAP1 POP SWAP2 SWAP1 POP JUMP JUMPDEST PUSH1 0x0 PUSH1 0x20 DUP3 ADD SWAP1 POP DUP2 DUP2 SUB PUSH1 0x0 DUP4 ADD MSTORE PUSH2 0x25E8 DUP2 PUSH2 0x22DD JUMP JUMPDEST SWAP1 POP SWAP2 SWAP1 POP JUMP JUMPDEST PUSH1 0x0 PUSH1 0x20 DUP3 ADD SWAP1 POP PUSH2 0x2604 PUSH1 0x0 DUP4 ADD DUP5 PUSH2 0x23A2 JUMP JUMPDEST SWAP3 SWAP2 POP POP JUMP JUMPDEST PUSH1 0x0 PUSH1 0x40 MLOAD SWAP1 POP DUP2 DUP2 ADD DUP2 DUP2 LT PUSH8 0xFFFFFFFFFFFFFFFF DUP3 GT OR ISZERO PUSH2 0x2631 JUMPI PUSH2 0x2630 PUSH2 0x2981 JUMP JUMPDEST JUMPDEST DUP1 PUSH1 0x40 MSTORE POP SWAP2 SWAP1 POP JUMP JUMPDEST PUSH1 0x0 PUSH8 0xFFFFFFFFFFFFFFFF DUP3 GT ISZERO PUSH2 0x2656 JUMPI PUSH2 0x2655 PUSH2 0x2981 JUMP JUMPDEST JUMPDEST PUSH1 0x1F NOT PUSH1 0x1F DUP4 ADD AND SWAP1 POP PUSH1 0x20 DUP2 ADD SWAP1 POP SWAP2 SWAP1 POP JUMP JUMPDEST PUSH1 0x0 DUP2 SWAP1 POP PUSH1 0x20 DUP3 ADD SWAP1 POP SWAP2 SWAP1 POP JUMP JUMPDEST PUSH1 0x0 DUP2 SWAP1 POP DUP2 PUSH1 0x0 MSTORE PUSH1 0x20 PUSH1 0x0 KECCAK256 SWAP1 POP SWAP2 SWAP1 POP JUMP JUMPDEST PUSH1 0x0 DUP2 MLOAD SWAP1 POP SWAP2 SWAP1 POP JUMP JUMPDEST PUSH1 0x0 DUP2 MLOAD SWAP1 POP SWAP2 SWAP1 POP JUMP JUMPDEST PUSH1 0x0 PUSH1 0x20 DUP3 ADD SWAP1 POP SWAP2 SWAP1 POP JUMP JUMPDEST PUSH1 0x0 DUP3 DUP3 MSTORE PUSH1 0x20 DUP3 ADD SWAP1 POP SWAP3 SWAP2 POP POP JUMP JUMPDEST PUSH1 0x0 DUP2 SWAP1 POP SWAP3 SWAP2 POP POP JUMP JUMPDEST PUSH1 0x0 DUP3 DUP3 MSTORE PUSH1 0x20 DUP3 ADD SWAP1 POP SWAP3 SWAP2 POP POP JUMP JUMPDEST PUSH1 0x0 DUP3 DUP3 MSTORE PUSH1 0x20 DUP3 ADD SWAP1 POP SWAP3 SWAP2 POP POP JUMP JUMPDEST PUSH1 0x0 DUP2 SWAP1 POP SWAP3 SWAP2 POP POP JUMP JUMPDEST PUSH1 0x0 PUSH2 0x2707 DUP3 PUSH2 0x282D JUMP JUMPDEST SWAP2 POP PUSH2 0x2712 DUP4 PUSH2 0x282D JUMP JUMPDEST SWAP3 POP DUP3 PUSH32 0xFFFFFFFFFFFFFFFFFFFFFFFFFFFFFFFFFFFFFFFFFFFFFFFFFFFFFFFFFFFFFFFF SUB DUP3 GT ISZERO PUSH2 0x2747 JUMPI PUSH2 0x2746 PUSH2 0x28F4 JUMP JUMPDEST JUMPDEST DUP3 DUP3 ADD SWAP1 POP SWAP3 SWAP2 POP POP JUMP JUMPDEST PUSH1 0x0 PUSH2 0x275D DUP3 PUSH2 0x282D JUMP JUMPDEST SWAP2 POP PUSH2 0x2768 DUP4 PUSH2 0x282D JUMP JUMPDEST SWAP3 POP DUP3 PUSH2 0x2778 JUMPI PUSH2 0x2777 PUSH2 0x2923 JUMP JUMPDEST JUMPDEST DUP3 DUP3 DIV SWAP1 POP SWAP3 SWAP2 POP POP JUMP JUMPDEST PUSH1 0x0 PUSH2 0x278E DUP3 PUSH2 0x282D JUMP JUMPDEST SWAP2 POP PUSH2 0x2799 DUP4 PUSH2 0x282D JUMP JUMPDEST SWAP3 POP DUP2 PUSH32 0xFFFFFFFFFFFFFFFFFFFFFFFFFFFFFFFFFFFFFFFFFFFFFFFFFFFFFFFFFFFFFFFF DIV DUP4 GT DUP3 ISZERO ISZERO AND ISZERO PUSH2 0x27D2 JUMPI PUSH2 0x27D1 PUSH2 0x28F4 JUMP JUMPDEST JUMPDEST DUP3 DUP3 MUL SWAP1 POP SWAP3 SWAP2 POP POP JUMP JUMPDEST PUSH1 0x0 PUSH2 0x27E8 DUP3 PUSH2 0x280D JUMP JUMPDEST SWAP1 POP SWAP2 SWAP1 POP JUMP JUMPDEST PUSH1 0x0 PUSH2 0x27FA DUP3 PUSH2 0x280D JUMP JUMPDEST SWAP1 POP SWAP2 SWAP1 POP JUMP JUMPDEST PUSH1 0x0 DUP2 ISZERO ISZERO SWAP1 POP SWAP2 SWAP1 POP JUMP JUMPDEST PUSH1 0x0 PUSH20 0xFFFFFFFFFFFFFFFFFFFFFFFFFFFFFFFFFFFFFFFF DUP3 AND SWAP1 POP SWAP2 SWAP1 POP JUMP JUMPDEST PUSH1 0x0 DUP2 SWAP1 POP SWAP2 SWAP1 POP JUMP JUMPDEST DUP3 DUP2 DUP4 CALLDATACOPY PUSH1 0x0 DUP4 DUP4 ADD MSTORE POP POP POP JUMP JUMPDEST PUSH1 0x0 JUMPDEST DUP4 DUP2 LT ISZERO PUSH2 0x2864 JUMPI DUP1 DUP3 ADD MLOAD DUP2 DUP5 ADD MSTORE PUSH1 0x20 DUP2 ADD SWAP1 POP PUSH2 0x2849 JUMP JUMPDEST DUP4 DUP2 GT ISZERO PUSH2 0x2873 JUMPI PUSH1 0x0 DUP5 DUP5 ADD MSTORE JUMPDEST POP POP POP POP JUMP JUMPDEST PUSH1 0x0 PUSH1 0x2 DUP3 DIV SWAP1 POP PUSH1 0x1 DUP3 AND DUP1 PUSH2 0x2891 JUMPI PUSH1 0x7F DUP3 AND SWAP2 POP JUMPDEST PUSH1 0x20 DUP3 LT DUP2 EQ ISZERO PUSH2 0x28A5 JUMPI PUSH2 0x28A4 PUSH2 0x2952 JUMP JUMPDEST JUMPDEST POP SWAP2 SWAP1 POP JUMP JUMPDEST PUSH1 0x0 PUSH2 0x28B6 DUP3 PUSH2 0x282D JUMP JUMPDEST SWAP2 POP PUSH32 0xFFFFFFFFFFFFFFFFFFFFFFFFFFFFFFFFFFFFFFFFFFFFFFFFFFFFFFFFFFFFFFFF DUP3 EQ ISZERO PUSH2 0x28E9 JUMPI PUSH2 0x28E8 PUSH2 0x28F4 JUMP JUMPDEST JUMPDEST PUSH1 0x1 DUP3 ADD SWAP1 POP SWAP2 SWAP1 POP JUMP JUMPDEST PUSH32 0x4E487B7100000000000000000000000000000000000000000000000000000000 PUSH1 0x0 MSTORE PUSH1 0x11 PUSH1 0x4 MSTORE PUSH1 0x24 PUSH1 0x0 REVERT JUMPDEST PUSH32 0x4E487B7100000000000000000000000000000000000000000000000000000000 PUSH1 0x0 MSTORE PUSH1 0x12 PUSH1 0x4 MSTORE PUSH1 0x24 PUSH1 0x0 REVERT JUMPDEST PUSH32 0x4E487B7100000000000000000000000000000000000000000000000000000000 PUSH1 0x0 MSTORE PUSH1 0x22 PUSH1 0x4 MSTORE PUSH1 0x24 PUSH1 0x0 REVERT JUMPDEST PUSH32 0x4E487B7100000000000000000000000000000000000000000000000000000000 PUSH1 0x0 MSTORE PUSH1 0x41 PUSH1 0x4 MSTORE PUSH1 0x24 PUSH1 0x0 REVERT JUMPDEST PUSH1 0x0 PUSH1 0x1F NOT PUSH1 0x1F DUP4 ADD AND SWAP1 POP SWAP2 SWAP1 POP JUMP JUMPDEST PUSH2 0x29CA DUP2 PUSH2 0x27EF JUMP JUMPDEST DUP2 EQ PUSH2 0x29D5 JUMPI PUSH1 0x0 DUP1 REVERT JUMPDEST POP JUMP JUMPDEST PUSH2 0x29E1 DUP2 PUSH2 0x282D JUMP JUMPDEST DUP2 EQ PUSH2 0x29EC JUMPI PUSH1 0x0 DUP1 REVERT JUMPDEST POP JUMP INVALID LOG2 PUSH5 0x6970667358 0x22 SLT KECCAK256 0xDB CALLDATALOAD 0xC4 MSTORE 0xE PUSH12 0x412A27D89FE14F0834B708BB PUSH24 0x94B2AE7B48AAFECFF8B8887ACF64736F6C63430008000033 LOG2 PUSH5 0x6970667358 0x22 SLT KECCAK256 SWAP11 ORIGIN 0xCA PUSH15 0x7C51A35877B4480F75DDBBE9836D00 0xDC 0xAB 0x1F 0xBA 0xA6 INVALID CHAINID CALLDATALOAD SLOAD JUMP 0xB0 SWAP7 PUSH22 0x64736F6C634300080000330000000000000000000000 "},"gasEstimates":{"creation":{"codeDepositCost":"3441600","executionCost":"infinite","totalCost":"infinite"},"external":{"createGambleGame(string,string,string,string,string)":"infinite","deployedGambleGames(uint256)":"2465","getContractBalance()":"384","getDeployedGambleGames()":"infinite","owner()":"1214","renounceOwnership()":"21977","transferOwnership(address)":"22303","version()":"infinite"},"internal":{"_transferOwnership(address payable)":"20878"}},"methodIdentifiers":{"createGambleGame(string,string,string,string,string)":"1b046afe","deployedGambleGames(uint256)":"fdf13c8e","getContractBalance()":"6f9fb98a","getDeployedGambleGames()":"d78d0f9f","owner()":"8da5cb5b","renounceOwnership()":"715018a6","transferOwnership(address)":"f2fde38b","version()":"54fd4d50"}},"storageLayout":{"storage":[{"astId":5,"contract":"GambleGame.sol:GambleGameFactory","label":"deployedGambleGames","offset":0,"slot":"0","type":"t_array(t_contract(GambleGame)765)dyn_storage"},{"astId":7,"contract":"GambleGame.sol:GambleGameFactory","label":"owner","offset":0,"slot":"1","type":"t_address_payable"},{"astId":9,"contract":"GambleGame.sol:GambleGameFactory","label":"version","offset":0,"slot":"2","type":"t_string_storage"}],"types":{"t_address_payable":{"encoding":"inplace","label":"address payable","numberOfBytes":"20"},"t_array(t_contract(GambleGame)765)dyn_storage":{"base":"t_contract(GambleGame)765","encoding":"dynamic_array","label":"contract GambleGame[]","numberOfBytes":"32"},"t_contract(GambleGame)765":{"encoding":"inplace","label":"contract GambleGame","numberOfBytes":"20"},"t_string_storage":{"encoding":"bytes","label":"string","numberOfBytes":"32"}}},"userdoc":{"kind":"user","methods":{},"version":1}}